:020000040800F2
:10000000E8380020ED01000889380008193500089B
:1000100085380008D9050008C54800080000000020
:10002000000000000000000000000000813900080E
:10003000010600080000000091380008A5390008FA
:10004000070200080702000807020008070200086C
:10005000070200080702000807020008070200085C
:10006000070200080702000807020008E905000867
:10007000070200080702000807020008070200083C
:10008000070200080702000807020008070200082C
:1000900007020008110600081D06000807020008F4
:1000A000070200080702000807020008070200080C
:1000B00007020008070200080702000807020008FC
:1000C00007020008070200080702000807020008EC
:1000D00007020008B94800080702000807020008E4
:1000E00007020008070200080702000807020008CC
:1000F00007020008070200080702000807020008BC
:100100000702000807020008D939000807020008A2
:100110000702000807020008E53900080702000886
:10012000070200080702000807020008070200088B
:10013000070200080702000807020008070200087B
:10014000070200080702000807020008070200086B
:10015000070200080702000807020008070200085B
:10016000070200080702000807020008070200084B
:10017000070200080702000807020008070200083B
:10018000070200080702000807020008070200082B
:1001900007020008000000002906000835060008D4
:1001A000070200080702000807020008070200080B
:1001B00007020008070200080702000807020008FB
:1001C00007020008070200080702000807020008EB
:1001D0000702000807020008DFF80CD000F0E4F97D
:1001E00000480047B9550008E83800200648804715
:1001F00006480047FEE7FEE7FEE7FEE7FEE7FEE70C
:10020000FEE7FEE7FEE7FEE7C5390008D901000872
:100210002DE9F05F0546002092469B46884606463B
:10022000814640241BE0284641464746224600F0CE
:1002300017F953465A46C01A914110D31146184631
:10024000224600F0FEF82D1A67EB01084F462246C1
:100250000120002100F0F5F817EB00094E41201EA7
:10026000A4F10104DFDC484631462A464346BDE896
:10027000F09F40EA01039B0703D009E008C9121F61
:1002800008C0042AFAD203E011F8013B00F8013B50
:10029000521EF9D27047D2B201E000F8012B491E7C
:1002A000FBD270470022F6E710B513460A46044613
:1002B0001946FFF7F0FF204610BD2DE9FE4F81EAF9
:1002C000030404F0004421F0004100944FF0000BBF
:1002D00023F0004350EA01045ED052EA03045BD0ED
:1002E000C3F30A54C1F30A552C44A4F2F334019425
:1002F000A0FB0254C1F3130141F48011C3F31303B3
:1003000043F4801301FB024400FB034E840A970A66
:1003100044EA815447EA8357A4FB076802958D0A93
:1003200005FB07854FEA932C04FB0C542705029D1F
:100330004FEA065847EA1637B5EB08056EEB070C8F
:10034000870E920E47EA811742EA8312A7FB020149
:10035000B6EB0B0164EB00042B0D43EA0C335E1883
:1003600044EB1C50DA465146E7FB0201C5F3130487
:100370004FEA0B3343EA14534FEA0432019C43EA39
:100380000603A4F10C040294009CCDE900B400F033
:10039000BDF803B0BDE8F08F00200146F9E70EB5C7
:1003A00040F2334102910021CDE900110A460B468B
:1003B00000F0ACF803B000BD00F0004230F00040A7
:1003C0000AD0C10D01F56071C0F3160042EA015177
:1003D000C20840071143704700200146704701F0F2
:1003E000004330B421F0004150EA010206D00A0D6A
:1003F000A2F56072C1F31301002A02DC30BC0020B8
:100400007047440F44EAC104C100E01830BC00EB5F
:10041000C25000F035B830B50B460146002020220E
:10042000012409E021FA02F59D4205D303FA02F501
:10043000491B04FA02F52844151EA2F10102F1DC61
:1004400030BD202A04DB203A00FA02F10020704778
:100450009140C2F1200320FA03F319439040704702
:10046000202A04DB203A21FA02F00021704721FA09
:1004700002F3D040C2F12002914008431946704770
:100480000029A8BF7047401C490008BF20F00100A8
:10049000704710B4B0FA80FC00FA0CF050EA010486
:1004A00004BF10BC704749B1CCF1200421FA04F418
:1004B00011FA0CF118BF012121430843A3EB0C01F1
:1004C000CB1D4FEA00614FEA102042BF002010BC54
:1004D000704700EBC35010440029A4BF10BC704704
:1004E000401C490008BF20F0010010BC704710B547
:1004F000141E73F1000408DA401C41F10001921847
:100500005B411A4301D120F0010010BD2DE9F04DEF
:1005100092469B4611B1B1FA81F202E0B0FA80F244
:1005200020329046FFF78DFF04460F4640EA0A004E
:1005300041EA0B0153465A46084313D0114653EA89
:10054000010019D0C8F140025046FFF789FF054667
:100550000E46504659464246FFF773FF084305D002
:10056000012004E020463946BDE8F08D0020054317
:1005700046EAE0762C4337430A986305E40AA0EB89
:1005800008000022FD0A44EA47540A3002D5002040
:100590000146E9E7010510196941DDE9084500193F
:1005A0006941BDE8F04DA2E71CB509480090094833
:1005B00001900546009C06E0E06840F0010394E8E5
:1005C000070098471034AC42F6D3FFF709FE00004D
:1005D000D0830008F0830008FEE7000080B500BF6C
:1005E000012005F033F8FBE741F25C60C2F2000045
:1005F00000F09EB880B500BF012005F027F8FBE7AA
:1006000070470000EFF3108072B600BFFEE70000F5
:1006100041F2BC60C2F2000000F024BC41F2BC60B8
:10062000C2F2000000F01EBC41F22070C2F20000D5
:1006300000F018BC41F22070C2F2000000F012BCC1
:10064000014690F82500022828D180B50868D1E934
:1006500010CE8A6C036823F00E030360136823F442
:1006600080731360026822F0010202600EF01F0026
:10067000012202FA00F0CCF80400D1E91320506006
:10068000486D30B1026822F480720260D1E916022E
:1006900042600020BDE8804003E000BF0420C86342
:1006A0000120012281F82520002281F824207047B2
:1006B00090F82510022931D180B50168D0E910CE1B
:1006C000826C0B6823F00E030B600B6823F00103B0
:1006D0000B60116821F4807111600EF01F0201217E
:1006E00001FA02F2CCF80420D0E913325A60426DCC
:1006F00032B1136823F480731360D0E9162353607A
:1007000080F82510826B002180F824100AB19047F0
:100710000021BDE880400846704700BF0421C16346
:100720000121002280F8251080F824200846704717
:10073000B0B5D0E910C30268DCF8001003F01F0365
:100740000424D2F800E09C400C4218BF1EF00405BF
:1007500022D102249C400C4218BF1EF0020529D170
:10076000D940090724D51EF0080108BFB0BD1168A3
:1007700021F00E011160012101FA03F2CCF80420EE
:10078000C16380F82510416B002280F8242079B1E4
:10079000BDE8B040084700BF1168890603D411685E
:1007A00021F004011160CCF80440016B0029EFD165
:1007B000B0BD00BF1168890606D4116821F00A0196
:1007C0001160012180F82510CCF80440C16A002294
:1007D000002980F82420DBD1EAE7000000284FF050
:1007E000010100F08E802DE9F04740F2000CC4F2C8
:1007F000020C03684FF6F8320CF5816ECBF6FD72F1
:10080000734538BF02F580624CF6CD441A44CCF6ED
:10081000CC44A2FB042803F0FC02A2F10802A2FBD4
:1008200004290CF580656FF00304D0E90262D0F86A
:1008300010A03CBF0025C4F2020504EA9804C0E9F8
:100840001054022580F825501D6847F6F07725EAF8
:1008500007073A43476942EA0A0285693A43C7698A
:100860002A43056A3A432A4332431A600CF502626E
:10087000734538BF0CF50062A3180CF50862C2641A
:10088000C9F3041240F6840C01FA02F2B6F5804F67
:10089000C4F2020C8364026506D100214160196034
:1008A000CCF800201EE000BF41685FFA81FE0139EC
:1008B00003294FF00001C3F800E0CCF8002011D864
:1008C000AEF101020CEB820747F87C1F02F01F011A
:1008D000012202FA01F30CF1BC023946CCF8C03017
:1008E00002E000BF0022002300F1540C8CE80E004F
:1008F00000210122C16380F8252080F82410BDE882
:10090000F04708467047000090F824C0BCF1010F82
:1009100047D04FF0010C80F824C090F825C0BCF1FE
:10092000010F3BD12DE9F0414FF0020C80F825C0BA
:100930004FF0000CC0F83CC0D0F800C000F14C0EE5
:100940009EE83040DCF80060BEF1000F26F00106A2
:10095000CCF8006065601CBFD0E916456560D0E941
:100960001056012706F01F06846807FA06F6D0F82D
:1009700030806E60CCF804300B46102C04BF134658
:100980000A46CCF80830CCF80C20DCF80010B8F19E
:10099000000F09D041F00E010EE000BF002180F8E9
:1009A00024100220704700BF21F00401CCF8001091
:1009B000DCF8001041F00A01CCF80010806C0168EE
:1009C000C90303D5016841F480710160BEF1000FD5
:1009D00005D0DEF8000040F48070CEF80000DCF8AE
:1009E000000040F00100CCF800000020BDE8F081DC
:1009F000B0B5044600F020FE054640F20400C2F205
:100A000000004068611C18BF044400BF00F014FEE1
:100A1000401BA042FAD3B0BD10B590F85C30013B4A
:100A2000012B69D800685FEA417ED0F858C00CF00D
:100A3000010300D01BB311F0380F02D01CF00204E8
:100A40001DD011F4E07F02D01CF0040417D011F483
:100A5000F05F02D01CF0080411D011F4604F02D0F6
:100A60001CF010040BD011F4403F02D01CF0200405
:100A700005D011F47C0F06D01CF0400403D1C46DE6
:100A800044F00104C465BEF1000F18BF002B3BD138
:100A900011F0380F18BF1CF0020335D111F4E07FBC
:100AA00018BF1CF004032FD111F4F05F18BF1CF025
:100AB000080329D111F4604F18BF1CF0100323D193
:100AC00011F4403F18BF1CF020031DD111F47C0F1E
:100AD00018BF1CF0400317D10B061BD4CB0504D55F
:100AE000D0F8E0301A43C0F8E02000F154020020B2
:100AF00013681943116010BD00F16002012002214A
:100B000013681943116010BDC36D43F00203C36540
:100B10000B06E3D5D0F8DC301343C0F8DC30CB054E
:100B2000DED4E2E790F85C30022B17D12DE9F041DA
:100B30000668D6F8C4309B0216D4D6F8C430D1E982
:100B40000075D1F808E00C69C3F3014CA5B144EA83
:100B5000070343EA0E0343F0804E11E0016E41F0BB
:100B60000801016601207047016E41F400710166C1
:100B70000120BDE8F08100BF44EA87434EEA030E3E
:100B8000D1E90757D1E9058445EA0765CB682C43CD
:100B9000456D44EA08040CEBCC0744EA034405EB3A
:100BA000C70345F837E05C60CF6887B148F2C825D5
:100BB000083303320024C0F6000500BF171957F8A8
:100BC000037C1F51CF680434EF5DBC42F6D3012192
:100BD00001FA0CF1C6F8CC1081650020BDE8F08167
:100BE00090F85C20013A012A14D880B50A68BAB19D
:100BF00001F1040E9EE80450D1E90431406C43EA4F
:100C00004E7E41EA8C7100EBC20340F832E059603D
:100C1000002080BD016E41F0020101660120704795
:100C2000D1E90323D1E901CED206496942EA8E72A5
:100C300042EA0342006C114340F82C10002080BDB2
:100C400090F85CC0BCF1010F14D180B5006892002F
:100C5000D0F880C0DDF808E042EA011141EA430122
:100C60002CF03F0C41EA0E0141EA0C01C0F8801063
:100C7000002080BD016E41F0040101660120704733
:100C80007047000080B5090300D480BD006846F6B7
:100C90000042C4F200024FF400219042016517D0D7
:100CA00046F60001C4F2000188421BD046F2004122
:100CB000C4F20001884218BF80BD02F053FC41F22B
:100CC000BC60C2F20000BDE8804004F079BB00BF08
:100CD00002F09CFC41F28470C2F20000BDE880404A
:100CE00004F06EBB02F068FC41F22070C2F200001A
:100CF000BDE8804004F064BB2DE9F04390F85C70DF
:100D0000022F1BD1D0F800C040291FD1DCF8907011
:100D10003F0700F09D80DCF89070FF0146BFDCF8D3
:100D20008070C7F340270027DCF89060C6F30126E7
:100D300006EB070C00F148071DE000BF016E41F013
:100D4000080101660120BDE8F08300BFDCF898705F
:100D50003F077DD0DCF89870FF0146BFDCF880705B
:100D6000C7F300270027DCF89860C6F3012606EBDE
:100D7000070C00F14C073F680CEBCC0657F83650D7
:100D800007EBC60E15F08045556057F8365025F034
:100D9000604408BFC5F38A44146057F8365005F024
:100DA0000055956057F8364004F000441461BEF8D1
:100DB0000440D461BEF8064014F00F04D460DEF89D
:100DC000044004F480145461DEF8044004F4001478
:100DD00094619EF8074004F07F041462DEF804403A
:100DE0004FEAD474546228D048F2C8280024C0F6D0
:100DF000000800BF0EEB0406377A651C1F55D76844
:100E000018F80770BD4218D2757A1F197D70D56821
:100E100018F80590A51C4D450FD2B57ABD70D56860
:100E200018F80590E51C4D4507D2F57A0434FD709D
:100E3000D56818F80550AC42DCD3006840290CBFD7
:100E4000C0F894C0C0F89CC00020BDE8F08300BF8B
:100E5000016E41F4807101660120BDE8F08300005D
:100E6000704700002DE9F04F85B004460068016D21
:100E7000426DD0F850B0456D076D466D036D01EAC7
:100E800002080493436D0393036D0293436D019332
:100E9000D0F854A0D0F850905FEA496307D51AF013
:100EA000400104D0402101652046FFF7D9FF0BEA3D
:100EB000050B5FEAC95008F4E0550ED51AF48070AE
:100EC0000BD02068D0F8D810D0F8E02011404FF4B3
:100ED00080720265204600F0D1FA37400BF0070619
:100EE0002DB1206829460565204600F0CBFA07F0B1
:100EF00038052EB1206831460665204600F098FA84
:100F00002DB1206829460565204600F097FA5FEA72
:100F1000895009D51AF4007006D020684FF400718A
:100F20000165204600F0B0FA5FEA09600DD51AF0BD
:100F300080000AD02068D0F8D410D0F8DC2011400E
:100F400080220265204600F09BFA5FEA894009D5BD
:100F50001AF4005006D020684FF400510165204675
:100F600000F08AFA5FEA0940DDE9011000EA0105B4
:100F700009D51AF4004006D020684FF400410165FD
:100F8000204600F077FADDE9031008405FEA4941A6
:100F900005F460210AD51AF4804207D022684FF484
:100FA00080431365226E42F08002226600F47105D0
:100FB00021B1206801652046FFF764FE25B1206855
:100FC0000565206E28432066206E28B1204605B0B6
:100FD000BDE8F04FFFF754BE05B0BDE8F08F00004C
:100FE000002804BF0120704770B5044690F85C00EB
:100FF00028B9002084F85D00204600F021F920681F
:10100000816921F01001816100F016FB054600BFE7
:1010100020688169090705D500F00EFB401B0B28ED
:10102000F6D310E0816941F00101816100F004FB19
:10103000054600BF20688169C9070DD100F0FCFAA0
:10104000401B0B28F6D3206E032140F001002066E0
:10105000012084F85C1070BD826946F2004CC4F235
:10106000000C42F002026045826102D16268CCF855
:101070000021227C8369012A23F0400318BF4033FA
:101080008361627C8369012A23F4804308BF03F5EE
:1010900080438361A27C8369012A23F4805318BFB3
:1010A00003F5805383618569D4E902E325F4407533
:1010B00045EA0E058561856925F0A4058561056908
:1010C00025F0100505619BB1012B0DD0022B09D035
:1010D0008569032B45F080058561056945F010059C
:1010E000056105D1202300E0042385692B4383613A
:1010F00004F114052ACD226A5E1E6FF0FF0303EB94
:10110000052545EA4665013A2A430025CFF6FF75D5
:1011100005EB01411143BEF5407FC16110D1D4E917
:1011200009E2D4E90B61013A03EB06231A436FF09D
:101130000F0303EB0111114305EB0E421143C16094
:10114000D4E90D13E26BD0F8C0604AF25075324317
:10115000C0F8C0200CF580660CF58042B04204BF98
:101160004AF25072C4F200020CF50066C4F20005A7
:10117000B04208BF05F554722264D0F8806026F4AE
:10118000F81646EA0141C0F8801002F1700161646E
:10119000D0F8801021F0706141EA0361C0F880103E
:1011A00002F1B000A06402F5C470E06402F51870AA
:1011B000206502F51E70606502F55470002100BFC5
:1011C000C2E90011C2E90211C2E90411C2E9061123
:1011D000C2E90811C2E90A11C2E90C11C2E90E11F3
:1011E000C2E91011C2E91211C2E91411C2E91611C3
:1011F000C2E91811C2E91A11C2E91C11C2E91E1193
:10120000C2E92011C2E92211C2E92411C2E9261162
:10121000C2E92811C2E92A11C2E92C11C2E92E1132
:10122000C2E93011C2E93211C2F8D010D432824280
:10123000C6D300200121A065206684F85C1070BD33
:1012400010B59CB0044600201B90CDE91900CDE9F3
:10125000170002A85421FFF725F8206846F6004140
:10126000C4F20001884259D046F60001C4F20001E0
:10127000884200F08F8046F20041C4F200018842AB
:1012800040F086804FF4805002904FF00070109034
:1012900002A800F05DFB002818BFFFF7B3F940F289
:1012A0004C11C2F200010A6841F24C00C4F2020083
:1012B000531C0B6042B9C16841F00071C160C16844
:1012C00001F0007101910199016841F00101016093
:1012D000006817A900F00100019001984FF4C05078
:1012E0001790022018900020CDE9190009201B90CA
:1012F0004FF0904000F0CAF815200521002200F0C0
:101300004DFA152000F038FA16200521002200F0D1
:1013100045FA162000F030FA1CB010BD4FF4805092
:1013200002904FF00070109002A800F011FB00280E
:1013300018BFFFF767F940F24C11C2F200010A68CA
:1013400041F24C00C4F20200531C0B6042B9C16868
:1013500041F00071C160C16801F000710191019913
:10136000016841F001010160006817A900F0010067
:10137000019001984FF4014017900220189000202E
:10138000CDE919000B201B904FF0904000F07EF843
:101390001CB010BD4FF4805002904FF000701090C0
:1013A00002A800F0D5FA002818BFFFF72BF940F289
:1013B0004C11C2F200010A6841F24C00C4F2020072
:1013C000531C0B6042B9C16841F00071C160C16833
:1013D00001F0007101910199016841F00201016081
:1013E000006817A900F00200019001984FF44050E6
:1013F0001790022018900020CDE9190009201B90B9
:1014000040F20040C4F6000000F040F856200521EC
:10141000002200F0C3F9562000F0AEF95720052154
:10142000002200F0BBF9572000F0A6F91CB010BD57
:10143000C90714BF4021704704F03AB809074CBFF0
:101440004121704704F034B890F85C1001290BD1A9
:10145000022180F85C1001688A6922F001028A6129
:101460000021016608467047016E41F004010166E3
:10147000012070477047000070470000704700006F
:101480007047000070470000704700002DE9F04FE2
:1014900082B00D68002D00F0C58000F13847860548
:1014A00046EA972741F20046C4F60006062240F2BB
:1014B000004EB04208BF0522C4F2010E052F38BF0E
:1014C0003A464FF0000C012400270026009209E064
:1014D0000D68013635FA06F207F102070CF1040C2B
:1014E00000F0A08004FA06FB15EA0B08F0D0D1F852
:1014F00004A003230AF003056A1EBB40012A6FEA19
:1015000003090FD88268CB6802EA0902BB401A437C
:1015100082604268CAF3001322EA0B02B3401A4306
:10152000426003E0032D01D103251FE0C2688B68F0
:1015300002EA0902BB401A43022DC26016D16FF0C5
:10154000030202EA560202440CF01C050F23D2F8F3
:1015500020A003FA05FB0B692AEA0B0AAB4043EA19
:101560000A031362D1F804A00AF00305026805FA21
:1015700007F302EA09021A431AF4403F0260A7D0B7
:1015800041F26003C4F202031A684FF6084A42F0BF
:1015900001021A601A68CFF6FF7A02F00102019286
:1015A000019A26F00302724452F80A900CF00C05DE
:1015B0000F23009CAB4029EA030304FA05F52B43F3
:1015C00042F80A30DEF808204B6842EA080540F28B
:1015D0000C49DC0258BF22EA0805CEF80850C4F2D4
:1015E0000109D9F800209D0242EA080458BF22EA06
:1015F0000804C9F80040DEF804209D0342EA08040C
:1016000058BF22EA0804CEF80440DEF80020DB03CD
:1016100042EA080458BF22EA0804CEF80040012438
:1016200056E700BF02B0BDE8F08F00001823002A83
:1016300008BF2823C150704742F6EC50C2F20000A8
:101640000068704740F2040042F6EC51C2F200001C
:10165000C2F2000140680A68104408607047000048
:1016600080B5032000F0C6F80F2000F009F800282C
:101670001CBF012080BD00F05BF8002080BD000091
:10168000B0B586B041F25801C4F202010A680446BE
:1016900042F008020A60096801A801F008010191FE
:1016A0000199694600F046FC00F066FC4DF6836146
:1016B000C4F21B31A0FB01014FF0FF3000EB914160
:1016C00041F2E87040F60042C2F20000C4F20002AB
:1016D00040F2E7330025C0E90021C0E9025305616B
:1016E00000F0A2FF054618B1284606B0B0BD00BF05
:1016F00041F2E870C2F2000000F0EAFF054600285F
:10170000F2D1322000F038F80F2C0DD832202146CB
:101710000022002500F042F840F20400C2F200006E
:101720000460284606B0B0BD0125284606B0B0BD0D
:1017300080B582B041F25800C4F2020081680022F4
:1017400041F001018160816801F00101019101997D
:10175000016841F08051016000680F2100F0805065
:10176000009000986FF0010000F018F802B0BDE89A
:10177000804000F0E3B80000002848BF704700F048
:101780001F01012202FA01F11C2202EAD0004EF2EE
:101790000012CEF2000281507047000010B54EF6E4
:1017A0000C5CCEF2000CDCF80030C3F3022E8EF09D
:1017B0000704042C28BF0424BEF103034FF0FF3EAE
:1017C0000EFA04F438BF0023A14399400EFA03F344
:1017D0009A43114300F00F0200F160430901043AFB
:1017E00003F564436244002848BF02F10C031970FA
:1017F00010BD00004EF60C51CEF200010A684FF603
:10180000FF031A4060F30A2242F0806040F0FD704E
:1018100008607047B0F5007F42D0002840F080801B
:1018200047F21400C4F2000050F8141CC26E01F418
:10183000C06122F48072B1F5806FC2662ED150F87B
:10184000141C012262F34A2140F8141C40F20C01DE
:10185000C2F200010968322251434DF68362C4F29C
:101860001B32A1FB0212910C0268520511D54A1CD1
:101870000FD0026852050CD559B10268520508D53F
:10188000012906D00268520503D50229A1F10401FD
:10189000EAD10068400544BF03207047002070472C
:1018A00047F21400C4F2000050F8141CC26E01F498
:1018B000C06142F48072B1F5806FC266EED150F81B
:1018C000141C012262F34A2140F8141C40F20C015E
:1018D000C2F200010968322251434DF68362C4F21C
:1018E0001B32A1FB0212910C0268520511D54A1C51
:1018F0000FD0026852050CD559B10268520508D5BF
:10190000012906D00268520503D50229A1F104017C
:10191000EAD10068400544BF03207047BEE700BF1E
:1019200047F21400C4F2000050F8141C022262F3C3
:101930004A2140F8141C00207047000047F20800BC
:10194000C4F20000016841F480410160704700006A
:101950002DE9F04182B00446807841F28806000704
:10196000C4F2020602D400202FE000BF56F8300C6B
:101970005FEAC0080BD456F8300C40F0805046F8AF
:10198000300C56F8300C00F080500190019847F26E
:101990000007C4F20007386840F480703860FFF731
:1019A0004BFE05463868C00500F10C81FFF744FE88
:1019B000401B0228F6D90320B8F1000F05D456F8D1
:1019C000301C21F0805146F8301C2168CA0717D11D
:1019D0008A071DD44A0723D40A0729D4CA062FD45C
:1019E0008A0635D44A063BD40A0641D4CA0547D4F0
:1019F0008A034DD48A0553D44A0559D467E000BF01
:101A00003268636822F003021A4332608A07E1D524
:101A10003268A36822F00C021A4332604A07DBD511
:101A20003268E36822F030021A4332600A07D5D5E3
:101A30003268236922F0C0021A433260CA06CFD549
:101A40003268636922F440721A4332608A06C9D54B
:101A50003268A36922F440621A4332604A06C3D551
:101A60003268E36922F440521A4332600A06BDD557
:101A70003268236A22F440421A433260CA05B7D55D
:101A80003268636A22F440321A4332608A03B1D565
:101A90007269A36A22F003021A4372618A05ABD508
:101AA0003268E36A22F440221A4332604A050ED5B6
:101AB0003268236B22F440121A43B3F5801F326060
:101AC00005D156F87C2C42F4801246F87C2C0A058D
:101AD0000ED53268636B22F440021A43B3F5800FCF
:101AE000326005D156F87C2C42F4801246F87C2CEA
:101AF000CA040ED53268A36B22F040721A43B3F1C8
:101B0000807F326005D156F87C2C42F4801246F872
:101B10007C2C8A040ED53268E36B22F040621A43B3
:101B2000B3F1006F326005D156F87C2C42F480127C
:101B300046F87C2C4A040ED53268236C22F04062B1
:101B40001A43B3F1006F326005D156F87C2C42F491
:101B5000801246F87C2C0A040ED53268636C22F0A1
:101B600040521A43B3F1805F326005D156F87C2CA5
:101B700042F4803246F87C2CCA030ED53268A36C3E
:101B800022F040421A43B3F1804F326005D156F83B
:101B90007C2C42F4803246F87C2C49030ED57169C6
:101BA000E26C21F440111143B2F5001F716105D1BF
:101BB00056F87C1C41F4801146F87C1C02B0BDE84C
:101BC000F08100BFB06810F4407010D0216D8842E1
:101BD0000BD0B068B16820F4407041F48031B1603E
:101BE000B16821F48031B160B060C0070CD1B06839
:101BF000216D20F440700843B0600020B8F1000F60
:101C00003FF5E3AEDBE600BFFFF716FD054641F208
:101C1000883700BFB0688007E9D4FFF70DFD401B8F
:101C2000B842F7D9C7E600002DE9F047002865D093
:101C300042F2000AC4F2020A0446DAF800000D4635
:101C400000F00F0088420CD2DAF8000020F00F00FC
:101C50002843CAF80000DAF8000000F00F00A8429C
:101C60004CD1216841F20808C807C4F2020803D128
:101C7000880740F1D480B9E0606802283AD0032890
:101C800040D158F8082C920138D5D8F80420D8F85B
:101C9000043042F20046C3F3031302F00302D8F803
:101CA00004700133C0F2F406032A04BF41F2002697
:101CB000C0F27A06B6FBF3F2D8F80430C7F3062771
:101CC0007A43C3F34163022707EB4303B2FBF3F20A
:101CD0004BF20043C0F2C4439A425DD9D8F80020C9
:101CE00012F0F00F4DD0890756D5A168002953D1C5
:101CF00047E000BF58F8081C890307D40120BDE85D
:101D0000F08700BF58F8081C4905F7D5D8F800102F
:101D100001F00C0104293FD0D8F8001001F00C01AB
:101D2000082939D0D8F8001001F00C010C2933D162
:101D3000D8F80410D8F8042042F20047C2F3031286
:101D400001F00301D8F804300132C0F2F40703298E
:101D500004BF41F20027C0F27A07B7FBF2F1D8F8CE
:101D60000420C3F306235943C2F34162022303EB69
:101D70004202B1FBF2F14BF20042C0F2C442914286
:101D80000AD9D8F80010082262F307114FF00109B0
:101D9000C8F8001002E000BF4FF00009D8F80010AA
:101DA00021F003010843C8F80000FFF745FC064690
:101DB00041F28837D8F80000616800F00C00B0EB01
:101DC000810F07D0FFF738FC801BB842F2D90320FF
:101DD000BDE8F0872168880708D4B9F1000F1ED04C
:101DE000D8F8000020F0F00017E000BF480705D544
:101DF000D8F8000040F4E060C8F80000080706D5F5
:101E0000D8F80000072262F30D20C8F80000D8F8C7
:101E10000000A26820F0F0001043C8F80000DAF8D3
:101E2000000000F00F00A8421BD9DAF8000020F0F3
:101E30000F002843CAF80000FFF7FEFB064641F2F8
:101E4000883700BFDAF8000000F00F00A84207D082
:101E5000FFF7F2FB801BB842F4D90320BDE8F087FE
:101E60002168480707D5D8F80000E26820F4E06050
:101E70001043C8F80000080708D5D8F80000216909
:101E800020F4605040EAC100C8F80000D8F8000013
:101E900042F20041C0F2F40100F00C0004280846B0
:101EA0002DD0D8F8000000F00C00082841F20020E6
:101EB000C0F27A0023D0D8F8002002F00C020C2ADD
:101EC0001CD1D8F80420D8F8043002F00302C3F380
:101ED0000313D8F804700133032A08BF0146B1FB8D
:101EE000F3F0D8F80410C7F30627C1F341610222CA
:101EF000784302EB4101B0FBF1F000E00020D8F89C
:101F0000001048F27422C1F30311C0F60002515CC4
:101F100040F20C0201F01F0120FA01F140F204002E
:101F2000C2F200000068C2F200021160BDE8F04792
:101F3000FFF7A6BB0F22026041F20802C4F20202C0
:101F4000136803F003034360136803F0F003836036
:101F5000136803F4E063C36012684FF4E06303EABC
:101F6000D202026142F20000C4F20200006800F0F6
:101F70000F0008607047000040F20C0041F20801B9
:101F8000C2F20000C4F202010068096848F284222B
:101F9000C1F30221C0F60002515C01F01F01C840EC
:101FA0007047000040F20C0041F20801C2F200004C
:101FB000C4F202010068096848F28422C1F3C22118
:101FC000C0F60002515C01F01F01C84070470000DC
:101FD00041F20C01C4F2020151F8040C42F2004239
:101FE000C0F2F40200F00C000428104608BF70474D
:101FF00051F8040C00F00C00082841F20020C0F257
:102000007A0025D051F8043C03F00C030C2B1CBFC4
:102010000020704780B5D1F800C00B680CF0030CAD
:10202000C3F3031E0B680EF1010EBCF1030F08BFD2
:1020300002460968B2FBFEF0C3F30623C1F3416117
:102040000222584302EB4101B0FBF1F0BDE88040B1
:1020500070470000002804BF012070472DE9F041BF
:1020600082B00446007841F20006C007C4F20206BE
:102070001ED1207880073DD42078000764D42078D2
:10208000400700F187802078800600F1D980E5695B
:10209000002D00F04482B06800F00C000C2840F0E5
:1020A0003181012D40F09081012002B0BDE8F08126
:1020B000B06800F00C01F068082961D0032281F0BB
:1020C0000C0122EA00000844B0FA80F0400957D120
:1020D0006068B0F5803F07D0B0F5A02F40F0E480F5
:1020E000306840F480203060306840F480303060E8
:1020F000E5E000BFB068F16800F00C00042871D082
:1021000001F0030180F00C0081F002010844B0FAF4
:1021100080F0400966D1E1683068002900F0E08075
:1021200040F480703060FFF787FA0546306840055C
:1021300000F10A81FFF780FA401B0228F6D903203C
:1021400002B0BDE8F08100BF6169D6F894000029B3
:1021500000F0948040F00100C6F89400FFF76CFA9C
:10216000054600BFD6F8940080073FF588AFFFF71B
:1021700063FA401B0228F5D9032002B0BDE8F081C4
:10218000306880037FF575AF606800287FF471AF19
:102190003EE000BFB06D5FEAC00808D4B06D40F00B
:1021A0008050B065B06D00F080500190019847F20A
:1021B0000007C4F200073868C0052DD4386840F421
:1021C00080703860FFF738FA054600BF3868C005F0
:1021D00022D4FFF731FA401B0228F7D9032002B0BE
:1021E000BDE8F0813068400501D5E06880B17068D5
:1021F000216920F0FE4040EA0160706040F2040076
:10220000C2F200000068FFF73BFA00283FF434AF49
:10221000012002B0BDE8F081A068012808D005289F
:1022200040F0B080D6F8900040F00400C6F890006E
:10223000D6F8900040F00100C6F89000B0E000BF72
:10224000A169D6F89800002900F0868040F00100CE
:10225000C6F89800FFF7F0F9054600BFD6F89800D9
:1022600080073FF514AFFFF7E7F9401B02284FF056
:102270000300F3D902B0BDE8F08100BF20F00100F7
:10228000C6F89400FFF7D8F9054600BFD6F89400C9
:1022900080077FF5F4AEFFF7CFF9401B0228F5D990
:1022A000032002B0BDE8F0813168002821F48031BC
:1022B0003160316821F48021316000F0BF80FFF788
:1022C000BBF90546306880033FF5D3AEFFF7B4F99C
:1022D000401B6428F6D9032002B0BDE8F08100BF9E
:1022E00020F480703060FFF7A7F90546306840059C
:1022F0007FF5C2AEFFF7A0F9401B02284FF00300A4
:10230000F4D9B7E7306820F080703060FFF794F9B7
:10231000022D05460CD100BF3068800140F1BA8023
:10232000FFF78AF9401B02284FF00300F4D9A1E718
:102330003068800140F1EC80FFF77EF9401B0228F5
:102340004FF00300F4D995E77068216920F0FE4052
:1023500040EA016070608FE620F00100C6F8980046
:10236000FFF76AF9054600BFD6F8980080077FF5A9
:102370008EAEFFF761F9401B02284FF00300F3D93E
:1023800078E700BFD6F89010002821F00101C6F8C8
:102390009010D6F8901021F00401C6F890105DD08E
:1023A000FFF74AF9054641F2883700BFD6F890009A
:1023B000800765D4FFF740F9401BB842F6D90320E7
:1023C00002B0BDE8F08100BFF068216A00F00302AE
:1023D0008A427FF41DAF626A6FF00F0300F0F001D4
:1023E00003EB021291427FF413AFA16A00F4FE42A4
:1023F000B2EB012F7FF40CAFE16A00F07842B2EB50
:10240000C16F7FF405AF226B0023CFF6E07303EAC0
:10241000025200F4C001A2F5001291427FF4F8AE1E
:10242000616B4FF07E4202EA016100F0C06001F191
:102430007E4188427FF4ECAE71E000BFFFF7FCF80C
:10244000054600BF306880037FF513AEFFF7F4F850
:10245000401B64284FF00300F4D90BE7FFF7ECF8BA
:10246000054641F2883700BFD6F89000800707D5AF
:10247000FFF7E2F8401BB8424FF00300F4D9F9E649
:10248000B8F1000F3FF5FFADB06D20F08050B065A2
:10249000F9E500BFF06848F20C01C0F29F1104F1A9
:1024A000200700EA010C8ECF6FF00F00D4E90C5426
:1024B00000EB02100022CFF6E07241EA0C0102EAC2
:1024C00005520843A2F500124FF07E4540EA032072
:1024D00005EA0465104305F17E4540EAC7602843DC
:1024E000F060306840F080703060F06840F08070DC
:1024F000F060FFF7A1F80446306880010FD4FFF7C1
:102500009BF8001B02284FF00300F5D9B2E600BF8C
:10251000F0684FF6FC71CFF6EE610840F0600020E5
:1025200002B0BDE8F0810000704700007047000075
:1025300070470000704700007047000070470000BF
:1025400090F83C20012A4FF0020268D070B580F864
:102550003D20026842F600435468D2F808C0C4F235
:10256000010345F2000E9A42C4F2010E18BF7245F3
:102570002CD14D6824F470042C434FF68F75CFF6A0
:10258000FF550E682C4042F6FF35C4F20105344376
:10259000AA4254600EDC40F2FF73C4F200039A4278
:1025A0001CDCB2F1804F2DD040F20043C4F2000396
:1025B00026E000BF43F6FF74C4F20104A24219DC16
:1025C0009A421FD043F2004318E000BF43F2004597
:1025D000C4F20105AA42CCD0CFE700BF40F6000309
:1025E000C4F200039A420DD040F60043C4F2000347
:1025F00006E000BF724505D044F20003C4F20103B7
:102600009A4204D189682CF080031943916001211A
:10261000002280F83D1080F83C20BDE87040104654
:102620007047000070470000002804BF0120704779
:1026300010B5044690F83D0028B9002084F83C000D
:10264000204600F023F8022084F83D002068211D78
:1026500001F0CEF9012084F8480084F83E0084F8A7
:102660003F0084F8400084F8410084F8420084F878
:10267000430084F8440084F8450084F8460084F858
:10268000470084F83D00002010BD0000006841F2C2
:102690000001C4F20001884218BF704780B582B0C3
:1026A00041F25800C4F202000168002241F010011A
:1026B00001600068052100F01000019001983620AB
:1026C000FFF76CF8362002B0BDE88040FFF754B841
:1026D00090F83D1001291BD1022180F83D100168BE
:1026E00042F6FF32C868C4F20102914240F0010094
:1026F000C8600FDC40F2FF70C4F20000814219DCB8
:10270000B1F1804F2ED040F20040C4F2000027E02B
:102710000120704743F6FF70C4F20100814215DCCE
:1027200042F60040C4F2010081421BD043F2004057
:1027300014E000BF40F60000C4F20000814211D056
:1027400040F60040C4F200000AE000BF45F200007D
:10275000C4F20100814205D044F20000C4F201003D
:1027600081420CD188680722C0F201020240062A89
:102770004FF00000CDD0B2F5803F08BF7047086829
:1027800040F0010008600020704700007047000022
:10279000F0B581B004460068C5680669B10717D571
:1027A00015F0020114D06FF00201016101212177BF
:1027B0008069800704D02046FFF7E8FF06E000BFED
:1027C000204600F0CBF8204600F0CAF80020207721
:1027D000700719D515F0040016D020686FF00401B9
:1027E000016102212177806910F4407F04D02046E6
:1027F000FFF7CCFF06E000BF204600F0AFF8204610
:1028000000F0AEF800202077300717D515F008004B
:1028100014D020686FF00801016104212177C0699C
:10282000800703D02046FFF7B1FF05E0204600F007
:1028300095F8204600F094F800202077F00619D58E
:1028400015F0100016D020686FF01001016108210A
:102850002177C06910F4407F04D02046FFF796FF2F
:1028600006E000BF204600F079F8204600F078F836
:1028700000202077F00718BF15F0010006D020686F
:102880006FF001010161204600F06CF816F4025F60
:1028900005F0800718BF002F02D1F00509D410E021
:1028A00020686FF4025101612046FFF73FFEF005FA
:1028B00007D537B120686FF4807101612046FFF7BA
:1028C00033FE700609D515F0400006D020686FF081
:1028D00040010161204600F05BF8B00609D515F013
:1028E000200006D020686FF0200101612046FFF72C
:1028F0001FFEF00209D515F4801006D020686FF491
:10290000801101612046FFF717FEB00209D515F4CA
:10291000001006D020686FF4001101612046FFF717
:1029200009FE700209D515F4800006D020686FF406
:10293000800101612046FFF701FE30020CD515F43D
:10294000000009D021686FF4000220460A6101B03E
:10295000BDE8F040FFF766BE01B0F0BD7047000073
:1029600070470000B0B50446006840F60045C4F268
:102970000005A84202D1FEF765FE206805F58061DA
:10298000884218BFB0BDBDE8B04001F0DDBF000017
:102990007047000090F88410012904BF022070479E
:1029A0002421C0F8881002681168136823F001031D
:1029B000136021F000530021416613602022C0F80B
:1029C000882080F8841008467047000010B504463F
:1029D000D0F88C0020281CBF022010BD00294FF029
:1029E000010018BF002A01D110BD00BFE066002021
:1029F0002067204601F020FD0028F5D1E06E012877
:102A00001CBF012010BD206810210162206850E821
:102A1000000F216840F0100041E8000202B3206876
:102A200050E8000F216840F0100041E80002BAB100
:102A3000206850E8000F216840F0100041E80002D3
:102A400072B1206850E8000F216840F0100041E8A2
:102A50000002002A4FF0000008BF10BDD6E700BFFB
:102A6000002010BD41F68002C2F20002904218BF61
:102A7000704710B541F66864C2F20004002060544B
:102A8000372005F0F1FB2078612808D1362005F0C9
:102A9000EBFB42F2E810C2F200000121018041F696
:102AA000800041F66861C2F20000C2F200014FF4FA
:102AB0008072BDE81040FFF789BF0000704700003A
:102AC00090F88420012A04BF02207047B0B5242268
:102AD000C0F888200268D0F864E0D2F800C013681B
:102AE000BEF1000F23F001031360936823F06063CD
:102AF00041EA0301916019D09368916848F2E82E89
:102B0000490FC0F6000E48F2F0251EF80140C0F64D
:102B10000005695CC3F34263E400B4FBF1F11EF805
:102B20000340EB5CE500B5FBF3F301E00121012379
:102B3000A0F86A102021A0F86830C2F800C0C0F8E0
:102B40008810002180F88410BDE8B0400846704726
:102B500090F88420012A04BF02207047B0B52422D7
:102B6000C0F888200268D0F864E0D2F800C013688A
:102B7000BEF1000F23F001031360936823F060435C
:102B800041EA0301916019D09368916848F2E82EF8
:102B9000490FC0F6000E48F2F0251EF80140C0F6BD
:102BA0000005695CC3F34263E400B4FBF1F11EF875
:102BB0000340EB5CE500B5FBF3F301E001210123E9
:102BC000A0F86A102021A0F86830C2F800C0C0F850
:102BD0008810002180F88410BDE8B0400846704796
:102BE00070470000704700007047000070B5016832
:102BF00040F62F03CA69044608688E681340202BEC
:102C00000CD100F0200306F080555B1917D0616FDE
:102C100069B32046BDE87040084700BF40F60F0387
:102C20001A420CD00123C1F2000306EA030C40F261
:102C30002013C0F20043034013EB0C0328D1E36ED2
:102C4000D50615D5012B13D110F0100310D010208C
:102C500008628868400627D4B4F85C00B4F85E10B7
:102C6000B4F85E20002A18BF884240F0518270BD3F
:102C7000D30240F1D98016F4800300F0D5804FF4E0
:102C8000801220460A62BDE87040FFF7ABBF00BF6C
:102C9000D30718BF10F4807340F01E81930706F02D
:102CA000010E00F125812EE1D4F880000068426811
:102CB000B4F85C3091B2002900F0F480994280F0C1
:102CC000F180A4F85E200068800600F1A08000BFBB
:102CD000206850E8000F216820F4807041E800026D
:102CE000E2B1206850E8000F216820F4807041E8CC
:102CF00000029AB1206850E8000F216820F480702B
:102D000041E8000252B1206850E8000F216820F429
:102D1000807041E80002002ADAD100BF206850E844
:102D2000020F216820F0010041E80202BAB32068D6
:102D300050E8020F216820F0010041E8020272B35E
:102D4000206850E8020F216820F0010041E80202EB
:102D50002AB3206850E8020F216820F0010041E802
:102D60000202002ADAD11AE0206850E8020F216836
:102D700020F0400041E80202DAB1206850E8020F7A
:102D8000216820F0400041E8020292B1206850E83A
:102D9000020F216820F0400041E802024AB1206899
:102DA00050E8020F216820F0400041E80202002AAA
:102DB000DAD12020C4F88C000020E066206850E8BA
:102DC000000F216820F0100041E80002DAB120680D
:102DD00050E8000F216820F0100041E8000292B195
:102DE000206850E8000F216820F0100041E8000240
:102DF0004AB1206850E8000F216820F0100041E837
:102E00000002002ADAD1D4F88000FDF719FC022074
:102E10002067B4F85C00B4F85E10401A81B2204616
:102E2000BDE87040FFF71EBE110606D500F0800118
:102E300006F40003C91840F0ED81510640D510F0AA
:102E400040013DD0206850E8000F216820F040008C
:102E500041E80002DAB1206850E8000F216820F054
:102E6000400041E8000292B1206850E8000F21685C
:102E700020F0400041E800024AB1206850E8000F0D
:102E8000216820F0400041E80002002ADAD1202029
:102E90000021C4F888002046A167BDE8704000F01A
:102EA00039BB00BF8B427FF4E2AE006880067FF53D
:102EB000DEAE022220462267BDE87040FFF7D2BD99
:102EC000110240F1B38110F0804100F0AF81204643
:102ED000BDE87040FFF784BE01230B62D4F8903048
:102EE00043F00103C4F89030930706F0010E0AD5B1
:102EF000BEF1000F07D002230B62D4F8903043F0EC
:102F00000403C4F8903053070AD5BEF1000F07D070
:102F100004230B62D4F8903043F00203C4F89030DD
:102F200013070CD500F0200353EA0C0307D0082345
:102F30000B62D4F8903043F00803C4F890301305C6
:102F40000BD510F0806308D04FF400630B62D4F807
:102F5000903043F02003C4F89030D4F89030002B28
:102F60003FF485AE92060AD500F0200006F08052AC
:102F7000801804D0626F12B1204690472168D4F8BF
:102F80009000896800F0280001F04001401807D146
:102F90002046FFF729FE0020C4F8900070BD00BF56
:102FA000206850E8000F216820F4907041E800028A
:102FB000DAB1206850E8000F216820F4907041E8F1
:102FC000000292B1206850E8000F216820F4907050
:102FD00041E800024AB1206850E8000F216820F45F
:102FE000907041E80002002ADAD14FF6FE70CEF66A
:102FF000FF7000BF216851E8021F2268014042E8CB
:103000000213C3B1216851E8021F2268014042E85F
:10301000021383B1216851E8021F2268014042E88F
:10302000021343B1216851E8021F2268014042E8BF
:103030000213002BDED1E06E012824D1206850E875
:10304000000F216820F0100041E80002DAB120688A
:1030500050E8000F216820F0100041E8000292B112
:10306000206850E8000F216820F0100041E80002BD
:103070004AB1206850E8000F216820F0100041E8B4
:103080000002002ADAD12020C4F88C000020E0667B
:10309000216860678868400640F1C280206850E877
:1030A000020F216820F0400041E80202DAB12068F6
:1030B00050E8020F216820F0400041E8020292B17E
:1030C000206850E8020F216820F0400041E8020229
:1030D0004AB1206850E8020F216820F0400041E822
:1030E0000202002ADAD1D4F88000002800F098808B
:1030F00043F61D61C0F600018163FDF7D9FA00288F
:103100003FF4B5ADD4F88000816BBDE8704008474E
:10311000401A00BF216851E8001F226821F4907115
:1031200042E80013DBB1216851E8001F226821F456
:10313000907142E8001393B1216851E8001F2268A2
:1031400021F4907142E800134BB1216851E8001F4F
:10315000226821F4907142E80013002BDAD14FF677
:10316000FE71CEF6FF7100BF226852E8022F23687D
:103170000A4043E80226C6B1226852E8022F2368BB
:103180000A4043E8022686B1226852E8022F2368EB
:103190000A4043E8022646B1226852E8022F23681B
:1031A0000A4043E80226002EDED12021C4F88C100C
:1031B0000021E166616700BF216851E8001F2268B5
:1031C00021F0100142E80013DBB1216851E8001F33
:1031D000226821F0100142E8001393B1216851E800
:1031E000001F226821F0100142E800134BB1216852
:1031F00051E8001F226821F0100142E80013002B63
:10320000DAD1022281B220462267BDE87040FFF782
:1032100029BC00BFA16F00297FF4FBAC27E500BFEC
:103220002046BDE87040FFF7DFBC00BFD1017FF54D
:103230001EADB0F1FF3FC8BF70BD2046BDE8704075
:10324000FFF73CBC10B5D0B10446D0F8880028B9CF
:10325000002084F88400204600F026F82420C4F8DA
:1032600088002068A16A026822F00102026011B1A0
:10327000204600F0A5FC204600F084FF10B101209C
:1032800010BD00BF2168486820F4904048608868FD
:1032900020F02A008860086840F0010220460A6099
:1032A000BDE8104000F002BD70B59AB00446684613
:1032B00008304C21FCF7F6FF206843F60001C4F209
:1032C0000101884202D01AB070BD00BF01200090F9
:1032D000002668460196FEF73BFB002818BFFDF765
:1032E00091F941F24C00C4F20200416941F480417D
:1032F0004161416901F4804115911599016841F0DE
:1033000002010160006815A900F0020015901598EF
:10331000C02015900220CDE916060720199040F232
:103320000040C4F600001896FEF7B0F841F25C6564
:103330000820C2F20005C4F202001821802285E8AC
:1033400043002846C5E90362C5E90566C5E9076685
:10335000FDF744FA002818BFFDF754F92520052190
:103360000022C4F88050AC62FEF718FA2520FEF760
:1033700003FA1AB070BD00007047000070470000EB
:103380002DE9F0410446D0F8880020281CBF022017
:10339000BDE8F0810D4600294FF0010000F0B88033
:1033A0001646002A08BFBDE8F0810020C4F890004E
:1033B00021209846C4F88800FEF73EF9A4F854602E
:1033C000A4F85660A1680646B1F5805F02D1206975
:1033D00000286BD02F460025B4F8560000286BD08B
:1033E00018F101001CD0B8F1000F3DD121680BE0AD
:1033F00017F8010B8862B4F856000138A4F856009B
:10340000B4F85600002858D0C869000640F17A8008
:10341000002FEDD135F8020B00276FF35F20E9E7AD
:10342000216802E0C869000609D4C869000606D40C
:10343000C86900065CBFC8695FEA0060F2D51FB1C9
:1034400017F8010B05E000BF35F8020B00276FF3FA
:103450005F208862B4F856000138A4F85600B4F82A
:1034600056000028E1D128E0216800BFC8690006A5
:1034700008D4FEF7E1F8801B404545D8216808686C
:10348000F4E700BF17B117F8010B04E035F8020BA1
:1034900000276FF35F208862B4F856000138A4F863
:1034A0005600B4F856000028E0D106E00027B4F832
:1034B000560000287FF494AF2168C86940061FD4E5
:1034C000B8F1000F1ED018F101000FD1C8694006F5
:1034D00016D4C869400613D4C869400610D4C86918
:1034E00040064FF00000F1D50FE000BFFEF7A4F852
:1034F000801B404508D820680168C0694006F5D5A2
:10350000002002E0FEF798F803202021C4F888107C
:10351000BDE8F08170470000FEE7000080B582B092
:1035200041F24800C4F202000168002241F00401A7
:103530000160016801F0040101910199016841F005
:10354000010101600068052100F001000090009871
:103550000B20FEF723F90B2002B0BDE88040FEF7F8
:103560000BB9000080B541F2BC6046F20041C2F2E6
:103570000000C4F200010022C0E90012112100F194
:10358000140701234FF0060C4FF0030E87E80A5092
:1035900000F12407C0E90222C0F80F2087E80A5092
:1035A000C0E90D32C263FDF71BFD002808BF80BDD6
:1035B000BDE88040FDF726B880B541F2207046F6A0
:1035C0000001C2F20000C4F200010022C0E90012B2
:1035D000112100F1140701234FF0060C4FF0030EE8
:1035E00087E80A5000F12407C0E90222C0F80F2042
:1035F00087E80A50C0E90D32C263FDF7F1FC0028EC
:1036000008BF80BDBDE88040FCF7FCBF80B541F23B
:10361000847046F60041C2F20000C4F200010022AC
:10362000C0E90012112100F1140701234FF0060C2C
:103630004FF0030E87E80A5000F12407C0E9022288
:10364000C0F80F2087E80A50C0E90D32C263FDF7C9
:10365000C7FC002808BF80BDBDE88040FCF7D2BF92
:1036600010B501F041FE41F6800041F66861C2F2FA
:103670000000C2F200014FF48072FFF7A7F901F0D9
:103680006DFD01F0ADFB41F2BC60C2F2000001F043
:1036900097FE41F22070C2F2000001F091FE48F264
:1036A000F820C0F6000002F09FF840F21804C2F2C1
:1036B000000448F2B8322060C0F600021020022157
:1036C00002F04CF8606043F6413048F28C22C0F6BC
:1036D0000000C0F60002002102F0C0F8A06044F62D
:1036E000C90048F20832C0F60000C0F6000200210E
:1036F00002F0B4F8E06040F2F55048F22C32C0F627
:103700000000C0F60002002102F0A8F8206140F29B
:10371000DD5048F25032C0F60000C0F60002002131
:1037200002F09CF8606110BDB0B586B0002441F293
:103730004C000594C4F202000168002241F004012B
:10374000016001684FF4007501F0040100910099D7
:10375000016841F020010160016801F02001009141
:103760000099016841F002010160016801F0020165
:1037700000910099016841F00101016000684FF477
:10378000007100F00100009000984FF09040FDF7AC
:103790004DFF0120CDE9020401A94FF090400195B1
:1037A0000494FDF773FE06B0B0BD000010B584B000
:1037B00041F6340041F20001C2F20000C4F20001FF
:1037C000002442F23312632380E816008021029421
:1037D000C3608161FEF728FF002818BFFCF712FFC5
:1037E00041F63400C2F2000001A901940394FEF7EF
:1037F000A7FE002818BFFCF705FF04B010BD0000AD
:1038000080B541F6800043F60001C2F20000C4F228
:10381000010100234FF00C0C4FF4E13280E80E0060
:10382000C0E90333C0E905C3C0E90733C0E9093380
:10383000FFF708FD002818BFFCF7E4FE41F6800002
:10384000C2F200000021FFF783F9002818BFFCF73F
:10385000D9FE41F68000C2F200000021FFF730F9E6
:10386000002818BFFCF7CEFE41F68000C2F200002F
:10387000FFF790F8002808BF80BDBDE88040FCF746
:10388000C1BE0000FEE70000FEE7000000000000EF
:10389000EFF30980BFF36F8F154B1A681EF0100FFE
:1038A00008BF20ED108A20E9F04F10602DE90900D3
:1038B0004FF0500080F31188BFF34F8FBFF36F8F2D
:1038C00003F0DAFB4FF0000080F31188BDE8090037
:1038D00019680868B0E8F04F1EF0100F08BFB0EC90
:1038E000108A80F30988BFF36F8F704700BF00BF55
:1038F0004800002030EEC05A90ED050A90ED001A05
:1039000035EE406A90ED012A21EE061A30EE006A8B
:1039100090ED067A90ED023A35EE466A25EE022ADF
:1039200036EE076A90ED034A23EE063A80ED060A6A
:1039300031EE020A30EE031A90ED070A34EE011A56
:10394000B4EE401AF1EE10FA80ED045A80ED055AFB
:103950000ADC90ED082AB0EE410AB4EE421AF1EE0C
:1039600010FAB8BFB0EE420A80ED030A80ED090AF2
:103970007047000000000000000000000000000090
:10398000074B19680868B0E8F04F80F30988BFF367
:103990006F8F4FF0000080F31188704700BF00BFA9
:1039A0004800002080B54EF21000CEF20000006802
:1039B00004F07AF9012808BF80BDBDE8804003F01B
:1039C0007DBC00004EF68850CEF20000016841F444
:1039D000700101607047000041F2E870C2F200001F
:1039E000FEF7D6BE41F63400C2F20000FEF7D0BEAC
:1039F00040F6FF330268C4F2000343F2FF3C9842F2
:103A0000C4F2010C0ADD60452EDC40F60043C4F22E
:103A10000003984234D042F600432DE0B0F1804FCD
:103A20002ED040F20043C4F20003984228D040F662
:103A30000003C4F20003984222D0604526DC40F225
:103A4000FF73C4F20003984236DD40F60003C4F26F
:103A50000003984244D040F60043C4F20003984269
:103A60003ED042F6004337E045F20003C4F20103C2
:103A7000984205D043F20043C4F201039842DCD1DE
:103A80004B6822F070021A436045D8DD44F2FF33E0
:103A9000C4F20103984217DD44F20043C4F201036B
:103AA00098421DD045F20003C4F20103984217D09A
:103AB00044F6000310E000BFB0F1804F10D040F298
:103AC0000043C4F2000309E043F20043C4F20103DF
:103AD000984205D044F20003C4F20103984203D196
:103AE000CB6822F440721A4380B54B6922F0800EF5
:103AF0008A6843EA0E03D1F800C00360C262A0F1F5
:103B00008042A2F59632830543EA9222092AC0F840
:103B100028C0BDE8804008D8012303FA02F240F231
:103B2000E5231A421CBF0969016301214161016952
:103B3000C90708BF7047016921F0010101617047A1
:103B400000F03EFF01F08AF941F6141542F2E81642
:103B5000C2F20005C2F20006012700240FF24C0851
:103B600009E000BF00F02CFF01F078F92C703480E0
:103B7000012001F06BFD28780028F9D1B6F900107A
:103B800088B20028F4D003292F7007D00229E9D089
:103B9000012907D102F00EFCE8E700BF02F0ECFDBE
:103BA000E4E700BF404604F095FADFE7496E76612E
:103BB0006C6964207461736B3A2025640D0A0000FF
:103BC000816A0A070ED4CA0717D18A0720D44A0788
:103BD00029D4CA0632D48A063BD480B54A0644D4D6
:103BE00058E000BF0268D0F838C0536823F400439F
:103BF00043EA0C035360CA07E7D00268D0F82CC030
:103C0000536823F4003343EA0C0353608A07DED57C
:103C10000268D0F830C0536823F4803343EA0C03C1
:103C200053604A07D5D50268D0F834C0536823F4EE
:103C3000802343EA0C035360CA06CCD50268D0F84F
:103C40003CC0936823F4805343EA0C0393608A06D4
:103C5000C3D50268D0F840C0936823F4005343EA08
:103C60000C03936080B54A0614D50268D0F844C0AE
:103C70005368BCF5801F23F4801343EA0C035360A0
:103C800008D1D2F804C0D0F848E02CF4C00343EACD
:103C90000E035360090658BF80BD0168C06C4A68B6
:103CA00022F400221043486080BD0000B0B582B00D
:103CB00004460020C4F89000FDF7BEFC21680546CC
:103CC0000A68120737D56FF07E4C20464FF400117A
:103CD00000222B46CDF800C000F052FC50B300BFCC
:103CE000206850E8000F216820F0800041E80002C1
:103CF000DAB1206850E8000F216820F0800041E828
:103D0000000292B1206850E8000F216820F0800086
:103D100041E800024AB1206850E8000F216820F015
:103D2000800041E80002002ADAD12020C4F888008F
:103D300060E000BF21680868400761D56FF07E4CE5
:103D400020464FF4800100222B46CDF800C000F041
:103D500017FC002854D000BF206850E8000F2168ED
:103D600020F4907041E80002E2B1206850E8000FB2
:103D7000216820F4907041E800029AB1206850E870
:103D8000000F216820F4907041E8000252B12068D1
:103D900050E8000F216820F4907041E80002002AEA
:103DA000DAD100BF206850E8020F216820F001003E
:103DB00041E80202DAB1206850E8020F216820F0E1
:103DC000010041E8020292B1206850E8020F216828
:103DD00020F0010041E802024AB1206850E8020FD9
:103DE000216820F0010041E80202002ADAD12020F7
:103DF000C4F88C000320002184F8841002B0B0BD08
:103E00002020C4F88800C4F88C000020E0662067F9
:103E1000002184F8841002B0B0BD0000806A002147
:103E2000A0F85E10FEF7E0BE806A0268D0F8883025
:103E3000D0F88CC09168090653D5212B51D10021AF
:103E4000A0F85610016851E8001F026821F0C00177
:103E500042E80013BBB3016851E8001F026821F07B
:103E6000C00142E8001373B3016851E8001F026803
:103E700021F0C00142E800132BB3016851E8001F94
:103E8000026821F0C00142E80013002BDAD11AE0E9
:103E9000016851E8021F026821F4000142E80213A0
:103EA000DBB1016851E8021F026821F4000142E819
:103EB000021393B1016851E8021F026821F4000166
:103EC00042E802134BB1016851E8021F026821F475
:103ED000000142E80213002BDAD12021C0F888103B
:103EE00002689168490640F18480BCF1220F40F0DD
:103EF00080800021A0F85E10016851E8001F026870
:103F000021F4907142E80013DBB1016851E8001F11
:103F1000026821F4907142E8001393B1016851E8FE
:103F2000001F026821F4907142E800134BB1016850
:103F300051E8001F026821F4907142E80013002B41
:103F4000DAD14FF6FE7CCEF6FF7C00BF026852E865
:103F5000022F036802EA0C0243E80221D9B101688A
:103F600051E8021F026801EA0C0142E8021393B112
:103F7000016851E8021F026801EA0C0142E80213DD
:103F80004BB1016851E8021F026801EA0C0142E8E6
:103F90000213002BDAD1C16E012924D1016851E846
:103FA000001F026821F0100142E80013DBB1016834
:103FB00051E8001F026821F0100142E8001393B19C
:103FC000016851E8001F026821F0100142E8001367
:103FD0004BB1016851E8001F026821F0100142E86E
:103FE0000013002BDAD12021C0F88C100021C1660B
:103FF0004167D0F8901041F01001C0F89010FEF722
:10400000F3BD00000168806A0968890600F1A1809B
:104010000021A0F85E1000BF016851E8001F02688F
:1040200021F4807142E80013E3B1016851E8001FF8
:10403000026821F4807142E800139BB1016851E8E5
:10404000001F026821F4807142E8001353B1016837
:1040500051E8001F026821F4807142E80013002B30
:10406000DAD100BF016851E8021F026821F00101A6
:1040700042E80213BBB3016851E8021F026821F055
:10408000010142E8021373B3016851E8021F02689C
:1040900021F0010142E802132BB3016851E8021F2D
:1040A000026821F0010142E80213002BDAD11AE084
:1040B000016851E8021F026821F0400142E8021342
:1040C000DBB1016851E8021F026821F0400142E8BB
:1040D000021393B1016851E8021F026821F0400108
:1040E00042E802134BB1016851E8021F026821F057
:1040F000400142E80213002BDAD12021C0F88C10D5
:10410000C16E012925D100BF016851E8001F026876
:1041100021F0100142E80013DBB1016851E8001FF3
:10412000026821F0100142E8001393B1016851E8E0
:10413000001F026821F0100142E800134BB1016832
:1041400051E8001F026821F0100142E80013002B23
:10415000DAD100210167C16E012918BFFFF70CB940
:10416000B0F85C10FEF77EBC806A01210167C16E69
:10417000012918BFFFF702B9B0F85C104908FEF733
:1041800071BC000070B5054605F108041ECC00683E
:10419000194341EA0403EE69046846F6F311CCF6CC
:1041A000FF712140194331430160416848F2000C1E
:1041B00021F4405111434160AA69C4F2000C6045EA
:1041C0001CBF296A0A4381684FF2FF43C1F2FF1303
:1041D000194011438160C16AD5F824E021F00F0134
:1041E00041EA0E01C16244F6FF71C4F20001884247
:1041F0004FF0100318DC44F20041C4F20001884281
:1042000028D044F60001C4F2000188422AD044F6C6
:104210000041C4F20001884242D141F28801C4F257
:10422000020109688B0933E045F20001C4F2000184
:1042300088421FD0604525D043F60001C4F2010139
:1042400088422DD141F28801C4F202010B6876A2A6
:1042500022E000BF41F28801C4F2020109688B0824
:1042600016E000BF41F28801C4F2020109680B099F
:104270000EE000BF41F28801C4F2020109680B0A96
:1042800006E000BF41F28801C4F2020109688B0A0E
:1042900048F2D822C0F6000203F0030152F82130A0
:1042A000604542F20040C0F2F40015D0B6F5004F70
:1042B00022D1082B4FF0010100F2AD80DFE803F0BE
:1042C000065C6AAB60ABABAB680000BFFDF754FEA9
:1042D000002840F059809AE0082B4FF0010100F2CD
:1042E0009A80DFE803F0059825981B98989823009A
:1042F000FDF742FEB0B98AE0082B4FF0010100F251
:104300008A80DFE803F005636F88678888886D001E
:10431000FDF732FE002860D179E000BFFDF758FEBE
:10432000002874D0D5F824E002E000BF4FF400402C
:1043300048F2B021C0F6000131F81E106A68B0FBE7
:10434000F1F002EB420188424FF0010163D3130305
:10435000984260D8010E000210EB520041F10001BA
:104360000023FBF755FF4FF60052A0F54071C0F255
:104370000F02914249D34DE0FDF714FE20B946E00B
:10438000FDF726FE002842D0D5F824E002E000BF69
:104390004FF4004048F2B021C0F6000131F81E1081
:1043A0006A68B0FBF1F0510801EB4000B0FBF2F09D
:1043B0004FF6EF72A0F1100191422BD84FF6F07139
:1043C0000140C0F3420008441FE000BFFDF7EAFDD2
:1043D00018B91CE0FDF7FCFDC8B1D5F824E001E0F8
:1043E0004FF4004048F2B021C0F6000131F81E1031
:1043F0004FF6EF72B0FBF1F0696800EB5100B0FBD3
:10440000F1F0A0F11001914204D82968C8600021A0
:1044100001E000BF01214FF00110A866002208460C
:104420006A67AA6770BD00BF0100000004000000B9
:104430000200000008000000B0B513460A4681657E
:1044400000210446A0F85C30C0F890102220C4F887
:104450008C00D4F88000E8B143F62965C0F6000569
:104460004563256844F2050C44F2691EC0F6000C51
:10447000C0F6000E816305F12401C0E90BCEFCF704
:1044800043FA38B11020C4F890002020C4F88C0002
:104490000120B0BD206928B3206850E8000F2168D2
:1044A00040F4807041E80002E2B1206850E8000F5B
:1044B000216840F4807041E800029AB1206850E819
:1044C000000F216840F4807041E8000252B120687A
:1044D00050E8000F216840F4807041E80002002A93
:1044E000DAD100BF206850E8020F216840F00100D7
:1044F00041E80202BAB3206850E8020F216840F098
:10450000010041E8020272B3206850E8020F2168FE
:1045100040F0010041E802022AB3206850E8020F8F
:10452000216840F0010041E80202002ADAD11AE0D5
:10453000206850E8020F216840F0400041E8020284
:10454000DAB1206850E8020F216840F0400041E8ED
:10455000020292B1206850E8020F216840F040004A
:1045600041E802024AB1206850E8020F216840F099
:10457000400041E80202002ADAD10020B0BD00006C
:104580002DE9F041804600681546C2690E4611408B
:10459000891BB1FA81F14909A94223D1069C2CB3A8
:1045A000611C29D1C1693140891BB1FA81F14909E6
:1045B000A94217D1C1693140891BB1FA81F149097A
:1045C000A9420FD1C1693140891BB1FA81F1490972
:1045D000A94207D1C1693140891BB1FA81F149096A
:1045E000A942DFD00020BDE8F08100BFFDF724F82C
:1045F0000320BDE8F08100BF1F4607E0C0693040DE
:10460000801BB0FA80F04009A842EBD1FDF714F806
:10461000C01BA04200F2AE80D8F800000168490734
:10462000ECD5402EEAD0802EE8D0C169090700F110
:10463000A580C1690905E1D54FF400610162D8F890
:10464000000050E8000FD8F8001020F4907041E806
:1046500000020AB3D8F8000050E8000FD8F80010A4
:1046600020F4907041E80002B2B1D8F8000050E8A0
:10467000000FD8F8001020F4907041E800025AB101
:10468000D8F8000050E8000FD8F8001020F490701F
:1046900041E80002002AD2D14FF6FE70CEF6FF703C
:1046A000D8F8001051E8021FD8F80020014042E875
:1046B0000213F3B1D8F8001051E8021FD8F8002017
:1046C000014042E80213A3B1D8F8001051E8021FDC
:1046D000D8F80020014042E8021353B1D8F8001086
:1046E00051E8021FD8F80020014042E80213002BD5
:1046F000D6D1D8F86C0001282CD1D8F8000050E8A9
:10470000000FD8F8001020F0100041E800020AB3B2
:10471000D8F8000050E8000FD8F8001020F0100082
:1047200041E80002B2B1D8F8000050E8000FD8F814
:10473000001020F0100041E800025AB1D8F8000043
:1047400050E8000FD8F8001020F0100041E80002F7
:10475000002AD2D120200021C8F88C00C8F86C10A3
:10476000C8F87410C8F89000032088F88410BDE8D9
:10477000F08100BF0320BDE8F08100BF0821016285
:10478000D8F8000050E8000FD8F8001020F490701E
:1047900041E800020AB3D8F8000050E8000FD8F84A
:1047A000001020F4907041E80002B2B1D8F8000087
:1047B00050E8000FD8F8001020F4907041E8000293
:1047C0005AB1D8F8000050E8000FD8F8001020F4D3
:1047D000907041E80002002AD2D14FF6FE70CEF66A
:1047E000FF70D8F8001051E8021FD8F800200140EF
:1047F00042E80213F3B1D8F8001051E8021FD8F8CC
:104800000020014042E80213A3B1D8F8001051E89B
:10481000021FD8F80020014042E8021353B1D8F833
:10482000001051E8021FD8F80020014042E80213AE
:10483000002BD6D1D8F86C0001282CD1D8F8000074
:1048400050E8000FD8F8001020F0100041E80002F6
:104850000AB3D8F8000050E8000FD8F8001020F094
:10486000100041E80002B2B1D8F8000050E8000F93
:10487000D8F8001020F0100041E800025AB1D8F832
:10488000000050E8000FD8F8001020F0100041E8B8
:104890000002002AD2D12020C8F88C000020082174
:1048A000C8F86C00C8F87400C8F8901088F8840044
:1048B0000120BDE8F081000041F68000C2F2000056
:1048C000FEF794B9FEE7000080B500BF012000F0BC
:1048D000BDFEFBE740F23000C2F20000416889B142
:1048E000028891ED000A01EE102AB8EE411A30EE6E
:1048F000410A9FED141AB0EEC00AB4EE410AF1EE7F
:1049000010FA1DDCC16831B1D1E90312891A48BF20
:104910004942322914D8016931B1D1E90312891A07
:1049200048BF494232290BD8806830B1D0E9030131
:10493000401A48BF4042322802D80120704700BFC9
:10494000002070470AD7233C10B52DED028B40F2B2
:104950003000C2F200000188446800EE101A3220D4
:10496000B8EE408A00F02CF9F0EE400A2046B0EE96
:10497000480ABDEC028BBDE8104000F0C3B900004E
:10498000B0B52DED028B40F23005C2F2000568682B
:1049900098B100F0BDF86C683220B0EE408A00F0AB
:1049A0000FF9F0EE400A2046B0EE480A00F0AAF9EE
:1049B000BDEEC80A10EE100A2880BDEC028BB0BD17
:1049C00010B5002000F0F2F840F23004C2F200040A
:1049D000606000F0E3F96068012100F04DF9022009
:1049E000FCF706F86068B2EE0E0A00F00DF902203E
:1049F000FBF7FEFF606800F0B7F80220BDE810404A
:104A0000FBF7F6BF002818BF002901D1704700BF8F
:104A10000968C1F30463112B52D0022BF6D1C1F304
:104A20008153C1F305418375C1751188538809BA53
:104A30004FEA114C1BBA918800EE10CA9FED2F1A55
:104A40001B0CB8EE400A9FED2E2A09BA20EE010A8F
:104A500001EE103A9FED2C3A090C80EE020AB8EEF6
:104A6000411A21EE031A03EE101A81EE021AB8EE73
:104A7000433AB3EE084A23EE043A83EE022A9FED4E
:104A8000213AD18809BA090C30EE030A80ED000AF8
:104A9000BBEE0E0A31EE000A80ED010ABAEE080AFA
:104AA0009FED1A1A32EE000A80ED020A00EE101A8B
:104AB000B8EE400A20EE010A80ED030A704700BFFD
:104AC000118847F21903C91A042988BF7047DFE823
:104AD00001F00503090D110098E700BF516801605E
:104AE000704700BF51684160704700BF5168016165
:104AF000704700BF91888182704700BFDB0FC941BA
:104B000000FF7F47DB0F49C100007042CDCCCC3D98
:104B100080B59FED131A9FED132AB4EE410AF1EE12
:104B200010FAB8BFB0EE410AB4EE420AF1EE10FA44
:104B3000C8BFB0EE420A10EE100AFBF73DFC9FED35
:104B4000060B53EC102BFBF7B8FBFBF748FC00EE11
:104B5000100A80BD00BF00BF399D52A246DF913FC1
:104B6000000034C40000344480B58CB00146006AB3
:104B7000002201920092B0B1497ECDE9082201F1F4
:104B8000407103914FF08041CDE904120821CDE935
:104B90000612CDE90A2203A96A46FBF7C3FF0028E3
:104BA00018BFFBF72FFD0CB080BD000040F2541180
:104BB000C2F20001002818BF00210846704700001B
:104BC00080B5FBF7ECFB9FED0E0B53EC102BFBF7C6
:104BD00074FBFBF704FC00EE100ABBEE0E1AB4EEF9
:104BE000410AF1EE10FAB8BFB0EE410AB3EE0E1A68
:104BF000B4EE410AF1EE10FAC8BFB0EE410A80BD32
:104C0000D5EB7BF3E9CEBA3F80B58CB09FED191A96
:104C1000B5EE400A0146F1EE10FAB8BFB0EE410A17
:104C2000B3EE071A47F21800B4EE410A0090086A82
:104C3000F1EE10FAC8BFB0EE410A8DED010AB8B12D
:104C4000497E082201F1905103914FF08041049177
:104C500000210591CDE90621CDE90811CDE90A1120
:104C600003A96A46FBF75EFF002818BFFBF7CAFCE2
:104C70000CB080BD00000000B0B58CB00446007ED2
:104C800088423DD0206A0D46002101910091B0B3C9
:104C9000627ECDE9081102F1806203924FF08042FA
:104CA000CDE904210822CDE90621CDE90A1103A9A5
:104CB0006A46FBF737FF002818BFFBF7A3FC206A02
:104CC000002147F20502019100928DF80450B0B125
:104CD000627ECDE9081102F1905203924FF08042BA
:104CE000CDE904210822CDE90621CDE90A1103A965
:104CF0006A46FBF717FF002818BFFBF783FC2576F1
:104D00000CB0B0BD10B52DED028B8CB00446007E0A
:104D100001283FD1206A47F217010091CDED010A29
:104D2000C0B3617E082201F1905103914FF08041A0
:104D3000049100210591CDE90621CDE90811CDE9C5
:104D40000A1103A96A46B0EE408AFBF7EBFE002881
:104D500018BFFBF757FC206A47F2160100918DED52
:104D6000018AB8B1617E082201F1905103914FF0A0
:104D70008041049100210591CDE90621CDE908117A
:104D8000CDE90A1103A96A46FBF7CCFE002818BF3B
:104D9000FBF738FC0CB0BDEC028B10BD80B58CB0BD
:104DA0000146006A002201920092B0B1497ECDE92D
:104DB000082201F1806103914FF08041CDE9041296
:104DC0000821CDE90612CDE90A2203A96A46FBF7BC
:104DD000A9FE002818BFFBF715FC0CB080BD000031
:104DE00080B586B040F25410C2F2000040F60432A2
:104DF00002834FF0804241F2207101924FF4306201
:104E0000C2F2000102924FF6FF720162CDE9032067
:104E100044F60520C0F60000059001A800F076FADF
:104E200006B080BD80B500F00DF840F23001C2F24E
:104E30000001C968024608461146BDE8804000F0FE
:104E400087B900009FED041A20EE010ABDEEC00AEA
:104E500010EE100A704700BF610BB64110B502207A
:104E600000F00EF840F23004C2F20004A06001200D
:104E700000F006F8E060002000F002F8206110BDAC
:104E800040F27C11C2F20001742210FB02110728CB
:104E900088BF002108467047002808BF704710B53A
:104EA000044600882081108800BA000C20805088B9
:104EB00000BA000C6080908800BA000CA080907945
:104EC000A071012084F86A00FCF7B6FB2188B4F9D0
:104ED0000820E066881A014610F5805FB8BF01F52A
:104EE0000051B0F5805FC8BFA0F50051E068A27D19
:104EF0000144012AE1601DD194ED041A00EE101A5C
:104F000004F11800B8EEC00AF8EEC10AFEF7F2FC90
:104F1000B4F90210F0EE400A00EE101A04F140005D
:104F2000B8EEC00AFEF7E6FC2046BDE8104000F0EF
:104F300017B800BFB4F90210B4F9142000EE101A2B
:104F400001EE102A04F14000B8EEC00AF8EEC10AE2
:104F5000FEF7D0FC2046BDE8104000F001B800008C
:104F60002DE9F04F93B0044640F27810C2F20000F1
:104F7000007840F27C134FF0000A0028C2F20003D0
:104F80004FF000004FF000014FF000054FF0000B14
:104F90004FF000074FF000094FF000084FF0000CF1
:104FA0004FF0000E4FF000064FF0000207910691FF
:104FB000049105910391029156D193ED190A93ED55
:104FC000361A93ED532ABDEEC00A93ED703A10EEF7
:104FD000100ABDEEC10A10EE105ABDEEC20AAAB206
:104FE00010EE10BABDEEC30A81B2069210EE107A2E
:104FF00093ED8D0A4FEA112806991FFA8BF2BDEE48
:10500000C00A059210EE109A93EDAA0A090ABAB2E4
:105010000691059903921FFA89F2BDEEC00A01922A
:1050200010EE102A93EDC70A090A04910399BDEE08
:10503000C00A10EE106A93EDE40A090A059101997D
:10504000BDEEC00A02961FFA86FE10EE106A090A2B
:105050001FFA82FC0391B1B2CDF81C8090464FEA52
:105060001C2C4FEA1E2E0A0A0821CDE90BAACDE915
:105070000D1ACDE90FAACDF844A0CDF848A02CB167
:105080009C4234D303F5AE718C4230D88DF82100A8
:1050900006984FF400718DF8220004980A91079940
:1050A0008DF8240020468DF820108DF823508DF8BF
:1050B00025B0002C08BF1846006F05998DF8261002
:1050C0008DF8277090B10AA9924608AA67469B46B8
:1050D0007546FBF727FDAE465B46BC46524628B1F7
:1050E000FBF790FAAE465B46BC4652463CB103F530
:1050F000E870844228D303F54B70844224D840F2F0
:10510000FF100A9003988DF821908DF820000298E6
:105110008DF822C08DF8250004F170008DF82380F1
:105120008DF824E0002C08BF03F5107000688DF89E
:1051300026208DF8276038B10AA908AAFBF7F2FCEF
:10514000002818BFFBF75EFA13B0BDE8F08F00002F
:1051500000281EBF01228275016170472DE9F04FC2
:1051600085B040F27C15C2F200050121A97549F60F
:105170009A1141F26F22C3F61961C3F6832245F6F4
:10518000294305F1180CC3F60F538CE80E004AF2C0
:1051900000014AF2000241F2BC64C4F20C61CCF29C
:1051A0000C6240F20120C2F20004002740F2000825
:1051B00040F2000A49F69A1B4CF28F26C5E91712F5
:1051C000002144F69969A5F86800C4F2FA37CCF2D8
:1051D000FA38C4F2C01AC3F6997BC3F6F546CDE996
:1051E0000010C0F60009684621462C67C5E90D7815
:1051F000C5E910ABAE640395CDF8109000F086F8C9
:10520000012285F88A2049F69A12C3F61962C5F878
:105210008C2041F26F2240F20220C3F68322A5F8CF
:10522000DC0005F17401C5F8902045F62942C5E976
:105230002A78019048F2000748F200080020C3F6DF
:105240000F52C4F23B670391CCF23B680090684672
:105250002146C5F8E440C5F89420C5E92DABC5F852
:10526000BC60C5E934784FF0000ACDF8109000F02A
:105270004DF800200021C4F2FA30CCF2FA31C5E931
:105280004701012085F8FE0049F69A10C3F619601F
:10529000C5F8000141F26F20C3F68320C5F8040170
:1052A00045F62940C3F60F50C5F808010020C4F2A6
:1052B000C010C5E94A0B40F20320A5F85001019047
:1052C00005F1E800CDE9030968462146C5E95178B2
:1052D000C5F83061CDF800A0C5F8584100F016F8C7
:1052E00005B0BDE8F08F000080B540F25C60C2F20E
:1052F00000004FF48051FF22FAF7CDFF40F2440046
:10530000C2F200000021018080BD00002DE9F041C3
:10531000016829B3B1F1804F38D140F2440CC2F298
:10532000000C9CF801100F2988BFBDE8F08140F205
:105330001C5E01EB8103C2F2000ED0E90054D0E9FB
:10534000022700690EEB8306C6E903700CF1010029
:105350004EF82350C6E9014201310170BDE8F081E9
:1053600040F24401C2F2000109781F290ED84268B8
:105370000023B3EBD22F09D140F25C6CC2F2000CD7
:105380003CF812E04FF6FF739E4501D0BDE8F08176
:1053900041F6687E01EB8103C2F2000E90E8E00165
:1053A00000690EEB83044EF82350231D206140F268
:1053B000440083E8C0012CF81210C2F20000CBE7D1
:1053C000F0B587B0044602210391216846F20045FA
:1053D0000020C4F2000546F6004746F60006CDE977
:1053E0000100CDE905000120A942C4F20007C4F282
:1053F000000618BFB94223D1049001A92046FBF74B
:10540000EFFB002818BFFBF7FDF84FF0804001903C
:105410000120029001A92046FBF7E2FB002818BFFB
:10542000FBF7F0F82068B84203D0B0420CD0A84295
:1054300018D14FF0000C20460021002209E000BFE7
:10544000B142DAD10220D7E74FF0000C204601210B
:1054500001220023CDF800C0FBF7F2FB002818BFA3
:10546000FBF7D0F820464FF400210022FBF7D4FAD6
:10547000002818BFFBF7C6F82068B84203D0B04236
:1054800004D0A8420BD12046012101E0204608218A
:105490000022FBF7C1FA002818BFFBF7B3F820463B
:1054A000FBF7D2FF002818BFFBF7ACF807B0F0BD40
:1054B000B0B58CB002AA6B46FBF71EFC10B10CB065
:1054C000B0BD00BF0398B0F1804F1BD00028F6D1CB
:1054D000BDF808000021B1EBD02FF0D140F25C61A3
:1054E000C2F2000131F810004FF6FF718842E6D099
:1054F00041F6687100EB8000C2F2000101EB800010
:105500003FE000BF40F24400C2F2000040780028B3
:10551000D5D040F21C5C029AC2F2000C0CF144039C
:10552000C0F1000E032153E91004504020421FD067
:105530000EEB01000228C2D053E90B4554402C4227
:1055400018D00128BBD053E9064554402C4213D053
:105550000028B4D053E90140544004420DD0043136
:105560000EEB0100032803F15003DCD1A7E700BFD5
:10557000033902E0023900E0013901EB81000CEB54
:1055800080000369002B9AD00C30006802A96A469B
:1055900098470CB0B0BD000080B582B0019041F6D4
:1055A0008000C2F2000001A901224FF6FF73FDF74F
:1055B000E7FE019802B080BD94B0FCF751F80024DA
:1055C00000200C94CDE90A44CDE90844FCF722F907
:1055D000012006904FF480300790022003255521CA
:1055E0000D90CDE90E50CDE91010CDE9120006A8BE
:1055F000FCF730FD20B1EFF3108072B6FEE700BF7C
:105600000F20CDE9010501A80421CDE9034405944B
:10561000FCF70AFB20B1EFF3108072B6FEE700BF83
:10562000FEF782F8FDF77AFFFEF7EAF8FDF79AFF3A
:10563000FDF7C2FFFDF7EAFFFEF7B8F800F016F835
:10564000FEF70EF800F026F8FEE70000EFF3058104
:1056500000291CBF6FF005007047002804BF002020
:10566000704780B501F0BEFB002080BDEFF30580E0
:1056700000281CBF6FF00500704740F25010C2F2C6
:1056800000000168002911BF4FF0FF3001210160C7
:105690000020704710B5EFF3058000281CBF6FF0A5
:1056A000050010BD40F25010C2F20000016801294F
:1056B0001CBF4FF0FF3010BD4EF61F51CEF200015F
:1056C00000240C700221016001F056FC204610BD40
:1056D00010B582B01C46B0FA80F3B1FA81F25B09D2
:1056E0005209EFF3058CBCF1000F42EA03021BD014
:1056F000002C18BF0124224317D10022019201AAD5
:1057000002F0B0F901281DD10198C0B14EF6045045
:10571000CEF200004FF080510160BFF34F8FBFF316
:105720006F8F002002B010BD22B16FF0030002B0F5
:1057300010BD00BF224602F075F8012806D10020F6
:1057400002B010BD6FF0020002B010BD6FF001009A
:10575000002C08BF6FF0020002B010BD70B582B01F
:10576000154600294FF00004EFF3058218BF00280A
:1057700002D1204602B070BD002AFAD1B5B1D5E9F8
:1057800002320BB3502AF4D32A69002AF1D06E6991
:1057900001FB00F4A6424FF00004EAD3009401F0AC
:1057A00073FE06460028E4D02C6805E0002201F0D4
:1057B00027FE06460028DCD03046214601F090FA4C
:1057C0003446204602B070BD002AD2D12A69002A90
:1057D000CFD16A69002ACCD1002201F011FE064621
:1057E0000028E1D1C5E7000070B5EFF3058109B1EC
:1057F000002070BD044688B160680107F8D4D4E980
:10580000021239B1502AF3D3C0071BD1012001F095
:10581000A5FD06E0002AEBD1C00717D1012001F059
:1058200065FD05460026002DE2D0002C14BF21683E
:105830000021284601F054FA002E18BF45F001055A
:10584000284670BD042001F089FD02E0042001F02B
:105850004DFD05460126002DE7D1C9E72DE9F041B0
:1058600084B00B4600240394EFF30581D0B3C9BB89
:1058700052B3D2F818E0BEF1000F08BF4FF0180E77
:10588000BEF1380F2ED81179C9072BD15769D2E94B
:1058900002864FEA970C1168002F654608BF8025E5
:1058A000B8F1000F22D05C2E1CD31269002A18BF59
:1058B000002F17D0CDE900E26246CDF8088002F053
:1058C000B7F904B0BDE8F08180254FF0180E002133
:1058D00003AFAAB2CDE900E702F07AF903990128F3
:1058E00008BF0C46204604B0BDE8F081002EF9D177
:1058F0001269002AF6D1EBE72DE9F041044601F0E8
:10590000FFF840F24806C2F20006F06841F60825AA
:105910000130F0603068C2F2000558B130690028EB
:1059200040F007813068E16AC06A884298BF3460FD
:10593000FFE000BF3460F068012840F0FA8028469C
:1059400001F084F805F1140001F080F805F1280059
:1059500001F07CF805F13C0001F078F805F1500009
:1059600001F074F805F1640001F070F805F17800B9
:1059700001F06CF805F18C0001F068F805F1A00069
:1059800001F064F805F1B40001F060F805F1C80019
:1059900001F05CF805F1DC0001F058F805F1F000C9
:1059A00001F054F805F5827001F050F805F58C709F
:1059B00001F04CF805F5967001F048F805F5A07077
:1059C00001F044F805F5AA7001F040F805F5B4704F
:1059D00001F03CF805F5BE7001F038F805F5C87027
:1059E00001F034F805F5D27001F030F805F5DC70FF
:1059F00001F02CF805F5E67001F028F805F5F070D7
:105A000001F024F805F5FA7001F020F805F50270B0
:105A100001F01CF805F5077001F018F805F50C7099
:105A200001F014F805F5117001F010F805F5167085
:105A300001F00CF805F51B7001F008F805F5207071
:105A400001F004F805F5257001F000F805F52A705D
:105A500000F0FCFF05F52F7000F0F8FF05F534703D
:105A600000F0F4FF05F5397000F0F0FF05F53E7029
:105A700000F0ECFF05F5437000F0E8FF05F5487015
:105A800000F0E4FF05F54D7000F0E0FF05F5527001
:105A900000F0DCFF05F5577000F0D8FF05F55C70ED
:105AA00000F0D4FF05F5617000F0D0FF05F56670D9
:105AB00000F0CCFF05F56B7000F0C8FF05F57070C5
:105AC00000F0C4FF05F5757000F0C0FF05F57A70B1
:105AD00000F0BCFF05F57F7000F0B8FF05F58260AF
