:020000040800F2
:1000000008390020ED0100080D410008E13D00081D
:1000100009410008CD0D00081D6200080000000025
:100020000000000000000000000000000142000885
:10003000DD0D000800000000114100082542000805
:10004000070200080702000807020008070200086C
:10005000070200080702000807020008070200085C
:10006000070200080702000807020008D10D000877
:10007000070200080702000807020008070200083C
:10008000070200080702000807020008070200082C
:1000900007020008ED0D0008F90D0008070200082E
:1000A000070200080702000807020008070200080C
:1000B00007020008070200080702000807020008FC
:1000C00007020008070200080702000807020008EC
:1000D0000702000811620008070200080702000872
:1000E00007020008070200080702000807020008CC
:1000F00007020008070200080702000807020008BC
:100100000702000807020008594200080702000819
:1001100007020008070200086542000807020008FD
:10012000070200080702000807020008070200088B
:10013000070200080702000807020008070200087B
:10014000070200080702000807020008070200086B
:10015000070200080702000807020008070200085B
:10016000070200080702000807020008070200084B
:10017000070200080702000807020008070200083B
:10018000070200080702000807020008070200082B
:100190000702000800000000050E0008110E00080C
:1001A000070200080702000807020008070200080B
:1001B00007020008070200080702000807020008FB
:1001C00007020008070200080702000807020008EB
:1001D0000702000807020008DFF80CD000F022FC3C
:1001E00000480047056F000808390020064880478E
:1001F00006480047FEE7FEE7FEE7FEE7FEE7FEE70C
:10020000FEE7FEE7FEE7FEE745420008D9010008E9
:100210002DE9F05F0546002092469B46884606463B
:10022000814640241BE0284641464746224600F0CE
:10023000CDF953465A46C01A914110D3114618467B
:10024000224600F0B4F92D1A67EB01084F4622460A
:100250000120002100F0ABF917EB00094E41201EF0
:10026000A4F10104DFDC484631462A464346BDE896
:10027000F09F40EA01039B0703D009E008C9121F61
:1002800008C0042AFAD203E011F8013B00F8013B50
:10029000521EF9D27047D2B201E000F8012B491E7C
:1002A000FBD270470022F6E710B513460A46044613
:1002B0001946FFF7F0FF204610BD00000FB400B54F
:1002C0008DB010A909900B9000914FF0FF300A906B
:1002D00000200C9005480690054807906A4609A83A
:1002E0000F9900F097F90DB05DF814FB3106000886
:1002F0004F0600082DE9FF5F1D464FF0FF3BD5E993
:10030000014691465F464FF00008A9697F1C01989D
:100310008847296A824688470028F6D1BAF1FF3F0C
:100320000CD024F4C064002E19DD600614D5BAF197
:100330002B0F09D0BAF12D0F0ED103E0584604B0AF
:10034000BDE8F09F44F48064A9697F1C0198884748
:10035000761E8246002E02DDBAF1300F03D0B9F1CD
:10036000000F26D032E0A969761E44F400747F1C89
:10037000019888478246002E05DDBAF1780F06D035
:10038000BAF1580F03D0B9F1000F10D01EE0B9F147
:10039000000F02D0B9F1100F18D1A969761E24F40C
:1003A00000747F1C019888478246102002E00820D4
:1003B00000E00A20814609E008FB0908A969761EC9
:1003C00044F400747F1C019888478246002E05DDA6
:1003D0004946504600F00AF90028EDDAE96901982B
:1003E0008847A00502D46FF00100A8E7E00725D1F7
:1003F000600613D5600502D5C8F1000000E0404654
:1004000029680A1D2A600968220501D5087015E0CF
:10041000220701D5088011E008600FE02868011D5F
:1004200029600068210502D580F8008006E02107D8
:1004300002D5A0F8008001E0C0F8008038467EE7D1
:100440002DE9FE4F81EA030404F0004421F000414D
:1004500000944FF0000B23F0004350EA01045ED0FB
:1004600052EA03045BD0C3F30A54C1F30A552C4487
:10047000A4F2F3340194A0FB0254C1F3130141F43C
:100480008011C3F3130343F4801301FB024400FB08
:10049000034E840A970A44EA815447EA8357A4FB2F
:1004A000076802958D0A05FB07854FEA932C04FB2C
:1004B0000C542705029D4FEA065847EA1637B5EB5C
:1004C00008056EEB070C870E920E47EA811742EA89
:1004D0008312A7FB0201B6EB0B0164EB00042B0DAA
:1004E00043EA0C335E1844EB1C50DA465146E7FBF6
:1004F0000201C5F313044FEA0B3343EA14534FEAE6
:100500000432019C43EA0603A4F10C040294009C0B
:10051000CDE900B400F0F2F803B0BDE8F08F0020A0
:100520000146F9E700F0004230F000400AD0C10D6A
:1005300001F56071C0F3160042EA0151C20840079C
:100540001143704700200146704701F0004330B46A
:1005500021F0004150EA010206D00A0DA2F56072B6
:10056000C1F31301002A02DC30BC00207047440FA5
:1005700044EAC104C100E01830BC00EBC25000F0F6
:1005800077B830B50B46014600202022012409E04F
:1005900021FA02F59D4205D303FA02F5491B04FA3C
:1005A00002F52844151EA2F10102F1DC30BD202A1B
:1005B00004DB203A00FA02F1002070479140C2F1BA
:1005C000200320FA03F3194390407047202A04DBEC
:1005D000203A21FA02F00021704721FA02F3D040BC
:1005E000C2F1200291400843194670473A2800D2D0
:1005F000303820F02002412A01D3A2F1370088428E
:1006000001D34FF0FF307047026811441378016046
:1006100018467047D16004495161044911620021B4
:100620001161114600F028BA090600086D0A000899
:10063000426842B1016811F8013B23B1521EC0E982
:100640000012184670470121C160881E7047426839
:100650005AB1C368016843B983688B4205D0491E0B
:10066000521CC0E90012002070474FF0FF30704765
:100670000029A8BF7047401C490008BF20F00100B6
:10068000704710B4B0FA80FC00FA0CF050EA010494
:1006900004BF10BC704749B1CCF1200421FA04F426
:1006A00011FA0CF118BF012121430843A3EB0C01FF
:1006B000CB1D4FEA00614FEA102042BF002010BC62
:1006C000704700EBC35010440029A4BF10BC704712
:1006D000401C490008BF20F0010010BC704710B555
:1006E000141E73F1000408DA401C41F10001921855
:1006F0005B411A4301D120F0010010BD2DE9F04DFE
:1007000092469B4611B1B1FA81F202E0B0FA80F252
:1007100020329046FFF74BFF04460F4640EA0A009E
:1007200041EA0B0153465A46084313D0114653EA97
:10073000010019D0C8F140025046FFF747FF0546B7
:100740000E46504659464246FFF731FF084305D052
:10075000012004E020463946BDE8F08D0020054325
:1007600046EAE0762C4337430A986305E40AA0EB97
:1007700008000022FD0A44EA47540A3002D500204E
:100780000146E9E7010510196941DDE9084500194D
:100790006941BDE8F04DA2E72DE9FE4F804681EAB0
:1007A0000300C00F0C46009021F0004123F00045EB
:1007B000B8EB0200A94105D24046214690461C46AE
:1007C0000B46024623F00040104347D0270DC7F3E5
:1007D0000A00C3F30A510290401A019040286BDAD4
:1007E000C3F3130040F4801B0098924620B100230D
:1007F000D2EB030A63EB0B0B01985946C0F14002A0
:100800005046FFF7D4FE06460D4650465946019A1B
:1008100000F01AF910EB08006141002487EA115238
:1008200084EAE7731A4340D0009A62B3019A012A1E
:100830004FEA075215DC001B61EB02014FF000424A
:1008400002EA0752CDE90042001C41F58011324610
:100850002B46FFF753FF03B0BDE8F08F404621461B
:10086000F9E7001B61EB0201001C41F58013001841
:100870005B412018A2F5001747EB030140EAD57051
:10088000B6196D4111E06D084FEA360645EAC075AC
:100890004FEA0752001B61EB0201001C41F5801179
:1008A00049084FEA30000019514132462B4603B047
:1008B000BDE8F04FFFF713BF00980122400000236E
:1008C000D0EB020263EBE073009821464FEAE0743C
:1008D000B8EB000061EB0401E9E783F000435BE75C
:1008E00081F0004158E72DE9F04D81EA030404F05E
:1008F000004B21F0004514464FF0000A23F0004160
:1009000050EA050220D054EA01021DD0C5F30A576F
:100910000246C5F31303C1F31300C1F30A5640F4B2
:10092000801543F48013A7EB0608101BD64608F287
:10093000FD3873EB050002D308F1010801E09218BD
:100940005B41B8F1000F03DA00200146BDE8F08DED
:1009500000204FF48011064684460EE0171B73EB0F
:10096000050705D3121B63EB050306434CEA010C94
:1009700049084FEA300092185B4150EA0107EDD177
:1009800052EA030012D082EA040083EA0501084318
:1009900005D0101BAB4106D20122002306E0002245
:1009A0004FF0004302E06FF0010253101AEB060013
:1009B0004CEB085110EB0A0041EB0B01BDE8F04D88
:1009C000FFF78DBEC1F30A52C1F3130140F2FF33AA
:1009D00041F480119A4202DA00200146704740F249
:1009E00033439A42A2F2334202DC5242FFF7EEBD99
:1009F000FFF7DDBD30B5041E71F1000404DB4FF0DC
:100A00000044404264EB0101141E73F1000405DB55
:100A10001C464FF00043524263EB0403994208BF67
:100A2000904230BD064C074D06E0E06840F00103FF
:100A300094E8070098471034AC42F6D3FFF7D0FB98
:100A4000F8A8000818A90008202A06DBCB17203ACE
:100A500041FA02F043EAE07306E041FA02F3D040C3
:100A6000C2F120029140084319467047C0B24FF4CA
:100A7000F05100F097B900002DE9F34F8BB04FF023
:100A8000000801F10C000C464FF0010B46460DF139
:100A9000080A01906269012101989047051E2DD036
:100AA000252D2CD0216A8847C0B1626901210198A7
:100AB0009047216A88470028F7D1411E6269019852
:100AC000904700E0761CA1690B988847216A884707
:100AD0000028F7D1E1690B988847DBE7A1690B98FB
:100AE00088470746A84201D1761CD3E7E1690B98F5
:100AF00088477F1C02D1B8F1000F6FD046E1002774
:100B000062693D463946019890472A2804D16269B6
:100B10000121019890470125DFF884926269012143
:100B200001989047A0F130010A290AD24F45E5DC2F
:100B300007EB870100EB4107303FDFD445F010059C
:100B4000ECE7E90601D46FF000476C280AD04C2886
:100B500014D0682815D06A280DD074281CD07A28A3
:100B60001AD01DE062690121019890476C2802D0DB
:100B700045F0040514E045F002050DE045F02005C0
:100B80000AE06269012101989047682802D045F087
:100B9000080505E045F40065626901210198904768
:100BA000C4E9015765283DD019DC58287AD00CDCFF
:100BB000452837D004DC252826D0412831D131E022
:100BC00046282FD047282CD12CE05B2877D06128ED
:100BD00028D063287CD0642823D15AE0D0E06F2845
:100BE00048D008DC66281DD067281BD0692821D092
:100BF0006E2816D127E0702845D0732868D0752854
:100C000047D078280DD14DE0A1690B98884705465B
:100C100025283FF469AFE1690B9888476D1C3FF4C4
:100C20006AAFB3E023466A466FF001000B99AFF359
:100C300000809EE045F040006060A80723464FF02A
:100C4000000236D43EE0E8077FF447AF2068011D7C
:100C500021600068290501D506701BE7290701D529
:100C6000068017E7A90703D5F117C0E9006111E76E
:100C700006600FE745F040006060A80723464FF08C
:100C8000080216D41EE040F60E0125EA010060605D
:100C900016E045F040006060A80723464FF00A02C6
:100CA00007D40FE045F040006060A80708D5234650
:100CB00010226FF001000B99AFF3008059E007E0BC
:100CC000234610226FF001000B99FFF713FB50E051
:100CD0004FF000094F464B46632802D05B2806D0F0
:100CE00040E0E80601D40120A06001273AE06269F3
:100CF0000121019890475E2805D14FF001096269F2
:100D0000494601989047216939B900210A4653465E
:100D100043F82120491C0829FADBB0B3216969B9DD
:100D2000C11700EBD16253110AEB830122F01F02BD
:100D3000821A01200B68904003430B606269012115
:100D4000019890475D28E8D1B9F1000F09D0002043
:100D5000514651F82020D24341F82020401C082859
:100D6000F7DB02AB224600976FF001000B99AFF35F
:100D7000008000280CDA401C08D1BBF1000F05D020
:100D80004FF0FF300DB0BDE8F08FFFE74046F9E7C8
:100D9000E90701D108F1010806444FF0000B79E69C
:100DA000CCCCCC0C7F2801D9002208E0064A02EB0B
:100DB0005002C007127800D1120902F00F02012080
:100DC0009040084070470000B0A60008FEE7000011
:100DD00041F27C60C2F2000000F096B8704700005B
:100DE000EFF3108072B600BFFEE7000041F2DC6056
:100DF000C2F2000000F00EBC41F2DC60C2F2000062
:100E000000F008BC41F24070C2F2000000F002BCE9
:100E100041F24070C2F2000000F0FCBB80B5014618
:100E200090F82500022825D10868D1E910CE8A6CF7
:100E3000036823F00E030360136823F480731360C8
:100E4000026822F0010202600EF01F00012202FA85
:100E500000F0CCF80400D1E913205060486D68B16F
:100E6000026822F480720260D1E91602426000201A
:100E700005E000BF0420C863012000E0002001223B
:100E800081F82520002281F8242080BD80B590F8CB
:100E9000251002292ED10168D0E910CE826C0B6892
:100EA00023F00E030B600B6823F001030B60116845
:100EB00021F4807111600EF01F02012101FA02F28B
:100EC000CCF80420D0E913325A60426D32B1136875
:100ED00023F480731360D0E91623536080F8251043
:100EE000826B002180F824100AB190470021084647
:100EF00080BD00BF0421C1630121002280F82510BC
:100F000080F82420084680BDB0B5D0E910C302683F
:100F1000DCF8001003F01F030424D2F800E09C402A
:100F20000C4218BF1EF0040522D102249C400C4242
:100F300018BF1EF0020529D1D940090724D51EF09B
:100F4000080108BFB0BD116821F00E011160012138
:100F500001FA03F2CCF80420C16380F82510416B3C
:100F6000002280F8242079B1BDE8B040084700BFD6
:100F70001168890603D4116821F004011160CCF8CE
:100F80000440016B0029EFD1B0BD00BF1168890694
:100F900006D4116821F00A011160012180F82510A2
:100FA000CCF80440C16A0022002980F82420DBD15B
:100FB000EAE7000000284FF0010100F08E802DE9E3
:100FC000F04740F2000CC4F2020C03684FF6F8320E
:100FD0000CF5816ECBF6FD72734538BF02F5806269
:100FE0004CF6CD441A44CCF6CC44A2FB042803F0C2
:100FF000FC02A2F10802A2FB04290CF580656FF047
:101000000304D0E90262D0F810A03CBF0025C4F26E
:10101000020504EA9804C0E91054022580F825501E
:101020001D6847F6F07725EA07073A43476942EA21
:101030000A0285693A43C7692A43056A3A432A4343
:1010400032431A600CF50262734538BF0CF500623A
:10105000A3180CF50862C264C9F3041240F6840CAC
:1010600001FA02F2B6F5804FC4F2020C8364026505
:1010700006D1002141601960CCF800201EE000BFBD
:1010800041685FFA81FE013903294FF00001C3F87E
:1010900000E0CCF8002011D8AEF101020CEB820781
:1010A00047F87C1F02F01F01012202FA01F30CF144
:1010B000BC023946CCF8C03002E000BF0022002359
:1010C00000F1540C8CE80E0000210122C16380F86D
:1010D000252080F82410BDE8F0470846704700003E
:1010E0002DE9F04190F824C0BCF1010F43D04FF03E
:1010F000010C80F824C090F825C0BCF1010F37D155
:101100004FF0020C80F825C04FF0000CC0F83CC036
:10111000D0F800C000F14C0E9EE83040DCF80060D2
:10112000BEF1000F26F00106CCF8006065601CBF20
:10113000D0E916456560D0E91076012506F01F0656
:101140008468B540D0F830807D60CCF804300B4620
:10115000102C04BF13460A46CCF80830CCF80C20FB
:10116000DCF80010B8F1000F08D041F00E010DE0DE
:10117000002180F824100220BDE8F08121F0040154
:10118000CCF80010DCF8001041F00A01CCF8001097
:10119000806C0168C90303D5016841F48071016066
:1011A000BEF1000F05D0DEF8000040F48070CEF8EC
:1011B0000000DCF8000040F00100CCF80000002046
:1011C000BDE8F08110B590F85C30013B012B69D887
:1011D000006811F0070ED0F858C00CF0010300D0E1
:1011E0001BB311F0380F02D01CF002041DD011F413
:1011F000E07F02D01CF0040417D011F4F05F02D09D
:101200001CF0080411D011F4604F02D01CF010043F
:101210000BD011F4403F02D01CF0200405D011F493
:101220007C0F06D01CF0400403D1C46D44F00104CF
:10123000C465BEF1000F18BF002B3BD111F0380F71
:1012400018BF1CF0020335D111F4E07F18BF1CF069
:1012500004032FD111F4F05F18BF1CF0080329D14B
:1012600011F4604F18BF1CF0100323D111F4403F5C
:1012700018BF1CF020031DD111F47C0F18BF1CF007
:10128000400317D10B061BD4CB0504D5D0F8E030B2
:101290001A43C0F8E02000F15402002013681943FB
:1012A000116010BD00F16002012002211368194392
:1012B000116010BDC36D43F00203C3650B06E3D597
:1012C000D0F8DC301343C0F8DC30CB05E3D5DDE7E4
:1012D0002DE9F04190F85C30022B15D10668D6F864
:1012E000C4309B0218D4D6F8C430D1E90075D1F8C7
:1012F00008E00C69C3F3014CB5B144EA070343EAC3
:101300000E0343F0804E13E0016E41F008010166C8
:101310000120BDE8F08100BF016E41F4007101665B
:101320000120BDE8F08100BF44EA87434EEA030E86
:10133000D1E90757D1E9058445EA0765CB682C4315
:10134000456D44EA08040CEBCC0744EA034405EB82
:10135000C70345F837E05C60CF6887B14AF2C475CF
:10136000083303320024C0F6000500BF171957F8F0
:10137000037C1F51CF680434EF5DBC42F6D30121DA
:1013800001FA0CF1C6F8CC1081650020BDE8F081AF
:1013900080B590F85C20013A012A13D80A68BAB1E6
:1013A00001F1040ED1E904319EE80450406C43EA97
:1013B0004E7E41EA8C7100EBC20340F832E000201F
:1013C000596080BD016E41F002010166012080BDBF
:1013D000D1E90323D1E901CED206496942EA8E72EE
:1013E00042EA0342006C114340F82C10002080BDFB
:1013F00080B590F85CC0BCF1010F13D10068920079
:10140000D0F880C0DDF808E042EA011141EA43016A
:101410002CF03F0C41EA0E0141EA0C01C0F88010AB
:10142000002080BD016E41F004010166012080BDF5
:101430007047000080B5090300D480BD006846F6FF
:101440000042C4F200024FF400219042016517D01F
:1014500046F60001C4F2000188421BD046F200416A
:10146000C4F20001884218BF80BD02F0DFFC41F2E7
:10147000DC60C2F20000BDE8804005F047BC00BF60
:1014800002F028FD41F2A470C2F20000BDE88040E5
:1014900005F03CBC02F0F4FC41F24070C2F20000E6
:1014A000BDE8804005F032BC2DE9F04390F85C7057
:1014B000022F1BD1D0F800C040291FD1DCF890705A
:1014C0003F0700F09D80DCF89070FF0146BFDCF81C
:1014D0008070C7F340270027DCF89060C6F3012630
:1014E00006EB070C00F148071DE000BF016E41F05C
:1014F000080101660120BDE8F08300BFDCF89870A8
:101500003F077DD0DCF89870FF0146BFDCF88070A3
:10151000C7F300270027DCF89860C6F3012606EB26
:10152000070C00F14C073F680CEBCC0657F836501F
:1015300007EBC60E15F08045556057F8365025F07C
:10154000604408BFC5F38A44146057F8365005F06C
:101550000055956057F8364004F000441461BEF819
:101560000440D461BEF8064014F00F04D460DEF8E5
:10157000044004F480145461DEF8044004F40014C0
:1015800094619EF8074004F07F041462DEF8044082
:101590004FEAD474546228D04AF2C4780024C0F6CA
:1015A000000800BF0EEB0406377A651C1F55D7688C
:1015B00018F80770BD4218D2757A1F197D70D5686A
:1015C00018F80590A51C4D450FD2B57ABD70D568A9
:1015D00018F80590E51C4D4507D2F57A0434FD70E6
:1015E000D56818F80550AC42DCD3006840290CBF20
:1015F000C0F894C0C0F89CC00020BDE8F08300BFD4
:10160000016E41F4807101660120BDE8F0830000A5
:10161000704700002DE9F04F85B004460068016D69
:10162000426DD0F850B0456D076D466D036D01EA0F
:1016300002080493436D0393036D0293436D01937A
:10164000D0F854A0D0F850905FEA496307D51AF05B
:10165000400104D0402101652046FFF7D9FF0BEA85
:10166000050B5FEAC95008F4E0550ED51AF48070F6
:101670000BD02068D0F8D810D0F8E02011404FF4FB
:1016800080720265204600F0CBFA37400BF0070667
:101690002DB1206829460565204600F0C5FA07F0FF
:1016A00038052EB1206831460665204600F092FAD2
:1016B0002DB1206829460565204600F091FA5FEAC1
:1016C000895009D51AF4007006D020684FF40071D3
:1016D0000165204600F0AAFA5FEA09600DD51AF00C
:1016E00080000AD02068D0F8D410D0F8DC20114057
:1016F00080220265204600F095FA5FEA894009D50C
:101700001AF4005006D020684FF4005101652046BD
:1017100000F084FA5FEA0940DDE9011000EA010502
:1017200009D51AF4004006D020684FF40041016545
:10173000204600F071FADDE9031008405FEA4941F4
:1017400005F460210AD51AF4804207D022684FF4CC
:1017500080431365226E42F08002226600F4710518
:1017600021B1206801652046FFF764FE25B120689D
:101770000565206E28432066206E28B1204605B0FE
:10178000BDE8F04FFFF754BE05B0BDE8F08F000094
:1017900070B5D8B1044690F85C0028B9002084F8F0
:1017A0005D00204600F01EF92068816921F01001DB
:1017B000816100F019FB054620688169090707D59A
:1017C00000F012FB401B0B28F6D312E0012070BD85
:1017D000816941F00101816100F006FB054600BF0F
:1017E00020688169C9070DD100F0FEFA401B0B2863
:1017F000F6D3206E032140F001002066012084F81A
:101800005C1070BD826946F2004CC4F2000C42F0DC
:1018100002026045826102D16268CCF80021227C1C
:101820008369012A23F0400318BF40338361627C3F
:101830008369012A23F4804308BF03F58043836151
:10184000A27C8369012A23F4805318BF03F58053D7
:1018500083618269D4E902E322F4407545EA0E050A
:101860008561856925F0A4058561056925F0100568
:1018700005619BB1012B0DD0022B09D08569032B8B
:1018800045F080058561056945F01005056105D1C4
:10189000202300E0042385692B43836104F11405B0
:1018A0002ACD226A5E1E6FF0FF0303EB052545EA91
:1018B0004665013A2A430025CFF6FF7505EB014145
:1018C0001143BEF5407FC16110D1D4E909E2D4E9EA
:1018D0000B61013A03EB06231A436FF00F0303EB8E
:1018E0000111114305EB0E421143C160D4E90D1300
:1018F000E26BD0F8C0603243C0F8C0200CF58066BF
:101900000CF58042B04204BF4AF25072C4F20002A9
:101910000CF50066B04208BF02F5D4622264D0F82C
:10192000806026F4F81646EA0141C0F8801002F102
:1019300070016164D0F8801021F0706141EA0361A8
:10194000C0F8801002F1B000A06402F5C470E06439
:1019500002F51870206502F51E70606502F554707E
:10196000002100BFC2E90011C2E90211C2E904115D
:10197000C2E90611C2E90811C2E90A11C2E90C1153
:10198000C2E90E11C2E91011C2E91211C2E9141123
:10199000C2E91611C2E91811C2E91A11C2E91C11F3
:1019A000C2E91E11C2E92011C2E92211C2E92411C3
:1019B000C2E92611C2E92811C2E92A11C2E92C1193
:1019C000C2E92E11C2E93011C2E93211C2F8D010B9
:1019D000D4328242C6D300200121A065206684F85B
:1019E0005C1070BD10B59CB0044600201B90CDE982
:1019F0001900CDE9170002A85421FEF753FC206816
:101A000046F60041C4F20001884259D046F6000172
:101A1000C4F20001884200F08F8046F20041C4F217
:101A20000001884240F086804FF4805002904FF0D1
:101A30000070109002A800F065FB002818BFFFF7A7
:101A4000CFF940F29011C2F200010A6841F24C0055
:101A5000C4F20200531C0B6042B9C16841F000712E
:101A6000C160C16801F0007101910199016841F004
:101A700001010160006817A900F0010001900198C0
:101A80004FF4C0501790022018900020CDE91900A3
:101A900009201B904FF0904000F0CAF81520052156
:101AA000002200F055FA152000F03EFA162005211C
:101AB000002200F04DFA162000F036FA1CB010BDDE
:101AC0004FF4805002904FF00070109002A800F088
:101AD00019FB002818BFFFF783F940F29011C2F2FA
:101AE00000010A6841F24C00C4F20200531C0B6072
:101AF00042B9C16841F00071C160C16801F0007174
:101B000001910199016841F001010160006817A984
:101B100000F00100019001984FF40140179002205D
:101B200018900020CDE919000B201B904FF0904039
:101B300000F07EF81CB010BD4FF4805002904FF0C2
:101B40000070109002A800F0DDFA002818BFFFF71F
:101B500047F940F29011C2F200010A6841F24C00CC
:101B6000C4F20200531C0B6042B9C16841F000711D
:101B7000C160C16801F0007101910199016841F0F3
:101B800002010160006817A900F0020001900198AD
:101B90004FF440501790022018900020CDE9190012
:101BA00009201B9040F20040C4F6000000F040F80D
:101BB00056200521002200F0CBF9562000F0B4F9A0
:101BC00057200521002200F0C3F9572000F0ACF99E
:101BD0001CB010BDC90714BF4021704705F00EB9F5
:101BE00009074CBF4121704705F008B990F85C1017
:101BF00001290BD1022180F85C1001688A6922F06A
:101C000001028A610021016608467047016E41F0B9
:101C10000401016601207047704700007047000012
:101C200070470000704700007047000070470000D8
:101C30002DE9F04F82B00D68002D00F0CB8041F20D
:101C4000004400F13847C4F6000406224FEAB726E4
:101C5000A04208BF0522052E38BF4FEAB722002454
:101C600001274FF0000E0026009209E00D680136B2
:101C700035FA06F20EF1040E04F1020400F0AA8017
:101C800007FA06FB15EA0B08F0D0D1F804A00322EE
:101C90000AF0030CACF10105A240012D6FEA020924
:101CA00010D88268CD6802EA0902A5402A43826002
:101CB0004268CAF3001522EA0B02B5402A4342608B
:101CC00006E000BFBCF1030F02D14FF0030C21E08E
:101CD000C2688D6802EA0902A5402A43BCF1020FDE
:101CE000C26017D16FF0030202EA560202440EF0FE
:101CF0001C030F25D2F820C005FA03FA0D692CEA5F
:101D00000A0C05FA03F343EA0C031362D1F804A0AA
:101D10000AF0030C02680CFA04F302EA09021A43FF
:101D20001AF4403F0260A1D041F26003C4F2020302
:101D30001A6840F2004942F001021A601A68C4F2BF
:101D4000010902F001020192019A26F003024FF606
:101D5000084A4A44CFF6FF7A52F80AC00EF00C0542
:101D60000F23009FAB402CEA030307FA05F52B4332
:101D700042F80A30D9F808C04B684CEA0805DA0284
:101D800058BF2CEA080540F20C4CC9F80850C4F2C0
:101D9000010CDCF800209F0242EA080558BF22EA45
:101DA0000805CCF80050D9F804209D0342EA080742
:101DB00058BF22EA0807C9F80470D9F80020DB03ED
:101DC00042EA080758BF22EA0807C9F8007001274D
:101DD0004CE700BF02B0BDE8F08F00001823002AD6
:101DE00008BF2823C150704742F60C60C2F20000C1
:101DF0000068704740F2040042F60C61C2F2000035
:101E0000C2F2000140680A68104408607047000090
:101E100080B5032000F0C8F80F2000F009F8002872
:101E20001CBF012080BD00F05BF8002080BD0000D9
:101E3000B0B586B041F25801C4F202010A68044606
:101E400042F008020A60096801A801F00801019146
:101E50000199694600F04CFC00F06CFC4DF6836182
:101E6000C4F21B31A0FB01014FF0FF3000EB9141A8
:101E700041F6080040F60042C2F20000C4F200023F
:101E800040F2E7330025C0E90021C0E902530561B3
:101E900000F090FF054618B1284606B0B0BD00BF5F
:101EA00041F60800C2F2000000F0DAFF0546002803
:101EB000F2D1322000F038F80F2C0DD83220214614
:101EC0000022002500F044F840F20400C2F20000B5
:101ED0000460284606B0B0BD0125284606B0B0BD56
:101EE00080B582B041F25800C4F20200816800223D
:101EF00041F001018160816801F0010101910199C6
:101F0000016841F08051016000680F2100F08050AD
:101F1000009000986FF0010000F01AF802B0BDE8E0
:101F2000804000F0E5B80000002848BF7047C1B20B
:101F300000F01F00012202FA00F04EF20012CEF271
:101F4000000242EAD10121F003010860704700005D
:101F500010B54EF60C5CCEF2000CDCF80030C3F38A
:101F6000022E8EF00704042C28BF0424BEF10303C4
:101F70004FF0FF3E0EFA04F438BF0023A14399400E
:101F80000EFA03F39A43114300F00F0200F160438D
:101F90000901043A03F564436244002848BF02F192
:101FA0000C03197010BD00004EF60C51CEF200016A
:101FB0000A684FF6FF031A4060F30A2242F080607D
:101FC00040F0FD7008607047B0F5007F42D00028F7
:101FD00040F0808047F21400C4F2000050F8141C56
:101FE000C26E01F4C06122F48072B1F5806FC266E6
:101FF0002ED150F8141C012262F34A2140F8141C1F
:1020000040F20C01C2F200010968322251434DF640
:102010008362C4F21B32A1FB0212910C02685205CA
:1020200011D54A1C0FD0026852050CD559B102686F
:10203000520508D5012906D00268520503D50229A8
:10204000A1F10401EAD10068400544BF03207047B4
:102050000020704747F21400C4F2000050F8141C2E
:10206000C26E01F4C06142F48072B1F5806FC26645
:10207000EED150F8141C012262F34A2140F8141CDE
:1020800040F20C01C2F200010968322251434DF6C0
:102090008362C4F21B32A1FB0212910C026852054A
:1020A00011D54A1C0FD0026852050CD559B10268EF
:1020B000520508D5012906D00268520503D5022928
:1020C000A1F10401EAD10068400544BF0320704734
:1020D000BEE700BF47F21400C4F2000050F8141C21
:1020E000022262F34A2140F8141C002070470000CD
:1020F00047F20800C4F20000016841F48041016029
:10210000704700002DE9F04182B00446807841F22A
:1021100088060007C4F2020602D400202FE000BFA8
:1021200056F8300C10F080580BD156F8300C40F0B7
:10213000805046F8300C56F8300C00F0805001907A
:10214000019847F20007C4F20007386840F4807035
:102150003860FFF749FE05463868C00500F10C817C
:10216000FFF742FE401B0228F6D90320B8F1000F0A
:1021700005D156F8301C21F0805146F8301C2168FA
:10218000CA0717D18A071DD44A0723D40A0729D4BE
:10219000CA062FD48A0635D44A063BD40A0641D44F
:1021A000CA0547D48A034DD48A0553D44A0559D465
:1021B00067E000BF3268636822F003021A433260AE
:1021C0008A07E1D53268A36822F00C021A43326014
:1021D0004A07DBD53268E36822F030021A433260E6
:1021E0000A07D5D53268236922F0C0021A4332604B
:1021F000CA06CFD53268636922F440721A4332604E
:102200008A06C9D53268A36922F440621A43326053
:102210004A06C3D53268E36922F440521A43326059
:102220000A06BDD53268236A22F440421A4332605E
:10223000CA05B7D53268636A22F440321A43326065
:102240008A03B1D57269A36A22F003021A4372614C
:102250008A05ABD53268E36A22F440221A43326021
:102260004A050ED53268236B22F440121A43B3F5A7
:10227000801F326005D156F87C2C42F4801246F85B
:102280007C2C0A050ED53268636B22F440021A4397
:10229000B3F5800F326005D156F87C2C42F48012E1
:1022A00046F87C2CCA040ED53268A36B22F040722B
:1022B0001A43B3F1807F326005D156F87C2C42F48A
:1022C000801246F87C2C8A040ED53268E36B22F02B
:1022D00040621A43B3F1006F326005D156F87C2C8E
:1022E00042F4801246F87C2C4A040ED53268236CE6
:1022F00022F040621A43B3F1006F326005D156F804
:102300007C2C42F4801246F87C2C0A040ED53268EC
:10231000636C22F040521A43B3F1805F326005D102
:1023200056F87C2C42F4803246F87C2CCA030ED539
:102330003268A36C22F040421A43B3F1804F3260FE
:1023400005D156F87C2C42F4803246F87C2C4903A7
:102350000ED57169E26C21F440111143B2F5001FF2
:10236000716105D156F87C1C41F4801146F87C1C43
:1023700002B0BDE8F08100BFB06810F4407010D02A
:10238000216D88420BD0B068B16820F4407041F4F0
:102390008031B160B16821F48031B160B060C007B4
:1023A0000CD1B068216D20F440700843B06000206B
:1023B000B8F1000F7FF4E3AEDBE600BFFFF714FDDA
:1023C000054641F2883700BFB0688007E9D4FFF7BF
:1023D0000BFD401BB842F7D9C7E600002DE9F047D6
:1023E00000286DD042F2000AC4F2020A0446DAF86C
:1023F00000000D4600F00F0088420CD2DAF8000011
:1024000020F00F002843CAF80000DAF8000000F0BE
:102410000F00A84254D1216841F20808C807C4F24D
:10242000020803D1880740F1D880BDE06068022827
:102430003AD0032840D158F8082C920140D5D8F85A
:102440000420D8F8043042F20046C3F3031302F02C
:102450000302D8F804700133C0F2F406032A04BF63
:1024600041F20026C0F27A06B6FBF3F2D8F8043047
:10247000C7F306277A43C3F34163022707EB4303FD
:10248000B2FBF3F24BF20043C0F2C4439A4261D96B
:10249000D8F8002012F0F00F51D089075AD5A16862
:1024A000002957D14BE000BF58F8081C89035CBFD6
:1024B0000120BDE8F08707E058F8081C490503D45F
:1024C0000120BDE8F08700BFD8F8001001F00C0132
:1024D00004293FD0D8F8001001F00C01082939D0A8
:1024E000D8F8001001F00C010C2933D1D8F80410F1
:1024F000D8F8042042F20047C2F3031201F00301AE
:10250000D8F804300132C0F2F407032904BF41F2C5
:102510000027C0F27A07B7FBF2F1D8F80420C3F322
:1025200006235943C2F34162022303EB4202B1FB8B
:10253000F2F14BF20042C0F2C44291420AD9D8F8FB
:102540000010082262F307114FF00109C8F80010CB
:1025500002E000BF4FF00009D8F8001021F003019D
:102560000843C8F80000FFF73FFC064641F28837F1
:10257000D8F80000616800F00C00B0EB810F07D0C4
:10258000FFF732FC801BB842F2D90320BDE8F08788
:102590002168880708D4B9F1000F1ED0D8F80000D0
:1025A00020F0F00017E000BF480705D5D8F800007C
:1025B00040F4E060C8F80000080706D5D8F800002D
:1025C000072262F30D20C8F80000D8F80000A268C6
:1025D00020F0F0001043C8F80000DAF8000000F026
:1025E0000F00A8421BD9DAF8000020F00F002843A2
:1025F000CAF80000FFF7F8FB064641F2883700BF33
:10260000DAF8000000F00F00A84207D0FFF7ECFB5B
:10261000801BB842F4D90320BDE8F0872168480741
:1026200007D5D8F80000E26820F4E0601043C8F84D
:102630000000080708D5D8F80000216920F4605090
:1026400040EAC100C8F80000D8F8000042F200419A
:10265000C0F2F40100F00C00042808462DD0D8F890
:10266000000000F00C00082841F20020C0F27A00BF
:1026700023D0D8F8002002F00C020C2A1CD1D8F884
:102680000420D8F8043002F00302C3F30313D8F88F
:1026900004700133032A08BF0146B1FBF3F0D8F8F8
:1026A0000410C7F30627C1F341610222784302EB0D
:1026B0004101B0FBF1F000E00020D8F800104AF230
:1026C000F062C1F30311C0F60002515C40F20C024B
:1026D00001F01F0120FA01F140F20400C2F20000F3
:1026E0000068C2F200021160BDE8F047FFF7A0BB2E
:1026F0000F22026041F20802C4F20202136803F0E2
:1027000003034360136803F0F0038360136803F46A
:10271000E063C36012684FF4E06303EAD20202612F
:1027200042F20000C4F20200006800F00F000860EE
:102730007047000040F20C0041F20801C2F20000B4
:10274000C4F20201006809684AF20072C1F3022172
:10275000C0F60002515C01F01F01C8407047000044
:1027600040F20C0041F20801C2F20000C4F2020182
:10277000006809684AF20072C1F3C221C0F6000283
:10278000515C01F01F01C8407047000080B541F264
:102790000C01C4F2020151F8040C42F20042C0F2F2
:1027A000F40200F00C000428104608BF80BD51F868
:1027B000040C00F00C00082841F20020C0F27A005E
:1027C00022D051F8043C03F00C030C2B1CBF00205A
:1027D00080BDD1F800C00B680CF0030CC3F3031EDE
:1027E0000B680EF1010EBCF1030F08BF0246096829
:1027F000B2FBFEF0C3F30623C1F34161022258434A
:1028000002EB4101B0FBF1F080BD00002DE9F04189
:1028100082B0002800F006810446007841F20006EC
:10282000C007C4F2020655D12078800774D42078FE
:10283000000700F197802078400700F1B7802078EA
:10284000800600F10781E569002D00F03082B06854
:1028500000F00C000C2840F05981012D00F0E280BE
:10286000F068216A00F003028A4240F0DB80626A6D
:102870006FF00F0300F0F00103EB0212914240F001
:10288000D180A16A00F4FE42B2EB012F40F0CA8071
:10289000E16A00F07842B2EBC16F40F0C380226B76
:1028A0000023CFF6E07303EA025200F4C001A2F560
:1028B0000012914240F0B680616B4FF07E4202EA16
:1028C000016100F0C06001F17E41884240F0AA80C1
:1028D000EDE100BFB06800F00C01F06808295BD0A2
:1028E000032281F00C0122EA00000844B0FA80F0D3
:1028F000400951D16068B0F5803F07D0B0F5A02FF6
:1029000040F0DA80306840F480203060306840F475
:1029100080303060DBE000BFB068F16800F00C0090
:10292000042869D001F0030180F00C0081F002015D
:102930000844B0FA80F040095ED1E16830680029AF
:1029400000F0D28040F480703060FFF74DFA054609
:102950003068400500F1FC80FFF746FA401B022872
:10296000F6D92EE16169D6F89400002900F0908034
:1029700040F00100C6F89400FFF736FA054600BFA4
:10298000D6F8940080073FF556AFFFF72DFA401BAD
:102990000228F5D915E100BF306880037FF544AF08
:1029A000606800287FF440AF3CE000BFB06D10F0DD
:1029B000805808D1B06D40F08050B065B06D00F027
:1029C00080500190019847F20007C4F20007386870
:1029D000C0052BD4386840F480703860FFF704FAE3
:1029E000054600BF3868C00520D4FFF7FDF9401B3D
:1029F0000228F7D9E5E000BF3068400501D5E0685E
:102A000080B17068216920F0FE4040EA016070608A
:102A100040F20400C2F200000068FFF709FA002843
:102A20003FF405AF012002B0BDE8F081A0680128A5
:102A300008D0052840F0AA80D6F8900040F00400A5
:102A4000C6F89000D6F8900040F00100C6F890005B
:102A5000A9E000BFA169D6F89800002900F08080A5
:102A600040F00100C6F89800FFF7BEF9054600BF28
:102A7000D6F8980080073FF5E6AEFFF7B5F9401BA2
:102A800002284FF00300F3D902B0BDE8F08100BF87
:102A900020F00100C6F89400FFF7A6F9054600BF34
:102AA000D6F8940080077FF5C6AEFFF79DF9401B6E
:102AB0000228F5D985E000BF3168002821F4803173
:102AC0003160316821F48021316000F07F80FFF7B0
:102AD0008BF90546306880033FF5A6AEFFF784F911
:102AE000401B6428F6D96CE020F480703060FFF75A
:102AF0007BF90546306840057FF599AEFFF774F91C
:102B0000401B02284FF00300F4D9BDE7306820F0E5
:102B100080703060FFF768F9022D05460CD100BFC8
:102B20003068800140F17E80FFF75EF9401B02288B
:102B30004FF00300F4D9A7E73068800140F1B0807E
:102B4000FFF752F9401B02284FF00300F4D99BE72E
:102B50007068216920F0FE4040EA0160706066E61E
:102B600020F00100C6F89800FFF73EF9054600BFC7
:102B7000D6F8980080077FF566AEFFF735F9401B61
:102B800002284FF00300F3D97EE700BFD6F890107B
:102B900021F00101C6F89010D6F8901021F0040140
:102BA000C6F8901010B3FFF71FF9054641F28837B9
:102BB000D6F8900080072BD4FFF716F9401BB842D7
:102BC000F6D9032002B0BDE8F08100BFFFF70CF991
:102BD000054600BF306880037FF526AEFFF704F995
:102BE000401B64284FF00300F4D94DE7FFF7FCF8D1
:102BF000054641F2883700BFD6F89000800707D518
:102C0000FFF7F2F8401BB8424FF00300F4D93BE75E
:102C1000B8F1000F7FF413AEB06D20F08050B065B6
:102C20000DE600BFF06848F20C01C0F29F1104F1FC
:102C3000200700EA010C8ECF6FF00F00D4E90C548E
:102C400000EB02100022CFF6E07241EA0C0102EA2A
:102C500005520843A2F500124FF07E4540EA0320DA
:102C600005EA0465104305F17E4540EAC760284344
:102C7000F060306840F080703060F06840F0807044
:102C8000F060FFF7B1F80446306880010FD4FFF719
:102C9000ABF8001B02284FF00300F5D9F4E600BFA3
:102CA000F0684FF6FC71CFF6EE610840F06000204E
:102CB00002B0BDE8F08100007047000070470000DE
:102CC0007047000070470000704700007047000028
:102CD00070B590F83C20012A4FF0020265D080F8D0
:102CE0003D20026842F600435468D2F808C0C4F29E
:102CF000010345F2000E9A42C4F2010E18BF72455C
:102D00002CD14D6824F470042C434FF68F75CFF608
:102D1000FF550E682C4042F6FF35C4F201053443DE
:102D2000AA4254600EDC40F2FF73C4F200039A42E0
:102D30001CDCB2F1804F2DD040F20043C4F20003FE
:102D400026E000BF43F6FF74C4F20104A24219DC7E
:102D50009A421FD043F2004318E000BF43F20045FF
:102D6000C4F20105AA42CCD0CFE700BF40F6000371
:102D7000C4F200039A420DD040F60043C4F20003AF
:102D800006E000BF724505D044F20003C4F201031F
:102D90009A4204D189682CF0800319439160012183
:102DA000002280F83D1080F83C20104670BD0000E5
:102DB00070470000002804BF0120704710B504468A
:102DC00090F83D0028B9002084F83C00204600F02F
:102DD00023F8022084F83D002068211D01F048FA04
:102DE000012084F8480084F83E0084F83F0084F80D
:102DF000400084F8410084F8420084F8430084F8DD
:102E0000440084F8450084F8460084F8470084F8BC
:102E10003D00002010BD000080B582B0006841F286
:102E20000001C4F2000188421CBF02B080BD41F223
:102E30005800C4F202000168002241F01001016054
:102E40000068052100F01000019001983620FFF77E
:102E50007FF8362002B0BDE88040FFF765B800007B
:102E600090F83D1001291CBF01207047022180F815
:102E70003D10016842F6FF32C868C4F20102914277
:102E800040F00100C8600DDC40F2FF70C4F20000A9
:102E9000814217DCB1F1804F2CD040F20040C4F2E7
:102EA000000025E043F6FF70C4F20100814215DC0A
:102EB00042F60040C4F2010081421BD043F20040C0
:102EC00014E000BF40F60000C4F20000814211D0BF
:102ED00040F60040C4F200000AE000BF45F20000E6
:102EE000C4F20100814205D044F20000C4F20100A6
:102EF00081420CD188680722C0F201020240062AF2
:102F00004FF0000008D0B2F5803F08BF7047086856
:102F100040F001000860002070470000704700008A
:102F2000F0B581B004460068C5680669B10717D5D9
:102F300015F0020114D06FF0020101610121217727
:102F40008069800704D02046FFF7E8FF06E000BF55
:102F5000204600F0CBF8204600F0CAF80020207789
:102F6000700719D515F0040016D020686FF0040121
:102F7000016102212177806910F4407F04D020464E
:102F8000FFF7CCFF06E000BF204600F0AFF8204678
:102F900000F0AEF800202077300717D515F00800B4
:102FA00014D020686FF00801016104212177C06905
:102FB000800703D02046FFF7B1FF05E0204600F070
:102FC00095F8204600F094F800202077F00619D5F7
:102FD00015F0100016D020686FF010010161082173
:102FE0002177C06910F4407F04D02046FFF796FF98
:102FF00006E000BF204600F079F8204600F078F89F
:1030000000202077F00718BF15F0010006D02068D7
:103010006FF001010161204600F06CF816F4025FC8
:1030200005F0800718BF002F02D1F00509D410E089
:1030300020686FF4025101612046FFF73FFEF00562
:1030400007D537B120686FF4807101612046FFF722
:1030500033FE700609D515F0400006D020686FF0E9
:1030600040010161204600F04FF8B00609D515F087
:10307000200006D020686FF0200101612046FFF794
:103080001FFEF00209D515F4801006D020686FF4F9
:10309000801101612046FFF717FEB00209D515F433
:1030A000001006D020686FF4001101612046FFF780
:1030B00009FE700209D515F4800006D020686FF46F
:1030C000800101612046FFF701FE30020CD515F4A6
:1030D000000009D021686FF4000220460A6101B0A7
:1030E000BDE8F040FFF764BE01B0F0BD70470000DE
:1030F00070470000006840F60041C4F200018842B9
:1031000018BF7047FEF776BE7047000090F8841035
:10311000012904BF022070472421C0F888100268EA
:103120001168136823F00103136021F0005300219C
:10313000416613602022C0F8882080F88410084679
:103140007047000010B50446D0F88C0020281CBF42
:10315000022010BD00294FF0010018BF002A01D144
:1031600010BD00BF0120E06600202067204602F06D
:103170000FFE0028F4D1E06E01281CBF012010BD15
:1031800020681021016200BF206850E8000F21680C
:1031900040F0100041E8000202B3206850E8000F40
:1031A000216840F0100041E80002BAB1206850E800
:1031B000000F216840F0100041E8000272B1206861
:1031C00050E8000F216840F0100041E80002002A9A
:1031D0004FF0000008BF10BDD6E700BF002010BDB3
:1031E00041F6A002C2F20002904218BF704710B52B
:1031F00090B041F68860C2F200000022425400788C
:10320000A0F146011D2900F25280DFE801F00F50C5
:1032100050505050505050505050505050505050AE
:103220005050505050505050508B83930AAA02F186
:10323000080002F1100402F10C018DE8130041F6C0
:103240008864C2F20004131D02F1140C44A120464C
:10325000CDF80CC0FDF732F8062827D19DED0A0AFB
:103260009DED0B1A9DED0C2AB8EEC00A9DED0D3AAE
:103270008DED040AB8EEC10A8DED050AB8EEC20A5A
:103280009DED0E1A8DED060AB8EEC30A8DED070A04
:10329000B8EEC10A9DED0F1A8DED080AB8EEC10A0D
:1032A00004A803218DED090A04F04CFE207854286F
:1032B00046D10AAA02F1080002F10C01CDE9000191
:1032C00041F68860131D02F11004C2F2000029A12A
:1032D0000294FCF7F3FF9DED0A0A9DED0B1A9DED9C
:1032E0000C2A9DED0D3A40F210000E99B8EEC00A7E
:1032F000C2F20000B8EEC11AB8EEC22AB8EEC33A64
:1033000080ED000A80ED011A80ED022A80ED033A7B
:10331000017415E042F20820C2F20000022101808F
:103320000EE000BF42F20820C2F20000012101803D
:1033300006E000BF42F20820C2F200000321018033
:1033400041F6A00041F68861C2F20000C2F200011D
:103350004FF48072FFF7F6FE10B0BDE810407047E2
:103360004625644125645325644125644C25644108
:1033700025640000542048256420522564204325FC
:103380006420532564205825640000007047000025
:10339000B0B590F88420012A04BF0220B0BD2422D9
:1033A000C0F888200268D0F864E0D2F800C0136842
:1033B000BEF1000F23F001031360936823F06063F4
:1033C00041EA0301916019D0936891684AF2E47E62
:1033D000490FC0F6000E4AF2EC751EF80140C0F627
:1033E0000005695CC3F34263E400B4FBF1F11EF82D
:1033F0000340EB5CE500B5FBF3F301E001210123A1
:10340000A0F86A102021A0F86830C2F800C0C0F807
:103410008810002180F884100846B0BDB0B590F83F
:103420008420012A04BF0220B0BD2422C0F88820D5
:103430000268D0F864E0D2F800C01368BEF1000F53
:1034400023F001031360936823F0604341EA030112
:10345000916019D0936891684AF2E47E490FC0F6F2
:10346000000E4AF2EC751EF80140C0F60005695CDA
:10347000C3F34263E400B4FBF1F11EF80340EB5CDC
:10348000E500B5FBF3F301E001210123A0F86A1088
:103490002021A0F86830C2F800C0C0F888100021D0
:1034A00080F884100846B0BD7047000070470000E7
:1034B0007047000070B5016840F62F03CA690446E2
:1034C00008688E681340202B0CD100F0200306F012
:1034D00080555B1917D0616F00297BD02046BDE86D
:1034E0007040084740F60F031A420CD00123C1F286
:1034F000000306EA030C40F22013C0F2004303402D
:1035000013EB0C0368D1E36E012B05D112F010030D
:1035100018BF10F010034DD1D3020BD516F4800361
:1035200008D04FF4801220460A62BDE87040FFF7D1
:10353000BDBF00BF110606D500F0800106F40003F0
:10354000C91840F03782510640F1108110F0400157
:1035500000F00C81206850E8000F216820F0400046
:1035600041E80002DAB1206850E8000F216820F03D
:10357000400041E8000292B1206850E8000F216845
:1035800020F0400041E800024AB1206850E8000FF6
:10359000216820F0400041E80002002ADAD1202012
:1035A0000021C4F888002046A167BDE8704000F003
:1035B00015BC00BF102008628868400618D4B4F813
:1035C0005C00B4F85E10B4F85E20002A18BF884290
:1035D00040F0128270BD00BFD30718BF10F4807393
:1035E00040F0D080930706F0010E00F1D780E0E0B4
:1035F000D4F8800000684268B4F85C3091B20029C9
:1036000000F0DE81994280F0DB81A4F85E20006842
:10361000800600F19E80206850E8000F216820F4A9
:10362000807041E80002DAB1206850E8000F21689C
:1036300020F4807041E8000292B1206850E8000F49
:10364000216820F4807041E800024AB1206850E807
:10365000000F216820F4807041E80002002ADAD1CE
:10366000206850E8020F216820F0010041E80202C2
:10367000BAB3206850E8020F216820F0010041E849
:10368000020272B3206850E8020F216820F00100A6
:1036900041E802022AB3206850E8020F216820F0B6
:1036A000010041E80202002ADAD11AE0206850E85D
:1036B000020F216820F0400041E80202DAB12068E0
:1036C00050E8020F216820F0400041E8020292B168
:1036D000206850E8020F216820F0400041E8020213
:1036E0004AB1206850E8020F216820F0400041E80C
:1036F0000202002ADAD12020C4F88C000020E06603
:10370000206850E8000F216820F0100041E8000216
:10371000DAB1206850E8000F216820F0100041E87D
:10372000000292B1206850E8000F216820F01000DC
:1037300041E800024AB1206850E8000F216820F0FB
:10374000100041E80002002ADAD1D4F88000FDF729
:1037500065FB02202067B4F85C00B4F85E10401AE4
:1037600081B22046BDE87040FFF73ABD110240F13A
:10377000318110F0804100F02D812046BDE870407D
:10378000FFF792BE01230B62D4F8903043F001039F
:10379000C4F89030930706F0010E0AD5BEF1000F71
:1037A00007D002230B62D4F8903043F00403C4F82E
:1037B000903053070AD5BEF1000F07D004230B62E7
:1037C000D4F8903043F00203C4F8903013070CD5BE
:1037D00000F0200353EA0C0307D008230B62D4F84F
:1037E000903043F00803C4F8903013050BD510F067
:1037F000806308D04FF400630B62D4F8903043F03C
:103800002003C4F89030D4F89030002B3FF4E2AE9F
:1038100012F020021EBF00F0200006F0805210EBD4
:10382000020040F06B81D4F89000896800F0280015
:1038300001F04001401807D12046FFF739FE002073
:10384000C4F8900070BD00BF206850E8000F2168E8
:1038500020F4907041E80002DAB1206850E8000FCF
:10386000216820F4907041E8000292B1206850E88D
:10387000000F216820F4907041E800024AB12068EE
:1038800050E8000F216820F4907041E80002002AFF
:10389000DAD14FF6FE70CEF6FF7000BF216851E816
:1038A000021F2268014042E80213C3B1216851E8B7
:1038B000021F2268014042E8021383B1216851E8E7
:1038C000021F2268014042E8021343B1216851E817
:1038D000021F2268014042E80213002BDED1E06E95
:1038E000012824D1206850E8000F216820F0100042
:1038F00041E80002DAB1206850E8000F216820F0AA
:10390000100041E8000292B1206850E8000F2168E1
:1039100020F0100041E800024AB1206850E8000F92
:10392000216820F0100041E80002002ADAD12020AE
:10393000C4F88C000020E066216860678868400653
:1039400054D500BF206850E8020F216820F04000E5
:1039500041E80202DAB1206850E8020F216820F045
:10396000400041E8020292B1206850E8020F21684D
:1039700020F0400041E802024AB1206850E8020FFE
:10398000216820F0400041E80202002ADAD1D4F890
:10399000800058B345F26971C0F600018163FDF7FC
:1039A00075FA00283FF416AED4F88000816BBDE8AC
:1039B00070400847A16F00297FF490AD0AE600BF70
:1039C0008B427FF407AE006880067FF503AE0222CB
:1039D0008DE000BFD1017FF5FDADB0F1FF3FC8BF65
:1039E00070BD2046BDE87040FFF7D0BC2046BDE862
:1039F0007040FFF75DBD00BF401A00BF216851E86D
:103A0000001F226821F4907142E80013DBB12168A5
:103A100051E8001F226821F4907142E8001393B12D
:103A2000216851E8001F226821F4907142E80013D8
:103A30004BB1216851E8001F226821F4907142E8DF
:103A40000013002BDAD14FF6FE71CEF6FF7100BFE6
:103A5000226852E8022F23680A4043E80226C6B1D2
:103A6000226852E8022F23680A4043E8022686B102
:103A7000226852E8022F23680A4043E8022646B132
:103A8000226852E8022F23680A4043E80226002EEB
:103A9000DED12021C4F88C100021E166616700BFEF
:103AA000216851E8001F226821F0100142E800134C
:103AB000DBB1216851E8001F226821F0100142E8C3
:103AC000001393B1216851E8001F226821F0100112
:103AD00042E800134BB1216851E8001F226821F031
:103AE000100142E80013002BDAD1022281B22046F5
:103AF0002267BDE87040FFF773BB00BF626F002A0A
:103B00003FF491AE2046904721688CE610B5D8B1BD
:103B10000446D0F8880028B9002084F884002046A4
:103B200000F026F82420C4F888002068A16A026802
:103B300022F00102026011B1204601F0E9FC2046AA
:103B400001F0C6FF012801D1012010BD216848689D
:103B500020F490404860886820F02A008860086857
:103B600040F0010220460A60BDE8104001F044BD6B
:103B700070B59AB00446684608304C21FCF792FBB9
:103B8000206843F60001C4F20101884202D01AB055
:103B900070BD00BF01200090002668460196FEF728
:103BA000B1FA002818BFFDF71BF941F24C00C4F22E
:103BB0000200416941F480414161416901F4804161
:103BC00015911599016841F002010160006815A97D
:103BD00000F0020015901598C02015900220CDE944
:103BE00016060720199040F20040C4F6000018960F
:103BF000FEF71EF841F27C650820C2F20005C4F20F
:103C000002001821802285E843002846C5E90362A6
:103C1000C5E90566C5E90766FDF7CCF9002818BFB8
:103C2000FDF7DEF8252005210022C4F88050AC62A3
:103C3000FEF78EF92520FEF777F91AB070BD000067
:103C400070470000704700002DE9F0410446D0F8AD
:103C5000880020281CBF0220BDE8F0810D46002905
:103C60004FF0010000F0B8801646002A08BFBDE8FA
:103C7000F0810020C4F8900021209846C4F8880004
:103C8000FEF7B2F8A4F85460A4F85660A16806469E
:103C9000B1F5805F02D1206900286BD02F46002546
:103CA000B4F8560000286BD018F101001CD0B8F110
:103CB000000F3DD121680BE017F8010B8862B4F8C2
:103CC00056000138A4F85600B4F85600002858D021
:103CD000C869000640F17A80002FEDD135F8020B5B
:103CE00000276FF35F20E9E7216802E0C86900065A
:103CF00009D4C869000606D4C86900065CBFC86953
:103D00005FEA0060F2D51FB117F8010B05E000BFB4
:103D100035F8020B00276FF35F208862B4F8560075
:103D20000138A4F85600B4F856000028E1D128E084
:103D3000216800BFC869000608D4FEF755F8801B4B
:103D4000404545D821680868F4E700BF17B117F867
:103D5000010B04E035F8020B00276FF35F20886247
:103D6000B4F856000138A4F85600B4F856000028FC
:103D7000E0D106E00027B4F8560000287FF494AFA5
:103D80002168C86940061FD4B8F1000F1ED018F191
:103D900001000FD1C869400616D4C869400613D483
:103DA000C869400610D4C86940064FF00000F1D53C
:103DB0000FE000BFFEF718F8801B404508D82068C8
:103DC0000168C0694006F5D5002002E0FEF70CF856
:103DD00003202021C4F88810BDE8F081704700005E
:103DE000FEE7000080B582B041F24800C4F2020054
:103DF0000168002241F004010160016801F0040142
:103E000001910199016841F00101016000680521FB
:103E100000F00100009000980B20FEF799F80B20AD
:103E200002B0BDE88040FEF77FB8000080B541F2E7
:103E3000DC6046F20041C2F20000C4F20001002240
:103E4000C0E90012112100F1140701234FF0060C04
:103E50004FF0030E87E80A5000F12407C0E9022260
:103E6000C0F80F2087E80A50C0E90D32C263FDF7A1
:103E70008FFC002808BF80BDBDE88040FCF7B0BFC4
:103E800080B541F2407046F60001C2F20000C4F273
:103E900000010022C0E90012112100F114070123E2
:103EA0004FF0060C4FF0030E87E80A5000F124078C
:103EB000C0E90222C0F80F2087E80A50C0E90D329D
:103EC000C263FDF765FC002808BF80BDBDE88040E7
:103ED000FCF786BF80B541F2A47046F60041C2F2FD
:103EE0000000C4F200010022C0E90012112100F11B
:103EF000140701234FF0060C4FF0030E87E80A5019
:103F000000F12407C0E90222C0F80F2087E80A5018
:103F1000C0E90D32C263FDF73BFC002808BF80BD3D
:103F2000BDE88040FCF75CBF10B502F083FE41F6AF
:103F3000A00041F68861C2F20000C2F200014FF415
:103F40008072FFF7FFF804F025F802F0A9FD02F0F7
:103F5000A3FB41F2DC60C2F2000002F0D7FE41F2A6
:103F60004070C2F2000002F0D1FE4AF2F470C0F6D6
:103F7000000003F035F940F22804C2F200044AF6CA
:103F8000E0022060C0F600021020082103F08AF849
:103F9000606044F2BD304AF28872C0F60000C0F69C
:103FA0000002002103F058F9A06010BDB0B586B042
:103FB000002441F24C000594C4F202000168002282
:103FC00041F00401016001684FF4207501F0040123
:103FD00000910099016841F020010160016801F041
:103FE000200100910099016841F001010160016820
:103FF00001F0010100910099016841F002010160A6
:1040000000684FF4207100F00200009000984FF01B
:104010009040FDF7E3FE0120CDE9020401A94FF035
:10402000904001950494FDF703FE06B0B0BD00007A
:1040300010B584B041F6540041F20001C2F2000014
:10404000C4F20001002442F23312632380E8160018
:1040500080210294C3608161FEF7ACFE002818BF86
:10406000FCF7BEFE41F65400C2F2000001A9019423
:104070000394FEF72DFE002818BFFCF7B1FE04B034
:1040800010BD000080B541F6A00043F60001C2F269
:104090000000C4F2010100234FF00C0C4FF4E13298
:1040A00080E80E00C0E90333C0E905C3C0E9073367
:1040B000C0E90933FFF72AFD002818BFFCF790FE7E
:1040C00041F6A000C2F200000021FFF7A7F9002886
:1040D00018BFFCF785FE41F6A000C2F200000021E7
:1040E000FFF756F9002818BFFCF77AFE41F6A0004A
:1040F000C2F20000FFF70AF8002808BF80BDBDE843
:104100008040FCF76DBE0000FEE70000FEE7000007
:10411000EFF30980BFF36F8F154B1A681EF0100F75
:1041200008BF20ED108A20E9F04F10602DE909004A
:104130004FF0500080F31188BFF34F8FBFF36F8FA4
:1041400004F08EFC4FF0000080F31188BDE80900F8
:1041500019680868B0E8F04F1EF0100F08BFB0EC07
:10416000108A80F30988BFF36F8F704700BF00BFCC
:104170007800002030EEC05A90ED050A90ED001A4C
:1041800035EE406A90ED012A21EE061A30EE006A03
:1041900090ED067A90ED023A35EE466A25EE022A57
:1041A00036EE076A90ED034A23EE063A80ED060AE2
:1041B00031EE020A30EE031A90ED070A34EE011ACE
:1041C000B4EE401AF1EE10FA80ED045A80ED055A73
:1041D0000ADC90ED082AB0EE410AB4EE421AF1EE84
:1041E00010FAB8BFB0EE420A80ED030A80ED090A6A
:1041F0007047000000000000000000000000000008
:10420000074B19680868B0E8F04F80F30988BFF3DE
:104210006F8F4FF0000080F31188704700BF00BF20
:104220007800002080B54EF21000CEF20000006849
:1042300005F03EFB012808BF80BDBDE8804004F0CA
:104240002FBD00004EF68850CEF20000016841F408
:10425000700101607047000041F60800C2F20000E2
:10426000FEF75EBE41F65400C2F20000FEF758BEF3
:1042700080B540F6FF330268C4F2000343F2FF3C0E
:104280009842C4F2010C0BDD60452FDC40F6004380
:10429000C4F20003984235D042F600432EE000BF3E
:1042A000B0F1804F2ED040F20043C4F20003984298
:1042B00028D040F60003C4F20003984222D06045A3
:1042C00026DC40F2FF73C4F20003984236DD40F66C
:1042D0000003C4F20003984244D040F60043C4F205
:1042E000000398423ED042F6004337E045F2000317
:1042F000C4F20103984205D043F20043C4F2010323
:104300009842DCD14B6822F070021A436045D8DD38
:1043100044F2FF33C4F20103984217DD44F2004334
:10432000C4F2010398421DD045F20003C4F2010318
:10433000984217D044F6000310E000BFB0F1804F60
:1043400010D040F20043C4F2000309E043F20043FE
:10435000C4F20103984205D044F20003C4F2010301
:10436000984203D1CB6822F440721A434B6922F081
:10437000800E8A6843EA0E03D1F800C00360C2626F
:10438000A0F18042A2F596324FEAB222092AC0F883
:1043900028C008D8012303FA02F240F2E5231A42AA
:1043A0001CBF09690163012141610169C90708BF97
:1043B00080BD016921F00101016180BD88B001F07B
:1043C00079FF02F0FFF941F6341640F22C049FED1C
:1043D000118A9FED11AA9FED11BA9FED11EADFED51
:1043E00011CADFED11DA9FED119ADFED11EADFED71
:1043F00011BADFED118AC2F200064FF00108C2F2D5
:1044000000040DF1080A0FF68825FBEE0E9AB2EEB5
:104410000EDA45E000000000000034430000AF4326
:104420000000164300001644000096420000E143DD
:10443000000034C30000B4420000B4C2002005F004
:104440007DFCDDE90604FCF76DF8064620460F46C4
:10445000FCF768F841EC100B4AF62700C0F60000A4
:10446000022132463B468DED000B05F095FC464699
:104470004FF0010842F20824C2F20004B4F900101F
:104480004AF66D00C0F6000005F086FC0020307092
:10449000208040F22C04C2F20004142002F07CFDC3
:1044A00030780028F9D142F20820C2F200000088DA
:1044B0000028F2D042F2082786F80080C2F20007F6
:1044C000B7F900100FF6D81005F066FCB7F9000038
:1044D000032800F0E181022800F01082012840F05A
:1044E000CF87B0EE480A05F017FC012002F054FD1A
:1044F0009FEDDE0A05F02CFC012002F04DFD9FED42
:10450000DC0A01F0C3FE012002F046FDB0EE490ACC
:1045100002F026F901F084FE38B900BF0A2002F04B
:104520003BFD01F07DFE0028F8D0B0EE480A05F012
:10453000F3FB012002F030FDB0EE4E0A05F008FC5E
:10454000012002F029FD9FEDCA0A01F09FFE012023
:1045500002F022FDB0EE490A02F002F901F060FE1D
:1045600038B900BF0A2002F017FD01F059FE0028FB
:10457000F8D0012005F0E2FBB0EE480A05F0CCFBD4
:10458000012002F009FDB3EE040A05F0E1FB012071
:1045900002F002FDB0EE680A01F078FE012002F0A0
:1045A000FBFCB0EE4B0A02F0DBF801F039FE30B94B
:1045B0000A2002F0F1FC01F033FE0028F8D0B0EE42
:1045C000480A05F0A9FB012002F0E6FCB0EE480A1B
:1045D00005F0BEFB012002F0DFFCB0EE680A01F03E
:1045E00055FE012002F0D8FCB0EE4B0A02F0B8F8FC
:1045F00001F016FE38B900BF0A2002F0CDFC01F030
:104600000FFE0028F8D0002005F098FBB0EE480A15
:1046100005F082FB012002F0BFFC9FED940A05F03B
:1046200097FB012002F0B8FC9FED920A01F02EFEEC
:10463000012002F0B1FCB0EE4B0A02F091F801F05B
:10464000EFFD30B90A2002F0A7FC01F0E9FD0028D7
:10465000F8D0B0EE480A05F05FFB012002F09CFCA8
:10466000B0EE4E0A05F074FB012002F095FC9FEDC0
:10467000810A01F00BFE012002F08EFCB0EE4B0A25
:1046800002F06EF801F0CCFD38B900BF0A2002F04C
:1046900083FC01F0C5FD0028F8D0012005F04EFB99
:1046A000B0EE480A05F038FB012002F075FC9FEDE2
:1046B000720A05F04DFB012002F06EFCB0EE680AB4
:1046C00001F0E4FD012002F067FCB0EE4B0A02F0BD
:1046D00047F801F0A5FD30B90A2002F05DFC01F0B9
:1046E0009FFD0028F8D0B0EE480A05F015FB012028
:1046F00002F052FCB0EE4E0A05F02AFB012002F057
:104700004BFCB0EE680A01F0C1FD012002F044FC50
:10471000B0EE4B0A02F024F801F082FD38B900BF78
:104720000A2002F039FC01F07BFD0028F8D00020BF
:1047300005F004FBB0EE480A05F0EEFA012002F0A5
:104740002BFC9FED4A0A05F003FB012002F024FC3C
:10475000B0EE690A01F09AFD012002F01DFC9FED08
:10476000470A01F0FDFF01F05BFD30B90A2002F0BD
:1047700013FC01F055FD0028F8D0B0EE480A05F012
:10478000CBFA012002F008FCB0EE4E0A05F0E0FA88
:10479000012002F001FCB0EE690A01F077FD012072
:1047A00002F0FAFB9FED350A01F0DAFF01F038FD67
:1047B00038B900BF0A2002F0EFFB01F031FD0028FC
:1047C000F8D0012005F0BAFAB0EE480A05F0A4FAD4
:1047D000012002F0E1FB9FED2A0A05F0B9FA012061
:1047E00002F0DAFBB0EE680A01F050FD012002F0A1
:1047F000D3FBB0EE4B0A01F0B3FF01F011FD30B96D
:104800000A2002F0C9FB01F00BFD0028F8D0B0EE41
:10481000480A05F081FA012002F0BEFB9FED190A5B
:1048200005F096FA012002F0B7FBB0EE680A01F03D
:104830002DFD012002F0B0FBB0EE4B0A01F090FF1D
:1048400001F0EEFC38B900BF0A2002F0A5FB01F030
:10485000E7FC0028F8D0002005F070FA4AF6800046
:10486000C0F6000005F012FF04E600BF000025437B
:10487000000070420000344200002A430000C84398
:104880000000A0430000964300C019440000C34349
:104890000000CD430080E8430FF6004005F0F6FE2F
:1048A0004FF0000804E000BFB8F1030F80F0088368
:1048B00020680AEBC80100224FF0FF3302F0AEFB84
:1048C0000028F1D108F101080AEBC80151E90209F9
:1048D000FBF728FE5746824648468B46FBF722FEEA
:1048E00041EC100B0FF6D830414652465B46BA46B3
:1048F0008DED000B05F050FAD6E700BFB0EE480A88
:1049000005F00AFA012002F047FB1FED210A05F02D
:104910001FFA012002F040FBB0EE4A0A01F0B6FC9B
:10492000012002F039FBB0EE4B0A01F019FF01F053
:1049300077FC30B90A2002F02FFB01F071FC00284F
:10494000F8D0B0EE480A05F0E7F9012002F024FBA8
:10495000B0EE6C0A05F0FCF9012002F01DFBB0EE90
:104960004A0A01F093FC012002F016FBB0EE4B0A5C
:1049700001F0F6FE01F054FC38B900BF0A2002F045
:104980000BFB01F04DFC0028F8D0012005F0D6F912
:10499000B0EE480A05F0C0F9012002F0FDFA1FED63
:1049A000460A05F0D5F9012002F0F6FAB0EE4A0AFF
:1049B00001F06CFC012002F0EFFAB0EE4B0A01F0BE
:1049C000CFFE01F02DFC30B90A2002F0E5FA01F02B
:1049D00027FC0028F8D0B0EE6D0A05F09DF9012003
:1049E00002F0DAFA1FED570A05F0B2F9012002F0E1
:1049F000D3FAB3EE0E0A01F049FC012002F0CCFA22
:104A0000B0EE490A01F0ACFE01F00AFC38B900BF73
:104A10000A2002F0C1FA01F003FC0028F8D0B0EE41
:104A20006D0A05F079F9012002F0B6FA1FED690A66
:104A300005F08EF9012002F0AFFAB3EE0E0A01F094
:104A400025FC012002F0A8FAB0EE6C0A01F088FE05
:104A500001F0E6FB38B900BF0A2002F09DFA01F030
:104A6000DFFB0028F8D0002005F068F9B0EE6D0AF1
:104A700005F052F9012002F08FFA1FED7B0A05F0D4
:104A800067F9012002F088FAB3EE0E0A01F0FEFB8E
:104A9000012002F081FAB0EE6C0A01F061FE01F033
:104AA000BFFB30B90A2002F077FA01F0B9FB002809
:104AB000F8D04AF6CD00C0F6000005F0E7FDB0EEF4
:104AC000480A05F029F9012002F066FA1FED8F0A65
:104AD00005F03EF9012002F05FFAB0EE4A0A01F05B
:104AE000D5FB012002F058FAB0EE4B0A01F038FE77
:104AF00001F096FB38B900BF0A2002F04DFA01F030
:104B00008FFB0028F8D0B0EE480A05F005F9012027
:104B100002F042FAB0EE490A05F01AF9012002F05B
:104B20003BFAB0EE4A0A01F0B1FB012002F034FA80
:104B3000B0EE4B0A01F014FE01F072FB38B900BF71
:104B40000A2002F029FA01F06BFB0028F8D00120BE
:104B500005F0F4F8B0EE480A05F0DEF8012002F0A6
:104B60001BFA1FEDB40A05F0F3F8012002F014FA65
:104B7000B0EE4A0A01F08AFB012002F00DFAB0EE15
:104B80004B0A01F0EDFD01F04BFB30B90A2002F0B9
:104B900003FA01F045FB0028F8D0B0EE6D0A05F0ED
:104BA000BBF8012002F0F8F91FEDC80A05F0D0F8B3
:104BB000012002F0F1F9B0EE690A01F067FB012073
:104BC00002F0EAF9B0EE490A01F0CAFD01F028FB53
:104BD00038B900BF0A2002F0DFF901F021FB0028FC
:104BE000F8D0B0EE6D0A05F097F8012002F0D4F984
:104BF0001FEDDA0A05F0ACF8012002F0CDF9B0EEB5
:104C0000690A01F043FB012002F0C6F9B0EE6C0A1C
:104C100001F0A6FD01F004FB38B900BF0A2002F044
:104C2000BBF901F0FDFA0028F8D0002005F086F865
:104C3000B0EE6D0A05F070F8012002F0ADF99FEDBD
:104C40009D0A05F085F8012002F0A6F9B0EE690A88
:104C500001F01CFB012002F09FF9B0EE6C0A01F09C
:104C60007FFD01F0DDFA30B90A2002F095F901F07C
:104C7000D7FA0028F8D04AF6CD00C0F6000005F0BB
:104C800005FD022408E000BF0FF6700005F0FEFCF1
:104C90000134042C3FF4EEABC4F1040000EE100A22
:104CA000B8EEC00A20EE0EFAB0EE480A3FEE0DCA8A
:104CB00005F032F8012002F06FF9B0EE4C0A05F071
:104CC00047F8012002F068F9B0EE4A0A01F0DEFA76
:104CD000012002F061F9B0EE4B0A01F041FD01F054
:104CE0009FFA30B90A2002F057F901F099FA00282A
:104CF000F8D0B0EE480A05F00FF8012002F04CF9A8
:104D0000B0EE4F0A05F024F8012002F045F9B0EEAC
:104D10004A0A01F0BBFA012002F03EF9B0EE4B0A5C
:104D200001F01EFD01F07CFA38B900BF0A2002F044
:104D300033F901F075FA0028F8D0012004F0FEFFE5
:104D4000B0EE480A04F0E8FF012002F025F9B0EEC9
:104D50004C0A04F0FDFF012002F01EF9B0EE4A0AF1
:104D600001F094FA012002F017F9B0EE4B0A01F0BD
:104D7000F7FC01F055FA30B90A2002F00DF901F004
:104D80004FFA0028F8D055F82400411F02293FF6B9
:104D90007FAF4AF20871C0F6000101EB0010D0EDC0
:104DA00000FA90ED01FAD0ED02AAB0EE6B0A3FEEE8
:104DB000AECA04F0B1FF012002F0EEF8B0EE6A0ACC
:104DC00004F0C6FF012002F0E7F8B0EE4F0A01F050
:104DD0005DFA012002F0E0F8B0EE4C0A01F0C0FCF0
:104DE00001F01EFA38B900BF0A2002F0D5F801F030
:104DF00017FA0028F8D0B0EE6B0A04F08DFF0120FE
:104E000002F0CAF8B0EE6A0A04F0A2FF012002F034
:104E1000C3F8B0EE4F0A01F039FA012002F0BCF8F5
:104E2000B0EE6F0A01F09CFC01F0FAF938B900BF4E
:104E30000A2002F0B1F801F0F3F90028F8D00020C0
:104E400004F07CFFB0EE6B0A04F066FF012002F074
:104E5000A3F8B0EE6A0A04F07BFF012002F09CF890
:104E6000B0EE4F0A01F012FA012002F095F8B0EE10
:104E70004C0A01F075FC01F0D3F900287FF404AF6F
:104E80000A2002F089F801F0CBF90028F8D0FBE6FF
:104E90000300000004000000050000000600000000
:104EA0005374617274696E67205461736B2025645A
:104EB0000D0A00000000CD4300001B4300002A4300
:104EC0004AF69F00C0F6000005F0E0FBB0EE480A8D
:104ED00004F022FF012002F05FF8B3EE040A04F0B0
:104EE00037FF012002F058F8B0EE4A0A01F0CEF97F
:104EF000012002F051F8B0EE4B0A01F031FC01F054
:104F00008FF930B90A2002F047F801F089F900283A
:104F1000F8D0B0EE480A04F0FFFE012002F03CF8A1
:104F2000B0EE480A04F014FF012002F035F8B0EEAC
:104F30004A0A01F0ABF9012002F02EF8B0EE4B0A5C
:104F400001F00EFC01F06CF938B900BF0A2002F044
:104F500023F801F065F90028F8D0012004F0EEFEF6
:104F6000B0EE480A04F0D8FE012002F015F8B0EEC9
:104F70004A0A04F0EDFE012002F00EF8B0EE4A0AF3
:104F800001F084F9012002F007F8B0EE4B0A01F0BD
:104F9000E7FB01F045F930B90A2001F0FDFF01F00F
:104FA0003FF90028F8D0B0EE480A04F0B5FE012021
:104FB00001F0F2FFB0EE4A0A04F0CAFE012001F04F
:104FC000EBFFB0EE4A0A01F061F9012001F0E4FFC5
:104FD000B0EE4B0A01F0C4FB01F022F938B900BF72
:104FE0000A2001F0D9FF01F01BF90028F8D09DED4F
:104FF00002CA9DED03FAB0EE480A04F08DFE0120CE
:1050000001F0CAFFB0EE4A0A04F0A2FE012001F04E
:10501000C3FFB0EE4F0A01F039F9012001F0BCFFE7
:10502000B0EE4C0A01F09CFB01F0FAF838B900BF71
:105030000A2001F0B1FF01F0F3F80028F8D09DED4F
:1050400002CA9DED03FAB0EE480AB04604F064FED1
:10505000012001F0A1FF1FED680A04F079FE012094
:1050600001F09AFFB0EE4F0A01F010F9012001F0B3
:1050700093FFB0EE4C0A01F073FB01F0D1F830B9A8
:105080000A2001F089FF01F0CBF80028F8D00020B9
:1050900004F054FEDDE90204FBF744FA074620461B
:1050A0000E46FBF73FFA41EC100B4AF62700C0F61C
:1050B000000000213A4633468DED000B04F06CFEF3
:1050C000B0EE480A04F028FE012001F065FF1FED54
:1050D000850A04F03DFE012001F05EFFB0EE4A0AB1
:1050E00001F0D4F8012001F057FFB0EE4B0A01F0B7
:1050F00037FB01F095F830B90A2001F04DFF01F0BF
:105100008FF80028F8D0B0EE480A04F005FE012020
:1051100001F042FFB0EE4E0A04F01AFE012001F049
:105120003BFFB0EE4A0A01F0B1F8012001F034FF74
:10513000B0EE4B0A01F014FB01F072F838B900BF71
:105140000A2001F029FF01F06BF80028F8D00120B7
:1051500004F0F4FDB0EE480A04F0DEFD012001F099
:105160001BFF9FEDE20A04F0F3FD012001F014FFA4
:10517000B0EE4A0A01F08AF8012001F00DFFB0EE0E
:105180004B0A01F0EDFA01F04BF830B90A2001F0BA
:1051900003FF01F045F80028F8D0B0EE480A04F00B
:1051A000BBFD012001F0F8FE9FEDD00A04F0D0FD18
:1051B000012001F0F1FEB0EE4A0A01F067F801208B
:1051C00001F0EAFEB0EE4B0A01F0CAFA01F028F84D
:1051D00038B900BF0A2001F0DFFE01F021F80028F5
:1051E000F8D09DED04CA9DED05FAB0EE480A04F032
:1051F00093FD012001F0D0FE9FEDBC0A04F0A8FD54
:10520000012001F0C9FEB0EE4F0A01F03FF8012085
:1052100001F0C2FEB0EE4C0A01F0A2FA01F000F873
:1052200038B900BF0A2001F0B7FE00F0F9FF0028EE
:10523000F8D09DED04CA9DED05FAB0EE480A04F0E1
:105240006BFD012001F0A8FE9FEDA70A04F080FD90
:10525000012001F0A1FEB0EE4F0A01F017F8012085
:1052600001F09AFEB0EE4C0A01F07AFA00F0D8FF95
:1052700038B900BF0A2001F08FFE00F0D1FF0028EE
:10528000F8D0002004F05AFDDDE90404FBF74AF9E8
:10529000064620460F46FBF745F941EC100B4AF64F
:1052A0002700C0F60000012132463B468DED000B81
:1052B00004F072FDB0EE480A04F02EFD012001F06A
:1052C0006BFE9FED8B0A04F043FD012001F064FEAC
:1052D000B0EE4A0A00F0DAFF012001F05DFEB0EE08
:1052E0004B0A01F03DFA00F09BFF30B90A2001F0B3
:1052F00053FE00F095FF0028F8D0B0EE480A04F005
:105300000BFD012001F048FE9FED7A0A04F020FD1C
:10531000012001F041FEB0EE4A0A00F0B7FF012083
:1053200001F03AFEB0EE4B0A01F01AFA00F078FFF5
:1053300038B900BF0A2001F02FFE00F071FF0028ED
:10534000F8D0012004F0FAFCB0EE480A04F0E4FCC6
:10535000012001F021FE9FED680A04F0F9FC012014
:1053600001F01AFEB0EE4A0A00F090FF012001F0B1
:1053700013FEB0EE4B0A01F0F3F900F051FF30B923
:105380000A2001F009FE00F04BFF0028F8D0B0EE33
:10539000480A04F0C1FC012001F0FEFD9FED560A11
:1053A00004F0D6FC012001F0F7FDB0EE4A0A00F04F
:1053B0006DFF012001F0F0FDB0EE4B0A01F0D0F9D5
:1053C00000F02EFF38B900BF0A2001F0E5FD00F023
:1053D00027FF0028F8D09DED06CA9DED07FAB0EE34
:1053E000480A04F099FC012001F0D6FD9FED420A25
:1053F00004F0AEFC012001F0CFFDB0EE4F0A00F04A
:1054000045FF012001F0C8FDB0EE4C0A01F0A8F9FB
:1054100000F006FF38B900BF0A2001F0BDFD00F022
:10542000FFFE0028F8D09DED06CA9DED07FAB0EE0C
:10543000480A04F071FC012001F0AEFD9FED2A0A3C
:1054400004F086FC012001F0A7FDB0EE4F0A00F049
:105450001DFF012001F0A0FDB0EE4C0A01F080F923
:1054600000F0DEFE00287EF4E9AF00BF0A2001F064
:1054700093FD00F0D5FE0028F8D0FEF7DFBF00BF97
:1054800042F20820C2F20000B0F900104AF65300C0
:10549000C0F6000004F080FCFEF7ECBF5461736BB3
:1054A00020333A2057616974696E6720666F7220F5
:1054B0003320706F736974696F6E732E2E2E0D001A
:1054C000526563656976656420706F736974696F8E
:1054D0006E2025643A20523D252E31662C20413D18
:1054E000252E31660D0A000000001B430000A54375
:1054F0000000A043000096430000F043506C61633D
:10550000696E6720696E205A6F6E6520330D00004A
:1055100080B5816A0A070DD4CA0716D18A071FD43D
:105520004A0728D4CA0631D48A063AD44A0658D53E
:1055300042E000BF0268D0F838C0536823F400434B
:1055400043EA0C035360CA07E8D00268D0F82CC0C5
:10555000536823F4003343EA0C0353608A07DFD512
:105560000268D0F830C0536823F4803343EA0C0358
:1055700053604A07D6D50268D0F834C0536823F484
:10558000802343EA0C035360CA06CDD50268D0F8E5
:105590003CC0936823F4805343EA0C0393608A066B
:1055A000C4D50268D0F840C0936823F4005343EA9E
:1055B0000C0393604A0614D50268D0F844C05368BF
:1055C000BCF5801F23F4801343EA0C03536008D119
:1055D000D2F804C0D0F848E02CF4C00343EA0E032C
:1055E0005360090658BF80BD0168C06C4A6822F448
:1055F00000221043486080BDB0B582B00446002050
:10560000C4F89000FCF7F0FB216805460A68120711
:1056100037D56FF07E4C20464FF4001100222B4608
:10562000CDF800C000F058FC50B300BF206850E82F
:10563000000F216820F0800041E80002DAB1206804
:1056400050E8000F216820F0800041E8000292B18C
:10565000206850E8000F216820F0800041E8000237
:105660004AB1206850E8000F216820F0800041E82E
:105670000002002ADAD12020C4F8880060E000BFD0
:1056800021680868400761D56FF07E4C20464FF4D2
:10569000800100222B46CDF800C000F01DFC002840
:1056A00054D000BF206850E8000F216820F49070AB
:1056B00041E80002E2B1206850E8000F216820F4C0
:1056C000907041E800029AB1206850E8000F21680C
:1056D00020F4907041E8000252B1206850E8000FB9
:1056E000216820F4907041E80002002ADAD100BF5E
:1056F000206850E8020F216820F0010041E8020212
:10570000DAB1206850E8020F216820F0010041E87A
:10571000020292B1206850E8020F216820F00100D7
:1057200041E802024AB1206850E8020F216820F0E7
:10573000010041E80202002ADAD12020C4F88C00DE
:105740000320002184F8841002B0B0BD2020C4F8EA
:105750008800C4F88C000020E0662067002184F8EF
:10576000841002B0B0BD0000806A0021A0F85E1075
:10577000FDF79EBE806A0268D0F88830D0F88CC0F1
:105780009168090653D5212B51D10021A0F856105C
:10579000016851E8001F026821F0C00142E80013CF
:1057A000BBB3016851E8001F026821F0C00142E864
:1057B000001373B3016851E8001F026821F0C001B3
:1057C00042E800132BB3016851E8001F026821F082
:1057D000C00142E80013002BDAD11AE0016851E859
:1057E000021F026821F4000142E80213DBB10168E4
:1057F00051E8021F026821F4000142E8021393B14C
:10580000016851E8021F026821F4000142E8021316
:105810004BB1016851E8021F026821F4000142E81F
:105820000213002BDAD12021C0F888100268916899
:10583000490640F18480BCF1220F40F080800021B5
:10584000A0F85E10016851E8001F026821F4907111
:1058500042E80013DBB1016851E8001F026821F43F
:10586000907142E8001393B1016851E8001F02688B
:1058700021F4907142E800134BB1016851E8001F18
:10588000026821F4907142E80013002BDAD14FF640
:10589000FE7CCEF6FF7C00BF026852E8022F036850
:1058A00002EA0C0243E80221D9B1016851E8021F63
:1058B000026801EA0C0142E8021393B1016851E861
:1058C000021F026801EA0C0142E802134BB10168B1
:1058D00051E8021F026801EA0C0142E80213002BA2
:1058E000DAD1C16E012924D1016851E8001F026894
:1058F00021F0100142E80013DBB1016851E8001FFC
:10590000026821F0100142E8001393B1016851E8E8
:10591000001F026821F0100142E800134BB101683A
:1059200051E8001F026821F0100142E80013002B2B
:10593000DAD12021C0F88C100021C1664167D0F86F
:10594000901041F01001C0F89010FDF7B1BD0000BB
:105950000168806A0968890600F1A1800021A0F829
:105960005E1000BF016851E8001F026821F48071D9
:1059700042E80013E3B1016851E8001F026821F416
:10598000807142E800139BB1016851E8001F026872
:1059900021F4807142E8001353B1016851E8001FFF
:1059A000026821F4807142E80013002BDAD100BFB5
:1059B000016851E8021F026821F0010142E8021368
:1059C000BBB3016851E8021F026821F0010142E8FF
:1059D000021373B3016851E8021F026821F001014C
:1059E00042E802132BB3016851E8021F026821F05C
:1059F000010142E80213002BDAD11AE0016851E8F4
:105A0000021F026821F0400142E80213DBB1016885
:105A100051E8021F026821F0400142E8021393B1ED
:105A2000016851E8021F026821F0400142E80213B8
:105A30004BB1016851E8021F026821F0400142E8C1
:105A40000213002BDAD12021C0F88C10C16E01297D
:105A500025D100BF016851E8001F026821F0100144
:105A600042E80013DBB1016851E8001F026821F031
:105A7000100142E8001393B1016851E8001F026869
:105A800021F0100142E800134BB1016851E8001FFA
:105A9000026821F0100142E80013002BDAD1002146
:105AA0000167C16E012918BFFEF7CAB8B0F85C10D3
:105AB000FDF796BB806A01210167C16E012918BFFD
:105AC000FEF7C0B8B0F85C104908FDF789BB0000CC
:105AD00070B5054605F108041ECC0068194341EA7B
