:020000040800F2
:1000000008390020ED0100080D410008E13D00081D
:1000100009410008CD0D00085567000800000000E8
:100020000000000000000000000000000142000885
:10003000DD0D000800000000114100082542000805
:10004000070200080702000807020008070200086C
:10005000070200080702000807020008070200085C
:10006000070200080702000807020008D10D000877
:10007000070200080702000807020008070200083C
:10008000070200080702000807020008070200082C
:1000900007020008ED0D0008F90D0008070200082E
:1000A000070200080702000807020008070200080C
:1000B00007020008070200080702000807020008FC
:1000C00007020008070200080702000807020008EC
:1000D0000702000849670008070200080702000835
:1000E00007020008070200080702000807020008CC
:1000F00007020008070200080702000807020008BC
:100100000702000807020008594200080702000819
:1001100007020008070200086542000807020008FD
:10012000070200080702000807020008070200088B
:10013000070200080702000807020008070200087B
:10014000070200080702000807020008070200086B
:10015000070200080702000807020008070200085B
:10016000070200080702000807020008070200084B
:10017000070200080702000807020008070200083B
:10018000070200080702000807020008070200082B
:100190000702000800000000050E0008110E00080C
:1001A000070200080702000807020008070200080B
:1001B00007020008070200080702000807020008FB
:1001C00007020008070200080702000807020008EB
:1001D0000702000807020008DFF80CD000F022FC3C
:1001E000004800473D740008083900200648804751
:1001F00006480047FEE7FEE7FEE7FEE7FEE7FEE70C
:10020000FEE7FEE7FEE7FEE745420008D9010008E9
:100210002DE9F05F0546002092469B46884606463B
:10022000814640241BE0284641464746224600F0CE
:10023000CDF953465A46C01A914110D3114618467B
:10024000224600F0B4F92D1A67EB01084F4622460A
:100250000120002100F0ABF917EB00094E41201EF0
:10026000A4F10104DFDC484631462A464346BDE896
:10027000F09F40EA01039B0703D009E008C9121F61
:1002800008C0042AFAD203E011F8013B00F8013B50
:10029000521EF9D27047D2B201E000F8012B491E7C
:1002A000FBD270470022F6E710B513460A46044613
:1002B0001946FFF7F0FF204610BD00000FB400B54F
:1002C0008DB010A909900B9000914FF0FF300A906B
:1002D00000200C9005480690054807906A4609A83A
:1002E0000F9900F097F90DB05DF814FB3106000886
:1002F0004F0600082DE9FF5F1D464FF0FF3BD5E993
:10030000014691465F464FF00008A9697F1C01989D
:100310008847296A824688470028F6D1BAF1FF3F0C
:100320000CD024F4C064002E19DD600614D5BAF197
:100330002B0F09D0BAF12D0F0ED103E0584604B0AF
:10034000BDE8F09F44F48064A9697F1C0198884748
:10035000761E8246002E02DDBAF1300F03D0B9F1CD
:10036000000F26D032E0A969761E44F400747F1C89
:10037000019888478246002E05DDBAF1780F06D035
:10038000BAF1580F03D0B9F1000F10D01EE0B9F147
:10039000000F02D0B9F1100F18D1A969761E24F40C
:1003A00000747F1C019888478246102002E00820D4
:1003B00000E00A20814609E008FB0908A969761EC9
:1003C00044F400747F1C019888478246002E05DDA6
:1003D0004946504600F00AF90028EDDAE96901982B
:1003E0008847A00502D46FF00100A8E7E00725D1F7
:1003F000600613D5600502D5C8F1000000E0404654
:1004000029680A1D2A600968220501D5087015E0CF
:10041000220701D5088011E008600FE02868011D5F
:1004200029600068210502D580F8008006E02107D8
:1004300002D5A0F8008001E0C0F8008038467EE7D1
:100440002DE9FE4F81EA030404F0004421F000414D
:1004500000944FF0000B23F0004350EA01045ED0FB
:1004600052EA03045BD0C3F30A54C1F30A552C4487
:10047000A4F2F3340194A0FB0254C1F3130141F43C
:100480008011C3F3130343F4801301FB024400FB08
:10049000034E840A970A44EA815447EA8357A4FB2F
:1004A000076802958D0A05FB07854FEA932C04FB2C
:1004B0000C542705029D4FEA065847EA1637B5EB5C
:1004C00008056EEB070C870E920E47EA811742EA89
:1004D0008312A7FB0201B6EB0B0164EB00042B0DAA
:1004E00043EA0C335E1844EB1C50DA465146E7FBF6
:1004F0000201C5F313044FEA0B3343EA14534FEAE6
:100500000432019C43EA0603A4F10C040294009C0B
:10051000CDE900B400F0F2F803B0BDE8F08F0020A0
:100520000146F9E700F0004230F000400AD0C10D6A
:1005300001F56071C0F3160042EA0151C20840079C
:100540001143704700200146704701F0004330B46A
:1005500021F0004150EA010206D00A0DA2F56072B6
:10056000C1F31301002A02DC30BC00207047440FA5
:1005700044EAC104C100E01830BC00EBC25000F0F6
:1005800077B830B50B46014600202022012409E04F
:1005900021FA02F59D4205D303FA02F5491B04FA3C
:1005A00002F52844151EA2F10102F1DC30BD202A1B
:1005B00004DB203A00FA02F1002070479140C2F1BA
:1005C000200320FA03F3194390407047202A04DBEC
:1005D000203A21FA02F00021704721FA02F3D040BC
:1005E000C2F1200291400843194670473A2800D2D0
:1005F000303820F02002412A01D3A2F1370088428E
:1006000001D34FF0FF307047026811441378016046
:1006100018467047D16004495161044911620021B4
:100620001161114600F028BA090600086D0A000899
:10063000426842B1016811F8013B23B1521EC0E982
:100640000012184670470121C160881E7047426839
:100650005AB1C368016843B983688B4205D0491E0B
:10066000521CC0E90012002070474FF0FF30704765
:100670000029A8BF7047401C490008BF20F00100B6
:10068000704710B4B0FA80FC00FA0CF050EA010494
:1006900004BF10BC704749B1CCF1200421FA04F426
:1006A00011FA0CF118BF012121430843A3EB0C01FF
:1006B000CB1D4FEA00614FEA102042BF002010BC62
:1006C000704700EBC35010440029A4BF10BC704712
:1006D000401C490008BF20F0010010BC704710B555
:1006E000141E73F1000408DA401C41F10001921855
:1006F0005B411A4301D120F0010010BD2DE9F04DFE
:1007000092469B4611B1B1FA81F202E0B0FA80F252
:1007100020329046FFF74BFF04460F4640EA0A009E
:1007200041EA0B0153465A46084313D0114653EA97
:10073000010019D0C8F140025046FFF747FF0546B7
:100740000E46504659464246FFF731FF084305D052
:10075000012004E020463946BDE8F08D0020054325
:1007600046EAE0762C4337430A986305E40AA0EB97
:1007700008000022FD0A44EA47540A3002D500204E
:100780000146E9E7010510196941DDE9084500194D
:100790006941BDE8F04DA2E72DE9FE4F804681EAB0
:1007A0000300C00F0C46009021F0004123F00045EB
:1007B000B8EB0200A94105D24046214690461C46AE
:1007C0000B46024623F00040104347D0270DC7F3E5
:1007D0000A00C3F30A510290401A019040286BDAD4
:1007E000C3F3130040F4801B0098924620B100230D
:1007F000D2EB030A63EB0B0B01985946C0F14002A0
:100800005046FFF7D4FE06460D4650465946019A1B
:1008100000F01AF910EB08006141002487EA115238
:1008200084EAE7731A4340D0009A62B3019A012A1E
:100830004FEA075215DC001B61EB02014FF000424A
:1008400002EA0752CDE90042001C41F58011324610
:100850002B46FFF753FF03B0BDE8F08F404621461B
:10086000F9E7001B61EB0201001C41F58013001841
:100870005B412018A2F5001747EB030140EAD57051
:10088000B6196D4111E06D084FEA360645EAC075AC
:100890004FEA0752001B61EB0201001C41F5801179
:1008A00049084FEA30000019514132462B4603B047
:1008B000BDE8F04FFFF713BF00980122400000236E
:1008C000D0EB020263EBE073009821464FEAE0743C
:1008D000B8EB000061EB0401E9E783F000435BE75C
:1008E00081F0004158E72DE9F04D81EA030404F05E
:1008F000004B21F0004514464FF0000A23F0004160
:1009000050EA050220D054EA01021DD0C5F30A576F
:100910000246C5F31303C1F31300C1F30A5640F4B2
:10092000801543F48013A7EB0608101BD64608F287
:10093000FD3873EB050002D308F1010801E09218BD
:100940005B41B8F1000F03DA00200146BDE8F08DED
:1009500000204FF48011064684460EE0171B73EB0F
:10096000050705D3121B63EB050306434CEA010C94
:1009700049084FEA300092185B4150EA0107EDD177
:1009800052EA030012D082EA040083EA0501084318
:1009900005D0101BAB4106D20122002306E0002245
:1009A0004FF0004302E06FF0010253101AEB060013
:1009B0004CEB085110EB0A0041EB0B01BDE8F04D88
:1009C000FFF78DBEC1F30A52C1F3130140F2FF33AA
:1009D00041F480119A4202DA00200146704740F249
:1009E00033439A42A2F2334202DC5242FFF7EEBD99
:1009F000FFF7DDBD30B5041E71F1000404DB4FF0DC
:100A00000044404264EB0101141E73F1000405DB55
:100A10001C464FF00043524263EB0403994208BF67
:100A2000904230BD064C074D06E0E06840F00103FF
:100A300094E8070098471034AC42F6D3FFF7D0FB98
:100A400030AE000850AE0008202A06DBCB17203A53
:100A500041FA02F043EAE07306E041FA02F3D040C3
:100A6000C2F120029140084319467047C0B24FF4CA
:100A7000F05100F097B900002DE9F34F8BB04FF023
:100A8000000801F10C000C464FF0010B46460DF139
:100A9000080A01906269012101989047051E2DD036
:100AA000252D2CD0216A8847C0B1626901210198A7
:100AB0009047216A88470028F7D1411E6269019852
:100AC000904700E0761CA1690B988847216A884707
:100AD0000028F7D1E1690B988847DBE7A1690B98FB
:100AE00088470746A84201D1761CD3E7E1690B98F5
:100AF00088477F1C02D1B8F1000F6FD046E1002774
:100B000062693D463946019890472A2804D16269B6
:100B10000121019890470125DFF884926269012143
:100B200001989047A0F130010A290AD24F45E5DC2F
:100B300007EB870100EB4107303FDFD445F010059C
:100B4000ECE7E90601D46FF000476C280AD04C2886
:100B500014D0682815D06A280DD074281CD07A28A3
:100B60001AD01DE062690121019890476C2802D0DB
:100B700045F0040514E045F002050DE045F02005C0
:100B80000AE06269012101989047682802D045F087
:100B9000080505E045F40065626901210198904768
:100BA000C4E9015765283DD019DC58287AD00CDCFF
:100BB000452837D004DC252826D0412831D131E022
:100BC00046282FD047282CD12CE05B2877D06128ED
:100BD00028D063287CD0642823D15AE0D0E06F2845
:100BE00048D008DC66281DD067281BD0692821D092
:100BF0006E2816D127E0702845D0732868D0752854
:100C000047D078280DD14DE0A1690B98884705465B
:100C100025283FF469AFE1690B9888476D1C3FF4C4
:100C20006AAFB3E023466A466FF001000B99AFF359
:100C300000809EE045F040006060A80723464FF02A
:100C4000000236D43EE0E8077FF447AF2068011D7C
:100C500021600068290501D506701BE7290701D529
:100C6000068017E7A90703D5F117C0E9006111E76E
:100C700006600FE745F040006060A80723464FF08C
:100C8000080216D41EE040F60E0125EA010060605D
:100C900016E045F040006060A80723464FF00A02C6
:100CA00007D40FE045F040006060A80708D5234650
:100CB00010226FF001000B99AFF3008059E007E0BC
:100CC000234610226FF001000B99FFF713FB50E051
:100CD0004FF000094F464B46632802D05B2806D0F0
:100CE00040E0E80601D40120A06001273AE06269F3
:100CF0000121019890475E2805D14FF001096269F2
:100D0000494601989047216939B900210A4653465E
:100D100043F82120491C0829FADBB0B3216969B9DD
:100D2000C11700EBD16253110AEB830122F01F02BD
:100D3000821A01200B68904003430B606269012115
:100D4000019890475D28E8D1B9F1000F09D0002043
:100D5000514651F82020D24341F82020401C082859
:100D6000F7DB02AB224600976FF001000B99AFF35F
:100D7000008000280CDA401C08D1BBF1000F05D020
:100D80004FF0FF300DB0BDE8F08FFFE74046F9E7C8
:100D9000E90701D108F1010806444FF0000B79E69C
:100DA000CCCCCC0C7F2801D9002208E0064A02EB0B
:100DB0005002C007127800D1120902F00F02012080
:100DC0009040084070470000E8AB0008FEE70000D4
:100DD00041F27C60C2F2000000F096B8704700005B
:100DE000EFF3108072B600BFFEE7000041F2DC6056
:100DF000C2F2000000F00EBC41F2DC60C2F2000062
:100E000000F008BC41F24070C2F2000000F002BCE9
:100E100041F24070C2F2000000F0FCBB80B5014618
:100E200090F82500022825D10868D1E910CE8A6CF7
:100E3000036823F00E030360136823F480731360C8
:100E4000026822F0010202600EF01F00012202FA85
:100E500000F0CCF80400D1E913205060486D68B16F
:100E6000026822F480720260D1E91602426000201A
:100E700005E000BF0420C863012000E0002001223B
:100E800081F82520002281F8242080BD80B590F8CB
:100E9000251002292ED10168D0E910CE826C0B6892
:100EA00023F00E030B600B6823F001030B60116845
:100EB00021F4807111600EF01F02012101FA02F28B
:100EC000CCF80420D0E913325A60426D32B1136875
:100ED00023F480731360D0E91623536080F8251043
:100EE000826B002180F824100AB190470021084647
:100EF00080BD00BF0421C1630121002280F82510BC
:100F000080F82420084680BDB0B5D0E910C302683F
:100F1000DCF8001003F01F030424D2F800E09C402A
:100F20000C4218BF1EF0040522D102249C400C4242
:100F300018BF1EF0020529D1D940090724D51EF09B
:100F4000080108BFB0BD116821F00E011160012138
:100F500001FA03F2CCF80420C16380F82510416B3C
:100F6000002280F8242079B1BDE8B040084700BFD6
:100F70001168890603D4116821F004011160CCF8CE
:100F80000440016B0029EFD1B0BD00BF1168890694
:100F900006D4116821F00A011160012180F82510A2
:100FA000CCF80440C16A0022002980F82420DBD15B
:100FB000EAE7000000284FF0010100F08E802DE9E3
:100FC000F04740F2000CC4F2020C03684FF6F8320E
:100FD0000CF5816ECBF6FD72734538BF02F5806269
:100FE0004CF6CD441A44CCF6CC44A2FB042803F0C2
:100FF000FC02A2F10802A2FB04290CF580656FF047
:101000000304D0E90262D0F810A03CBF0025C4F26E
:10101000020504EA9804C0E91054022580F825501E
:101020001D6847F6F07725EA07073A43476942EA21
:101030000A0285693A43C7692A43056A3A432A4343
:1010400032431A600CF50262734538BF0CF500623A
:10105000A3180CF50862C264C9F3041240F6840CAC
:1010600001FA02F2B6F5804FC4F2020C8364026505
:1010700006D1002141601960CCF800201EE000BFBD
:1010800041685FFA81FE013903294FF00001C3F87E
:1010900000E0CCF8002011D8AEF101020CEB820781
:1010A00047F87C1F02F01F01012202FA01F30CF144
:1010B000BC023946CCF8C03002E000BF0022002359
:1010C00000F1540C8CE80E0000210122C16380F86D
:1010D000252080F82410BDE8F0470846704700003E
:1010E0002DE9F04190F824C0BCF1010F43D04FF03E
:1010F000010C80F824C090F825C0BCF1010F37D155
:101100004FF0020C80F825C04FF0000CC0F83CC036
:10111000D0F800C000F14C0E9EE83040DCF80060D2
:10112000BEF1000F26F00106CCF8006065601CBF20
:10113000D0E916456560D0E91076012506F01F0656
:101140008468B540D0F830807D60CCF804300B4620
:10115000102C04BF13460A46CCF80830CCF80C20FB
:10116000DCF80010B8F1000F08D041F00E010DE0DE
:10117000002180F824100220BDE8F08121F0040154
:10118000CCF80010DCF8001041F00A01CCF8001097
:10119000806C0168C90303D5016841F48071016066
:1011A000BEF1000F05D0DEF8000040F48070CEF8EC
:1011B0000000DCF8000040F00100CCF80000002046
:1011C000BDE8F08110B590F85C30013B012B69D887
:1011D000006811F0070ED0F858C00CF0010300D0E1
:1011E0001BB311F0380F02D01CF002041DD011F413
:1011F000E07F02D01CF0040417D011F4F05F02D09D
:101200001CF0080411D011F4604F02D01CF010043F
:101210000BD011F4403F02D01CF0200405D011F493
:101220007C0F06D01CF0400403D1C46D44F00104CF
:10123000C465BEF1000F18BF002B3BD111F0380F71
:1012400018BF1CF0020335D111F4E07F18BF1CF069
:1012500004032FD111F4F05F18BF1CF0080329D14B
:1012600011F4604F18BF1CF0100323D111F4403F5C
:1012700018BF1CF020031DD111F47C0F18BF1CF007
:10128000400317D10B061BD4CB0504D5D0F8E030B2
:101290001A43C0F8E02000F15402002013681943FB
:1012A000116010BD00F16002012002211368194392
:1012B000116010BDC36D43F00203C3650B06E3D597
:1012C000D0F8DC301343C0F8DC30CB05E3D5DDE7E4
:1012D0002DE9F04190F85C30022B15D10668D6F864
:1012E000C4309B0218D4D6F8C430D1E90075D1F8C7
:1012F00008E00C69C3F3014CB5B144EA070343EAC3
:101300000E0343F0804E13E0016E41F008010166C8
:101310000120BDE8F08100BF016E41F4007101665B
:101320000120BDE8F08100BF44EA87434EEA030E86
:10133000D1E90757D1E9058445EA0765CB682C4315
:10134000456D44EA08040CEBCC0744EA034405EB82
:10135000C70345F837E05C60CF6887B14AF6FC45C3
:10136000083303320024C0F6000500BF171957F8F0
:10137000037C1F51CF680434EF5DBC42F6D30121DA
:1013800001FA0CF1C6F8CC1081650020BDE8F081AF
:1013900080B590F85C20013A012A13D80A68BAB1E6
:1013A00001F1040ED1E904319EE80450406C43EA97
:1013B0004E7E41EA8C7100EBC20340F832E000201F
:1013C000596080BD016E41F002010166012080BDBF
:1013D000D1E90323D1E901CED206496942EA8E72EE
:1013E00042EA0342006C114340F82C10002080BDFB
:1013F00080B590F85CC0BCF1010F13D10068920079
:10140000D0F880C0DDF808E042EA011141EA43016A
:101410002CF03F0C41EA0E0141EA0C01C0F88010AB
:10142000002080BD016E41F004010166012080BDF5
:101430007047000080B5090300D480BD006846F6FF
:101440000042C4F200024FF400219042016517D01F
:1014500046F60001C4F2000188421BD046F200416A
:10146000C4F20001884218BF80BD02F0DFFC41F2E7
:10147000DC60C2F20000BDE8804005F0E3BE00BFC2
:1014800002F028FD41F2A470C2F20000BDE88040E5
:1014900005F0D8BE02F0F4FC41F24070C2F2000048
:1014A000BDE8804005F0CEBE2DE9F04390F85C70B9
:1014B000022F1BD1D0F800C040291FD1DCF890705A
:1014C0003F0700F09D80DCF89070FF0146BFDCF81C
:1014D0008070C7F340270027DCF89060C6F3012630
:1014E00006EB070C00F148071DE000BF016E41F05C
:1014F000080101660120BDE8F08300BFDCF89870A8
:101500003F077DD0DCF89870FF0146BFDCF88070A3
:10151000C7F300270027DCF89860C6F3012606EB26
:10152000070C00F14C073F680CEBCC0657F836501F
:1015300007EBC60E15F08045556057F8365025F07C
:10154000604408BFC5F38A44146057F8365005F06C
:101550000055956057F8364004F000441461BEF819
:101560000440D461BEF8064014F00F04D460DEF8E5
:10157000044004F480145461DEF8044004F40014C0
:1015800094619EF8074004F07F041462DEF8044082
:101590004FEAD474546228D04AF6FC480024C0F6BE
:1015A000000800BF0EEB0406377A651C1F55D7688C
:1015B00018F80770BD4218D2757A1F197D70D5686A
:1015C00018F80590A51C4D450FD2B57ABD70D568A9
:1015D00018F80590E51C4D4507D2F57A0434FD70E6
:1015E000D56818F80550AC42DCD3006840290CBF20
:1015F000C0F894C0C0F89CC00020BDE8F08300BFD4
:10160000016E41F4807101660120BDE8F0830000A5
:10161000704700002DE9F04F85B004460068016D69
:10162000426DD0F850B0456D076D466D036D01EA0F
:1016300002080493436D0393036D0293436D01937A
:10164000D0F854A0D0F850905FEA496307D51AF05B
:10165000400104D0402101652046FFF7D9FF0BEA85
:10166000050B5FEAC95008F4E0550ED51AF48070F6
:101670000BD02068D0F8D810D0F8E02011404FF4FB
:1016800080720265204600F0CBFA37400BF0070667
:101690002DB1206829460565204600F0C5FA07F0FF
:1016A00038052EB1206831460665204600F092FAD2
:1016B0002DB1206829460565204600F091FA5FEAC1
:1016C000895009D51AF4007006D020684FF40071D3
:1016D0000165204600F0AAFA5FEA09600DD51AF00C
:1016E00080000AD02068D0F8D410D0F8DC20114057
:1016F00080220265204600F095FA5FEA894009D50C
:101700001AF4005006D020684FF4005101652046BD
:1017100000F084FA5FEA0940DDE9011000EA010502
:1017200009D51AF4004006D020684FF40041016545
:10173000204600F071FADDE9031008405FEA4941F4
:1017400005F460210AD51AF4804207D022684FF4CC
:1017500080431365226E42F08002226600F4710518
:1017600021B1206801652046FFF764FE25B120689D
:101770000565206E28432066206E28B1204605B0FE
:10178000BDE8F04FFFF754BE05B0BDE8F08F000094
:1017900070B5D8B1044690F85C0028B9002084F8F0
:1017A0005D00204600F01EF92068816921F01001DB
:1017B000816100F019FB054620688169090707D59A
:1017C00000F012FB401B0B28F6D312E0012070BD85
:1017D000816941F00101816100F006FB054600BF0F
:1017E00020688169C9070DD100F0FEFA401B0B2863
:1017F000F6D3206E032140F001002066012084F81A
:101800005C1070BD826946F2004CC4F2000C42F0DC
:1018100002026045826102D16268CCF80021227C1C
:101820008369012A23F0400318BF40338361627C3F
:101830008369012A23F4804308BF03F58043836151
:10184000A27C8369012A23F4805318BF03F58053D7
:1018500083618269D4E902E322F4407545EA0E050A
:101860008561856925F0A4058561056925F0100568
:1018700005619BB1012B0DD0022B09D08569032B8B
:1018800045F080058561056945F01005056105D1C4
:10189000202300E0042385692B43836104F11405B0
:1018A0002ACD226A5E1E6FF0FF0303EB052545EA91
:1018B0004665013A2A430025CFF6FF7505EB014145
:1018C0001143BEF5407FC16110D1D4E909E2D4E9EA
:1018D0000B61013A03EB06231A436FF00F0303EB8E
:1018E0000111114305EB0E421143C160D4E90D1300
:1018F000E26BD0F8C0603243C0F8C0200CF58066BF
:101900000CF58042B04204BF4AF25072C4F20002A9
:101910000CF50066B04208BF02F5D4622264D0F82C
:10192000806026F4F81646EA0141C0F8801002F102
:1019300070016164D0F8801021F0706141EA0361A8
:10194000C0F8801002F1B000A06402F5C470E06439
:1019500002F51870206502F51E70606502F554707E
:10196000002100BFC2E90011C2E90211C2E904115D
:10197000C2E90611C2E90811C2E90A11C2E90C1153
:10198000C2E90E11C2E91011C2E91211C2E9141123
:10199000C2E91611C2E91811C2E91A11C2E91C11F3
:1019A000C2E91E11C2E92011C2E92211C2E92411C3
:1019B000C2E92611C2E92811C2E92A11C2E92C1193
:1019C000C2E92E11C2E93011C2E93211C2F8D010B9
:1019D000D4328242C6D300200121A065206684F85B
:1019E0005C1070BD10B59CB0044600201B90CDE982
:1019F0001900CDE9170002A85421FEF753FC206816
:101A000046F60041C4F20001884259D046F6000172
:101A1000C4F20001884200F08F8046F20041C4F217
:101A20000001884240F086804FF4805002904FF0D1
:101A30000070109002A800F065FB002818BFFFF7A7
:101A4000CFF940F29011C2F200010A6841F24C0055
:101A5000C4F20200531C0B6042B9C16841F000712E
:101A6000C160C16801F0007101910199016841F004
:101A700001010160006817A900F0010001900198C0
:101A80004FF4C0501790022018900020CDE91900A3
:101A900009201B904FF0904000F0CAF81520052156
:101AA000002200F055FA152000F03EFA162005211C
:101AB000002200F04DFA162000F036FA1CB010BDDE
:101AC0004FF4805002904FF00070109002A800F088
:101AD00019FB002818BFFFF783F940F29011C2F2FA
:101AE00000010A6841F24C00C4F20200531C0B6072
:101AF00042B9C16841F00071C160C16801F0007174
:101B000001910199016841F001010160006817A984
:101B100000F00100019001984FF40140179002205D
:101B200018900020CDE919000B201B904FF0904039
:101B300000F07EF81CB010BD4FF4805002904FF0C2
:101B40000070109002A800F0DDFA002818BFFFF71F
:101B500047F940F29011C2F200010A6841F24C00CC
:101B6000C4F20200531C0B6042B9C16841F000711D
:101B7000C160C16801F0007101910199016841F0F3
:101B800002010160006817A900F0020001900198AD
:101B90004FF440501790022018900020CDE9190012
:101BA00009201B9040F20040C4F6000000F040F80D
:101BB00056200521002200F0CBF9562000F0B4F9A0
:101BC00057200521002200F0C3F9572000F0ACF99E
:101BD0001CB010BDC90714BF4021704705F0AABB57
:101BE00009074CBF4121704705F0A4BB90F85C1079
:101BF00001290BD1022180F85C1001688A6922F06A
:101C000001028A610021016608467047016E41F0B9
:101C10000401016601207047704700007047000012
:101C200070470000704700007047000070470000D8
:101C30002DE9F04F82B00D68002D00F0CB8041F20D
:101C4000004400F13847C4F6000406224FEAB726E4
:101C5000A04208BF0522052E38BF4FEAB722002454
:101C600001274FF0000E0026009209E00D680136B2
:101C700035FA06F20EF1040E04F1020400F0AA8017
:101C800007FA06FB15EA0B08F0D0D1F804A00322EE
:101C90000AF0030CACF10105A240012D6FEA020924
:101CA00010D88268CD6802EA0902A5402A43826002
:101CB0004268CAF3001522EA0B02B5402A4342608B
:101CC00006E000BFBCF1030F02D14FF0030C21E08E
:101CD000C2688D6802EA0902A5402A43BCF1020FDE
:101CE000C26017D16FF0030202EA560202440EF0FE
:101CF0001C030F25D2F820C005FA03FA0D692CEA5F
:101D00000A0C05FA03F343EA0C031362D1F804A0AA
:101D10000AF0030C02680CFA04F302EA09021A43FF
:101D20001AF4403F0260A1D041F26003C4F2020302
:101D30001A6840F2004942F001021A601A68C4F2BF
:101D4000010902F001020192019A26F003024FF606
:101D5000084A4A44CFF6FF7A52F80AC00EF00C0542
:101D60000F23009FAB402CEA030307FA05F52B4332
:101D700042F80A30D9F808C04B684CEA0805DA0284
:101D800058BF2CEA080540F20C4CC9F80850C4F2C0
:101D9000010CDCF800209F0242EA080558BF22EA45
:101DA0000805CCF80050D9F804209D0342EA080742
:101DB00058BF22EA0807C9F80470D9F80020DB03ED
:101DC00042EA080758BF22EA0807C9F8007001274D
:101DD0004CE700BF02B0BDE8F08F00001823002AD6
:101DE00008BF2823C150704742F60C60C2F20000C1
:101DF0000068704740F2040042F60C61C2F2000035
:101E0000C2F2000140680A68104408607047000090
:101E100080B5032000F0C8F80F2000F009F8002872
:101E20001CBF012080BD00F05BF8002080BD0000D9
:101E3000B0B586B041F25801C4F202010A68044606
:101E400042F008020A60096801A801F00801019146
:101E50000199694600F04CFC00F06CFC4DF6836182
:101E6000C4F21B31A0FB01014FF0FF3000EB9141A8
:101E700041F6080040F60042C2F20000C4F200023F
:101E800040F2E7330025C0E90021C0E902530561B3
:101E900000F090FF054618B1284606B0B0BD00BF5F
:101EA00041F60800C2F2000000F0DAFF0546002803
:101EB000F2D1322000F038F80F2C0DD83220214614
:101EC0000022002500F044F840F20400C2F20000B5
:101ED0000460284606B0B0BD0125284606B0B0BD56
:101EE00080B582B041F25800C4F20200816800223D
:101EF00041F001018160816801F0010101910199C6
:101F0000016841F08051016000680F2100F08050AD
:101F1000009000986FF0010000F01AF802B0BDE8E0
:101F2000804000F0E5B80000002848BF7047C1B20B
:101F300000F01F00012202FA00F04EF20012CEF271
:101F4000000242EAD10121F003010860704700005D
:101F500010B54EF60C5CCEF2000CDCF80030C3F38A
:101F6000022E8EF00704042C28BF0424BEF10303C4
:101F70004FF0FF3E0EFA04F438BF0023A14399400E
:101F80000EFA03F39A43114300F00F0200F160438D
:101F90000901043A03F564436244002848BF02F192
:101FA0000C03197010BD00004EF60C51CEF200016A
:101FB0000A684FF6FF031A4060F30A2242F080607D
:101FC00040F0FD7008607047B0F5007F42D00028F7
:101FD00040F0808047F21400C4F2000050F8141C56
:101FE000C26E01F4C06122F48072B1F5806FC266E6
:101FF0002ED150F8141C012262F34A2140F8141C1F
:1020000040F20C01C2F200010968322251434DF640
:102010008362C4F21B32A1FB0212910C02685205CA
:1020200011D54A1C0FD0026852050CD559B102686F
:10203000520508D5012906D00268520503D50229A8
:10204000A1F10401EAD10068400544BF03207047B4
:102050000020704747F21400C4F2000050F8141C2E
:10206000C26E01F4C06142F48072B1F5806FC26645
:10207000EED150F8141C012262F34A2140F8141CDE
:1020800040F20C01C2F200010968322251434DF6C0
:102090008362C4F21B32A1FB0212910C026852054A
:1020A00011D54A1C0FD0026852050CD559B10268EF
:1020B000520508D5012906D00268520503D5022928
:1020C000A1F10401EAD10068400544BF0320704734
:1020D000BEE700BF47F21400C4F2000050F8141C21
:1020E000022262F34A2140F8141C002070470000CD
:1020F00047F20800C4F20000016841F48041016029
:10210000704700002DE9F04182B00446807841F22A
:1021100088060007C4F2020602D400202FE000BFA8
:1021200056F8300C10F080580BD156F8300C40F0B7
:10213000805046F8300C56F8300C00F0805001907A
:10214000019847F20007C4F20007386840F4807035
:102150003860FFF749FE05463868C00500F10C817C
:10216000FFF742FE401B0228F6D90320B8F1000F0A
:1021700005D156F8301C21F0805146F8301C2168FA
:10218000CA0717D18A071DD44A0723D40A0729D4BE
:10219000CA062FD48A0635D44A063BD40A0641D44F
:1021A000CA0547D48A034DD48A0553D44A0559D465
:1021B00067E000BF3268636822F003021A433260AE
:1021C0008A07E1D53268A36822F00C021A43326014
:1021D0004A07DBD53268E36822F030021A433260E6
:1021E0000A07D5D53268236922F0C0021A4332604B
:1021F000CA06CFD53268636922F440721A4332604E
:102200008A06C9D53268A36922F440621A43326053
:102210004A06C3D53268E36922F440521A43326059
:102220000A06BDD53268236A22F440421A4332605E
:10223000CA05B7D53268636A22F440321A43326065
:102240008A03B1D57269A36A22F003021A4372614C
:102250008A05ABD53268E36A22F440221A43326021
:102260004A050ED53268236B22F440121A43B3F5A7
:10227000801F326005D156F87C2C42F4801246F85B
:102280007C2C0A050ED53268636B22F440021A4397
:10229000B3F5800F326005D156F87C2C42F48012E1
:1022A00046F87C2CCA040ED53268A36B22F040722B
:1022B0001A43B3F1807F326005D156F87C2C42F48A
:1022C000801246F87C2C8A040ED53268E36B22F02B
:1022D00040621A43B3F1006F326005D156F87C2C8E
:1022E00042F4801246F87C2C4A040ED53268236CE6
:1022F00022F040621A43B3F1006F326005D156F804
:102300007C2C42F4801246F87C2C0A040ED53268EC
:10231000636C22F040521A43B3F1805F326005D102
:1023200056F87C2C42F4803246F87C2CCA030ED539
:102330003268A36C22F040421A43B3F1804F3260FE
:1023400005D156F87C2C42F4803246F87C2C4903A7
:102350000ED57169E26C21F440111143B2F5001FF2
:10236000716105D156F87C1C41F4801146F87C1C43
:1023700002B0BDE8F08100BFB06810F4407010D02A
:10238000216D88420BD0B068B16820F4407041F4F0
:102390008031B160B16821F48031B160B060C007B4
:1023A0000CD1B068216D20F440700843B06000206B
:1023B000B8F1000F7FF4E3AEDBE600BFFFF714FDDA
:1023C000054641F2883700BFB0688007E9D4FFF7BF
:1023D0000BFD401BB842F7D9C7E600002DE9F047D6
:1023E00000286DD042F2000AC4F2020A0446DAF86C
:1023F00000000D4600F00F0088420CD2DAF8000011
:1024000020F00F002843CAF80000DAF8000000F0BE
:102410000F00A84254D1216841F20808C807C4F24D
:10242000020803D1880740F1D880BDE06068022827
:102430003AD0032840D158F8082C920140D5D8F85A
:102440000420D8F8043042F20046C3F3031302F02C
:102450000302D8F804700133C0F2F406032A04BF63
:1024600041F20026C0F27A06B6FBF3F2D8F8043047
:10247000C7F306277A43C3F34163022707EB4303FD
:10248000B2FBF3F24BF20043C0F2C4439A4261D96B
:10249000D8F8002012F0F00F51D089075AD5A16862
:1024A000002957D14BE000BF58F8081C89035CBFD6
:1024B0000120BDE8F08707E058F8081C490503D45F
:1024C0000120BDE8F08700BFD8F8001001F00C0132
:1024D00004293FD0D8F8001001F00C01082939D0A8
:1024E000D8F8001001F00C010C2933D1D8F80410F1
:1024F000D8F8042042F20047C2F3031201F00301AE
:10250000D8F804300132C0F2F407032904BF41F2C5
:102510000027C0F27A07B7FBF2F1D8F80420C3F322
:1025200006235943C2F34162022303EB4202B1FB8B
:10253000F2F14BF20042C0F2C44291420AD9D8F8FB
:102540000010082262F307114FF00109C8F80010CB
:1025500002E000BF4FF00009D8F8001021F003019D
:102560000843C8F80000FFF73FFC064641F28837F1
:10257000D8F80000616800F00C00B0EB810F07D0C4
:10258000FFF732FC801BB842F2D90320BDE8F08788
:102590002168880708D4B9F1000F1ED0D8F80000D0
:1025A00020F0F00017E000BF480705D5D8F800007C
:1025B00040F4E060C8F80000080706D5D8F800002D
:1025C000072262F30D20C8F80000D8F80000A268C6
:1025D00020F0F0001043C8F80000DAF8000000F026
:1025E0000F00A8421BD9DAF8000020F00F002843A2
:1025F000CAF80000FFF7F8FB064641F2883700BF33
:10260000DAF8000000F00F00A84207D0FFF7ECFB5B
:10261000801BB842F4D90320BDE8F0872168480741
:1026200007D5D8F80000E26820F4E0601043C8F84D
:102630000000080708D5D8F80000216920F4605090
:1026400040EAC100C8F80000D8F8000042F200419A
:10265000C0F2F40100F00C00042808462DD0D8F890
:10266000000000F00C00082841F20020C0F27A00BF
:1026700023D0D8F8002002F00C020C2A1CD1D8F884
:102680000420D8F8043002F00302C3F30313D8F88F
:1026900004700133032A08BF0146B1FBF3F0D8F8F8
:1026A0000410C7F30627C1F341610222784302EB0D
:1026B0004101B0FBF1F000E00020D8F800104AF62C
:1026C0002842C1F30311C0F60002515C40F20C0233
:1026D00001F01F0120FA01F140F20400C2F20000F3
:1026E0000068C2F200021160BDE8F047FFF7A0BB2E
:1026F0000F22026041F20802C4F20202136803F0E2
:1027000003034360136803F0F0038360136803F46A
:10271000E063C36012684FF4E06303EAD20202612F
:1027200042F20000C4F20200006800F00F000860EE
:102730007047000040F20C0041F20801C2F20000B4
:10274000C4F20201006809684AF63842C1F3022166
:10275000C0F60002515C01F01F01C8407047000044
:1027600040F20C0041F20801C2F20000C4F2020182
:10277000006809684AF63842C1F3C221C0F6000277
:10278000515C01F01F01C8407047000080B541F264
:102790000C01C4F2020151F8040C42F20042C0F2F2
:1027A000F40200F00C000428104608BF80BD51F868
:1027B000040C00F00C00082841F20020C0F27A005E
:1027C00022D051F8043C03F00C030C2B1CBF00205A
:1027D00080BDD1F800C00B680CF0030CC3F3031EDE
:1027E0000B680EF1010EBCF1030F08BF0246096829
:1027F000B2FBFEF0C3F30623C1F34161022258434A
:1028000002EB4101B0FBF1F080BD00002DE9F04189
:1028100082B0002800F006810446007841F20006EC
:10282000C007C4F2020655D12078800774D42078FE
:10283000000700F197802078400700F1B7802078EA
:10284000800600F10781E569002D00F03082B06854
:1028500000F00C000C2840F05981012D00F0E280BE
:10286000F068216A00F003028A4240F0DB80626A6D
:102870006FF00F0300F0F00103EB0212914240F001
:10288000D180A16A00F4FE42B2EB012F40F0CA8071
:10289000E16A00F07842B2EBC16F40F0C380226B76
:1028A0000023CFF6E07303EA025200F4C001A2F560
:1028B0000012914240F0B680616B4FF07E4202EA16
:1028C000016100F0C06001F17E41884240F0AA80C1
:1028D000EDE100BFB06800F00C01F06808295BD0A2
:1028E000032281F00C0122EA00000844B0FA80F0D3
:1028F000400951D16068B0F5803F07D0B0F5A02FF6
:1029000040F0DA80306840F480203060306840F475
:1029100080303060DBE000BFB068F16800F00C0090
:10292000042869D001F0030180F00C0081F002015D
:102930000844B0FA80F040095ED1E16830680029AF
:1029400000F0D28040F480703060FFF74DFA054609
:102950003068400500F1FC80FFF746FA401B022872
:10296000F6D92EE16169D6F89400002900F0908034
:1029700040F00100C6F89400FFF736FA054600BFA4
:10298000D6F8940080073FF556AFFFF72DFA401BAD
:102990000228F5D915E100BF306880037FF544AF08
:1029A000606800287FF440AF3CE000BFB06D10F0DD
:1029B000805808D1B06D40F08050B065B06D00F027
:1029C00080500190019847F20007C4F20007386870
:1029D000C0052BD4386840F480703860FFF704FAE3
:1029E000054600BF3868C00520D4FFF7FDF9401B3D
:1029F0000228F7D9E5E000BF3068400501D5E0685E
:102A000080B17068216920F0FE4040EA016070608A
:102A100040F20400C2F200000068FFF709FA002843
:102A20003FF405AF012002B0BDE8F081A0680128A5
:102A300008D0052840F0AA80D6F8900040F00400A5
:102A4000C6F89000D6F8900040F00100C6F890005B
:102A5000A9E000BFA169D6F89800002900F08080A5
:102A600040F00100C6F89800FFF7BEF9054600BF28
:102A7000D6F8980080073FF5E6AEFFF7B5F9401BA2
:102A800002284FF00300F3D902B0BDE8F08100BF87
:102A900020F00100C6F89400FFF7A6F9054600BF34
:102AA000D6F8940080077FF5C6AEFFF79DF9401B6E
:102AB0000228F5D985E000BF3168002821F4803173
:102AC0003160316821F48021316000F07F80FFF7B0
:102AD0008BF90546306880033FF5A6AEFFF784F911
:102AE000401B6428F6D96CE020F480703060FFF75A
:102AF0007BF90546306840057FF599AEFFF774F91C
:102B0000401B02284FF00300F4D9BDE7306820F0E5
:102B100080703060FFF768F9022D05460CD100BFC8
:102B20003068800140F17E80FFF75EF9401B02288B
:102B30004FF00300F4D9A7E73068800140F1B0807E
:102B4000FFF752F9401B02284FF00300F4D99BE72E
:102B50007068216920F0FE4040EA0160706066E61E
:102B600020F00100C6F89800FFF73EF9054600BFC7
:102B7000D6F8980080077FF566AEFFF735F9401B61
:102B800002284FF00300F3D97EE700BFD6F890107B
:102B900021F00101C6F89010D6F8901021F0040140
:102BA000C6F8901010B3FFF71FF9054641F28837B9
:102BB000D6F8900080072BD4FFF716F9401BB842D7
:102BC000F6D9032002B0BDE8F08100BFFFF70CF991
:102BD000054600BF306880037FF526AEFFF704F995
:102BE000401B64284FF00300F4D94DE7FFF7FCF8D1
:102BF000054641F2883700BFD6F89000800707D518
:102C0000FFF7F2F8401BB8424FF00300F4D93BE75E
:102C1000B8F1000F7FF413AEB06D20F08050B065B6
:102C20000DE600BFF06848F20C01C0F29F1104F1FC
:102C3000200700EA010C8ECF6FF00F00D4E90C548E
:102C400000EB02100022CFF6E07241EA0C0102EA2A
:102C500005520843A2F500124FF07E4540EA0320DA
:102C600005EA0465104305F17E4540EAC760284344
:102C7000F060306840F080703060F06840F0807044
:102C8000F060FFF7B1F80446306880010FD4FFF719
:102C9000ABF8001B02284FF00300F5D9F4E600BFA3
:102CA000F0684FF6FC71CFF6EE610840F06000204E
:102CB00002B0BDE8F08100007047000070470000DE
:102CC0007047000070470000704700007047000028
:102CD00070B590F83C20012A4FF0020265D080F8D0
:102CE0003D20026842F600435468D2F808C0C4F29E
:102CF000010345F2000E9A42C4F2010E18BF72455C
:102D00002CD14D6824F470042C434FF68F75CFF608
:102D1000FF550E682C4042F6FF35C4F201053443DE
:102D2000AA4254600EDC40F2FF73C4F200039A42E0
:102D30001CDCB2F1804F2DD040F20043C4F20003FE
:102D400026E000BF43F6FF74C4F20104A24219DC7E
:102D50009A421FD043F2004318E000BF43F20045FF
:102D6000C4F20105AA42CCD0CFE700BF40F6000371
:102D7000C4F200039A420DD040F60043C4F20003AF
:102D800006E000BF724505D044F20003C4F201031F
:102D90009A4204D189682CF0800319439160012183
:102DA000002280F83D1080F83C20104670BD0000E5
:102DB00070470000002804BF0120704710B504468A
:102DC00090F83D0028B9002084F83C00204600F02F
:102DD00023F8022084F83D002068211D01F048FA04
:102DE000012084F8480084F83E0084F83F0084F80D
:102DF000400084F8410084F8420084F8430084F8DD
:102E0000440084F8450084F8460084F8470084F8BC
:102E10003D00002010BD000080B582B0006841F286
:102E20000001C4F2000188421CBF02B080BD41F223
:102E30005800C4F202000168002241F01001016054
:102E40000068052100F01000019001983620FFF77E
:102E50007FF8362002B0BDE88040FFF765B800007B
:102E600090F83D1001291CBF01207047022180F815
:102E70003D10016842F6FF32C868C4F20102914277
:102E800040F00100C8600DDC40F2FF70C4F20000A9
:102E9000814217DCB1F1804F2CD040F20040C4F2E7
:102EA000000025E043F6FF70C4F20100814215DC0A
:102EB00042F60040C4F2010081421BD043F20040C0
:102EC00014E000BF40F60000C4F20000814211D0BF
:102ED00040F60040C4F200000AE000BF45F20000E6
:102EE000C4F20100814205D044F20000C4F20100A6
:102EF00081420CD188680722C0F201020240062AF2
:102F00004FF0000008D0B2F5803F08BF7047086856
:102F100040F001000860002070470000704700008A
:102F2000F0B581B004460068C5680669B10717D5D9
:102F300015F0020114D06FF0020101610121217727
:102F40008069800704D02046FFF7E8FF06E000BF55
:102F5000204600F0CBF8204600F0CAF80020207789
:102F6000700719D515F0040016D020686FF0040121
:102F7000016102212177806910F4407F04D020464E
:102F8000FFF7CCFF06E000BF204600F0AFF8204678
:102F900000F0AEF800202077300717D515F00800B4
:102FA00014D020686FF00801016104212177C06905
:102FB000800703D02046FFF7B1FF05E0204600F070
:102FC00095F8204600F094F800202077F00619D5F7
:102FD00015F0100016D020686FF010010161082173
:102FE0002177C06910F4407F04D02046FFF796FF98
:102FF00006E000BF204600F079F8204600F078F89F
:1030000000202077F00718BF15F0010006D02068D7
:103010006FF001010161204600F06CF816F4025FC8
:1030200005F0800718BF002F02D1F00509D410E089
:1030300020686FF4025101612046FFF73FFEF00562
:1030400007D537B120686FF4807101612046FFF722
:1030500033FE700609D515F0400006D020686FF0E9
:1030600040010161204600F04FF8B00609D515F087
:10307000200006D020686FF0200101612046FFF794
:103080001FFEF00209D515F4801006D020686FF4F9
:10309000801101612046FFF717FEB00209D515F433
:1030A000001006D020686FF4001101612046FFF780
:1030B00009FE700209D515F4800006D020686FF46F
:1030C000800101612046FFF701FE30020CD515F4A6
:1030D000000009D021686FF4000220460A6101B0A7
:1030E000BDE8F040FFF764BE01B0F0BD70470000DE
:1030F00070470000006840F60041C4F200018842B9
:1031000018BF7047FEF776BE7047000090F8841035
:10311000012904BF022070472421C0F888100268EA
:103120001168136823F00103136021F0005300219C
:10313000416613602022C0F8882080F88410084679
:103140007047000010B50446D0F88C0020281CBF42
:10315000022010BD00294FF0010018BF002A01D144
:1031600010BD00BF0120E06600202067204603F06C
:10317000ABF80028F4D1E06E01281CBF012010BD7F
:1031800020681021016200BF206850E8000F21680C
:1031900040F0100041E8000202B3206850E8000F40
:1031A000216840F0100041E80002BAB1206850E800
:1031B000000F216840F0100041E8000272B1206861
:1031C00050E8000F216840F0100041E80002002A9A
:1031D0004FF0000008BF10BDD6E700BF002010BDB3
:1031E00041F6A002C2F20002904218BF704710B52B
:1031F00090B041F68860C2F200000022425400788C
:10320000A0F146011D2900F25280DFE801F00F50C5
:1032100050505050505050505050505050505050AE
:103220005050505050505050508B83930AAA02F186
:10323000080002F1100402F10C018DE8130041F6C0
:103240008864C2F20004131D02F1140C44A120464C
:10325000CDF80CC0FDF732F8062827D19DED0A0AFB
:103260009DED0B1A9DED0C2AB8EEC00A9DED0D3AAE
:103270008DED040AB8EEC10A8DED050AB8EEC20A5A
:103280009DED0E1A8DED060AB8EEC30A8DED070A04
:10329000B8EEC10A9DED0F1A8DED080AB8EEC10A0D
:1032A00004A803218DED090A05F0E8F820785428D8
:1032B00046D10AAA02F1080002F10C01CDE9000191
:1032C00041F68860131D02F11004C2F2000029A12A
:1032D0000294FCF7F3FF9DED0A0A9DED0B1A9DED9C
:1032E0000C2A9DED0D3A40F210000E99B8EEC00A7E
:1032F000C2F20000B8EEC11AB8EEC22AB8EEC33A64
:1033000080ED000A80ED011A80ED022A80ED033A7B
:10331000017415E042F20820C2F20000022101808F
:103320000EE000BF42F20820C2F20000012101803D
:1033300006E000BF42F20820C2F200000321018033
:1033400041F6A00041F68861C2F20000C2F200011D
:103350004FF48072FFF7F6FE10B0BDE810407047E2
:103360004625644125645325644125644C25644108
:1033700025640000542048256420522564204325FC
:103380006420532564205825640000007047000025
:10339000B0B590F88420012A04BF0220B0BD2422D9
:1033A000C0F888200268D0F864E0D2F800C0136842
:1033B000BEF1000F23F001031360936823F06063F4
:1033C00041EA0301916019D0936891684AF61C5E46
:1033D000490FC0F6000E4AF624551EF80140C0F60B
:1033E0000005695CC3F34263E400B4FBF1F11EF82D
:1033F0000340EB5CE500B5FBF3F301E001210123A1
:10340000A0F86A102021A0F86830C2F800C0C0F807
:103410008810002180F884100846B0BDB0B590F83F
:103420008420012A04BF0220B0BD2422C0F88820D5
:103430000268D0F864E0D2F800C01368BEF1000F53
:1034400023F001031360936823F0604341EA030112
:10345000916019D0936891684AF61C5E490FC0F6D6
:10346000000E4AF624551EF80140C0F60005695CBE
:10347000C3F34263E400B4FBF1F11EF80340EB5CDC
:10348000E500B5FBF3F301E001210123A0F86A1088
:103490002021A0F86830C2F800C0C0F888100021D0
:1034A00080F884100846B0BD7047000070470000E7
:1034B0007047000070B5016840F62F03CA690446E2
:1034C00008688E681340202B0CD100F0200306F012
:1034D00080555B1917D0616F00297BD02046BDE86D
:1034E0007040084740F60F031A420CD00123C1F286
:1034F000000306EA030C40F22013C0F2004303402D
:1035000013EB0C0368D1E36E012B05D112F010030D
:1035100018BF10F010034DD1D3020BD516F4800361
:1035200008D04FF4801220460A62BDE87040FFF7D1
:10353000BDBF00BF110606D500F0800106F40003F0
:10354000C91840F03782510640F1108110F0400157
:1035500000F00C81206850E8000F216820F0400046
:1035600041E80002DAB1206850E8000F216820F03D
:10357000400041E8000292B1206850E8000F216845
:1035800020F0400041E800024AB1206850E8000FF6
:10359000216820F0400041E80002002ADAD1202012
:1035A0000021C4F888002046A167BDE8704000F003
:1035B00015BC00BF102008628868400618D4B4F813
:1035C0005C00B4F85E10B4F85E20002A18BF884290
:1035D00040F0128270BD00BFD30718BF10F4807393
:1035E00040F0D080930706F0010E00F1D780E0E0B4
:1035F000D4F8800000684268B4F85C3091B20029C9
:1036000000F0DE81994280F0DB81A4F85E20006842
:10361000800600F19E80206850E8000F216820F4A9
:10362000807041E80002DAB1206850E8000F21689C
:1036300020F4807041E8000292B1206850E8000F49
:10364000216820F4807041E800024AB1206850E807
:10365000000F216820F4807041E80002002ADAD1CE
:10366000206850E8020F216820F0010041E80202C2
:10367000BAB3206850E8020F216820F0010041E849
:10368000020272B3206850E8020F216820F00100A6
:1036900041E802022AB3206850E8020F216820F0B6
:1036A000010041E80202002ADAD11AE0206850E85D
:1036B000020F216820F0400041E80202DAB12068E0
:1036C00050E8020F216820F0400041E8020292B168
:1036D000206850E8020F216820F0400041E8020213
:1036E0004AB1206850E8020F216820F0400041E80C
:1036F0000202002ADAD12020C4F88C000020E06603
:10370000206850E8000F216820F0100041E8000216
:10371000DAB1206850E8000F216820F0100041E87D
:10372000000292B1206850E8000F216820F01000DC
:1037300041E800024AB1206850E8000F216820F0FB
:10374000100041E80002002ADAD1D4F88000FDF729
:1037500065FB02202067B4F85C00B4F85E10401AE4
:1037600081B22046BDE87040FFF73ABD110240F13A
:10377000318110F0804100F02D812046BDE870407D
:10378000FFF792BE01230B62D4F8903043F001039F
:10379000C4F89030930706F0010E0AD5BEF1000F71
:1037A00007D002230B62D4F8903043F00403C4F82E
:1037B000903053070AD5BEF1000F07D004230B62E7
:1037C000D4F8903043F00203C4F8903013070CD5BE
:1037D00000F0200353EA0C0307D008230B62D4F84F
:1037E000903043F00803C4F8903013050BD510F067
:1037F000806308D04FF400630B62D4F8903043F03C
:103800002003C4F89030D4F89030002B3FF4E2AE9F
:1038100012F020021EBF00F0200006F0805210EBD4
:10382000020040F06B81D4F89000896800F0280015
:1038300001F04001401807D12046FFF739FE002073
:10384000C4F8900070BD00BF206850E8000F2168E8
:1038500020F4907041E80002DAB1206850E8000FCF
:10386000216820F4907041E8000292B1206850E88D
:10387000000F216820F4907041E800024AB12068EE
:1038800050E8000F216820F4907041E80002002AFF
:10389000DAD14FF6FE70CEF6FF7000BF216851E816
:1038A000021F2268014042E80213C3B1216851E8B7
:1038B000021F2268014042E8021383B1216851E8E7
:1038C000021F2268014042E8021343B1216851E817
:1038D000021F2268014042E80213002BDED1E06E95
:1038E000012824D1206850E8000F216820F0100042
:1038F00041E80002DAB1206850E8000F216820F0AA
:10390000100041E8000292B1206850E8000F2168E1
:1039100020F0100041E800024AB1206850E8000F92
:10392000216820F0100041E80002002ADAD12020AE
:10393000C4F88C000020E066216860678868400653
:1039400054D500BF206850E8020F216820F04000E5
:1039500041E80202DAB1206850E8020F216820F045
:10396000400041E8020292B1206850E8020F21684D
:1039700020F0400041E802024AB1206850E8020FFE
:10398000216820F0400041E80202002ADAD1D4F890
:10399000800058B345F6A141C0F600018163FDF7F0
:1039A00075FA00283FF416AED4F88000816BBDE8AC
:1039B00070400847A16F00297FF490AD0AE600BF70
:1039C0008B427FF407AE006880067FF503AE0222CB
:1039D0008DE000BFD1017FF5FDADB0F1FF3FC8BF65
:1039E00070BD2046BDE87040FFF7D0BC2046BDE862
:1039F0007040FFF75DBD00BF401A00BF216851E86D
:103A0000001F226821F4907142E80013DBB12168A5
:103A100051E8001F226821F4907142E8001393B12D
:103A2000216851E8001F226821F4907142E80013D8
:103A30004BB1216851E8001F226821F4907142E8DF
:103A40000013002BDAD14FF6FE71CEF6FF7100BFE6
:103A5000226852E8022F23680A4043E80226C6B1D2
:103A6000226852E8022F23680A4043E8022686B102
:103A7000226852E8022F23680A4043E8022646B132
:103A8000226852E8022F23680A4043E80226002EEB
:103A9000DED12021C4F88C100021E166616700BFEF
:103AA000216851E8001F226821F0100142E800134C
:103AB000DBB1216851E8001F226821F0100142E8C3
:103AC000001393B1216851E8001F226821F0100112
:103AD00042E800134BB1216851E8001F226821F031
:103AE000100142E80013002BDAD1022281B22046F5
:103AF0002267BDE87040FFF773BB00BF626F002A0A
:103B00003FF491AE2046904721688CE610B5D8B1BD
:103B10000446D0F8880028B9002084F884002046A4
:103B200000F026F82420C4F888002068A16A026802
:103B300022F00102026011B1204601F085FF20460B
:103B400002F062FA012801D1012010BD2168486805
:103B500020F490404860886820F02A008860086857
:103B600040F0010220460A60BDE8104001F0E0BFCD
:103B700070B59AB00446684608304C21FCF792FBB9
:103B8000206843F60001C4F20101884202D01AB055
:103B900070BD00BF01200090002668460196FEF728
:103BA000B1FA002818BFFDF71BF941F24C00C4F22E
:103BB0000200416941F480414161416901F4804161
:103BC00015911599016841F002010160006815A97D
:103BD00000F0020015901598C02015900220CDE944
:103BE00016060720199040F20040C4F6000018960F
:103BF000FEF71EF841F27C650820C2F20005C4F20F
:103C000002001821802285E843002846C5E90362A6
:103C1000C5E90566C5E90766FDF7CCF9002818BFB8
:103C2000FDF7DEF8252005210022C4F88050AC62A3
:103C3000FEF78EF92520FEF777F91AB070BD000067
:103C400070470000704700002DE9F0410446D0F8AD
:103C5000880020281CBF0220BDE8F0810D46002905
:103C60004FF0010000F0B8801646002A08BFBDE8FA
:103C7000F0810020C4F8900021209846C4F8880004
:103C8000FEF7B2F8A4F85460A4F85660A16806469E
:103C9000B1F5805F02D1206900286BD02F46002546
:103CA000B4F8560000286BD018F101001CD0B8F110
:103CB000000F3DD121680BE017F8010B8862B4F8C2
:103CC00056000138A4F85600B4F85600002858D021
:103CD000C869000640F17A80002FEDD135F8020B5B
:103CE00000276FF35F20E9E7216802E0C86900065A
:103CF00009D4C869000606D4C86900065CBFC86953
:103D00005FEA0060F2D51FB117F8010B05E000BFB4
:103D100035F8020B00276FF35F208862B4F8560075
:103D20000138A4F85600B4F856000028E1D128E084
:103D3000216800BFC869000608D4FEF755F8801B4B
:103D4000404545D821680868F4E700BF17B117F867
:103D5000010B04E035F8020B00276FF35F20886247
:103D6000B4F856000138A4F85600B4F856000028FC
:103D7000E0D106E00027B4F8560000287FF494AFA5
:103D80002168C86940061FD4B8F1000F1ED018F191
:103D900001000FD1C869400616D4C869400613D483
:103DA000C869400610D4C86940064FF00000F1D53C
:103DB0000FE000BFFEF718F8801B404508D82068C8
:103DC0000168C0694006F5D5002002E0FEF70CF856
:103DD00003202021C4F88810BDE8F081704700005E
:103DE000FEE7000080B582B041F24800C4F2020054
:103DF0000168002241F004010160016801F0040142
:103E000001910199016841F00101016000680521FB
:103E100000F00100009000980B20FEF799F80B20AD
:103E200002B0BDE88040FEF77FB8000080B541F2E7
:103E3000DC6046F20041C2F20000C4F20001002240
:103E4000C0E90012112100F1140701234FF0060C04
:103E50004FF0030E87E80A5000F12407C0E9022260
:103E6000C0F80F2087E80A50C0E90D32C263FDF7A1
:103E70008FFC002808BF80BDBDE88040FCF7B0BFC4
:103E800080B541F2407046F60001C2F20000C4F273
:103E900000010022C0E90012112100F114070123E2
:103EA0004FF0060C4FF0030E87E80A5000F124078C
:103EB000C0E90222C0F80F2087E80A50C0E90D329D
:103EC000C263FDF765FC002808BF80BDBDE88040E7
:103ED000FCF786BF80B541F2A47046F60041C2F2FD
:103EE0000000C4F200010022C0E90012112100F11B
:103EF000140701234FF0060C4FF0030E87E80A5019
:103F000000F12407C0E90222C0F80F2087E80A5018
:103F1000C0E90D32C263FDF73BFC002808BF80BD3D
:103F2000BDE88040FCF75CBF10B503F01FF941F617
:103F3000A00041F68861C2F20000C2F200014FF415
:103F40008072FFF7FFF804F0C1FA03F045F802F0C1
:103F50003FFE41F2DC60C2F2000003F073F941F26F
:103F60004070C2F2000003F06DF94AF62C50C0F622
:103F7000000003F0D1FB40F22804C2F200044AF62C
:103F800018622060C0F600021020082103F026FB12
:103F9000606044F2BD304AF6C042C0F60000C0F690
:103FA0000002002103F0F4FBA06010BDB0B586B0A4
:103FB000002441F24C000594C4F202000168002282
:103FC00041F00401016001684FF4207501F0040123
:103FD00000910099016841F020010160016801F041
:103FE000200100910099016841F001010160016820
:103FF00001F0010100910099016841F002010160A6
:1040000000684FF4207100F00200009000984FF01B
:104010009040FDF7E3FE0120CDE9020401A94FF035
:10402000904001950494FDF703FE06B0B0BD00007A
:1040300010B584B041F6540041F20001C2F2000014
:10404000C4F20001002442F23312632380E8160018
:1040500080210294C3608161FEF7ACFE002818BF86
:10406000FCF7BEFE41F65400C2F2000001A9019423
:104070000394FEF72DFE002818BFFCF7B1FE04B034
:1040800010BD000080B541F6A00043F60001C2F269
:104090000000C4F2010100234FF00C0C4FF4E13298
:1040A00080E80E00C0E90333C0E905C3C0E9073367
:1040B000C0E90933FFF72AFD002818BFFCF790FE7E
:1040C00041F6A000C2F200000021FFF7A7F9002886
:1040D00018BFFCF785FE41F6A000C2F200000021E7
:1040E000FFF756F9002818BFFCF77AFE41F6A0004A
:1040F000C2F20000FFF70AF8002808BF80BDBDE843
:104100008040FCF76DBE0000FEE70000FEE7000007
:10411000EFF30980BFF36F8F154B1A681EF0100F75
:1041200008BF20ED108A20E9F04F10602DE909004A
:104130004FF0500080F31188BFF34F8FBFF36F8FA4
:1041400004F02AFF4FF0000080F31188BDE8090059
:1041500019680868B0E8F04F1EF0100F08BFB0EC07
:10416000108A80F30988BFF36F8F704700BF00BFCC
:104170007800002030EEC05A90ED050A90ED001A4C
:1041800035EE406A90ED012A21EE061A30EE006A03
:1041900090ED067A90ED023A35EE466A25EE022A57
:1041A00036EE076A90ED034A23EE063A80ED060AE2
:1041B00031EE020A30EE031A90ED070A34EE011ACE
:1041C000B4EE401AF1EE10FA80ED045A80ED055A73
:1041D0000ADC90ED082AB0EE410AB4EE421AF1EE84
:1041E00010FAB8BFB0EE420A80ED030A80ED090A6A
:1041F0007047000000000000000000000000000008
:10420000074B19680868B0E8F04F80F30988BFF3DE
:104210006F8F4FF0000080F31188704700BF00BF20
:104220007800002080B54EF21000CEF20000006849
:1042300005F0DAFD012808BF80BDBDE8804004F02C
:10424000CBBF00004EF68850CEF20000016841F46A
:10425000700101607047000041F60800C2F20000E2
:10426000FEF75EBE41F65400C2F20000FEF758BEF3
:1042700080B540F6FF330268C4F2000343F2FF3C0E
:104280009842C4F2010C0BDD60452FDC40F6004380
:10429000C4F20003984235D042F600432EE000BF3E
:1042A000B0F1804F2ED040F20043C4F20003984298
:1042B00028D040F60003C4F20003984222D06045A3
:1042C00026DC40F2FF73C4F20003984236DD40F66C
:1042D0000003C4F20003984244D040F60043C4F205
:1042E000000398423ED042F6004337E045F2000317
:1042F000C4F20103984205D043F20043C4F2010323
:104300009842DCD14B6822F070021A436045D8DD38
:1043100044F2FF33C4F20103984217DD44F2004334
:10432000C4F2010398421DD045F20003C4F2010318
:10433000984217D044F6000310E000BFB0F1804F60
:1043400010D040F20043C4F2000309E043F20043FE
:10435000C4F20103984205D044F20003C4F2010301
:10436000984203D1CB6822F440721A434B6922F081
:10437000800E8A6843EA0E03D1F800C00360C2626F
:10438000A0F18042A2F596324FEAB222092AC0F883
:1043900028C008D8012303FA02F240F2E5231A42AA
:1043A0001CBF09690163012141610169C90708BF97
:1043B00080BD016921F00101016180BD88B002F07A
:1043C00015FA02F09BFC41F6341742F2082B40F23A
:1043D0002C059FED129A9FED12AA9FED12BA9FED48
:1043E00012EADFED12CADFED12EA9FED128ADFED6D
:1043F00012DADFED12BA9FED12FAC2F20007C2F232
:10440000000B4FF00108C2F200050DF108090FF68C
:104410008C3AFBEE0E9AB2EE0ECA56E00000000097
:10442000000034430000AF43000016430000164470
:10443000000096420000E143000034C30000B44293
:104440000000B4C200002A4300007042000025436F
:1044500000001B430000A04300003442002005F090
:1044600009FF4FF47A7003F033F8DDE90604FCF736
:1044700059F8064620460F46FCF754F841EC100B5D
:104480004AF65F50C0F60000022132463B468DEDF1
:10449000000B05F01DFF42F2082B4746C2F2000B4D
:1044A0004FF00108BBF900104AF6A550C0F6000015
:1044B00005F00EFF40F22C050020C2F20005387016
:1044C000ABF80000142003F003F838780028F9D185
:1044D000BBF800000028F5D087F80080BBF9001079
:1044E0000FF6C82005F0F4FEBBF90000032800F029
:1044F000BF82022800F00483012841F087821FED6B
:104500002F0A05F0C1FE012002F0E2FF02F024F9BB
:1045100038B900BF0A2002F0DBFF02F01DF90028C5
:10452000F8D0B0EE490A05F093FE012002F0D0FF6A
:104530001FED3B0A02F046F9012002F0C9FFB0EE80
:104540004B0A02F0A9FB02F007F930B90A2002F089
:10455000BFFF02F001F90028F8D01FED440A05F072
:1045600093FE012002F0B4FF02F0F6F838B900BF64
:104570000A2002F0ADFF02F0EFF80028F8D0B0EE0C
:10458000490A05F065FE012002F0A2FF1FED520A64
:1045900002F018F9012002F09BFFB0EE480A02F089
:1045A0007BFB02F0D9F830B90A2002F091FF02F04B
:1045B000D3F80028F8D0B0EE4E0A05F065FE0120D1
:1045C00002F086FF02F0C8F838B900BF0A2002F0F6
:1045D0007FFF02F0C1F80028F8D0B0EE490A05F0DC
:1045E00037FE012002F074FF1FED690A02F0EAF8BD
:1045F000012002F06DFFB0EE480A02F04DFB02F020
:10460000ABF830B90A2002F063FF02F0A5F80028E9
:10461000F8D01FED740A05F037FE012002F058FFB4
:1046200002F09AF838B900BF0A2002F051FF02F0F8
:1046300093F80028F8D0B0EE490A05F009FE0120F1
:1046400002F046FFB0EE4F0A02F0BCF8012002F083
:104650003FFFB0EE4B0A02F01FFB02F07DF830B9CD
:104660000A2002F035FF02F077F80028F8D01FED9D
:10467000880A05F009FE012002F02AFF02F06CF81A
:1046800038B900BF0A2002F023FF02F065F80028C5
:10469000F8D0B0EE490A05F0DBFD012002F018FF6A
:1046A000B0EE4F0A02F08EF8012002F011FFB0EEDA
:1046B0004B0A02F0F1FA02F04FF830B90A2002F08A
:1046C00007FF02F049F80028F8D01FED9E0A05F018
:1046D000DBFD012002F0FCFE02F03EF838B900BF1D
:1046E0000A2002F0F5FE02F037F80028F8D0B0EE0C
:1046F000490A05F0ADFD012002F0EAFE1FEDAA0A0D
:1047000002F060F8012002F0E3FEB0EE4B0A02F086
:10471000C3FA02F021F830B90A2002F0D9FE02F003
:104720001BF80028F8D01FEDB70A05F0ADFD0120F9
:1047300002F0CEFE02F010F838B900BF0A2002F0F5
:10474000C7FE02F009F80028F8D0B0EE490A05F0DB
:104750007FFD012002F0BCFE1FEDC10A02F032F81D
:10476000012002F0B5FEB0EE4B0A02F095FA01F01E
:10477000F3FF30B90A2002F0ABFE01F0EDFF002894
:10478000F8D0B0EE4E0A05F07FFD012002F0A0FE49
:1047900001F0E2FF38B900BF0A2002F099FE01F0F3
:1047A000DBFF0028F8D0B0EE490A05F051FD0120EA
:1047B00002F08EFE1FEDD80A02F004F8012002F08C
:1047C00087FEB0EE4B0A02F067FA01F0C5FF30B980
:1047D0000A2002F07DFE01F0BFFF0028F8D09FED17
:1047E000C00A05F051FD012002F072FE01F0B4FF95
:1047F00038B900BF0A2002F06BFE01F0ADFF0028BF
:10480000F8D0B0EE490A05F023FD012002F060FE69
:10481000B0EE4F0A01F0D6FF012002F059FEB0EED3
:104820004B0A02F039FA01F097FF30B90A2002F082
:104830004FFE01F091FF0028F8D09FEDAA0A05F085
:1048400023FD012002F044FE01F086FF38B900BFCD
:104850000A2002F03DFE01F07FFF0028F8D0B0EE04
:10486000490A05F0F5FC012002F032FEB0EE4F0AD5
:1048700001F0A8FF012002F02BFEB0EE4B0A02F07F
:104880000BFA01F069FF30B90A2002F021FE01F0B5
:1048900063FF0028F8D09FED940A05F0F5FC012095
:1048A00002F016FE01F058FF38B900BF0A2002F0EE
:1048B0000FFE01F051FF0028F8D0B0EE490A05F0D4
:1048C000C7FC012002F004FEB0EE690A01F07AFF95
:1048D000012002F0FDFDB0EE4B0A02F0DDF901F01F
:1048E0003BFF30B90A2002F0F3FD01F035FF00284C
:1048F000F8D09FED7E0A05F0C7FC012002F0E8FD2C
:1049000001F02AFF38B900BF0A2002F0E1FD01F0F2
:1049100023FF0028F8D0B0EE490A05F099FC0120E9
:1049200002F0D6FDB0EE690A01F04CFF012002F062
:10493000CFFD9FED6F0A02F0AFF901F00DFF30B926
:104940000A2002F0C5FD01F007FF0028F8D0B0EE04
:104950004E0A05F099FC012002F0BAFD01F0FCFEC0
:1049600038B900BF0A2002F0B3FD01F0F5FE0028BF
:10497000F8D0B0EE490A05F06BFC012002F0A8FD6A
:10498000B0EE690A01F01EFF012002F0A1FD9FEDCB
:10499000580A02F081F901F0DFFE30B90A2002F076
:1049A00097FD01F0D9FE0028F8D09FED4F0A05F0E1
:1049B0006BFC012002F08CFD01F0CEFE38B900BF87
:1049C0000A2002F085FD01F0C7FE0028F8D0B0EE05
:1049D000490A05F03DFC012002F07AFDB0EE4F0AD5
:1049E00001F0F0FE012002F073FDB0EE4B0A02F080
:1049F00053F901F0B1FE30B90A2002F069FD01F06F
:104A0000ABFE0028F8D09FED3B0A05F03DFC0120ED
:104A100002F05EFD01F0A0FE38B900BF0A2002F0EE
:104A200057FD01F099FE0028F8D0B0EE490A05F0D4
:104A30000FFC012002F04CFDB0EE4F0A01F0C2FE67
:104A4000012002F045FDB0EE4B0A02F025F901F01D
:104A500083FE30B90A2002F03BFD01F07DFE002804
:104A6000F8D04AF6B850C0F6000006F0ABF819E5E9
:104A70000FF24C5006F0A6F84FF0000804E000BF1B
:104A8000B8F1030F80F01684286809EBC8010022F2
:104A90004FF0FF3302F05EFD0028F1D108F101086C
:104AA00009EBC80151F8080C4E4651F8049CFBF77D
:104AB00039FD3C465746824648468B46B146FBF791
:104AC00031FD41EC100B0FF21C50414652465B4643
:104AD000BA4627468DED000B05F0FAFBD0E700BF84
:104AE0000000A043008098430000EB4300002543F2
:104AF0000000C8430080E34300C019440000C343E2
:104B00001FED030A05F0C0FB012002F0E1FC01F0FB
:104B100023FE30B90A2002F0DBFC01F01DFE002864
:104B2000F8D0B0EE490A05F093FB012002F0D0FC6A
:104B3000B0EE4A0A01F046FE012002F0C9FCB0EED8
:104B40004B0A02F0A9F801F007FE30B90A2002F082
:104B5000BFFC01F001FE0028F8D0B0EE6C0A05F0B1
:104B600093FB012002F0B4FC01F0F6FD38B900BF60
:104B70000A2002F0ADFC01F0EFFD0028F8D0B0EE05
:104B8000490A05F065FB012002F0A2FCB0EE4A0ADA
:104B900001F018FE012002F09BFCB0EE4B0A02F07F
:104BA0007BF801F0D9FD30B90A2002F091FC01F048
:104BB000D3FD0028F8D0012005F05CFB4FF47A709B
:104BC00002F086FC1FED340A05F05EFB012002F0C6
:104BD0007FFC01F0C1FD30B90A2002F079FC01F040
:104BE000BBFD0028F8D0B0EE490A05F031FB0120EA
:104BF00002F06EFCB0EE4A0A01F0E4FD012002F082
:104C000067FCB0EE4B0A02F047F801F0A5FD30B9A1
:104C10000A2002F05DFC01F09FFD0028F8D01FED96
:104C2000490A05F031FB012002F052FC01F094FD2D
:104C300038B900BF0A2002F04BFC01F08DFD0028BE
:104C4000F8D0B0EE6E0A05F003FB012002F040FC44
:104C5000B3EE0E0A01F0B6FD012002F039FCB0EE11
:104C6000480A02F019F801F077FD30B90A2002F085
:104C70002FFC01F071FD0028F8D01FED600A05F04F
:104C800003FB012002F024FC01F066FD38B900BFEF
:104C90000A2002F01DFC01F05FFD0028F8D0B0EE04
:104CA0006E0A05F0D5FA012002F012FCB3EE0E0AEE
:104CB00001F088FD012002F00BFCB0EE6C0A01F05F
:104CC000EBFF01F049FD30B90A2002F001FC01F0D0
:104CD00043FD0028F8D0002005F0CCFA4FF47A709C
:104CE00002F0F6FB9FEDC90A05F0CEFA012002F0B2
:104CF000EFFB01F031FD30B90A2002F0E9FB01F0D1
:104D00002BFD0028F8D0B0EE6E0A05F0A1FA0120C4
:104D100002F0DEFBB3EE0E0A01F054FD012002F0BA
:104D2000D7FBB0EE6C0A01F0B7FF01F015FD30B90A
:104D30000A2002F0CDFB01F00FFD0028F8D04AF662
:104D40000560C0F6000005F03DFF9FEDB10A05F0DB
:104D50009BFA012002F0BCFB01F0FEFC38B900BF59
:104D60000A2002F0B5FB01F0F7FC0028F8D0B0EE05
:104D7000490A05F06DFA012002F0AAFBB0EE4A0ADA
:104D800001F020FD012002F0A3FBB0EE4B0A01F080
:104D900083FF01F0E1FC30B90A2002F099FB01F039
:104DA000DBFC0028F8D0B0EE480A05F06DFA0120CF
:104DB00002F08EFB01F0D0FC38B900BF0A2002F0EF
:104DC00087FB01F0C9FC0028F8D0B0EE490A05F0D5
:104DD0003FFA012002F07CFBB0EE4A0A01F0F2FC3F
:104DE000012002F075FBB0EE4B0A01F055FF01F017
:104DF000B3FC30B90A2002F06BFB01F0ADFC0028D7
:104E0000F8D0012005F036FA4FF47A7002F060FB1A
:104E10009FED7F0A05F038FA012002F059FB01F0FE
:104E20009BFC30B90A2002F053FB01F095FC0028EE
:104E3000F8D0B0EE490A05F00BFA012002F048FB69
:104E4000B0EE4A0A01F0BEFC012002F041FBB0EED8
:104E50004B0A01F021FF01F07FFC30B90A2002F07B
:104E600037FB01F079FC0028F8D01FEDDC0A05F0D3
:104E70000BFA012002F02CFB01F06EFC38B900BFE8
:104E80000A2002F025FB01F067FC0028F8D0B0EE04
:104E90006E0A05F0DDF9012002F01AFBB0EE690A96
:104EA00001F090FC012002F013FBB0EE480A01F083
:104EB000F3FE01F051FC30B90A2002F009FB01F0C9
:104EC0004BFC0028F8D09FED530A05F0DDF90120D6
:104ED00002F0FEFA01F040FC38B900BF0A2002F0EF
:104EE000F7FA01F039FC0028F8D0B0EE6E0A05F0B0
:104EF000AFF9012002F0ECFAB0EE690A01F062FCB1
:104F0000012002F0E5FAB0EE6C0A01F0C5FE01F0F6
:104F100023FC30B90A2002F0DBFA01F01DFC002866
:104F2000F8D0002005F0A6F94FF47A7002F0D0FA1C
:104F30009FED360A05F0A8F9012002F0C9FA01F048
:104F40000BFC30B90A2002F0C3FA01F005FC00287E
:104F5000F8D0B0EE6E0A05F07BF9012002F0B8FA45
:104F6000B0EE690A01F02EFC012002F0B1FAB0EEB9
:104F70006C0A01F091FE01F0EFFB30B90A2002F05B
:104F8000A7FA01F0E9FB0028F8D04AF60560C0F660
:104F9000000005F017FE022446E000BF03000000F9
:104FA0000400000005000000060000005374617258
:104FB00074696E67205461736B2025640D0A0000CC
:104FC0005461736B20333A2057616974696E6720AE
:104FD000666F72203320706F736974696F6E732E01
:104FE0002E2E0D00526563656976656420706F73BF
:104FF0006974696F6E2025643A20523D252E316612
:105000002C20413D252E31660D0A00000000CD43C5
:105010000080E8430000C3430FF6182005F0D2FDDE
:105020000134042C3FF43EAAC4F1040000EE100A3F
:10503000B8EEC00A60EE0E8A38EE8CDAB0EE4D0A99
:1050400005F022F9012002F043FA01F085FB30B9A6
:105050000A2002F03DFA01F07FFB0028F8D0B0EE04
:10506000490A05F0F5F8012002F032FAB0EE4A0ADA
:1050700001F0A8FB012002F02BFAB0EE4B0A01F080
:105080000BFE01F069FB30B90A2002F021FA01F0B1
:1050900063FB0028F8D0B0EE680A05F0F5F80120AF
:1050A00002F016FA01F058FB38B900BF0A2002F0EE
:1050B0000FFA01F051FB0028F8D0B0EE490A05F0D4
:1050C000C7F8012002F004FAB0EE4A0A01F07AFBB8
:1050D000012002F0FDF9B0EE4B0A01F0DDFD01F018
:1050E0003BFB30B90A2002F0F3F901F035FB002850
:1050F000F8D0012005F0BEF84FF47A7002F0E8F91C
:10510000B0EE4D0A05F0C0F8012002F0E1F901F01F
:1051100023FB30B90A2002F0DBF901F01DFB002867
:10512000F8D0B0EE490A05F093F8012002F0D0F96A
:10513000B0EE4A0A01F046FB012002F0C9F9B0EED8
:105140004B0A01F0A9FD01F007FB30B90A2002F07B
:10515000BFF901F001FB0028F8D05AF82400411FE4
:1051600002293FF65DAF4AF64041C0F6000101EB6F
:105170000016D6ED028AB0EE680A05F085F8012027
:1051800002F0A6F901F0E8FA38B900BF0A2002F0EF
:105190009FF901F0E1FA0028F8D0D6ED00AA96EDCB
:1051A00001DAB0EE6B0A7AEEADFA05F051F80120A3
:1051B00002F08EF9B0EE4D0A01F004FB012002F07E
:1051C00087F9B0EE6F0A01F067FD01F0C5FA30B95A
:1051D0000A2002F07DF901F0BFFA0028F8D0B0EE05
:1051E000680A05F051F8012002F072F901F0B4FAF2
:1051F00038B900BF0A2002F06BF901F0ADFA0028BF
:10520000F8D0B0EE6B0A05F023F8012002F060F947
:10521000B0EE4D0A01F0D6FA012002F059F9B0EED5
:105220006A0A01F039FD01F097FA30B90A2002F05C
:105230004FF901F091FA0028F8D0002005F01AF893
:105240004FF47A7002F044F9B0EE680A05F01CF8E9
:10525000012002F03DF901F07FFA30B90A2002F096
:1052600037F901F079FA0028F8D0B0EE6B0A04F0B3
:10527000EFFF012002F02CF9B0EE4D0A01F0A2FA86
:10528000012002F025F9B0EE6F0A01F005FD01F0F2
:1052900063FA00287FF4C0AE0A2002F019F901F089
:1052A0005BFA0028F8D0B7E600001B4300002A4351
:1052B0000000A5434AF6D750C0F6000005F082FC76
:1052C000B3EE040A04F0E0FF012002F001F901F05E
:1052D00043FA30B90A2002F0FBF801F03DFA002849
:1052E000F8D0B0EE490A04F0B3FF012002F0F0F864
:1052F000B0EE4A0A01F066FA012002F0E9F8B0EED9
:105300004B0A01F0C9FC01F027FA30B90A2002F07B
:10531000DFF801F021FA0028F8D0B0EE490A04F0D5
:10532000B3FF012002F0D4F801F016FA38B900BF3B
:105330000A2002F0CDF801F00FFA0028F8D0B0EE04
:10534000490A04F085FF012002F0C2F8B0EE4A0AD3
:1053500001F038FA012002F0BBF8B0EE4B0A01F080
:105360009BFC01F0F9F930B90A2002F0B1F801F024
:10537000F3F90028F8D0012004F07CFF4FF47A7094
:1053800002F0A6F8B0EE4A0A04F07EFF012002F017
:105390009FF801F0E1F930B90A2002F099F801F024
:1053A000DBF90028F8D0B0EE490A04F051FF0120E3
:1053B00002F08EF8B0EE4A0A01F004FA012002F081
:1053C00087F8B0EE4B0A01F067FC01F0C5F930B97F
:1053D0000A2002F07DF801F0BFF90028F8D0B0EE05
:1053E0004A0A04F051FF012002F072F801F0B4F90A
:1053F00038B900BF0A2002F06BF801F0ADF90028BF
:10540000F8D0B0EE490A04F023FF012002F060F862
:10541000B0EE4A0A01F0D6F9012002F059F8B0EED8
:105420004B0A01F039FC01F097F930B90A2002F07B
:105430004FF801F091F90028F8D09DED02DADDED8A
:10544000038AB0EE4A0A04F01FFF012002F040F880
:1054500001F082F938B900BF0A2002F039F801F0F2
:105460007BF90028F8D0B0EE490A04F0F1FE0120E3
:1054700002F02EF8B0EE680A01F0A4F9012002F063
:1054800027F8B0EE4D0A01F007FC01F065F930B9DC
:105490000A2002F01DF801F05FF90028F8D01FED96
:1054A0007E0A9DED02DADDED038A04F0EDFE0120B7
:1054B00002F00EF801F050F938B900BF0A2002F0EE
:1054C00007F801F049F90028F8D0B0EE490AB846CB
:1054D00004F0BEFE012001F0FBFFB0EE680A01F00F
:1054E00071F9012001F0F4FFB0EE4D0A01F0D4FB98
:1054F00001F032F938B900BF0A2001F0E9FF01F0EC
:105500002BF90028F8D0002004F0B4FE4FF47A7094
:1055100001F0DEFFDDE90204FBF704F80746204650
:105520000E46FAF7FFFF41EC100B4AF65F50C0F64B
:10553000000000213A4633468DED000B04F0C8FE12
:105540001FEDA60A04F0A0FE012001F0C1FF01F04A
:1055500003F930B90A2001F0BBFF01F0FDF8002883
:10556000F8D0B0EE490A04F073FE012001F0B0FF5C
:10557000B0EE4A0A01F026F9012001F0A9FFB0EED1
:105580004B0A01F089FB01F0E7F830B90A2001F07D
:105590009FFF01F0E1F80028F8D0B0EE4E0A04F0C9
:1055A00073FE012001F094FF01F0D6F838B900BF76
:1055B0000A2001F08DFF01F0CFF80028F8D0B0EEFE
:1055C000490A04F045FE012001F082FFB0EE4A0ACC
:1055D00001F0F8F8012001F07BFFB0EE4B0A01F07A
:1055E0005BFB01F0B9F830B90A2001F071FF01F05E
:1055F000B3F80028F8D0012004F03CFE4FF47A7094
:1056000001F066FF1FEDD60A04F03EFE012001F016
:105610005FFF01F0A1F830B90A2001F059FF01F055
:105620009BF80028F8D0B0EE490A04F011FE0120E2
:1056300001F04EFFB0EE4A0A01F0C4F8012001F07B
:1056400047FFB0EE4B0A01F027FB01F085F830B9B7
:105650000A2001F03DFF01F07FF80028F8D09FED0F
:10566000050A04F011FE012001F032FF01F074F888
:1056700048B901E00000A5430A2001F029FF01F02C
:105680006BF80028F8D0B0EE490A04F0E1FD0120E3
:1056900001F01EFFB0EE4A0A01F094F8012001F07B
:1056A00017FFB0EE4B0A01F0F7FA01F055F830B9E8
:1056B0000A2001F00DFF01F04FF80028F8D09FED0F
:1056C000D90A9DED04DADDED058A04F0DDFD012047
:1056D00001F0FEFE01F040F838B900BF0A2001F0E9
:1056E000F7FE01F039F80028F8D0B0EE490A04F0CE
:1056F000AFFD012001F0ECFEB0EE680A01F062F8A7
:10570000012001F0E5FEB0EE4D0A01F0C5FA01F00E
:1057100023F830B90A2001F0DBFE01F01DF8002863
:10572000F8D09FEDBF0A9DED04DADDED058A04F0A7
:10573000ABFD012001F0CCFE01F00EF838B900BF3E
:105740000A2001F0C5FE01F007F80028F8D0B0EEFD
:10575000490A04F07DFD012001F0BAFEB0EE680AAE
:1057600001F030F8012001F0B3FEB0EE4D0A01F077
:1057700093FA00F0F1FF30B90A2001F0A9FE00F021
:10578000EBFF0028F8D0002004F074FD4FF47A708D
:1057900001F09EFEDDE90404FAF7C4FE0646204649
:1057A0000F46FAF7BFFE41EC100B4AF65F50C0F609
:1057B0000000012132463B468DED000B04F088FDD0
:1057C0009FED990A04F060FD012001F081FE00F0D8
:1057D000C3FF30B90A2001F07BFE00F0BDFF0028B6
:1057E000F8D0B0EE490A04F033FD012001F070FE5C
:1057F000B0EE4A0A00F0E6FF012001F069FEB0EECB
:105800004B0A01F049FA00F0A7FF30B90A2001F075
:105810005FFE00F0A1FF0028F8D09FED840A04F09D
:1058200033FD012001F054FE00F096FF38B900BFAF
:105830000A2001F04DFE00F08FFF0028F8D0B0EEF6
:10584000490A04F005FD012001F042FEB0EE4A0ACB
:1058500000F0B8FF012001F03BFEB0EE4B0A01F072
:105860001BFA00F079FF30B90A2001F031FE00F098
:1058700073FF0028F8D0012004F0FCFC4FF47A708C
:1058800001F026FE9FED6A0A04F0FEFC012001F003
:105890001FFE00F061FF30B90A2001F019FE00F090
:1058A0005BFF0028F8D0B0EE490A04F0D1FC0120DB
:1058B00001F00EFEB0EE4A0A00F084FF012001F074
:1058C00007FEB0EE4B0A01F0E7F900F045FF30B9F2
:1058D0000A2001F0FDFD00F03FFF0028F8D09FED09
:1058E000540A04F0D1FC012001F0F2FD00F034FF75
:1058F00038B900BF0A2001F0EBFD00F02DFF0028B1
:10590000F8D0B0EE490A04F0A3FC012001F0E0FD5C
:10591000B0EE4A0A00F056FF012001F0D9FDB0EECA
:105920004B0A01F0B9F900F017FF30B90A2001F075
:10593000CFFD00F011FF0028F8D09FED3D0A9DED4E
:1059400006DADDED078A04F09FFC012001F0C0FDBE
:1059500000F002FF38B900BF0A2001F0B9FD00F0E5
:10596000FBFE0028F8D0B0EE490A04F071FC0120DB
:1059700001F0AEFDB0EE680A00F024FF012001F056
:10598000A7FDB0EE4D0A01F087F900F0E5FE30B951
:105990000A2001F09DFD00F0DFFE0028F8D09FED09
:1059A000200A9DED06DADDED078A04F06DFC01208A
:1059B00001F08EFD00F0D0FE38B900BF0A2001F0E2
:1059C00087FD00F0C9FE0028F8D0B0EE490A04F0C7
:1059D0003FFC012001F07CFDB0EE680A00F0F2FE11
:1059E000012001F075FDB0EE4D0A01F055F900F00F
:1059F000B3FE00287EF432AD0A2001F069FD00F00C
:105A0000ABFE0028F8D0FEF729BD00BFBBF900109F
:105A10004AF68B50C0F6000004F05AFCFEF742BD77
:105A200000001B430000A5430000A0430000964374
:105A30000000F043506C6163696E6720696E205A04
:105A40006F6E6520330D000080B5816A0A070DD4A2
:105A5000CA0716D18A071FD44A0728D4CA0631D4E8
:105A60008A063AD44A0658D542E000BF0268D0F808
:105A700038C0536823F4004343EA0C035360CA0759
:105A8000E8D00268D0F82CC0536823F4003343EA0E
:105A90000C0353608A07DFD50268D0F830C0536822
:105AA00023F4803343EA0C0353604A07D6D50268D7
:105AB000D0F834C0536823F4802343EA0C035360C6
:105AC000CA06CDD50268D0F83CC0936823F4805351
:105AD00043EA0C0393608A06C4D50268D0F840C03C
