:020000040800F2
:1000000010390020ED010008354100080D3E0008C0
:1000100031410008D90D0008B16700080000000058
:100020000000000000000000000000003142000855
:10003000E90D000800000000414100085542000899
:10004000070200080702000807020008070200086C
:10005000070200080702000807020008070200085C
:10006000070200080702000807020008DD0D00086B
:10007000070200080702000807020008070200083C
:10008000070200080702000807020008070200082C
:1000900007020008F90D0008050E00080702000815
:1000A000070200080702000807020008070200080C
:1000B00007020008070200080702000807020008FC
:1000C00007020008070200080702000807020008EC
:1000D00007020008A56700080702000807020008D9
:1000E00007020008070200080702000807020008CC
:1000F00007020008070200080702000807020008BC
:1001000007020008070200088942000807020008E9
:1001100007020008070200089542000807020008CD
:10012000070200080702000807020008070200088B
:10013000070200080702000807020008070200087B
:10014000070200080702000807020008070200086B
:10015000070200080702000807020008070200085B
:10016000070200080702000807020008070200084B
:10017000070200080702000807020008070200083B
:10018000070200080702000807020008070200082B
:100190000702000800000000110E00081D0E0008F4
:1001A000070200080702000807020008070200080B
:1001B00007020008070200080702000807020008FB
:1001C00007020008070200080702000807020008EB
:1001D0000702000807020008DFF80CD000F022FC3C
:1001E0000048004785740008103900200648804701
:1001F00006480047FEE7FEE7FEE7FEE7FEE7FEE70C
:10020000FEE7FEE7FEE7FEE775420008D9010008B9
:100210002DE9F05F0546002092469B46884606463B
:10022000814640241BE0284641464746224600F0CE
:10023000CDF953465A46C01A914110D3114618467B
:10024000224600F0B4F92D1A67EB01084F4622460A
:100250000120002100F0ABF917EB00094E41201EF0
:10026000A4F10104DFDC484631462A464346BDE896
:10027000F09F40EA01039B0703D009E008C9121F61
:1002800008C0042AFAD203E011F8013B00F8013B50
:10029000521EF9D27047D2B201E000F8012B491E7C
:1002A000FBD270470022F6E710B513460A46044613
:1002B0001946FFF7F0FF204610BD00000FB400B54F
:1002C0008DB010A909900B9000914FF0FF300A906B
:1002D00000200C9005480690054807906A4609A83A
:1002E0000F9900F097F90DB05DF814FB3106000886
:1002F0004F0600082DE9FF5F1D464FF0FF3BD5E993
:10030000014691465F464FF00008A9697F1C01989D
:100310008847296A824688470028F6D1BAF1FF3F0C
:100320000CD024F4C064002E19DD600614D5BAF197
:100330002B0F09D0BAF12D0F0ED103E0584604B0AF
:10034000BDE8F09F44F48064A9697F1C0198884748
:10035000761E8246002E02DDBAF1300F03D0B9F1CD
:10036000000F26D032E0A969761E44F400747F1C89
:10037000019888478246002E05DDBAF1780F06D035
:10038000BAF1580F03D0B9F1000F10D01EE0B9F147
:10039000000F02D0B9F1100F18D1A969761E24F40C
:1003A00000747F1C019888478246102002E00820D4
:1003B00000E00A20814609E008FB0908A969761EC9
:1003C00044F400747F1C019888478246002E05DDA6
:1003D0004946504600F00AF90028EDDAE96901982B
:1003E0008847A00502D46FF00100A8E7E00725D1F7
:1003F000600613D5600502D5C8F1000000E0404654
:1004000029680A1D2A600968220501D5087015E0CF
:10041000220701D5088011E008600FE02868011D5F
:1004200029600068210502D580F8008006E02107D8
:1004300002D5A0F8008001E0C0F8008038467EE7D1
:100440002DE9FE4F81EA030404F0004421F000414D
:1004500000944FF0000B23F0004350EA01045ED0FB
:1004600052EA03045BD0C3F30A54C1F30A552C4487
:10047000A4F2F3340194A0FB0254C1F3130141F43C
:100480008011C3F3130343F4801301FB024400FB08
:10049000034E840A970A44EA815447EA8357A4FB2F
:1004A000076802958D0A05FB07854FEA932C04FB2C
:1004B0000C542705029D4FEA065847EA1637B5EB5C
:1004C00008056EEB070C870E920E47EA811742EA89
:1004D0008312A7FB0201B6EB0B0164EB00042B0DAA
:1004E00043EA0C335E1844EB1C50DA465146E7FBF6
:1004F0000201C5F313044FEA0B3343EA14534FEAE6
:100500000432019C43EA0603A4F10C040294009C0B
:10051000CDE900B400F0F2F803B0BDE8F08F0020A0
:100520000146F9E700F0004230F000400AD0C10D6A
:1005300001F56071C0F3160042EA0151C20840079C
:100540001143704700200146704701F0004330B46A
:1005500021F0004150EA010206D00A0DA2F56072B6
:10056000C1F31301002A02DC30BC00207047440FA5
:1005700044EAC104C100E01830BC00EBC25000F0F6
:1005800077B830B50B46014600202022012409E04F
:1005900021FA02F59D4205D303FA02F5491B04FA3C
:1005A00002F52844151EA2F10102F1DC30BD202A1B
:1005B00004DB203A00FA02F1002070479140C2F1BA
:1005C000200320FA03F3194390407047202A04DBEC
:1005D000203A21FA02F00021704721FA02F3D040BC
:1005E000C2F1200291400843194670473A2800D2D0
:1005F000303820F02002412A01D3A2F1370088428E
:1006000001D34FF0FF307047026811441378016046
:1006100018467047D16004495161044911620021B4
:100620001161114600F02EBA09060008790A000887
:10063000426842B1016811F8013B23B1521EC0E982
:100640000012184670470121C160881E7047426839
:100650005AB1C368016843B983688B4205D0491E0B
:10066000521CC0E90012002070474FF0FF30704765
:100670000029A8BF7047401C490008BF20F00100B6
:10068000704710B4B0FA80FC00FA0CF050EA010494
:1006900004BF10BC704749B1CCF1200421FA04F426
:1006A00011FA0CF118BF012121430843A3EB0C01FF
:1006B000CB1D4FEA00614FEA102042BF002010BC62
:1006C000704700EBC35010440029A4BF10BC704712
:1006D000401C490008BF20F0010010BC704710B555
:1006E000141E73F1000408DA401C41F10001921855
:1006F0005B411A4301D120F0010010BD2DE9F04DFE
:1007000092469B4611B1B1FA81F202E0B0FA80F252
:1007100020329046FFF74BFF04460F4640EA0A009E
:1007200041EA0B0153465A46084313D0114653EA97
:10073000010019D0C8F140025046FFF747FF0546B7
:100740000E46504659464246FFF731FF084305D052
:10075000012004E020463946BDE8F08D0020054325
:1007600046EAE0762C4337430A986305E40AA0EB97
:1007700008000022FD0A44EA47540A3002D500204E
:100780000146E9E7010510196941DDE9084500194D
:100790006941BDE8F04DA2E72DE9FE4F804681EAB0
:1007A0000300C00F0C46009021F0004123F00045EB
:1007B000B8EB0200A94105D24046214690461C46AE
:1007C0000B46024623F00040104347D0270DC7F3E5
:1007D0000A00C3F30A510290401A019040286BDAD4
:1007E000C3F3130040F4801B0098924620B100230D
:1007F000D2EB030A63EB0B0B01985946C0F14002A0
:100800005046FFF7D4FE06460D4650465946019A1B
:1008100000F020F910EB08006141002487EA115232
:1008200084EAE7731A4340D0009A62B3019A012A1E
:100830004FEA075215DC001B61EB02014FF000424A
:1008400002EA0752CDE90042001C41F58011324610
:100850002B46FFF753FF03B0BDE8F08F404621461B
:10086000F9E7001B61EB0201001C41F58013001841
:100870005B412018A2F5001747EB030140EAD57051
:10088000B6196D4111E06D084FEA360645EAC075AC
:100890004FEA0752001B61EB0201001C41F5801179
:1008A00049084FEA30000019514132462B4603B047
:1008B000BDE8F04FFFF713BF00980122400000236E
:1008C000D0EB020263EBE073009821464FEAE0743C
:1008D000B8EB000061EB0401E9E783F000435BE75C
:1008E00081F0004158E72DE9F04D81EA030404F05E
:1008F000004B21F0004514464FF0000A23F0004160
:1009000050EA050220D054EA01021DD0C5F30A576F
:100910000246C5F31303C1F31300C1F30A5640F4B2
:10092000801543F48013A7EB0608101BD64608F287
:10093000FD3873EB050002D308F1010801E09218BD
:100940005B41B8F1000F03DA00200146BDE8F08DED
:1009500000204FF48011064684460EE0171B73EB0F
:10096000050705D3121B63EB050306434CEA010C94
:1009700049084FEA300092185B4150EA0107EDD177
:1009800052EA030012D082EA040083EA0501084318
:1009900005D0101BAB4106D20122002306E0002245
:1009A0004FF0004302E06FF0010253101AEB060013
:1009B0004CEB085110EB0A0041EB0B01BDE8F04D88
:1009C000FFF78DBEC1F30A52C1F3130140F2FF33AA
:1009D00041F480119A4202DA00200146704740F249
:1009E00033439A42A2F2334202DC5242FFF7EEBD99
:1009F000FFF7DDBD30B5041E71F1000404DB4FF0DC
:100A00000044404264EB0101141E73F1000405DB55
:100A10001C464FF00043524263EB0403994208BF67
:100A2000904230BD1CB50948009009480190054628
:100A3000009C06E0E06840F0010394E80700984756
:100A40001034AC42F6D3FFF7CBFB0000F8AF000840
:100A500018B00008202A06DBCB17203A41FA02F032
:100A600043EAE07306E041FA02F3D040C2F120020B
:100A70009140084319467047C0B24FF4F05100F05E
:100A800097B900002DE9F34F8BB04FF0000801F14A
:100A90000C000C464FF0010B46460DF1080A019080
:100AA0006269012101989047051E2DD0252D2CD07B
:100AB000216A8847C0B16269012101989047216A83
:100AC00088470028F7D1411E62690198904700E0ED
:100AD000761CA1690B988847216A88470028F7D1BE
:100AE000E1690B988847DBE7A1690B9888470746BF
:100AF000A84201D1761CD3E7E1690B9888477F1C97
:100B000002D1B8F1000F6FD046E1002762693D467F
:100B10003946019890472A2804D162690121019839
:100B200090470125DFF8849262690121019890477E
:100B3000A0F130010A290AD24F45E5DC07EB870115
:100B400000EB4107303FDFD445F01005ECE7E90644
:100B500001D46FF000476C280AD04C2814D06828C4
:100B600015D06A280DD074281CD07A281AD01DE020
:100B700062690121019890476C2802D045F0040574
:100B800014E045F002050DE045F020050AE0626939
:100B9000012101989047682802D045F0080505E03A
:100BA00045F400656269012101989047C4E9015745
:100BB00065283DD019DC58287AD00CDC452837D080
:100BC00004DC252826D0412831D131E046282FD019
:100BD00047282CD12CE05B2877D0612828D06328C7
:100BE0007CD0642823D15AE0D0E06F2848D008DCBC
:100BF00066281DD067281BD0692821D06E2816D101
:100C000027E0702845D0732868D0752847D0782809
:100C10000DD14DE0A1690B988847054625283FF482
:100C200069AFE1690B9888476D1C3FF46AAFB3E088
:100C300023466A466FF001000B99AFF300809EE0F7
:100C400045F040006060A80723464FF0000236D40C
:100C50003EE0E8077FF447AF2068011D216000688F
:100C6000290501D506701BE7290701D5068017E77E
:100C7000A90703D5F117C0E9006111E706600FE786
:100C800045F040006060A80723464FF0080216D4E4
:100C90001EE040F60E0125EA0100606016E045F016
:100CA00040006060A80723464FF00A0207D40FE017
:100CB00045F040006060A80708D5234610226FF079
:100CC00001000B99AFF3008059E007E023461022A2
:100CD0006FF001000B99FFF70DFB50E04FF000099A
:100CE0004F464B46632802D05B2806D040E0E8061A
:100CF00001D40120A06001273AE062690121019836
:100D000090475E2805D14FF0010962694946019874
:100D10009047216939B900210A46534643F82120FA
:100D2000491C0829FADBB0B3216969B9C11700EB86
:100D3000D16253110AEB830122F01F02821A0120B3
:100D40000B68904003430B60626901210198904752
:100D50005D28E8D1B9F1000F09D00020514651F8C3
:100D60002020D24341F82020401C0828F7DB02ABAA
:100D7000224600976FF001000B99AFF30080002826
:100D80000CDA401C08D1BBF1000F05D04FF0FF304A
:100D90000DB0BDE8F08FFFE74046F9E7E90701D164
:100DA00008F1010806444FF0000B79E6CCCCCC0CDE
:100DB0007F2801D9002208E0064A02EB5002C00752
:100DC000127800D1120902F00F0201209040084071
:100DD00070470000B0AD0008FEE7000041F28460FB
:100DE000C2F2000000F098B870470000EFF31080E6
:100DF00072B600BFFEE7000041F2E460C2F20000FC
:100E000000F010BC41F2E460C2F2000000F00ABC45
:100E100041F24870C2F2000000F004BC41F2487098
:100E2000C2F2000000F0FEBB014690F82500022847
:100E300028D180B50868D1E910CE8A6C036823F008
:100E40000E030360136823F480731360026822F0BA
:100E5000010202600EF01F00012202FA00F0CCF83D
:100E60000400D1E913205060486D30B1026822F4CB
:100E700080720260D1E9160242600020BDE8804025
:100E800003E000BF0420C8630120012281F825206F
:100E9000002281F82420704790F82510022931D1D2
:100EA00080B50168D0E910CE826C0B6823F00E0388
:100EB0000B600B6823F001030B60116821F4807153
:100EC00011600EF01F02012101FA02F2CCF8042099
:100ED000D0E913325A60426D32B1136823F4807343
:100EE0001360D0E91623536080F82510826B00212F
:100EF00080F824100AB190470021BDE880400846E0
:100F0000704700BF0421C1630121002280F8251031
:100F100080F8242008467047B0B5D0E910C30268B5
:100F2000DCF8001003F01F030424D2F800E09C401A
:100F30000C4218BF1EF0040522D102249C400C4232
:100F400018BF1EF0020529D1D940090724D51EF08B
:100F5000080108BFB0BD116821F00E011160012128
:100F600001FA03F2CCF80420C16380F82510416B2C
:100F7000002280F8242079B1BDE8B040084700BFC6
:100F80001168890603D4116821F004011160CCF8BE
:100F90000440016B0029EFD1B0BD00BF1168890684
:100FA00006D4116821F00A011160012180F8251092
:100FB000CCF80440C16A0022002980F82420DBD14B
:100FC000EAE7000000284FF0010100F08E802DE9D3
:100FD000F04740F2000CC4F2020C03684FF6F832FE
:100FE0000CF5816ECBF6FD72734538BF02F5806259
:100FF0004CF6CD441A44CCF6CC44A2FB042803F0B2
:10100000FC02A2F10802A2FB04290CF580656FF036
:101010000304D0E90262D0F810A03CBF0025C4F25E
:10102000020504EA9804C0E91054022580F825500E
:101030001D6847F6F07725EA07073A43476942EA11
:101040000A0285693A43C7692A43056A3A432A4333
:1010500032431A600CF50262734538BF0CF500622A
:10106000A3180CF50862C264C9F3041240F6840C9C
:1010700001FA02F2B6F5804FC4F2020C83640265F5
:1010800006D1002141601960CCF800201EE000BFAD
:1010900041685FFA81FE013903294FF00001C3F86E
:1010A00000E0CCF8002011D8AEF101020CEB820771
:1010B00047F87C1F02F01F01012202FA01F30CF134
:1010C000BC023946CCF8C03002E000BF0022002349
:1010D00000F1540C8CE80E0000210122C16380F85D
:1010E000252080F82410BDE8F0470846704700002E
:1010F00090F824C0BCF1010F47D04FF0010C80F8EC
:1011000024C090F825C0BCF1010F3BD12DE9F0417E
:101110004FF0020C80F825C04FF0000CC0F83CC026
:10112000D0F800C000F14C0E9EE83040DCF80060C2
:10113000BEF1000F26F00106CCF8006065601CBF10
:10114000D0E916456560D0E91056012706F01F0664
:10115000846807FA06F6D0F830806E60CCF8043068
:101160000B46102C04BF13460A46CCF80830CCF8C6
:101170000C20DCF80010B8F1000F09D041F00E018E
:101180000EE000BF002180F824100220704700BF4D
:1011900021F00401CCF80010DCF8001041F00A0145
:1011A000CCF80010806C0168C90303D5016841F4D4
:1011B00080710160BEF1000F05D0DEF8000040F440
:1011C0008070CEF80000DCF8000040F00100CCF8A0
:1011D00000000020BDE8F08110B590F85C30013BC4
:1011E000012B69D800685FEA417ED0F858C00CF046
:1011F000010300D01BB311F0380F02D01CF0020421
:101200001DD011F4E07F02D01CF0040417D011F4BB
:10121000F05F02D01CF0080411D011F4604F02D02E
:101220001CF010040BD011F4403F02D01CF020043D
:1012300005D011F47C0F06D01CF0400403D1C46D1E
:1012400044F00104C465BEF1000F18BF002B3BD170
:1012500011F0380F18BF1CF0020335D111F4E07FF4
:1012600018BF1CF004032FD111F4F05F18BF1CF05D
:10127000080329D111F4604F18BF1CF0100323D1CB
:1012800011F4403F18BF1CF020031DD111F47C0F56
:1012900018BF1CF0400317D10B061BD4CB0504D597
:1012A000D0F8E0301A43C0F8E02000F154020020EA
:1012B00013681943116010BD00F160020120022182
:1012C00013681943116010BDC36D43F00203C36579
:1012D0000B06E3D5D0F8DC301343C0F8DC30CB0587
:1012E000DED4E2E790F85C30022B17D12DE9F04113
:1012F0000668D6F8C4309B0216D4D6F8C430D1E9BB
:101300000075D1F808E00C69C3F3014CA5B144EABB
:10131000070343EA0E0343F0804E11E0016E41F0F3
:101320000801016601207047016E41F400710166F9
:101330000120BDE8F08100BF44EA87434EEA030E76
:10134000D1E90757D1E9058445EA0765CB682C4305
:10135000456D44EA08040CEBCC0744EA034405EB72
:10136000C70345F837E05C60CF6887B14AF6C465CB
:10137000083303320024C0F6000500BF171957F8E0
:10138000037C1F51CF680434EF5DBC42F6D30121CA
:1013900001FA0CF1C6F8CC1081650020BDE8F0819F
:1013A00090F85C20013A012A14D880B50A68BAB1D5
:1013B00001F1040E9EE80450D1E90431406C43EA87
:1013C0004E7E41EA8C7100EBC20340F832E0596076
:1013D000002080BD016E41F00201016601207047CE
:1013E000D1E90323D1E901CED206496942EA8E72DE
:1013F00042EA0342006C114340F82C10002080BDEB
:1014000090F85CC0BCF1010F14D180B50068920067
:10141000D0F880C0DDF808E042EA011141EA43015A
:101420002CF03F0C41EA0E0141EA0C01C0F880109B
:10143000002080BD016E41F004010166012070476B
:101440007047000080B5090300D480BD006846F6EF
:101450000042C4F200024FF400219042016517D00F
:1014600046F60001C4F2000188421BD046F200415A
:10147000C4F20001884218BF80BD02F0EDFC41F2C9
:10148000E460C2F20000BDE8804005F0FFBE00BF8E
:1014900002F036FD41F2AC70C2F20000BDE88040BF
:1014A00005F0F4BE02F002FD41F24870C2F2000005
:1014B000BDE8804005F0EABE2DE9F04390F85C708D
:1014C000022F1BD1D0F800C040291FD1DCF890704A
:1014D0003F0700F09D80DCF89070FF0146BFDCF80C
:1014E0008070C7F340270027DCF89060C6F3012620
:1014F00006EB070C00F148071DE000BF016E41F04C
:10150000080101660120BDE8F08300BFDCF8987097
:101510003F077DD0DCF89870FF0146BFDCF8807093
:10152000C7F300270027DCF89860C6F3012606EB16
:10153000070C00F14C073F680CEBCC0657F836500F
:1015400007EBC60E15F08045556057F8365025F06C
:10155000604408BFC5F38A44146057F8365005F05C
:101560000055956057F8364004F000441461BEF809
:101570000440D461BEF8064014F00F04D460DEF8D5
:10158000044004F480145461DEF8044004F40014B0
:1015900094619EF8074004F07F041462DEF8044072
:1015A0004FEAD474546228D04AF6C4680024C0F6C6
:1015B000000800BF0EEB0406377A651C1F55D7687C
:1015C00018F80770BD4218D2757A1F197D70D5685A
:1015D00018F80590A51C4D450FD2B57ABD70D56899
:1015E00018F80590E51C4D4507D2F57A0434FD70D6
:1015F000D56818F80550AC42DCD3006840290CBF10
:10160000C0F894C0C0F89CC00020BDE8F08300BFC3
:10161000016E41F4807101660120BDE8F083000095
:10162000704700002DE9F04F85B004460068016D59
:10163000426DD0F850B0456D076D466D036D01EAFF
:1016400002080493436D0393036D0293436D01936A
:10165000D0F854A0D0F850905FEA496307D51AF04B
:10166000400104D0402101652046FFF7D9FF0BEA75
:10167000050B5FEAC95008F4E0550ED51AF48070E6
:101680000BD02068D0F8D810D0F8E02011404FF4EB
:1016900080720265204600F0D1FA37400BF0070651
:1016A0002DB1206829460565204600F0CBFA07F0E9
:1016B00038052EB1206831460665204600F098FABC
:1016C0002DB1206829460565204600F097FA5FEAAB
:1016D000895009D51AF4007006D020684FF40071C3
:1016E0000165204600F0B0FA5FEA09600DD51AF0F6
:1016F00080000AD02068D0F8D410D0F8DC20114047
:1017000080220265204600F09BFA5FEA894009D5F5
:101710001AF4005006D020684FF4005101652046AD
:1017200000F08AFA5FEA0940DDE9011000EA0105EC
:1017300009D51AF4004006D020684FF40041016535
:10174000204600F077FADDE9031008405FEA4941DE
:1017500005F460210AD51AF4804207D022684FF4BC
:1017600080431365226E42F08002226600F4710508
:1017700021B1206801652046FFF764FE25B120688D
:101780000565206E28432066206E28B1204605B0EE
:10179000BDE8F04FFFF754BE05B0BDE8F08F000084
:1017A000002804BF0120704770B5044690F85C0023
:1017B00028B9002084F85D00204600F021F9206857
:1017C000816921F01001816100F016FB054600BF20
:1017D00020688169090705D500F00EFB401B0B2826
:1017E000F6D310E0816941F00101816100F004FB52
:1017F000054600BF20688169C9070DD100F0FCFAD9
:10180000401B0B28F6D3206E032140F00100206618
:10181000012084F85C1070BD826946F2004CC4F26D
:10182000000C42F002026045826102D16268CCF88D
:101830000021227C8369012A23F0400318BF403332
:101840008361627C8369012A23F4804308BF03F526
:1018500080438361A27C8369012A23F4805318BFEB
:1018600003F5805383618569D4E902E325F440756B
:1018700045EA0E058561856925F0A4058561056940
:1018800025F0100505619BB1012B0DD0022B09D06D
:101890008569032B45F080058561056945F01005D4
:1018A000056105D1202300E0042385692B43836172
:1018B00004F114052ACD226A5E1E6FF0FF0303EBCC
:1018C000052545EA4665013A2A430025CFF6FF750E
:1018D00005EB01411143BEF5407FC16110D1D4E950
:1018E00009E2D4E90B61013A03EB06231A436FF0D6
:1018F0000F0303EB0111114305EB0E421143C160CD
:10190000D4E90D13E26BD0F8C0604AF2507532434F
:10191000C0F8C0200CF580660CF58042B04204BFD0
:101920004AF25072C4F200020CF50066C4F20005DF
:10193000B04208BF05F554722264D0F8806026F4E6
:10194000F81646EA0141C0F8801002F170016164A6
:10195000D0F8801021F0706141EA0361C0F8801076
:1019600002F1B000A06402F5C470E06402F51870E2
:10197000206502F51E70606502F55470002100BFFD
:10198000C2E90011C2E90211C2E90411C2E906115B
:10199000C2E90811C2E90A11C2E90C11C2E90E112B
:1019A000C2E91011C2E91211C2E91411C2E91611FB
:1019B000C2E91811C2E91A11C2E91C11C2E91E11CB
:1019C000C2E92011C2E92211C2E92411C2E926119B
:1019D000C2E92811C2E92A11C2E92C11C2E92E116B
:1019E000C2E93011C2E93211C2F8D010D4328242B9
:1019F000C6D300200121A065206684F85C1070BD6C
:101A000010B59CB0044600201B90CDE91900CDE92B
:101A1000170002A85421FEF745FC206846F6004155
:101A2000C4F20001884259D046F60001C4F2000118
:101A3000884200F08F8046F20041C4F200018842E3
:101A400040F086804FF4805002904FF0007010906C
:101A500002A800F05DFB002818BFFFF7C7F940F2AD
:101A60009811C2F200010A6841F24C00C4F202006F
:101A7000531C0B6042B9C16841F00071C160C1687C
:101A800001F0007101910199016841F001010160CB
:101A9000006817A900F00100019001984FF4C050B0
:101AA0001790022018900020CDE9190009201B9002
:101AB0004FF0904000F0CAF815200521002200F0F8
:101AC0004DFA152000F038FA16200521002200F00A
:101AD00045FA162000F030FA1CB010BD4FF48050CB
:101AE00002904FF00070109002A800F011FB002847
:101AF00018BFFFF77BF940F29811C2F200010A68A3
:101B000041F24C00C4F20200531C0B6042B9C168A0
:101B100041F00071C160C16801F00071019101994B
:101B2000016841F001010160006817A900F001009F
:101B3000019001984FF40140179002201890002066
:101B4000CDE919000B201B904FF0904000F07EF87B
:101B50001CB010BD4FF4805002904FF000701090F8
:101B600002A800F0D5FA002818BFFFF73FF940F2AD
:101B70009811C2F200010A6841F24C00C4F202005E
:101B8000531C0B6042B9C16841F00071C160C1686B
:101B900001F0007101910199016841F002010160B9
:101BA000006817A900F00200019001984FF440501E
:101BB0001790022018900020CDE9190009201B90F1
:101BC00040F20040C4F6000000F040F85620052125
:101BD000002200F0C3F9562000F0AEF9572005218D
:101BE000002200F0BBF9572000F0A6F91CB010BD90
:101BF000C90714BF4021704705F0C0BB09074CBF9F
:101C00004121704705F0BABB90F85C1001290BD157
:101C1000022180F85C1001688A6922F001028A6161
:101C20000021016608467047016E41F0040101661B
:101C300001207047704700007047000070470000A7
:101C40007047000070470000704700002DE9F04F1A
:101C500082B00D68002D00F0C58000F13847860580
:101C600046EA972741F20046C4F60006062240F2F3
:101C7000004EB04208BF0522C4F2010E052F38BF46
:101C80003A464FF0000C012400270026009209E09C
:101C90000D68013635FA06F207F102070CF1040C63
:101CA00000F0A08004FA06FB15EA0B08F0D0D1F88A
:101CB00004A003230AF003056A1EBB40012A6FEA51
:101CC00003090FD88268CB6802EA0902BB401A43B5
:101CD00082604268CAF3001322EA0B02B3401A433F
:101CE000426003E0032D01D103251FE0C2688B6829
:101CF00002EA0902BB401A43022DC26016D16FF0FE
:101D0000030202EA560202440CF01C050F23D2F82B
:101D100020A003FA05FB0B692AEA0B0AAB4043EA51
:101D20000A031362D1F804A00AF00305026805FA59
:101D300007F302EA09021A431AF4403F0260A7D0EF
:101D400041F26003C4F202031A684FF6084A42F0F7
:101D500001021A601A68CFF6FF7A02F001020192BE
:101D6000019A26F00302724452F80A900CF00C0516
:101D70000F23009CAB4029EA030304FA05F52B432B
:101D800042F80A30DEF808204B6842EA080540F2C3
:101D90000C49DC0258BF22EA0805CEF80850C4F20C
:101DA0000109D9F800209D0242EA080458BF22EA3E
:101DB0000804C9F80040DEF804209D0342EA080444
:101DC00058BF22EA0804CEF80440DEF80020DB0306
:101DD00042EA080458BF22EA0804CEF80040012471
:101DE00056E700BF02B0BDE8F08F00001823002ABC
:101DF00008BF2823C150704742F61060C2F20000AD
:101E00000068704740F2040042F61061C2F2000020
:101E1000C2F2000140680A68104408607047000080
:101E200080B5032000F0C6F80F2000F009F8002864
:101E30001CBF012080BD00F05BF8002080BD0000C9
:101E4000B0B586B041F25801C4F202010A680446F6
:101E500042F008020A60096801A801F00801019136
:101E60000199694600F046FC00F066FC4DF683617E
:101E7000C4F21B31A0FB01014FF0FF3000EB914198
:101E800041F6100040F60042C2F20000C4F2000227
:101E900040F2E7330025C0E90021C0E902530561A3
:101EA00000F0A2FF054618B1284606B0B0BD00BF3D
:101EB00041F61000C2F2000000F0EAFF05460028DB
:101EC000F2D1322000F038F80F2C0DD83220214604
:101ED0000022002500F042F840F20400C2F20000A7
:101EE0000460284606B0B0BD0125284606B0B0BD46
:101EF00080B582B041F25800C4F20200816800222D
:101F000041F001018160816801F0010101910199B5
:101F1000016841F08051016000680F2100F080509D
:101F2000009000986FF0010000F018F802B0BDE8D2
:101F3000804000F0E3B80000002848BF704700F080
:101F40001F01012202FA01F11C2202EAD0004EF226
:101F50000012CEF2000281507047000010B54EF61C
:101F60000C5CCEF2000CDCF80030C3F3022E8EF0D5
:101F70000704042C28BF0424BEF103034FF0FF3EE6
:101F80000EFA04F438BF0023A14399400EFA03F37C
:101F90009A43114300F00F0200F160430901043A33
:101FA00003F564436244002848BF02F10C03197032
:101FB00010BD00004EF60C51CEF200010A684FF63B
:101FC000FF031A4060F30A2242F0806040F0FD7087
:101FD00008607047B0F5007F42D0002840F0808054
:101FE00047F21400C4F2000050F8141CC26E01F451
:101FF000C06122F48072B1F5806FC2662ED150F8B4
:10200000141C012262F34A2140F8141C40F20C0116
:10201000C2F200010968322251434DF68362C4F2D4
:102020001B32A1FB0212910C0268520511D54A1C09
:102030000FD0026852050CD559B10268520508D577
:10204000012906D00268520503D50229A1F1040135
:10205000EAD10068400544BF032070470020704764
:1020600047F21400C4F2000050F8141CC26E01F4D0
:10207000C06142F48072B1F5806FC266EED150F853
:10208000141C012262F34A2140F8141C40F20C0196
:10209000C2F200010968322251434DF68362C4F254
:1020A0001B32A1FB0212910C0268520511D54A1C89
:1020B0000FD0026852050CD559B10268520508D5F7
:1020C000012906D00268520503D50229A1F10401B5
:1020D000EAD10068400544BF03207047BEE700BF57
:1020E00047F21400C4F2000050F8141C022262F3FC
:1020F0004A2140F8141C00207047000047F20800F5
:10210000C4F20000016841F48041016070470000A2
:102110002DE9F04182B00446807841F2880600073C
:10212000C4F2020602D400202FE000BF56F8300CA3
:102130005FEAC0080BD456F8300C40F0805046F8E7
:10214000300C56F8300C00F080500190019847F2A6
:102150000007C4F20007386840F480703860FFF769
:102160004BFE05463868C00500F10C81FFF744FEC0
:10217000401B0228F6D90320B8F1000F05D456F809
:10218000301C21F0805146F8301C2168CA0717D155
:102190008A071DD44A0723D40A0729D4CA062FD494
:1021A0008A0635D44A063BD40A0641D4CA0547D428
:1021B0008A034DD48A0553D44A0559D467E000BF39
:1021C0003268636822F003021A4332608A07E1D55D
:1021D0003268A36822F00C021A4332604A07DBD54A
:1021E0003268E36822F030021A4332600A07D5D51C
:1021F0003268236922F0C0021A433260CA06CFD582
:102200003268636922F440721A4332608A06C9D583
:102210003268A36922F440621A4332604A06C3D589
:102220003268E36922F440521A4332600A06BDD58F
:102230003268236A22F440421A433260CA05B7D595
:102240003268636A22F440321A4332608A03B1D59D
:102250007269A36A22F003021A4372618A05ABD540
:102260003268E36A22F440221A4332604A050ED5EE
:102270003268236B22F440121A43B3F5801F326098
:1022800005D156F87C2C42F4801246F87C2C0A05C5
:102290000ED53268636B22F440021A43B3F5800F07
:1022A000326005D156F87C2C42F4801246F87C2C22
:1022B000CA040ED53268A36B22F040721A43B3F100
:1022C000807F326005D156F87C2C42F4801246F8AB
:1022D0007C2C8A040ED53268E36B22F040621A43EC
:1022E000B3F1006F326005D156F87C2C42F48012B5
:1022F00046F87C2C4A040ED53268236C22F04062EA
:102300001A43B3F1006F326005D156F87C2C42F4C9
:10231000801246F87C2C0A040ED53268636C22F0D9
:1023200040521A43B3F1805F326005D156F87C2CDD
:1023300042F4803246F87C2CCA030ED53268A36C76
:1023400022F040421A43B3F1804F326005D156F873
:102350007C2C42F4803246F87C2C49030ED57169FE
:10236000E26C21F440111143B2F5001F716105D1F7
:1023700056F87C1C41F4801146F87C1C02B0BDE884
:10238000F08100BFB06810F4407010D0216D884219
:102390000BD0B068B16820F4407041F48031B16076
:1023A000B16821F48031B160B060C0070CD1B06871
:1023B000216D20F440700843B0600020B8F1000F98
:1023C0003FF5E3AEDBE600BFFFF716FD054641F241
:1023D000883700BFB0688007E9D4FFF70DFD401BC8
:1023E000B842F7D9C7E600002DE9F047002865D0CC
:1023F00042F2000AC4F2020A0446DAF800000D466E
:1024000000F00F0088420CD2DAF8000020F00F0034
:102410002843CAF80000DAF8000000F00F00A842D4
:102420004CD1216841F20808C807C4F2020803D160
:10243000880740F1D480B9E0606802283AD00328C8
:1024400040D158F8082C920138D5D8F80420D8F893
:10245000043042F20046C3F3031302F00302D8F83B
:1024600004700133C0F2F406032A04BF41F20026CF
:10247000C0F27A06B6FBF3F2D8F80430C7F30627A9
:102480007A43C3F34163022707EB4303B2FBF3F242
:102490004BF20043C0F2C4439A425DD9D8F8002001
:1024A00012F0F00F4DD0890756D5A168002953D1FD
:1024B00047E000BF58F8081C890307D40120BDE895
:1024C000F08700BF58F8081C4905F7D5D8F8001068
:1024D00001F00C0104293FD0D8F8001001F00C01E4
:1024E000082939D0D8F8001001F00C010C2933D19B
:1024F000D8F80410D8F8042042F20047C2F30312BF
:1025000001F00301D8F804300132C0F2F4070329C6
:1025100004BF41F20027C0F27A07B7FBF2F1D8F806
:102520000420C3F306235943C2F34162022303EBA1
:102530004202B1FBF2F14BF20042C0F2C4429142BE
:102540000AD9D8F80010082262F307114FF00109E8
:10255000C8F8001002E000BF4FF00009D8F80010E2
:1025600021F003010843C8F80000FFF745FC0646C8
:1025700041F28837D8F80000616800F00C00B0EB39
:10258000810F07D0FFF738FC801BB842F2D9032037
:10259000BDE8F0872168880708D4B9F1000F1ED084
:1025A000D8F8000020F0F00017E000BF480705D57C
:1025B000D8F8000040F4E060C8F80000080706D52D
:1025C000D8F80000072262F30D20C8F80000D8F800
:1025D0000000A26820F0F0001043C8F80000DAF80C
:1025E000000000F00F00A8421BD9DAF8000020F02C
:1025F0000F002843CAF80000FFF7FEFB064641F231
:10260000883700BFDAF8000000F00F00A84207D0BA
:10261000FFF7F2FB801BB842F4D90320BDE8F08736
:102620002168480707D5D8F80000E26820F4E06088
:102630001043C8F80000080708D5D8F80000216941
:1026400020F4605040EAC100C8F80000D8F800004B
:1026500042F20041C0F2F40100F00C0004280846E8
:102660002DD0D8F8000000F00C00082841F200201E
:10267000C0F27A0023D0D8F8002002F00C020C2A15
:102680001CD1D8F80420D8F8043002F00302C3F3B8
:102690000313D8F804700133032A08BF0146B1FBC5
:1026A000F3F0D8F80410C7F30627C1F34161022202
:1026B000784302EB4101B0FBF1F000E00020D8F8D4
:1026C00000104AF6F052C1F30311C0F60002515C4B
:1026D00040F20C0201F01F0120FA01F140F2040067
:1026E000C2F200000068C2F200021160BDE8F047CB
:1026F000FFF7A6BB0F22026041F20802C4F20202F9
:10270000136803F003034360136803F0F00383606E
:10271000136803F4E063C36012684FF4E06303EAF4
:10272000D202026142F20000C4F20200006800F02E
:102730000F0008607047000040F20C0041F20801F1
:10274000C2F20000C4F20201006809684AF60062A1
:10275000C1F30221C0F60002515C01F01F01C84024
:102760007047000040F20C0041F20801C2F2000084
:10277000C4F20201006809684AF60062C1F3C2218E
:10278000C0F60002515C01F01F01C8407047000014
:1027900041F20C01C4F2020151F8040C42F2004271
:1027A000C0F2F40200F00C000428104608BF704785
:1027B00051F8040C00F00C00082841F20020C0F28F
:1027C0007A0025D051F8043C03F00C030C2B1CBFFD
:1027D0000020704780B5D1F800C00B680CF0030CE6
:1027E000C3F3031E0B680EF1010EBCF1030F08BF0B
:1027F00002460968B2FBFEF0C3F30623C1F3416150
:102800000222584302EB4101B0FBF1F0BDE88040E9
:1028100070470000002804BF012070472DE9F041F7
:1028200082B00446007841F20006C007C4F20206F6
:102830001ED1207880073DD42078000764D420780A
:10284000400700F187802078800600F1D980E56993
:10285000002D00F04482B06800F00C000C2840F01D
:102860003181012D40F09081012002B0BDE8F0815E
:10287000B06800F00C01F068082961D0032281F0F3
:102880000C0122EA00000844B0FA80F0400957D158
:102890006068B0F5803F07D0B0F5A02F40F0E4802D
:1028A000306840F480203060306840F48030306020
:1028B000E5E000BFB068F16800F00C00042871D0BA
:1028C00001F0030180F00C0081F002010844B0FA2D
:1028D00080F0400966D1E1683068002900F0E080AE
:1028E00040F480703060FFF787FA05463068400595
:1028F00000F10A81FFF780FA401B0228F6D9032075
:1029000002B0BDE8F08100BF6169D6F894000029EB
:1029100000F0948040F00100C6F89400FFF76CFAD4
:10292000054600BFD6F8940080073FF588AFFFF753
:1029300063FA401B0228F5D9032002B0BDE8F081FC
:10294000306880037FF575AF606800287FF471AF51
:102950003EE000BFB06D5FEAC00808D4B06D40F043
:102960008050B065B06D00F080500190019847F242
:102970000007C4F200073868C0052DD4386840F459
:1029800080703860FFF738FA054600BF3868C00528
:1029900022D4FFF731FA401B0228F7D9032002B0F6
:1029A000BDE8F0813068400501D5E06880B170680D
:1029B000216920F0FE4040EA0160706040F20400AE
:1029C000C2F200000068FFF73BFA00283FF434AF82
:1029D000012002B0BDE8F081A068012808D00528D8
:1029E00040F0B080D6F8900040F00400C6F89000A7
:1029F000D6F8900040F00100C6F89000B0E000BFAB
:102A0000A169D6F89800002900F0868040F0010006
:102A1000C6F89800FFF7F0F9054600BFD6F8980011
:102A200080073FF514AFFFF7E7F9401B02284FF08E
:102A30000300F3D902B0BDE8F08100BF20F001002F
:102A4000C6F89400FFF7D8F9054600BFD6F8940001
:102A500080077FF5F4AEFFF7CFF9401B0228F5D9C8
:102A6000032002B0BDE8F0813168002821F48031F4
:102A70003160316821F48021316000F0BF80FFF7C0
:102A8000BBF90546306880033FF5D3AEFFF7B4F9D4
:102A9000401B6428F6D9032002B0BDE8F08100BFD6
:102AA00020F480703060FFF7A7F9054630684005D4
:102AB0007FF5C2AEFFF7A0F9401B02284FF00300DC
:102AC000F4D9B7E7306820F080703060FFF794F9F0
:102AD000022D05460CD100BF3068800140F1BA805C
:102AE000FFF78AF9401B02284FF00300F4D9A1E751
:102AF0003068800140F1EC80FFF77EF9401B02282E
:102B00004FF00300F4D995E77068216920F0FE408A
:102B100040EA016070608FE620F00100C6F898007E
:102B2000FFF76AF9054600BFD6F8980080077FF5E1
:102B30008EAEFFF761F9401B02284FF00300F3D976
:102B400078E700BFD6F89010002821F00101C6F800
:102B50009010D6F8901021F00401C6F890105DD0C6
:102B6000FFF74AF9054641F2883700BFD6F89000D2
:102B7000800765D4FFF740F9401BB842F6D903201F
:102B800002B0BDE8F08100BFF068216A00F00302E6
:102B90008A427FF41DAF626A6FF00F0300F0F0010C
:102BA00003EB021291427FF413AFA16A00F4FE42DC
:102BB000B2EB012F7FF40CAFE16A00F07842B2EB88
:102BC000C16F7FF405AF226B0023CFF6E07303EAF9
:102BD000025200F4C001A2F5001291427FF4F8AE57
:102BE000616B4FF07E4202EA016100F0C06001F1CA
:102BF0007E4188427FF4ECAE71E000BFFFF7FCF845
:102C0000054600BF306880037FF513AEFFF7F4F888
:102C1000401B64284FF00300F4D90BE7FFF7ECF8F2
:102C2000054641F2883700BFD6F89000800707D5E7
:102C3000FFF7E2F8401BB8424FF00300F4D9F9E681
:102C4000B8F1000F3FF5FFADB06D20F08050B065DA
:102C5000F9E500BFF06848F20C01C0F29F1104F1E1
:102C6000200700EA010C8ECF6FF00F00D4E90C545E
:102C700000EB02100022CFF6E07241EA0C0102EAFA
:102C800005520843A2F500124FF07E4540EA0320AA
:102C900005EA0465104305F17E4540EAC760284314
:102CA000F060306840F080703060F06840F0807014
:102CB000F060FFF7A1F80446306880010FD4FFF7F9
:102CC0009BF8001B02284FF00300F5D9B2E600BFC5
:102CD000F0684FF6FC71CFF6EE610840F06000201E
:102CE00002B0BDE8F08100007047000070470000AE
:102CF00070470000704700007047000070470000F8
:102D000090F83C20012A4FF0020268D070B580F89C
:102D10003D20026842F600435468D2F808C0C4F26D
:102D2000010345F2000E9A42C4F2010E18BF72452B
:102D30002CD14D6824F470042C434FF68F75CFF6D8
:102D4000FF550E682C4042F6FF35C4F201053443AE
:102D5000AA4254600EDC40F2FF73C4F200039A42B0
:102D60001CDCB2F1804F2DD040F20043C4F20003CE
:102D700026E000BF43F6FF74C4F20104A24219DC4E
:102D80009A421FD043F2004318E000BF43F20045CF
:102D9000C4F20105AA42CCD0CFE700BF40F6000341
:102DA000C4F200039A420DD040F60043C4F200037F
:102DB00006E000BF724505D044F20003C4F20103EF
:102DC0009A4204D189682CF0800319439160012153
:102DD000002280F83D1080F83C20BDE8704010468D
:102DE0007047000070470000002804BF01207047B2
:102DF00010B5044690F83D0028B9002084F83C0046
:102E0000204600F023F8022084F83D002068211DB0
:102E100001F046FA012084F8480084F83E0084F866
:102E20003F0084F8400084F8410084F8420084F8B0
:102E3000430084F8440084F8450084F8460084F890
:102E4000470084F83D00002010BD0000006841F2FA
:102E50000001C4F20001884218BF704780B582B0FB
:102E600041F25800C4F202000168002241F0100152
:102E700001600068052100F01000019001983620E3
:102E8000FFF76CF8362002B0BDE88040FFF754B879
:102E900090F83D1001291BD1022180F83D100168F6
:102EA00042F6FF32C868C4F20102914240F00100CC
:102EB000C8600FDC40F2FF70C4F20000814219DCF0
:102EC000B1F1804F2ED040F20040C4F2000027E064
:102ED0000120704743F6FF70C4F20100814215DC07
:102EE00042F60040C4F2010081421BD043F2004090
:102EF00014E000BF40F60000C4F20000814211D08F
:102F000040F60040C4F200000AE000BF45F20000B5
:102F1000C4F20100814205D044F20000C4F2010075
:102F200081420CD188680722C0F201020240062AC1
:102F30004FF00000CDD0B2F5803F08BF7047086861
:102F400040F001000860002070470000704700005A
:102F5000F0B581B004460068C5680669B10717D5A9
:102F600015F0020114D06FF00201016101212177F7
:102F70008069800704D02046FFF7E8FF06E000BF25
:102F8000204600F0CBF8204600F0CAF80020207759
:102F9000700719D515F0040016D020686FF00401F1
:102FA000016102212177806910F4407F04D020461E
:102FB000FFF7CCFF06E000BF204600F0AFF8204648
:102FC00000F0AEF800202077300717D515F0080084
:102FD00014D020686FF00801016104212177C069D5
:102FE000800703D02046FFF7B1FF05E0204600F040
:102FF00095F8204600F094F800202077F00619D5C7
:1030000015F0100016D020686FF010010161082142
:103010002177C06910F4407F04D02046FFF796FF67
:1030200006E000BF204600F079F8204600F078F86E
:1030300000202077F00718BF15F0010006D02068A7
:103040006FF001010161204600F06CF816F4025F98
:1030500005F0800718BF002F02D1F00509D410E059
:1030600020686FF4025101612046FFF73FFEF00532
:1030700007D537B120686FF4807101612046FFF7F2
:1030800033FE700609D515F0400006D020686FF0B9
:1030900040010161204600F04FF8B00609D515F057
:1030A000200006D020686FF0200101612046FFF764
:1030B0001FFEF00209D515F4801006D020686FF4C9
:1030C000801101612046FFF717FEB00209D515F403
:1030D000001006D020686FF4001101612046FFF750
:1030E00009FE700209D515F4800006D020686FF43F
:1030F000800101612046FFF701FE30020CD515F476
:10310000000009D021686FF4000220460A6101B076
:10311000BDE8F040FFF766BE01B0F0BD70470000AB
:1031200070470000006840F60041C4F20001884288
:1031300018BF7047FEF766BE7047000090F8841015
:10314000012904BF022070472421C0F888100268BA
:103150001168136823F00103136021F0005300216C
:10316000416613602022C0F8882080F88410084649
:103170007047000010B50446D0F88C0020281CBF12
:10318000022010BD00294FF0010018BF002A01D114
:1031900010BD00BFE06600202067204603F0C2F8A3
:1031A0000028F5D1E06E01281CBF012010BD206869
:1031B00010210162206850E8000F216840F01000E3
:1031C00041E8000202B3206850E8000F216840F097
:1031D000100041E80002BAB1206850E8000F2168F1
:1031E00040F0100041E8000272B1206850E8000F82
:1031F000216840F0100041E80002002A4FF0000072
:1032000008BF10BDD6E700BF002010BD41F6A802E0
:10321000C2F20002904218BF704710B590B041F65C
:103220008C60C2F20000002242540078A0F14601F6
:103230001D2900F25280DFE801F00F50505050502D
:10324000505050505050505050505050505050507E
:10325000505050505089838F0AAA02F1080002F1A1
:10326000100402F10C018DE8130041F68C64C2F2E7
:103270000004131D02F1140C42A12046CDF80CC02D
:10328000FDF71CF8062827D19DED0A0A9DED0B1AC3
:103290009DED0C2AB8EEC00A9DED0D3A8DED040AA5
:1032A000B8EEC10A8DED050AB8EEC20A9DED0E1A00
:1032B0008DED060AB8EEC30A8DED070AB8EEC10A15
:1032C0009DED0F1A8DED080AB8EEC10A04A803217E
:1032D0008DED090A05F0DAF82078542842D10AAABF
:1032E00002F1080002F10C01CDE9000141F68C6009
:1032F000131D02F11004C2F2000027A10294FCF792
:10330000DDFF9DED0A0A9DED0B1A9DED0C2A9DED4A
:103310000D3A40F210000E99B8EEC00AC2F2000059
:10332000B8EEC11AB8EEC22AB8EEC33A80ED000A70
:1033300080ED011A80ED022A80ED033A017411E05C
:1033400042F20C20C2F2000002210AE042F20C20FC
:10335000C2F20000012104E042F20C20C2F200009F
:103360000321018041F6A80041F68C61C2F2000001
:10337000C2F200014FF48072FFF7FCFE10B0BDE80E
:1033800010407047462564412564532564412564F7
:103390004C256441256400005420482564205225B2
:1033A00064204325642053256420582564000000D0
:1033B0007047000090F88420012A04BF0220704763
:1033C000B0B52422C0F888200268D0F864E0D2F8B2
:1033D00000C01368BEF1000F23F00103136093686F
:1033E00023F0606341EA0301916019D0936891680A
:1033F0004AF6E46E490FC0F6000E4AF6EC651EF878
:103400000140C0F60005695CC3F34263E400B4FB0D
:10341000F1F11EF80340EB5CE500B5FBF3F301E0CE
:1034200001210123A0F86A102021A0F86830C2F819
:1034300000C0C0F88810002180F88410BDE8B040BA
:103440000846704790F88420012A04BF0220704784
:10345000B0B52422C0F888200268D0F864E0D2F821
:1034600000C01368BEF1000F23F0010313609368DE
:1034700023F0604341EA0301916019D09368916899
:103480004AF6E46E490FC0F6000E4AF6EC651EF8E7
:103490000140C0F60005695CC3F34263E400B4FB7D
:1034A000F1F11EF80340EB5CE500B5FBF3F301E03E
:1034B00001210123A0F86A102021A0F86830C2F889
:1034C00000C0C0F88810002180F88410BDE8B0402A
:1034D00008467047704700007047000070470000C2
:1034E00070B5016840F62F03CA69044608688E6803
:1034F0001340202B0CD100F0200306F080555B19FF
:1035000017D0616F69B32046BDE87040084700BF1F
:1035100040F60F031A420CD00123C1F2000306EA61
:10352000030C40F22013C0F20043034013EB0C03E2
:1035300028D1E36ED50615D5012B13D110F0100359
:1035400010D0102008628868400627D4B4F85C00C8
:10355000B4F85E10B4F85E20002A18BF884240F02C
:10356000518270BDD30240F1D98016F4800300F07F
:10357000D5804FF4801220460A62BDE87040FFF704
:10358000ABBF00BFD30718BF10F4807340F01E819B
:10359000930706F0010E00F125812EE1D4F880009A
:1035A00000684268B4F85C3091B2002900F0F48001
:1035B000994280F0F180A4F85E200068800600F156
:1035C000A08000BF206850E8000F216820F48070C0
:1035D00041E80002E2B1206850E8000F216820F4C1
:1035E000807041E800029AB1206850E8000F21681D
:1035F00020F4807041E8000252B1206850E8000FCA
:10360000216820F4807041E80002002ADAD100BF6E
:10361000206850E8020F216820F0010041E8020212
:10362000BAB3206850E8020F216820F0010041E899
:10363000020272B3206850E8020F216820F00100F6
:1036400041E802022AB3206850E8020F216820F006
:10365000010041E80202002ADAD11AE0206850E8AD
:10366000020F216820F0400041E80202DAB1206830
:1036700050E8020F216820F0400041E8020292B1B8
:10368000206850E8020F216820F0400041E8020263
:103690004AB1206850E8020F216820F0400041E85C
:1036A0000202002ADAD12020C4F88C000020E06653
:1036B000206850E8000F216820F0100041E8000267
:1036C000DAB1206850E8000F216820F0100041E8CE
:1036D000000292B1206850E8000F216820F010002D
:1036E00041E800024AB1206850E8000F216820F04C
:1036F000100041E80002002ADAD1D4F88000FDF77A
:1037000093FB02202067B4F85C00B4F85E10401A06
:1037100081B22046BDE87040FFF778BD110606D59E
:1037200000F0800106F40003C91840F0ED81510655
:1037300040D510F040013DD0206850E8000F2168CE
:1037400020F0400041E80002DAB1206850E8000FA4
:10375000216820F0400041E8000292B1206850E862
:10376000000F216820F0400041E800024AB12068C3
:1037700050E8000F216820F0400041E80002002AD4
:10378000DAD120200021C4F888002046A167BDE8D6
:10379000704000F039BB00BF8B427FF4E2AE00689E
:1037A00080067FF5DEAE022220462267BDE870402B
:1037B000FFF72CBD110240F1B38110F0804100F001
:1037C000AF812046BDE87040FFF784BE01230B6245
:1037D000D4F8903043F00103C4F89030930706F01A
:1037E000010E0AD5BEF1000F07D002230B62D4F8F8
:1037F000903043F00403C4F8903053070AD5BEF16B
:10380000000F07D004230B62D4F8903043F002037A
:10381000C4F8903013070CD500F0200353EA0C03D2
:1038200007D008230B62D4F8903043F00803C4F8A3
:10383000903013050BD510F0806308D04FF400636F
:103840000B62D4F8903043F02003C4F89030D4F8E1
:103850009030002B3FF485AE92060AD500F0200090
:1038600006F08052801804D0626F12B12046904753
:103870002168D4F89000896800F0280001F0400128
:10388000401807D12046FFF729FE0020C4F8900019
:1038900070BD00BF206850E8000F216820F49070D0
:1038A00041E80002DAB1206850E8000F216820F4F6
:1038B000907041E8000292B1206850E8000F216842
:1038C00020F4907041E800024AB1206850E8000FEF
:1038D000216820F4907041E80002002ADAD14FF606
:1038E000FE70CEF6FF7000BF216851E8021F22680B
:1038F000014042E80213C3B1216851E8021F226867
:10390000014042E8021383B1216851E8021F226896
:10391000014042E8021343B1216851E8021F2268C6
:10392000014042E80213002BDED1E06E012824D1D1
:10393000206850E8000F216820F0100041E80002E4
:10394000DAB1206850E8000F216820F0100041E84B
:10395000000292B1206850E8000F216820F01000AA
:1039600041E800024AB1206850E8000F216820F0C9
:10397000100041E80002002ADAD12020C4F88C00AF
:103980000020E066216860678868400640F1C280D8
:10399000206850E8020F216820F0400041E8020250
:1039A000DAB1206850E8020F216820F0400041E8B9
:1039B000020292B1206850E8020F216820F0400016
:1039C00041E802024AB1206850E8020F216820F065
:1039D000400041E80202002ADAD1D4F88000002831
:1039E00000F0988045F60951C0F600018163FDF7AB
:1039F00053FA00283FF4B5ADD4F88000816BBDE8E0
:103A000070400847401A00BF216851E8001F226833
:103A100021F4907142E80013DBB1216851E8001FE6
:103A2000226821F4907142E8001393B1216851E8B3
:103A3000001F226821F4907142E800134BB1216805
:103A400051E8001F226821F4907142E80013002B16
:103A5000DAD14FF6FE71CEF6FF7100BF226852E850
:103A6000022F23680A4043E80226C6B1226852E8C2
:103A7000022F23680A4043E8022686B1226852E8F2
:103A8000022F23680A4043E8022646B1226852E822
:103A9000022F23680A4043E80226002EDED12021AF
:103AA000C4F88C100021E166616700BF216851E80D
:103AB000001F226821F0100142E80013DBB12168E9
:103AC00051E8001F226821F0100142E8001393B171
:103AD000216851E8001F226821F0100142E800131C
:103AE0004BB1216851E8001F226821F0100142E823
:103AF0000013002BDAD1022281B220462267BDE8F2
:103B00007040FFF783BB00BFA16F00297FF4FBACBF
:103B100027E500BF2046BDE87040FFF7DFBC00BFCF
:103B2000D1017FF51EADB0F1FF3FC8BF70BD20468B
:103B3000BDE87040FFF73CBC10B5D0B10446D0F8EA
:103B4000880028B9002084F88400204600F026F878
:103B50002420C4F888002068A16A026822F00102CB
:103B6000026011B1204601F0A1FF204602F080FA68
:103B700010B1012010BD00BF2168486820F49040BA
:103B80004860886820F02A008860086840F00102D8
:103B900020460A60BDE8104001F0FEBF70B59AB043
:103BA0000446684608304C21FCF77CFB206843F64D
:103BB0000001C4F20101884202D01AB070BD00BFFA
:103BC00001200090002668460196FEF7A1FA002821
:103BD00018BFFDF70BF941F24C00C4F20200416935
:103BE00041F480414161416901F480411591159989
:103BF000016841F002010160006815A900F00200AF
:103C000015901598C02015900220CDE916060720C2
:103C1000199040F20040C4F600001896FEF716F81E
:103C200041F284650820C2F20005C4F202001821A6
:103C3000802285E843002846C5E90362C5E9056698
:103C4000C5E90766FDF7BEF9002818BFFDF7CEF8F5
:103C5000252005210022C4F88050AC62FEF77EF9D1
:103C60002520FEF769F91AB070BD0000704700000A
:103C7000704700002DE9F0410446D0F88800202864
:103C80001CBF0220BDE8F0810D4600294FF0010065
:103C900000F0B8801646002A08BFBDE8F081002079
:103CA000C4F8900021209846C4F88800FEF7A4F8D4
:103CB000A4F85460A4F85660A1680646B1F5805F88
:103CC00002D1206900286BD02F460025B4F8560099
:103CD00000286BD018F101001CD0B8F1000F3DD1C5
:103CE00021680BE017F8010B8862B4F85600013820
:103CF000A4F85600B4F85600002858D0C869000649
:103D000040F17A80002FEDD135F8020B00276FF3D8
:103D10005F20E9E7216802E0C869000609D4C869A4
:103D2000000606D4C86900065CBFC8695FEA006087
:103D3000F2D51FB117F8010B05E000BF35F8020BF3
:103D400000276FF35F208862B4F856000138A4F8AA
:103D50005600B4F856000028E1D128E0216800BFE1
:103D6000C869000608D4FEF747F8801B404545D8CF
:103D700021680868F4E700BF17B117F8010B04E0E9
:103D800035F8020B00276FF35F208862B4F8560005
:103D90000138A4F85600B4F856000028E0D106E037
:103DA0000027B4F8560000287FF494AF2168C86952
:103DB00040061FD4B8F1000F1ED018F101000FD13A
:103DC000C869400616D4C869400613D4C8694006BD
:103DD00010D4C86940064FF00000F1D50FE000BFD5
:103DE000FEF70AF8801B404508D820680168C069C2
:103DF0004006F5D5002002E0FDF7FEFF032020215C
:103E0000C4F88810BDE8F08170470000FEE70000AC
:103E100080B582B041F24800C4F20200016800227D
:103E200041F004010160016801F004010191019970
:103E3000016841F0010101600068052100F0010006
:103E4000009000980B20FEF789F80B2002B0BDE827
:103E50008040FEF771B8000080B541F2E46046F2A0
:103E60000041C2F20000C4F200010022C0E90012C9
:103E7000112100F1140701234FF0060C4FF0030E3F
:103E800087E80A5000F12407C0E90222C0F80F2099
:103E900087E80A50C0E90D32C263FDF781FC0028B3
:103EA00008BF80BDBDE88040FCF7A0BF80B541F2EF
:103EB000487046F60001C2F20000C4F20001002280
:103EC000C0E90012112100F1140701234FF0060C84
:103ED0004FF0030E87E80A5000F12407C0E90222E0
:103EE000C0F80F2087E80A50C0E90D32C263FDF721
:103EF00057FC002808BF80BDBDE88040FCF776BFB6
:103F000080B541F2AC7046F60041C2F20000C4F246
:103F100000010022C0E90012112100F11407012361
:103F20004FF0060C4FF0030E87E80A5000F124070B
:103F3000C0E90222C0F80F2087E80A50C0E90D321C
:103F4000C263FDF72DFC002808BF80BDBDE880409E
:103F5000FCF74CBF10B503F02DF941F6A80041F66F
:103F60008C61C2F20000C2F200014FF48072FFF7D0
:103F700001F904F0B3FA03F055F802F055FE41F2EE
:103F8000E460C2F2000003F081F941F24870C2F22D
:103F9000000003F07BF94AF6F460C0F6000003F07D
:103FA000DDFB40F22804C2F200044AF6E072206011
:103FB000C0F600021020082103F036FB606044F2D6
:103FC000F1304AF68862C0F60000C0F60002002117
:103FD00003F0FEFBA06010BDB0B586B0002441F236
:103FE0004C000594C4F202000168002241F0040173
:103FF00001600168802501F00401009100990168C9
:1040000041F020010160016801F020010091009958
:10401000016841F001010160016801F001010091B6
:104020000099016841F0020101600068802100F000
:104030000200009000984FF09040FDF7D7FE01205D
:10404000CDE9020401A94FF0904001950494FDF7D9
:10405000FDFD06B0B0BD000010B584B041F65C00B7
:1040600041F20001C2F20000C4F20001002442F259
:104070003312632380E8160080210294C3608161BB
:10408000FEF7B2FE002818BFFCF7B0FE41F65C0058
:10409000C2F2000001A901940394FEF731FE00284A
:1040A00018BFFCF7A3FE04B010BD000080B541F6B8
:1040B000A80043F60001C2F20000C4F2010100238F
:1040C0004FF00C0C4FF4E13280E80E00C0E90333EE
:1040D000C0E905C3C0E90733C0E90933FFF72CFD88
:1040E000002818BFFCF782FE41F6A800C2F20000CB
:1040F0000021FFF7A7F9002818BFFCF777FE41F66B
:10410000A800C2F200000021FFF754F9002818BFF0
:10411000FCF76CFE41F6A800C2F20000FFF70EF8B3
:10412000002808BF80BDBDE88040FCF75FBE0000EE
:10413000FEE70000FEE700000000000000000000B5
:10414000EFF30980BFF36F8F154B1A681EF0100F45
:1041500008BF20ED108A20E9F04F10602DE909001A
:104160004FF0500080F31188BFF34F8FBFF36F8F74
:1041700004F01AFF4FF0000080F31188BDE8090039
:1041800019680868B0E8F04F1EF0100F08BFB0ECD7
:10419000108A80F30988BFF36F8F704700BF00BF9C
:1041A0007800002030EEC05A90ED050A90ED001A1C
:1041B00035EE406A90ED012A21EE061A30EE006AD3
:1041C00090ED067A90ED023A35EE466A25EE022A27
:1041D00036EE076A90ED034A23EE063A80ED060AB2
:1041E00031EE020A30EE031A90ED070A34EE011A9E
:1041F000B4EE401AF1EE10FA80ED045A80ED055A43
:104200000ADC90ED082AB0EE410AB4EE421AF1EE53
:1042100010FAB8BFB0EE420A80ED030A80ED090A39
:1042200070470000000000000000000000000000D7
:10423000074B19680868B0E8F04F80F30988BFF3AE
:104240006F8F4FF0000080F31188704700BF00BFF0
:104250007800002080B54EF21000CEF20000006819
:1042600005F0A6FE012808BF80BDBDE8804004F02F
:10427000BDBF00004EF68850CEF20000016841F448
:10428000700101607047000041F61000C2F20000AA
:10429000FEF75EBE41F65C00C2F20000FEF758BEBB
:1042A00040F6FF330268C4F2000343F2FF3C984239
:1042B000C4F2010C0ADD60452EDC40F60043C4F276
:1042C0000003984234D042F600432DE0B0F1804F15
:1042D0002ED040F20043C4F20003984228D040F6AA
:1042E0000003C4F20003984222D0604526DC40F26D
:1042F000FF73C4F20003984236DD40F60003C4F2B7
:104300000003984244D040F60043C4F200039842B0
:104310003ED042F6004337E045F20003C4F2010309
:10432000984205D043F20043C4F201039842DCD125
:104330004B6822F070021A436045D8DD44F2FF3327
:10434000C4F20103984217DD44F20043C4F20103B2
:1043500098421DD045F20003C4F20103984217D0E1
:1043600044F6000310E000BFB0F1804F10D040F2DF
:104370000043C4F2000309E043F20043C4F2010326
:10438000984205D044F20003C4F20103984203D1DD
:10439000CB6822F440721A4380B54B6922F0800E3C
:1043A0008A6843EA0E03D1F800C00360C262A0F13C
:1043B0008042A2F59632830543EA9222092AC0F888
:1043C00028C0BDE8804008D8012303FA02F240F279
:1043D000E5231A421CBF096901630121416101699A
:1043E000C90708BF7047016921F0010101617047E9
:1043F00088B002F029FA02F0ADFC40F210079FED00
:104400002C8A9FED2C9A9FED2CAADFED2CFA40F21E
:10441000541542F20C2A40F22C0B9FED29CA9FED55
:1044200029DA9FED29EADFED29CADFED298ADFEDE0
:1044300029DADFED29BAC2F200074FF00109C2F212
:104440000005C2F2000AC2F2000B0DF10808FBEEF3
:1044500004EAB3EE04FA16E0BAF900104AF6537013
:10446000C0F6000006F018F8BAF900104AF66D70B0
:10447000C0F6000006F010F800202870AAF800002E
:10448000142003F049F897ED001A97ED01BAD7ED23
:10449000029AD7ED03AAB4EE481AF1EE10FA2BDC1B
:1044A000B4EE491AF1EE10FA26DBB0EE410A33E021
:1044B00000001B44000002430000E14300001143E0
:1044C00000000000000034C30000AF4300001644A9
:1044D000000016430000344300008C4200002A43D1
:1044E0000000704200002543000008430000EB4339
:1044F0000000B4C200001B43B4EE481AF1EE10FAFB
:10450000B0EE480A08DCB4EE491AB0EE410AF1EE0A
:1045100010FAB8BFB0EE490A05F09AFF012002F088
:10452000FBFFB0EE6A0A05F077FF012002F0F4FF0E
:10453000B0EE690A02F074F9012002F0EDFFB4EE6A
:104540004ABAF1EE10FA09DCB4EE6FBAF1EE10FAE5
:1045500004DBB0EE4B0A02F0CBFB16E0B4EE4ABA35
:10456000F1EE10FAB0EE4A0A08DCB4EE6FBAB0EE23
:104570004B0AF1EE10FAB8BFB0EE6F0A02F0B8FBCA
:1045800003E000BF0A2002F0C7FF02F013F9002881
:10459000F8D0287800287FF473AFBAF8000000281C
:1045A0003FF46EAF85F80090BAF900100FF6806006
:1045B00005F072FFBAF90000032800F0BD8202285E
:1045C00000F0F08201287FF447AF1FED3C0A05F0B0
:1045D0003FFF012002F0A0FFB0EE4C0A05F01CFFE7
:1045E000012002F099FF1FED420A02F019F90120A3
:1045F00002F092FFB0EE4A0A02F07AFB02F0DAF81B
:1046000038B900BF0A2002F087FF02F0D3F8002873
:10461000F8D01FED4C0A05F01BFF012002F07CFFD3
:10462000B0EE4C0A05F0F8FE012002F075FF1FED18
:10463000540A02F0F5F8012002F06EFFB0EE4A0ACB
:1046400002F056FB02F0B6F838B900BF0A2002F0BB
:1046500063FF02F0AFF80028F8D01FED5D0A05F007
:10466000F7FE012002F058FFB0EE4C0A05F0D4FE30
:10467000012002F051FF1FED660A02F0D1F801207F
:1046800002F04AFFB0EE4A0A02F032FB02F092F862
:1046900038B900BF0A2002F03FFF02F08BF8002873
:1046A000F8D0012005F0CAFE40F6B83002F034FF21
:1046B0001FED720A05F0CCFE012002F02DFFB0EED6
:1046C0004C0A05F0A9FE012002F026FF1FED780A32
:1046D00002F0A6F8012002F01FFFB0EE4E0A02F031
:1046E00007FB02F067F830B90A2002F015FF02F06C
:1046F00061F80028F8D01FED870A05F0A9FE012017
:1047000002F00AFFB0EE4C0A05F086FE012002F02E
:1047100003FF1FED890A02F083F8012002F0FCFE7E
:10472000B0EE4E0A02F0E4FA02F044F838B900BFE5
:104730000A2002F0F1FE02F03DF80028F8D01FED4B
:10474000930A05F085FE012002F0E6FEB0EE4C0A69
:1047500005F062FE012002F0DFFE1FED9B0A02F071
:104760005FF8012002F0D8FEB0EE4E0A02F0C0FA67
:1047700002F020F838B900BF0A2002F0CDFE02F0A6
:1047800019F80028F8D0002005F058FE40F6B8309F
:1047900002F0C2FE9FEDE70A05F05AFE012002F08A
:1047A000BBFEB0EE4C0A05F037FE012002F0B4FE6D
:1047B0009FEDE50A02F034F8012002F0ADFEB0EE04
:1047C0004E0A02F095FA01F0F5FF30B90A2002F026
:1047D000A3FE01F0EFFF0028F8D01FEDBE0A05F0A0
:1047E00037FE012002F098FEB0EE4C0A05F014FEF0
:1047F000012002F091FE9FEDD40A02F011F8012091
:1048000002F08AFEB0EE4E0A02F072FA01F0D2FF18
:1048100038B900BF0A2002F07FFE01F0CBFF00286C
:10482000F8D01FEDCF0A05F013FE012002F074FE50
:10483000B0EE4C0A05F0F0FD012002F06DFE9FED98
:10484000C20A01F0EDFF012002F066FEB0EE4E0A52
:1048500002F04EFA01F0AEFF38B900BF0A2002F0B4
:104860005BFE01F0A7FF0028F8D0012005F0E6FD6F
:1048700040F6B83002F050FE1FEDE40A05F0E8FD06
:10488000012002F049FEB0EE4C0A05F0C5FD012002
:1048900002F042FE1FEDEA0A01F0C2FF012002F021
:1048A0003BFEB0EE4E0A02F023FA01F083FF30B96E
:1048B0000A2002F031FE01F07DFF0028F8D09FEDC4
:1048C0009D0A05F0C5FD012002F026FEB0EE4C0A5F
:1048D00005F0A2FD012002F01FFE9FEDDA0A01F0B3
:1048E0009FFF012002F018FEB0EE4E0A02F000FA1F
:1048F00001F060FF38B900BF0A2002F00DFE01F0A0
:1049000059FF0028F8D09FEDD00A05F0A1FD012045
:1049100002F002FEB0EE4C0A05F07EFD012002F02E
:10492000FBFD9FEDC80A01F07BFF012002F0F4FDC2
:10493000B0EE4E0A02F0DCF901F03CFF38B900BFDE
:104940000A2002F0E9FD01F035FF0028F8D0002030
:1049500005F074FD40F6B83002F0DEFD9FEDBB0AB5
:1049600005F076FD012002F0D7FDB0EE4C0A05F00F
:1049700053FD012002F0D0FDBBEE0E0A01F050FF06
:10498000012002F0C9FD9FEDB20A02F0B1F901F079
:1049900011FF30B90A2002F0BFFD01F00BFF002823
:1049A000F8D09FEDAC0A05F053FD012002F0B4FDF4
:1049B000B0EE4C0A05F030FD012002F0ADFDBBEE7B
:1049C0000E0A01F02DFF012002F0A6FD9FEDA00AC6
:1049D00002F08EF901F0EEFE38B900BF0A2002F0B5
:1049E0009BFD01F0E7FE0028F8D09FED9B0A05F043
:1049F0002FFD012002F090FDB0EE4C0A05F00CFDF9
:104A0000012002F089FDBBEE0E0A01F009FF012032
:104A100002F082FD9FED8E0A02F06AF901F0CAFEF3
:104A200038B900BF0A2002F077FD01F0C3FE00286C
:104A3000F8D0012005F002FD40F6B83002F06CFD20
:104A40009FED820A05F004FD012002F065FDB0EE45
:104A50004C0A05F0E1FC012002F05EFD9FED790AB1
:104A600001F0DEFE012002F057FDB0EE4E0A02F02A
:104A70003FF901F09FFE30B90A2002F04DFD01F030
:104A800099FE0028F8D09FED710A05F0E1FC0120A5
:104A900002F042FDB0EE4C0A05F0BEFC012002F02F
:104AA0003BFD9FED680A01F0BBFE012002F034FDE2
:104AB000B0EE4E0A02F01CF901F07CFE38B900BFDE
:104AC0000A2002F029FD01F075FE0028F8D09FEDC4
:104AD000E20A05F0BDFC012002F01EFDB0EE4C0A1A
:104AE00005F09AFC012002F017FD9FED560A01F037
:104AF00097FE012002F010FDB0EE4E0A02F0F8F829
:104B000001F058FE38B900BF0A2002F005FD01F09F
:104B100051FE0028F8D0002005F090FC40F6B83097
:104B200002F0FAFC4AF68070C0F6000006F02EF99A
:104B30009AE400BF0000A0430FF67040544606F010
:104B400025F94FF0000A05E000003442BAF1030FE6
:104B500080F08480DBF8000008EBCA0100224FF0EF
:104B6000FF3302F01BFD0028F0D10AF1010A08EB27
:104B7000CA0050E90208FBF7D5FC814640465E4674
:104B80008B460DF10808FBF7CDFC41EC100B0FF63E
:104B9000404051464A465B46B3468DED000B05F05A
:104BA0007BFCD3E70020C4F2BE30B0EE480A686058
:104BB00005F04EFC012002F0AFFCB0EE4C0A05F00F
:104BC0002BFC012002F0A8FCB0EE4D0A01F028FEFB
:104BD000012002F0A1FC9FEDDA0A02F089F801F051
:104BE000E9FD30B90A2002F097FC01F0E3FD00284E
:104BF000F8D09FEDD40A95ED01BA05F029FC01200B
:104C000002F08AFCB0EE4C0A05F006FC012002F02E
:104C100083FCB0EE4D0A01F003FE012002F07CFCA3
:104C2000B4EE4ABAF1EE10FA00F3BA80B4EE6FBAFD
:104C3000F1EE10FAC0F2B480B0EE4B0A02F058F870
:104C4000C5E000BF0000B4C2008098430000EB4301
:104C50000000C84300002543000008434AF69F7047
:104C6000C0F6000006F092F81FED080A05F0F0FB10
:104C7000012002F051FCB0EE4C0A05F0CDFB012002
:104C800002F04AFCB0EE4D0A01F0CAFD012002F02C
:104C900043FCB0EE4E0A02F02BF801F08BFD30B968
:104CA0000A2002F039FC01F085FD0028F8D09FEDC4
:104CB000A60A05F0CDFB012002F02EFCB0EE4C0A56
:104CC00005F0AAFB012002F027FCB0EE4D0A01F02E
:104CD000A7FD012002F020FCB0EE4E0A02F008F819
:104CE00001F068FD4FF00109A24630B90A2002F038
:104CF00013FC01F05FFD0028F8D0012005F09EFBB9
:104D000040F6B83002F008FC1FED300A05F0A0FBB9
:104D1000012002F001FCB0EE4C0A05F07DFB012001
:104D200002F0FAFBB0EE4D0A01F07AFD012002F02C
:104D3000F3FBB0EE4E0A01F0DBFF01F03BFD30B9B2
:104D40000A2002F0E9FB01F035FD0028F8D01FED44
:104D5000410A9DED02BADDED039A05F079FB0120D1
:104D600002F0DAFBB0EE4C0A05F056FB012002F02F
:104D7000D3FBB0EE690A01F053FD012002F0CCFB39
:104D8000B4EE4ABAF1EE10FA52DCB4EE6FBAF1EEBC
:104D900010FA4DDBB0EE4B0A01F0AAFF61E000BF54
:104DA000B4EE4ABAF1EE10FAB0EE4A0A08DCB4EEFC
:104DB0006FBAB0EE4B0AF1EE10FAB8BFB0EE6F0A60
:104DC00001F096FF03E000BF0A2002F0A5FB01F00E
:104DD000F1FC0028F8D0012005F030FB40F6B83097
:104DE00002F09AFB95ED01BAB0EE6C0A05F030FBCB
:104DF000012002F091FBB0EE4C0A05F00DFB012002
:104E000002F08AFBB0EE4D0A01F00AFD012002F02B
:104E100083FBB4EE4ABAF1EE10FA4DDCB4EE6FBA91
:104E2000F1EE10FA48DBB0EE4B0A01F061FF5AE0F8
:104E3000B4EE4ABAF1EE10FAB0EE4A0A08DCB4EE6B
:104E40006FBAB0EE4B0AF1EE10FAB8BFB0EE6F0ACF
:104E500001F04EFF05E000BF0080E3430A2002F0AE
:104E60005BFB01F0A7FC0028F8D09FED380A9DED10
:104E700002BADDED039A05F0EBFA012002F04CFBDB
:104E8000B0EE4C0A05F0C8FA012002F045FBB0EE86
:104E9000690A01F0C5FC012002F03EFBB4EE4ABAFB
:104EA000F1EE10FA54DCB4EE6FBAF1EE10FA4FDB0B
:104EB000B0EE4B0A5CE000BFB4EE4ABAF1EE10FA75
:104EC000B0EE4A0A08DCB4EE6FBAB0EE4B0AF1EE6F
:104ED00010FAB8BFB0EE6F0A01F00AFF03E000BF9E
:104EE0000A2002F019FB01F065FC0028F8D095EDCE
:104EF00001BAB0EE6C0A05F0ABFA012002F00CFB2F
:104F0000B0EE4C0A05F088FA012002F005FBBBEE7A
:104F10000E0A01F085FC012002F0FEFAB4EE4ABA56
:104F2000F1EE10FA00F3EA80B4EE6FBAF1EE10FA87
:104F3000C0F2E480B0EE4B0A01F0DAFEF5E000BF0B
:104F40000000BE43000011440000D74300001B4393
:104F5000B4EE4ABAF1EE10FAB0EE4A0A08DCB4EE4A
:104F60006FBAB0EE4B0AF1EE10FAB8BFB0EE6F0AAE
:104F7000B84601F0BDFE01F01DFC30B90A2002F078
:104F8000CBFA01F017FC0028F8D0002005F056FA03
:104F900040F6B83002F0C0FADDE90204FBF7C2FACD
:104FA000074620460E46FBF7BDFA41EC100B4AF6C9
:104FB0002770C0F6000000213A4633468DED000B05
:104FC00005F06AFA1FEDDF0A05F042FA012002F04F
:104FD000A3FAB0EE4C0A05F01FFA012002F09CFA89
:104FE000B0EE4D0A01F01CFC012002F095FAB0EE83
:104FF0004E0A01F07DFE01F0DDFB30B90A2002F01F
:105000008BFA01F0D7FB0028F8D09FEDC00A05F01D
:105010001FFA012002F080FAB0EE4C0A05F0FCF90C
:10502000012002F079FAB0EE4D0A01F0F9FB0120FF
:1050300002F072FAB0EE4E0A01F05AFE01F0BAFB2D
:1050400038B900BF0A2002F067FA01F0B3FB00286C
:10505000F8D0012005F0F2F940F6B83002F05CFA21
:105060009FEDE80A05F0F4F9012002F055FAB0EEE0
:105070004C0A05F0D1F9012002F04EFAB0EE4D0ACB
:1050800001F0CEFB012002F047FAB0EE4E0A01F02B
:105090002FFE01F08FFB30B90A2002F03DFA01F03B
:1050A00089FB0028F8D09FEDD70A9DED04BADDED0D
:1050B000059A05F0CDF9012002F02EFAB0EE4C0A67
:1050C00005F0AAF9012002F027FAB0EE690A01F012
:1050D000A7FB012002F020FAB4EE4ABAF1EE10FA72
:1050E00000F30C83B4EE6FBAF1EE10FAC0F206834F
:1050F000B0EE4B0A01F0FCFD17E300BFB4EE4ABA74
:10510000F1EE10FAB0EE4A0A08DCB4EE6FBAB0EE77
:105110004B0AF1EE10FAB8BFB0EE6F0A01F0E8FDED
:1051200003E000BF0A2002F0F7F901F043FB00287A
:10513000F8D0B0EE6C0A05F08BF9012002F0ECF922
:105140009FEDE90A05F068F9012002F0E5F9BBEEF0
:105150000E0A01F065FB012002F0DEF99FEDE30A83
:1051600001F0C6FD01F026FB38B900BF0A2002F0AD
:10517000D3F901F01FFB0028F8D09FEDDD0A05F000
:1051800067F9012002F0C8F99FEDD70A05F044F94C
:10519000012002F0C1F9BBEE0E0A01F041FB012033
:1051A00002F0BAF99FEDD10A01F0A2FD01F002FB75
:1051B00038B900BF0A2002F0AFF901F0FBFA00286D
:1051C000F8D09FEDCB0A05F043F9012002F0A4F9D5
:1051D0009FEDC50A05F020F9012002F09DF9BBEE14
:1051E0000E0A01F01DFB012002F096F99FEDC10AA5
:1051F00001F07EFD01F0DEFA38B900BF0A2002F0AE
:105200008BF901F0D7FA0028F8D0002005F016F944
:1052100040F6B83002F080F99FEDB50A05F018F9B4
:10522000012002F079F99FEDB00A05F0F5F80120B0
:1052300002F072F9BBEE0E0A01F0F2FA012002F060
:105240006BF99FEDAD0A01F053FD01F0B3FA30B9EF
:105250000A2002F061F901F0ADFA0028F8D00FF64B
:10526000280005F093FD01240AE000BF4AF6CD7046
:10527000C0F6000005F08AFD0134042C3FF4F4A8C8
:10528000C4F1040000EE100AB8EEC00A20EE28BAFD
:105290000020C4F2AF303BEE2E0A6860032C08BF3A
:1052A000B0EE40BAB0EE480A05F0D2F8012002F0A4
:1052B00033F9B0EE4C0A05F0AFF8012002F02CF9FA
:1052C000B0EE4D0A01F0ACFA012002F025F9B0EE83
:1052D0004E0A01F00DFD01F06DFA30B90A2002F01E
:1052E0001BF901F067FA0028F8D03BEE2E1A95ED75
:1052F00001BAB4EE481AF1EE10FA09DCB4EE491A1C
:10530000F1EE10FA04DBB0EE410A11E000008C432C
:10531000B4EE481AF1EE10FAB0EE480A08DCB4EE2A
:10532000491AB0EE410AF1EE10FAB8BFB0EE490AE0
:1053300005F08EF8012002F0EFF8B0EE4C0A05F00F
:105340006BF8012002F0E8F8B0EE4D0A01F068FABF
:10535000012002F0E1F8B4EE4ABAF1EE10FA09DCED
:10536000B4EE6FBAF1EE10FA04DBB0EE4B0A01F0C6
:10537000BFFC16E0B4EE4ABAF1EE10FAB0EE4A0AFB
:1053800008DCB4EE6FBAB0EE4B0AF1EE10FAB8BF1B
:10539000B0EE6F0A01F0ACFC03E000BF0A2002F09F
:1053A000BBF801F007FA0028F8D0012005F046F814
:1053B00040F6B83002F0B0F895ED01BAB0EE6C0AE4
:1053C00005F046F8012002F0A7F8B0EE4C0A05F00F
:1053D00023F8012002F0A0F8B0EE4D0A01F020FA07
:1053E000012002F099F8B4EE4ABAF1EE10FA0BDCA3
:1053F000B4EE6FBAF1EE10FA06DBB0EE4B0A01F034
:1054000077FC22E00000EB43B4EE4ABAF1EE10FA6A
:10541000B0EE4A0A08DCB4EE6FBAB0EE4B0AF1EE19
:1054200010FAB8BFB0EE6F0A01F062FC0DE000BFE9
:105430005374617274696E67205461736B202564C4
:105440000D0A00000A2002F067F801F0B3F9002805
:10545000F8D00FF2486050F82400411F02293FF6AF
:105460000BAF4AF60861C0F6000101EB001695ED9E
:1054700001BAD6ED019AB0EE6C0A04F0E9FF012002
:1054800002F04AF8B0EE4C0A04F0C6FF012002F028
:1054900043F8B0EE690A01F0C3F9012002F03CF8CC
:1054A000B4EE4ABAF1EE10FA0ADCB4EE6FBAF1EEDD
:1054B00010FA05DBB0EE4B0A01F01AFC21E000BF48
:1054C000B4EE4ABAF1EE10FAB0EE4A0A08DCB4EED5
:1054D0006FBAB0EE4B0AF1EE10FAB8BFB0EE6F0A39
:1054E00001F006FC0DE000BF0000B4420000824362
:1054F0000000A5430000DC430080B6430A2002F010
:105500000BF801F057F90028F8D0D6ED02AA96ED75
:1055100000BA3AEEAD1AB4EE481AF1EE10FA07DC12
:10552000B4EE491AF1EE10FA02DBB0EE410A0FE0D8
:10553000B4EE481AF1EE10FAB0EE480A08DCB4EE08
:10554000491AB0EE410AF1EE10FAB8BFB0EE490ABE
:1055500004F07EFF012001F0DFFFB0EE6B0A04F0E3
:105560005BFF012001F0D8FFB0EE690A01F058F9A5
:10557000012001F0D1FFB4EE4ABAF1EE10FA4FF07B
:105580000000B4EE6FBAD8BF0120F1EE10FA4FF070
:105590000001A8BF012110EA0106B0EE4B0A0FD1AD
:1055A000B4EE4ABAF1EE10FAB0EE4A0A08DCB4EEF4
:1055B0006FBAB0EE4B0AF1EE10FAB8BFB0EE6F0A58
:1055C00001F096FB01F0F6F838B900BF0A2001F0AF
:1055D000A3FF01F0EFF80028F8D0B0EE6A0A04F05B
:1055E00037FF012001F098FFB0EE6B0A04F014FFC2
:1055F000012001F091FFB0EE690A01F011F90120DC
:1056000001F08AFFB0EE4B0A7EB9B4EE4ABAF1EE71
:1056100010FAB0EE4A0A08DCB4EE6FBAB0EE4B0AEC
:10562000F1EE10FAB8BFB0EE6F0A01F061FB01F0C5
:10563000C1F830B90A2001F06FFF01F0BBF8002873
:10564000F8D0002004F0FAFE40F6B83001F064FF14
:105650003AEE8F1AB4EE481AF1EE10FA08DCB4EE06
:10566000491AF1EE10FA03DBB0EE410A10E000BF78
:10567000B4EE481AF1EE10FAB0EE480A08DCB4EEC7
:10568000491AB0EE410AF1EE10FAB8BFB0EE490A7D
:1056900004F0DEFE012001F03FFFB0EE6B0A04F0E3
:1056A000BBFE012001F038FFB0EE690A01F0B8F846
:1056B000012001F031FF2EB1B0EE4B0A01F018FBD2
:1056C00017E000BFB4EE4ABAF1EE10FAB0EE4A0AA3
:1056D00008DCB4EE6FBAB0EE4B0AF1EE10FAB8BFC8
:1056E000B0EE6F0A01F004FB03E000BF0A2001F0F6
:1056F00013FF01F05FF80028F8D0B7E5B4EE4ABA1E
:10570000F1EE10FAB0EE4A0A08DCB4EE6FBAB0EE71
:105710004B0AF1EE10FAB8BFB0EE6F0A01F0E8FAEA
:1057200003E000BF0A2001F0F7FE01F043F8002873
:10573000F8D09FEDD40A9DED04BADDED059A04F092
:1057400087FE012001F0E8FEB0EE4C0A04F064FE92
:10575000012001F0E1FEB0EE690A01F061F80120DC
:1057600001F0DAFEB4EE4ABAF1EE10FA0ADCB4EE59
:105770006FBAF1EE10FA05DBB0EE4B0A01F0B8FAA1
:105780003DE000BFB4EE4ABAF1EE10FAB0EE4A0ABC
:1057900008DCB4EE6FBAB0EE4B0AF1EE10FAB8BF07
:1057A000B0EE6F0A01F0A4FA29E000BF5461736BF8
:1057B00020333A2057616974696E6720666F7220E2
:1057C0003320706F736974696F6E732E2E2E0D0007
:1057D000526563656976656420706F736974696F7B
:1057E0006E2025643A20523D252E31662C20413D05
:1057F000252E31660D0A00000A2001F08DFE00F012
:10580000D9FF0028F8D0002004F018FE40F6B83088
:1058100001F082FEDDE90404FAF784FE0646204624
:105820000F46FAF77FFE41EC100B4AF62770C0F6E0
:105830000000012132463B468DED000B04F02CFEAA
:105840009FED8F0A04F004FE012001F065FEB0EE2A
:105850004C0A04F0E1FD012001F05EFEB0EE4D0ABD
:1058600000F0DEFF012001F057FEB0EE4E0A01F01D
:105870003FFA00F09FFF30B90A2001F04DFE00F022
:1058800099FF0028F8D0B0EE490A04F0E1FD0120AC
:1058900001F042FEB0EE4C0A04F0BEFD012001F022
:1058A0003BFEB0EE4D0A00F0BBFF012001F034FEDC
:1058B000B0EE4E0A01F01CFA00F07CFF38B900BFD0
:1058C0000A2001F029FE00F075FF0028F8D0012021
:1058D00004F0B4FD40F6B83001F01EFE9FED680AFA
:1058E00004F0B6FD012001F017FEB0EE4C0A04F002
:1058F00093FD012001F010FEB0EE4D0A00F090FF84
:10590000012001F009FEB0EE4E0A01F0F1F900F0BD
:1059100051FF30B90A2001F0FFFD00F04BFF0028D5
:10592000F8D09FED570A9DED06BADDED079A04F019
:105930008FFD012001F0F0FDB0EE4C0A04F06CFD8B
:10594000012001F0E9FDB0EE690A00F069FF0120D5
:1059500001F0E2FDB4EE4ABAF1EE10FA0ADCB4EE60
:105960006FBAF1EE10FA05DBB0EE4B0A01F0C0F9A8
:1059700017E000BFB4EE4ABAF1EE10FAB0EE4A0AF0
:1059800008DCB4EE6FBAB0EE4B0AF1EE10FAB8BF15
:10599000B0EE6F0A01F0ACF903E000BF0A2001F09D
:1059A000BBFD00F007FF0028F8D09FED360A9DED03
:1059B00006BADDED079A04F04BFD012001F0ACFDC5
:1059C000B0EE4C0A04F028FD012001F0A5FDB0EE78
:1059D000690A00F025FF012001F09EFDB4EE4ABAED
:1059E000F1EE10FA0ADCB4EE6FBAF1EE10FA05DB54
:1059F000B0EE4B0A01F07CF917E000BFB4EE4ABAF2
:105A0000F1EE10FAB0EE4A0A08DCB4EE6FBAB0EE6E
:105A10004B0AF1EE10FAB8BFB0EE6F0A01F068F968
:105A200003E000BF0A2001F077FD00F0C3FE00286C
:105A3000F8D0002004F002FD40F6B83001F06CFD13
:105A4000DDE90604FAF76EFD064620460F46FAF732
:105A500069FD41EC100B4AF62770C0F600000221E8
:105A600032463B468DED000B04F016FD40F2541516
:105A700047460DF10808C2F20005FEF7F5BC00BF6D
:105A80000000EB4300001B43506C6163696E6720AC
:105A9000696E205A6F6E6520320D00000400000010
:105AA000050000000600000007000000816A0A07E8
:105AB0000ED4CA0717D18A0720D44A0729D4CA06A8
:105AC00032D48A063BD480B54A0644D458E000BF9D
:105AD0000268D0F838C0536823F4004343EA0C034B
