:020000040800F2
:1000000000410020ED010008115F0008E5590008DB
:100010000D5F000889130008E57300080000000068
:1000200000000000000000000000000091610008D6
:10003000DD14000800000000815F0008C5610008B1
:10004000070200080702000807020008070200086C
:10005000070200080702000807020008070200085C
:100060000702000807020008070200088D130008B5
:100070009D130008AD1300080702000807020008DE
:10008000070200080702000807020008070200082C
:1000900007020008F1140008011500080702000813
:1000A000070200080702000807020008070200080C
:1000B00007020008070200080702000807020008FC
:1000C00007020008070200080702000807020008EC
:1000D00007020008D573000807020008070200089D
:1000E00007020008070200080702000807020008CC
:1000F00007020008070200080702000807020008BC
:1001000007020008070200086D62000807020008E5
:100110006D6500087D6500087D6200080702000823
:10012000070200080702000807020008070200088B
:10013000070200080702000807020008070200087B
:10014000070200080702000807020008070200086B
:10015000070200080702000807020008070200085B
:10016000070200080702000807020008070200084B
:10017000070200080702000807020008070200083B
:10018000070200080702000807020008070200082B
:1001900007020008000000001115000821150008E2
:1001A000070200080702000807020008070200080B
:1001B00007020008070200080702000807020008FB
:1001C00007020008070200080702000807020008EB
:1001D0000702000807020008DFF80CD000F0E0FE7C
:1001E0000048004725860008004100200648804757
:1001F00006480047FEE7FEE7FEE7FEE7FEE7FEE70C
:10020000FEE7FEE7FEE7FEE759620008D9010008B5
:100210002DE9F05F0546002092469B46884606463B
:10022000814640241BE0284641464746224600F0CE
:1002300027F953465A46C01A914110D31146184621
:10024000224600F00EF92D1A67EB01084F462246B0
:100250000120002100F005F917EB00094E41201E96
:10026000A4F10104DFDC484631462A464346BDE896
:10027000F09F40EA01039B0703D009E008C9121F61
:1002800008C0042AFAD203E011F8013B00F8013B50
:10029000521EF9D27047D2B201E000F8012B491E7C
:1002A000FBD270470022F6E710B513460A46044613
:1002B0001946FFF7F0FF204610BD00000FB400B54F
:1002C0008DB010A909900B9000914FF0FF300A906B
:1002D00000200C9005480690054807906A4609A83A
:1002E0000F9900F055FC0DB05DF814FBAD0B000844
:1002F000CB0B00082DE9FE4F81EA030404F0004413
:1003000021F0004100944FF0000B23F0004350EA2D
:1003100001045ED052EA03045BD0C3F30A54C1F374
:100320000A552C44A4F2F3340194A0FB0254C1F307
:10033000130141F48011C3F3130343F4801301FB51
:10034000024400FB034E840A970A44EA815447EAB8
:100350008357A4FB076802958D0A05FB07854FEAC2
:10036000932C04FB0C542705029D4FEA065847EADC
:100370001637B5EB08056EEB070C870E920E47EAB1
:10038000811742EA8312A7FB0201B6EB0B0164EB73
:1003900000042B0D43EA0C335E1844EB1C50DA4684
:1003A0005146E7FB0201C5F313044FEA0B3343EA5E
:1003B00014534FEA0432019C43EA0603A4F10C04EF
:1003C0000294009CCDE900B400F056FC03B0BDE8F7
:1003D000F08F00200146F9E700F0004230F00040C5
:1003E0000AD0C10D01F56071C0F3160042EA015157
:1003F000C20840071143704700200146704701F0D2
:10040000004330B421F0004150EA010206D00A0D49
:10041000A2F56072C1F31301002A02DC30BC002097
:100420007047440F44EAC104C100E01830BC00EB3F
:10043000C25000F0DBBB30B50B4601460020202245
:10044000012409E021FA02F59D4205D303FA02F5E1
:10045000491B04FA02F52844151EA2F10102F1DC41
:1004600030BD202A04DB203A00FA02F10020704758
:100470009140C2F1200320FA03F3194390407047E2
:10048000202A04DB203A21FA02F00021704721FAE9
:1004900002F3D040C2F12002914008431946704750
:1004A0002DE9FF4F1C4681B00021D4E90167914638
:1004B0004FF0FF358A468846A1696D1C029888472F
:1004C000216A834688470028F6D1BBF1FF3F0CD054
:1004D00026F4C066002F1ADD700615D5BBF12B0F70
:1004E0000AD0BBF12D0F0FD104E04FF0FF3005B063
:1004F000BDE8F08F46F48066A1696D1C02988847BC
:100500007F1E8346002F02DDBBF1300F03D0B9F10F
:10051000000F2AD025E0A1696D1C46F400767F1EED
:10052000029888478346002F05DDBBF1780F06D07F
:10053000BBF1580F03D0B9F1000F10D011E0B9F1A1
:10054000000F02D0B9F1100F0BD1A1696D1C26F478
:1005500000767F1E029888478346102000E008201E
:1005600081464FEAE970009017E00A20F8E7434619
:10057000AAFB092803FB0980DDF800C07F1E0AFBE7
:100580000C0112EB0B0A41EBEB78A16946F4007603
:1005900005F10105029888478346002F06DD49468C
:1005A000584600F02CFD5FEA000BE0D5E1690298A7
:1005B0008847B00502D46FF0010098E7F00718D122
:1005C000700610D57005514605D50023D1EB030107
:1005D00063EB080200E042462068031D23600068C8
:1005E000C0E9001205E02068011D21600068C0E933
:1005F00000A828467BE72DE9FF5F1D464FF0FF3B33
:10060000D5E9014691465F464FF00008A9697F1C75
:1006100001988847296A824688470028F6D1BAF1AE
:10062000FF3F0CD024F4C064002E19DD600614D501
:10063000BAF12B0F09D0BAF12D0F0ED103E05846B5
:1006400004B0BDE8F09F44F48064A9697F1C019860
:100650008847761E8246002E02DDBAF1300F03D0A5
:10066000B9F1000F26D032E0A969761E44F4007477
:100670007F1C019888478246002E05DDBAF1780F6D
:1006800006D0BAF1580F03D0B9F1000F10D01EE018
:10069000B9F1000F02D0B9F1100F18D1A969761E77
:1006A00024F400747F1C019888478246102002E0E1
:1006B000082000E00A20814609E008FB0908A96932
:1006C000761E44F400747F1C019888478246002EF1
:1006D00005DD4946504600F092FC0028EDDAE96954
:1006E00001988847A00502D46FF00100A8E7E00751
:1006F00025D1600613D5600502D5C8F1000000E0E1
:10070000404629680A1D2A600968220501D508703B
:1007100015E0220701D5088011E008600FE0286885
:10072000011D29600068210502D580F8008006E0DF
:10073000210702D5A0F8008001E0C0F8008038460B
:100740007EE72DE9FF5FD2E901A74FF0000891692C
:1007500099461446DDF838B0464601988847054664
:1007600059EA0B0005D009E0A169761C0198884779
:100770000546216A284688470028F5D1681C03D021
:100780005FEACA7005D015E04FF0FF3004B0BDE855
:10079000F09F2068011D2160D0F800800AE05FEA28
:1007A000CA7001D108F8015BA169761C7F1E01980F
:1007B00088470546002F1ADD681C18D0B9F1000FD4
:1007C0000DD0E81705EBD060421120F01F0059F85A
:1007D00022102A1A012090400142E0D107E0BBF12B
:1007E000000FDCD1216A284688470028D7D0E1696C
:1007F00001988847BBF1000F07D1002E05DD5FEAA5
:10080000CA7002D1002188F80010A068B84203DD48
:10081000BBF1000F03D017B16FF00100B6E730460F
:10082000B4E700002DE9FF4F087883B09946FF2810
:1008300005D0491C2D2804D00024002008E0002009
:100840000BE00124F9E700EB800003EB4000491CBA
:100850000B78FF2BF7D104B14042002302931478A8
:1008600019461D462D2C01D02B2C04D1521C2D2CA9
:1008700013D000240294AA461478FF2C0FD00A2526
:10088000A3FB057801FB05814FF0000C03FB0C1165
:10089000521CE3194AEB0101EEE70124EAE7814427
:1008A00053EA010002D019F5C87F06DA0398002147
:1008B000C0E9001107B0BDE8F08F0025AE4E2F460D
:1008C000DFF8B882184600F03FFDCDE90001B9F12C
:1008D000000002DAC9F1000400E004460023A74A40
:1008E0001AEB030B42EB045A12E0E00707D02A464A
:1008F000334638464146FFF7FDFC074688462A4600
:10090000334610461946FFF7F5FC05460E466410BF
:10091000002CEAD1DDE90001B9F1000F5A46534637
:1009200006DA00F09EFA3A46434600F09AFA05E0ED
:10093000FFF7E0FC3A464346FFF7DCFC029A0AB1B7
:1009400081F00041039AC2E90001B3E72DE9FF4FAE
:100950001F468DB0D7E901464FF0FF382E2045469F
:100960004FF000090B90B9696D1C0E988847396AE1
:10097000824688470028F6D1BAF1FF3F0AD024F416
:10098000D064002E11DDBAF12B0F08D0BAF12D0F73
:100990000BD102E0404611B08DE744F48064B969A0
:1009A0006D1C0E9888478246761E6946600501D503
:1009B0002D2000E02B208DF8000001F1010B0DF13E
:1009C000200809E0B9696D1C0E98884782460F9887
:1009D00044F40074761E0560002E02DDBAF1300F7B
:1009E000F0D00B998A453ED144F0800406E00F997F
:1009F000681CA9F1010944F400740860B9696D1C10
:100A0000761E0E98884782463028F0D02BE00B994E
:100A10008A4505D1200603D444F08004761E18E0F0
:100A200050460CF0C9FB08B30DF11302761EAAF173
:100A3000300044F40074934506D20BF8010B2006F5
:100A400007D5A9F1010003E0200602D409F1010055
:100A50008146A00502D50F99681C0860B9696D1C14
:100A60000E9888478246002ED1DC53E0002E51DDDF
:100A7000BAF1650F02D0BAF1450F4BD1A00549D5A7
:100A8000B9696D1C24F44074761E0E98884782461E
:100A9000002E0CDD2B2804D0BAF12D0F07D144F421
:100AA0008074B9696D1C0E9888478246761EE005F1
:100AB00001D52D2100E02B2108F8011BCDF82C8059
:100AC00021E00DF12901761E44F4007488450CD212
:100AD000AAF1300010F0FF0088F8000002D10B9955
:100AE000884509D908F1010806E0E00501D5244848
:100AF00001E042F20F708146B9696D1C0E9888477B
:100B000082460F980560002E04DD50460CF054FB21
:100B10000028D6D1F9690E988847FF208BF800008D
:100B200088F800000020069007904B466A4608A906
:100B300006A8FFF777FEA00502D46FF001002AE7B0
:100B400014F0240F0AD0E00714D1DDE9061238684A
:100B5000031D3B600068C0E900120BE0DDE90601FF
:100B6000FFF74DFC0146E00704D13868021D3A60EA
:100B70000068016028460EE7000014400000F03FC6
:100B8000F1D8FFFF026811441378016018467047DE
:100B9000D16004495161044911620021116111467B
:100BA00000F03CBA850B0008F50F0008426842B11E
:100BB000016811F8013B23B1521EC0E9001218462A
:100BC00070470121C160881E704742685AB1C368EE
:100BD000016843B983688B4205D0491E521CC0E9A5
:100BE0000012002070474FF0FF3070470029A8BF67
:100BF0007047401C490008BF20F00100704710B446
:100C0000B0FA80FC00FA0CF050EA010404BF10BCFA
:100C1000704749B1CCF1200421FA04F411FA0CF127
:100C200018BF012121430843A3EB0C01CB1D4FEA60
:100C300000614FEA102042BF002010BC704700EB5B
:100C4000C35010440029A4BF10BC7047401C490089
:100C500008BF20F0010010BC704710B5141E73F1DE
:100C6000000408DA401C41F1000192185B411A436C
:100C700001D120F0010010BD2DE9F04D92469B46B8
:100C800011B1B1FA81F202E0B0FA80F2203290465E
:100C9000FFF7E7FB04460F4640EA0A0041EA0B0172
:100CA00053465A46084313D0114653EA010019D05F
:100CB000C8F140025046FFF7E3FB05460E4650469A
:100CC00059464246FFF7CDFB084305D0012004E01A
:100CD00020463946BDE8F08D0020054346EAE0761F
:100CE0002C4337430A986305E40AA0EB080000226E
:100CF000FD0A44EA47540A3002D500200146E9E7DC
:100D0000010510196941DDE9084500196941BDE88F
:100D1000F04DA2E72DE9FE4F804681EA0300C00FA7
:100D20000C46009021F0004123F00045B8EB020092
:100D3000A94105D24046214690461C460B46024634
:100D400023F00040104347D0270DC7F30A00C3F338
:100D50000A510290401A019040286BDAC3F3130045
:100D600040F4801B0098924620B10023D2EB030A86
:100D700063EB0B0B01985946C0F140025046FFF758
:100D800070FB06460D4650465946019A00F020F980
:100D900010EB08006141002487EA115284EAE773EE
:100DA0001A4340D0009A62B3019A012A4FEA0752CF
:100DB00015DC001B61EB02014FF0004202EA075212
:100DC000CDE90042001C41F5801132462B46FFF769
:100DD00053FF03B0BDE8F08F40462146F9E7001B02
:100DE00061EB0201001C41F5801300185B412018E3
:100DF000A2F5001747EB030140EAD570B6196D4123
:100E000011E06D084FEA360645EAC0754FEA075211
:100E1000001B61EB0201001C41F5801149084FEAFB
:100E200030000019514132462B4603B0BDE8F04F67
:100E3000FFF713BF0098012240000023D0EB02020D
:100E400063EBE073009821464FEAE074B8EB0000D2
:100E500061EB0401E9E783F000435BE781F00041C7
:100E600058E72DE9F04D81EA030404F0004B21F02E
:100E7000004514464FF0000A23F0004150EA0502F5
:100E800020D054EA01021DD0C5F30A570246C5F32B
:100E90001303C1F31300C1F30A5640F4801543F461
:100EA0008013A7EB0608101BD64608F2FD3873EB3B
:100EB000050002D308F1010801E092185B41B8F186
:100EC000000F03DA00200146BDE8F08D00204FF44A
:100ED0008011064684460EE0171B73EB050705D309
:100EE000121B63EB050306434CEA010C49084FEA69
:100EF000300092185B4150EA0107EDD152EA03003D
:100F000012D082EA040083EA0501084305D0101BD1
:100F1000AB4106D20122002306E000224FF000433D
:100F200002E06FF0010253101AEB06004CEB08517F
:100F300010EB0A0041EB0B01BDE8F04DFFF78DBE51
:100F4000C1F30A52C1F3130140F2FF3341F480119F
:100F50009A4202DA00200146704740F233439A4237
:100F6000A2F2334202DC5242FFF78ABAFFF779BAA3
:100F700030B5041E71F1000404DB4FF00044404220
:100F800064EB0101141E73F1000405DB1C464FF0F5
:100F90000043524263EB0403994208BF904230BDC4
:100FA0001CB509480090094801900546009C06E0E0
:100FB000E06840F0010394E8070098471034AC4221
:100FC000F6D3FFF70DF9000020DC000840DC000834
:100FD000202A06DBCB17203A41FA02F043EAE073FD
:100FE00006E041FA02F3D040C2F1200291400843EA
:100FF00019467047C0B24FF4F05100F0B1B93A2829
:1010000000D2303820F02002412A01D3A2F137006B
:10101000884201D34FF0FF30704700002DE9F34FB5
:101020008BB04FF0000801F10C000C464FF0010BA3
:1010300046460DF1080A0190626901210198904726
:10104000051E2DD0252D2CD0216A8847C0B162699C
:10105000012101989047216A88470028F7D1411E55
:1010600062690198904700E0761CA1690B98884757
:10107000216A88470028F7D1E1690B988847DBE7A8
:10108000A1690B9888470746A84201D1761CD3E78F
:10109000E1690B9888477F1C02D1B8F1000F6FD02F
:1010A00046E1002762693D463946019890472A2863
:1010B00004D162690121019890470125DFF88492EB
:1010C0006269012101989047A0F130010A290AD2F2
:1010D0004F45E5DC07EB870100EB4107303FDFD4EC
:1010E00045F01005ECE7E90601D46FF000476C28E5
:1010F0000AD04C2814D0682815D06A280DD074283E
:101100001CD07A281AD01DE062690121019890470D
:101110006C2802D045F0040514E045F002050DE00E
:1011200045F020050AE0626901210198904768288E
:1011300002D045F0080505E045F40065626901212B
:1011400001989047C4E9015765283DD019DC58281B
:101150007AD00CDC452837D004DC252826D041285D
:1011600031D131E046282FD047282CD12CE05B2804
:1011700077D0612828D063287CD0642823D15AE016
:10118000D0E06F2848D008DC66281DD067281BD027
:10119000692821D06E2816D127E0702845D0732801
:1011A00068D0752847D078280DD14DE0A1690B98FB
:1011B0008847054625283FF469AFE1690B988847C1
:1011C0006D1C3FF46AAFB3E023466A466FF001003E
:1011D0000B99FFF7BBFB9EE045F040006060A8075D
:1011E00023464FF0000236D43EE0E8077FF447AFD5
:1011F0002068011D21600068290501D506701BE7E4
:10120000290701D5068017E7A90703D5F117C0E91B
:10121000006111E706600FE745F040006060A80735
:1012200023464FF0080216D41EE040F60E0125EAD0
:101230000100606016E045F040006060A8072346AA
:101240004FF00A0207D40FE045F040006060A807A5
:1012500008D5234610226FF001000B99FFF720F903
:1012600059E007E0234610226FF001000B99FFF7C9
:10127000C2F950E04FF000094F464B46632802D0B8
:101280005B2806D040E0E80601D40120A0600127D9
:101290003AE062690121019890475E2805D14FF03C
:1012A00001096269494601989047216939B90021CD
:1012B0000A46534643F82120491C0829FADBB0B3FB
:1012C000216969B9C11700EBD16253110AEB83019F
:1012D00022F01F02821A01200B68904003430B602A
:1012E00062690121019890475D28E8D1B9F1000FAA
:1012F00009D00020514651F82020D24341F8202047
:10130000401C0828F7DB02AB224600976FF0010073
:101310000B99FFF716FA00280CDA401C08D1BBF134
:10132000000F05D04FF0FF300DB0BDE8F08FFFE7A4
:101330004046F9E7E90701D108F1010806444FF0FA
:10134000000B79E6CCCCCC0C0EB540F233420292C5
:101350000022CDE900221346FFF78EFC03B000BD4A
:101360007F2801D9002208E0064A02EB5002C0079C
:10137000127800D1120902F00F02012090400840BB
:1013800070470000F6D80008FFE7FEE780B541F29D
:101390002860C2F2000000F043FA80BD80B541F23F
:1013A000C850C2F2000000F03BFA80BD80B541F2A7
:1013B0006850C2F2000000F033FA80BD84B00390A0
:1013C0000398006840F20741C4F20201884206D83F
:1013D000FFE740F60000C4F20200009005E040F68E
:1013E0002000C4F202000090FFE7009802900398EA
:1013F000007808384CF6CD41CCF6CC41A0FB01106A
:1014000000090190029803994A6C22F003021044EB
:101410008864039940F68000C4F20200C864019811
:1014200000F01F01012088400399086504B070474F
:1014300082B00190019800790090009940F6FC007C
:10144000C4F2020000EB810001994865019940F661
:101450004010C4F2020088650098013800F01F01B6
:10146000012088400199C86502B0704784B003909C
:101470000291019200930398C16C006D486003983B
:10148000406D28B1FFE70398816DC06D4860FFE7AC
:101490000398016C406C00F01F02012090404860EE
:1014A000009803990968486003988068102809D15A
:1014B000FFE7019803990968886002980399096811
:1014C000C86008E002980399096888600198039948
:1014D0000968C860FFE704B070470000704700006B
:1014E00081B0EFF3108072B60090FFE7FEE70000D6
:1014F00080B541F28860C2F2000000F0B5FE80BD08
:1015000080B541F28860C2F2000000F0ADFE80BDFF
:1015100080B541F2EC60C2F2000000F0A5FE80BD93
:1015200080B541F2EC60C2F2000000F09DFE80BD8B
:1015300083B002904AF20040C4F20000009002988A
:10154000006846F60001C4F20001884205D1FFE7B9
:10155000009800F554700090FFE70298006846F686
:101560000041C4F20001884205D1FFE7009800F570
:10157000D4600090FFE70098029908640298006820
:10158000D0F8800020F4F810029A1168526B40EAFB
:101590000240C1F8800000987030029948640298B7
:1015A0000068D0F8800020F07060029A1168926B99
:1015B00040EA0260C1F880000098B0300299886467
:1015C000009800F5C4700299C864009800F518707E
:1015D00002990865009800F51E7002994865009808
:1015E0000190FFE70198009901F55471884208D2F3
:1015F000FFE7019900200860FFE70198043001909F
:10160000F0E703B07047000088B00790069105929C
:1016100004930698406848B9FFE706980168826815
:101620000069104340EA8140039009E00698016890
:10163000826800691043084340F080400390FFE750
:101640000698D0F820C0C16842698369C06940EA41
:101650000C601843104340EA014002900798406D27
:10166000049901EBC10100EBC100019003980199BD
:10167000086001980430019002980199086001986F
:101680000430019000200090FFE700980699CA6896
:101690004DF64E11C0F60001895C88420DD2FFE77D
:1016A000059800994058019908600198043001900C
:1016B000FFE7009804300090E7E708B070470000AB
:1016C00082B0019000208DF80300019890F8250069
:1016D000022807D0FFE701990420C86301208DF894
:1016E00003002DE001980168086820F00E000860F2
:1016F0000198816C086820F4807008600198016886
:10170000086820F0010008600198016C406C00F04E
:101710001F020120904048600198C16C006D486034
:101720000198406D58B1FFE70198416D086820F4B9
:10173000807008600198816DC06D4860FFE7FFE729
:101740000199012081F82500FFE70199002081F827
:101750002400FFE79DF8030002B0704780B582B017
:10176000019000208DF80300019890F825000228D0
:1017700011D0FFE701990420C8630199012081F885
:101780002500FFE70199002081F82400FFE70120F0
:101790008DF803003FE001980168086820F00E0012
:1017A000086001980168086820F00100086001984D
:1017B000816C086820F4807008600198016C406CAE
:1017C00000F01F020120904048600198C16C006D3C
:1017D00048600198406D58B1FFE70198416D086875
:1017E00020F4807008600198816DC06D4860FFE74B
:1017F0000199012081F82500FFE70199002081F877
:101800002400FFE70198806B20B1FFE70198816B0E
:101810008847FFE7FFE79DF8030002B080BD0000A6
:1018200080B584B003900398006C00680290039820
:1018300000680068019002980399496C01F01F014B
:10184000C8404007002825D5FFE79DF80400400761
:1018500000281FD5FFE7039800680068800600286D
:1018600007D4FFE703980168086820F004000860C7
:10187000FFE70398016C406C00F01F0204209040C9
:1018800048600398006B20B1FFE70398016B88471D
:10189000FFE76EE002980399496C01F01F01C84010
:1018A000800700282FD5FFE79DF804008007002857
:1018B00029D5FFE7039800680068800600280BD44C
:1018C000FFE703980168086820F00A0008600399A0
:1018D000012081F82500FFE70398016C406C00F0BF
:1018E0001F02022090404860FFE70399002081F822
:1018F0002400FFE70398C06A20B1FFE70398C16A9C
:101900008847FFE734E002980399496C01F01F0112
:10191000C8400007002829D5FFE79DF8040000070C
:10192000002823D5FFE703980168086820F00E001F
:1019300008600398026C406C00F01F01012000FA5F
:1019400001F151600399C863039981F82500FFE70D
:101950000399002081F82400FFE70398406B20B131
:10196000FFE70398416B8847FFE700E0FFE7FFE7E9
:10197000FFE704B080BD000080B584B002900298FB
:1019800020B9FFE701208DF80F009CE00298006865
:1019900040F20741C4F20201884218D8FFE70299D9
:1019A00008684FF6F872CBF6FD7210444CF6CD4243
:1019B000CCF6CC42A0FB02026FF0030000EA9200DA
:1019C000486402990020C4F20200086418E00299F9
:1019D00008684FF6F832CBF6FD7210444CF6CD4253
:1019E000CCF6CC42A0FB02026FF0030000EA9200AA
:1019F0004864029940F20040C4F202000864FFE724
:101A00000299022081F82500029800680068019080
:101A1000019847F6F0718843019002998868D1F8DF
:101A20000CC00B694A6940EA0C00184310438A69EC
:101A30001043CA691043096A0143019808430190A1
:101A400001980299096808600298FFF7B7FC0298AC
:101A50008068B0F5804F04D1FFE70299002048600C
:101A6000FFE702990879896C08600298C16C006DE3
:101A700048600298406888B1FFE7029840680428EF
:101A80000CD8FFE70298FFF7D3FC0298416D0020C5
:101A900008600298816DC06D486007E002990020DF
:101AA0004865029988650299C865FFE70299002098
:101AB000C863029A012182F82510029981F8240056
:101AC0008DF80F00FFE79DF80F0004B080BD000007
:101AD00080B586B0049003910292019300208DF8A6
:101AE0000300FFE7049890F82400012804D1FFE7E1
:101AF00002208DF8170065E00499012081F8240088
:101B0000FFE7FFE7049890F8250001284BD1FFE795
:101B10000499022081F8250004990020C8630498E4
:101B20000168086820F00100086004980399029A8F
:101B3000019BFFF79BFC0498006B38B1FFE704980A
:101B40000168086840F00E0008600CE00498016825
:101B5000086820F00400086004980168086840F0F4
:101B60000A000860FFE70498806C0068C003002842
:101B700007D5FFE70498816C086840F4807008601E
:101B8000FFE70498406D38B1FFE70498416D08689D
:101B900040F480700860FFE704980168086840F02E
:101BA0000100086009E0FFE70499002081F82400A3
:101BB000FFE702208DF80300FFE79DF803008DF892
:101BC0001700FFE79DF8170006B080BD86B00490AF
:101BD00003910292049890F85C008DF80700BDF81C
:101BE0000C0010F4C07F01D0FFE7FFE79DF807006D
:101BF000012806D0FFE79DF80700022840F0DE80AC
:101C0000FFE704980068806D00909DF80C00400785
:101C100030B1FFE79DF80000C007002847D0FFE77C
:101C20009DF80C0010F0380F06D0FFE79DF800007B
:101C3000800700283BD5FFE7BDF80C0010F4E07FDB
:101C400006D0FFE79DF80000400700282FD5FFE7EA
:101C50009DF80D0010F01E0F06D0FFE79DF8000064
:101C60000007002823D5FFE79DF80D0010F0E00FD6
:101C700006D0FFE79DF80000C006002817D5FFE753
:101C80009DF80E00800730B1FFE79DF80000800648
:101C900000280CD5FFE79DF80E0010F0FC0F0DD0CA
:101CA000FFE79DF800004006002807D4FFE70498EE
:101CB0000168C86D40F00100C865FFE79DF80C00A1
:101CC000400730B1FFE79DF80000C007002847D16A
:101CD000FFE79DF80C0010F0380F06D0FFE79DF8E5
:101CE0000000800700283BD4FFE7BDF80C0010F48B
:101CF000E07F06D0FFE79DF80000400700282FD4C2
:101D0000FFE79DF80D0010F01E0F06D0FFE79DF8CD
:101D100000000007002823D4FFE79DF80D0010F015
:101D2000E00F06D0FFE79DF80000C006002817D49A
:101D3000FFE79DF80E00800730B1FFE79DF8000037
:101D4000800600280CD4FFE79DF80E0010F0FC0F71
:101D50000DD0FFE79DF800004006002807D5FFE7FB
:101D600004980168C86D40F00200C865FFE79DF85F
:101D70000C000006002809D5FFE7029A04980168C4
:101D8000D1F8DC001043C1F8DC00FFE79DF80D003E
:101D9000C00748B1FFE7029A04980168D1F8E00053
:101DA0001043C1F8E000FFE7039A04980168486D0A
:101DB0001043486500208DF8170008E00499086E6C
:101DC00040F00200086601208DF81700FFE79DF83B
:101DD000170006B07047000080B586B004900391EC
:101DE00002920398406808B9FFE700E0FFE7049813
:101DF00090F85C0002282FD1FFE704980068D0F823
:101E0000C4008002002809D5FFE70499086E40F459
:101E10000070086601208DF8170026E0049800681D
:101E2000D0F8C400C0F30140019004980399029ACD
:101E3000019BFFF7E9FB0199012000FA01F1049AE7
:101E40001268C2F8CC100199884004998865FFE7B0
:101E500000208DF8170008E00499086E40F0080093
:101E6000086601208DF81700FFE79DF8170006B0FF
:101E700080BD000087B005900491059890F85C0043
:101E80008DF803009DF80300012805D0FFE79DF8B9
:101E9000030002283CD1FFE704980068B8B9FFE7C7
:101EA00004998868CB680A694969800740EAC36079
:101EB00040EA0240084303900598006C0499496881
:101EC00000EB810001900398019908601CE00498E0
:101ED000C168006940EA41700390049881684069D4
:101EE00040EA817002900598406C0499496800EBC3
:101EF000C100019003980199086001980430019095
:101F0000029801990860FFE700208DF81B0008E0A7
:101F10000599086E40F00200086601208DF81B004C
:101F2000FFE79DF81B0007B07047000085B0DDF8A3
:101F300014C00390029101920093039890F85C0002
:101F4000012819D1FFE703980068D0F8800020F03D
:101F50003F0002990901019A41EA8201009A41EA8F
:101F60004201059A1143084303990968C1F88000AA
:101F700000208DF8130008E00399086E40F004007B
:101F8000086601208DF81300FFE79DF8130005B0E7
:101F90007047000081B0009001B0704780B582B0FA
:101FA000019000919DF80200000700283ED5FFE750
:101FB000019801684FF4002008650198006846F216
:101FC0000041C4F20001884209D1FFE703F04CFD53
:101FD00041F28860C2F2000006F062F925E0019843
:101FE000006846F60001C4F20001884209D1FFE70B
:101FF00003F06CFD41F2EC60C2F2000006F050F913
:1020000012E00198006846F60041C4F200018842DF
:1020100009D1FFE703F08CFD41F25070C2F20000DD
:1020200006F03EF9FFE7FFE7FFE7FFE702B080BDFC
:102030008AB00890079106920593002001900898B5
:1020400090F85C008DF803009DF80300022840F032
:10205000FA80FFE7079840283ED1FFE7089800681C
:10206000D0F89000000748B9FFE70899086E40F4DF
:102070008070086601208DF82700EDE00898006860
:10208000D0F8900000F080710120B0EB116F0FD1FB
:10209000FFE708980068D0F8800000F40071012084
:1020A000B0EB512F03D1FFE701200190FFE7FFE7DD
:1020B00008980068D0F8900000F44071019800EB97
:1020C000112001900898806C019901EBC10100EB8F
:1020D000C1000490FFE73DE008980068D0F8980040
:1020E000000748B9FFE70899086E40F48070086659
:1020F00001208DF82700AFE008980068D0F898001C
:1021000000F080710120B0EB116F0FD1FFE708984C
:102110000068D0F8800000F480710120B0EB112F2E
:1021200003D1FFE701200190FFE7FFE7089800686F
:10213000D0F8980000F44071019800EB1120019054
:102140000898C06C019901EBC10100EBC10004903B
:10215000FFE7FFE70498006800F0804006994860B8
:102160000698406838B9FFE704980068C0F38A40D1
:102170000699086006E00498006820F0604006991F
:102180000860FFE70498006800F000500699886036
:102190000498006800F00040069908610498043033
:1021A0000490049800880699C86104980068C0F3F8
:1021B00003400699C8600498006800F480100699EE
:1021C00048610498006800F400100699886104983A
:1021D0000068C0F306600699086204980068C00FA2
:1021E00006994862049804300490049803900020F3
:1021F0000290FFE702980699CA684DF64E11C0F6A4
:102200000001895C88420AD2FFE70398029A805C49
:1022100005998854FFE7029801300290EAE7079891
:10222000402806D1FFE7019808990968C1F8940091
:1022300005E0019808990968C1F89C00FFE70020B3
:102240008DF8270008E00899086E40F0080008663D
:1022500001208DF82700FFE79DF827000AB070479E
:1022600081B0009001B0704780B58AB0099009989C
:102270000068006D00F4E050089009980068416D16
:1022800008980840089009980068006D00F0070061
:10229000079009980068416D0798084007900998D1
:1022A0000068006D00F03800069009980068416DE4
:1022B00006980840069009980068006D00F47100C7
:1022C000059009980068416D0598084005900998A7
:1022D0000068006D00F46020049009980068416D6A
:1022E00004980840049009980068406D019009988E
:1022F0000068006D00909DF8000000F04001002093
:10230000B0EB911F12D0FFE79DF8040000F04001F0
:102310000020B0EB911F08D0FFE70998016840202A
:1023200008650998FFF79CFFFFE7FFE79DF80100AC
:10233000C007E0B1FFE79DF80500C007B0B1FFE7B7
:1023400009980068D0F8D800029009980068D0F881
:10235000E010029808400290099801684FF48070DC
:1023600008650998029900F0BFFBFFE7FFE70898AE
:1023700048B1FFE70898099909680865099808991C
:1023800000F0BEFBFFE7079848B1FFE707980999FF
:10239000096808650998079900F056FBFFE7069859
:1023A00048B1FFE7069809990968086509980699F0
:1023B00000F05AFBFFE79DF8010000F00201002049
:1023C000B0EB510F13D0FFE79DF8050000F00201BC
:1023D0000020B0EB510F09D0FFE7099801684FF4D6
:1023E00000700865099800F091FBFFE7FFE79DF892
:1023F00000100020B0EBD11F1DD0FFE79DF80410A6
:102400000020B0EBD11F15D0FFE709980068D0F885
:10241000D400039009980068D0F8DC1003980840B5
:10242000039009980168802008650998039900F0D5
:1024300061FBFFE7FFE79DF8010000F020010020AD
:10244000B0EB511F13D0FFE79DF8050000F020010D
:102450000020B0EB511F09D0FFE7099801684FF445
:1024600000500865099800F03BFBFFE7FFE79DF887
:1024700001100020B0EBD11F11D0FFE79DF805102F
:102480000020B0EBD11F09D0FFE7099801684FF495
:1024900000400865099800F01FFBFFE7FFE79DF883
:1024A000010000F040010020B0EB911F15D0FFE7C4
:1024B0009DF8050000F040010020B0EB911F0BD00B
:1024C000FFE7099801684FF4804008650999086E94
:1024D00040F080000866FFE7FFE7049848B1FFE797
:1024E000049809990968086509980499FFF756FD49
:1024F000FFE7059850B1FFE7059809990968086555
:10250000059A0999086E10430866FFE70998006E5E
:1025100020B1FFE70998FFF73DFDFFE70AB080BD56
:1025200080B584B00290029820B9FFE701208DF8B1
:102530000F0057E10298006846F20041C4F2000122
:10254000884201D1FFE7FFE702988068B0F5407F3D
:1025500001D1FFE7FFE7029890F85C0040B9FFE780
:102560000299002081F85D00029800F03FF9FFE732
:1025700002980168886920F01000886100F094FCDE
:102580000190FFE70298006880690007002815D5D0
:10259000FFE700F089FC0199401A0B280DD3FFE7F3
:1025A0000299086E40F0010008660299032081F844
:1025B0005C0001208DF80F0014E1E3E70298016848
:1025C000886940F00100886100F06EFC0190FFE72F
:1025D000029800688069C007A8B9FFE700F064FCB2
:1025E0000199401A0B280DD3FFE70299086E40F0BD
:1025F000010008660299032081F85C0001208DF833
:102600000F00EFE0E4E702980168886940F00200FB
:1026100088610298006846F20041C4F200018842D5
:1026200008D1FFE70298406846F20051C4F2000169
:102630000860FFE70298007C012807D1FFE70298B5
:102640000168886920F04000886106E0029801680E
:10265000886940F040008861FFE70298407C0128CB
:1026600007D1FFE702980168886940F480408861DB
:1026700006E002980168886920F480408861FFE7DD
:102680000298807C012807D1FFE7029801688869D9
:1026900020F48050886106E002980168886940F45F
:1026A00080508861FFE702980068806920F44070DC
:1026B000029A1168926810438861029801688869DB
:1026C00020F0A400886102980168086920F01000D9
:1026D00008610298C068012807D1FFE702980168E5
:1026E000886940F0040088612BE00298C06830B32C
:1026F000FFE70298C068022819D0FFE70298016836
:10270000886940F08000886102980168086940F09B
:10271000100008610298C068032807D1FFE70298FB
:102720000168886940F020008861FFE706E00298B0
:102730000168886940F020008861FFE700E0FFE75A
:10274000FFE7029A116853699069D2F81CE0A0F182
:10275000010C6FF0FF0000EB0E2040EA4C60126AA3
:10276000013A10430022CFF6FF7202EB03421043FE
:10277000C86102988068B0F5407F1CD1FFE7029ADB
:102780001168536A906AD2F82CE001386FF0FF0CA0
:102790000CEB0E2C40EA0C00D2F830C06FF00F02A8
:1027A00002EB0C1210430022CFF6FF7202EB034241
:1027B0001043C860FFE702980168C26BD1F8C000FF
:1027C0001043C1F8C0000298FEF7B2FE0299002043
:1027D000886502990866029A012182F85C108DF8DA
:1027E0000F00FFE79DF80F0004B080BD80B5AAB0D0
:1027F00029900020289027902690259024900FA8BB
:102800005421FDF74FFD2998006846F20041C4F2BB
:10281000000188425CD1FFE74FF480500F904FF0E9
:1028200000701D900FA800F00DFD18B1FFE7FEF736
:1028300057FEFFE740F23000C2F2000001680131AC
:1028400001600068012810D1FFE7FFE741F258005E
:10285000C4F20200016841F000710160006800F0FC
:1028600000700E900E98FFE7FFE7FFE741F24C0083
:10287000C4F20200016841F001010160006800F04B
:1028800001000D900D98FFE74FF4C05024900220F6
:1028900025900020079026902790092028904FF03F
:1028A000904024A900F036F9079A152005900521DB
:1028B000069100F0C3FB059800F0B6FB0699079A55
:1028C0001620089000F0BAFB089800F0ADFBB9E0C4
:1028D0002998006846F60001C4F2000188425ED1E2
:1028E000FFE74FF480500F904FF000701D900FA83D
:1028F00000F0A8FC18B1FFE7FEF7F2FDFFE740F299
:102900003000C2F200000168013101600068012856
:1029100010D1FFE7FFE741F25800C4F2020001685E
:1029200041F000710160006800F000700C900C989C
:10293000FFE7FFE7FFE741F24C00C4F20200016845
:1029400041F002010160006800F002000B900B985A
:10295000FFE74FF440502490022025900020039080
:10296000269027900920289040F20040C4F60000ED
:1029700024A900F0CFF8039A562001900521029176
:1029800000F05CFB019800F04FFB0299039A57207E
:10299000049000F053FB049800F046FB51E02998A6
:1029A000006846F60041C4F20001884248D1FFE7C2
:1029B0004FF480500F904FF000701D900FA800F062
:1029C00041FC18B1FFE7FEF78BFDFFE740F2300056
:1029D000C2F200000168013101600068012810D1D5
:1029E000FFE7FFE741F25800C4F20200016841F03E
:1029F00000710160006800F000700A900A98FFE71B
:102A0000FFE7FFE741F24C00C4F20200016841F029
:102A100001010160006800F0010009900998FFE7DA
:102A20004FF401402490022025900020269027900A
:102A30000B2028904FF0904024A900F06BF8FFE79E
:102A4000FFE7FFE72AB080BD80B582B0019000911A
:102A50009DF80000C00728B1FFE70198402105F06C
:102A600001FDFFE702B080BD80B582B0019000910A
:102A70009DF800000007002805D5FFE701984121D7
:102A800005F0F0FCFFE702B080BD000082B00090CE
:102A9000009890F85C00012810D1FFE7009902200F
:102AA00081F85C0000980168886920F00100886165
:102AB0000099002008668DF8070008E00099086E6C
:102AC00040F00400086601208DF80700FFE79DF83C
:102AD000070002B07047000081B0009001B070475D
:102AE00081B0009001B0704782B00190009102B0B7
:102AF0007047000082B00190009102B07047000062
:102B000082B00190009102B07047000081B0009047
:102B100001B070478BB00A90099100200890FFE740
:102B2000099800680899C840002800F0A581FFE7CF
:102B300009980068089A0121914008400790079879
:102B4000002800F09581FFE70998406800F0030035
:102B5000012807D0FFE70998406800F00300022829
:102B60002FD1FFE70A98806806900898410003205B
:102B700000FA01F10698884306900998C068089900
:102B8000490000FA01F106980843069006980A9950
:102B900088600A98406806900899012000FA01F1BF
:102BA00006988843069009984068C0F30010089979
:102BB00000FA01F106980843069006980A994860C1
:102BC000FFE70998406800F00300032818D0FFE7EA
:102BD0000A98C068069008984100032000FA01F1A5
:102BE000069888430690099880680899490000FA79
:102BF00001F106980843069006980A99C860FFE715
:102C00000998406800F00300022826D1FFE70A98DF
:102C100008996FF0030202EA51010844006A069025
:102C2000089800F0070081000F2000FA01F10698D3
:102C30008843069009980069089901F00701890006
:102C400000FA01F106980843069006980A99089B35
:102C500002EA530211440862FFE70A9800680690EE
:102C600008984100032000FA01F106988843069075
:102C70000998406800F003000899490000FA01F142
:102C800006980843069006980A9908600998807982
:102C90008007002800F0EB80FFE7FFE741F26000CB
:102CA000C4F20200016841F001010160006800F017
:102CB000010005900598FFE7089820F0030008211F
:102CC000C4F2010140580690089800F0030081000A
:102CD0000F2000FA01F10698884306900A98B0F197
:102CE000904F03D1FFE70020049042E00A9840F2A1
:102CF0000041C4F60001884203D1FFE701200390A0
:102D000034E00A9840F60001C4F60001884203D17D
:102D1000FFE70220029026E00A9840F60041C4F640
:102D20000001884203D1FFE70320019018E00A98D0
:102D300041F20001C4F60001884203D1FFE70420FC
:102D400000900AE00A9941F20042C4F6000206200F
:102D5000914208BF05200090FFE700980190FFE72F
:102D600001980290FFE702980390FFE70398049010
:102D7000FFE70498089901F00301890000FA01F1C6
:102D80000698084306900698089921F00301082246
:102D9000C4F20102885040F20840C4F20100006809
:102DA0000690079906988843069009988079C0068E
:102DB000002805D5FFE70799069808430690FFE726
:102DC000069840F20841C4F20101086040F20C404C
:102DD000C4F201000068069007990698884306909F
:102DE000099880798006002805D5FFE7079906989D
:102DF00008430690FFE7069840F20C41C4F2010137
:102E0000086040F20440C4F201000068069007998F
:102E1000069888430690099880798007002805D590
:102E2000FFE70799069808430690FFE7069840F2E7
:102E30000441C4F20101086040F20040C4F2010004
:102E4000006806900799069888430690099880794B
:102E5000C00728B1FFE70799069808430690FFE7E7
:102E6000069840F20041C4F201010860FFE7FFE765
:102E700008980130089053E60BB0704782B001907B
:102E8000ADF802108DF801209DF8010028B1FFE790
:102E9000BDF802000199886104E0BDF802000199C3
:102EA0008862FFE702B0704742F61C70C2F2000071
:102EB0000068704740F22000C2F20000026842F64B
:102EC0001C71C2F2000108681044086070470000DD
:102ED00080B582B000208DF80700032000F0C6F80E
:102EE0000F2000F00DF820B1FFE701208DF807005A
:102EF00002E000F06FF8FFE79DF8070002B080BD28
:102F000080B58CB00B90002005900490FFE741F253
:102F10005800C4F20200016841F008010160006835
:102F200000F0080001900198FFE706A803A900F04F
:102F3000AFFD00F0DDFD059005984DF68361C4F20C
:102F40001B31A0FB01014FF0FF3000EB91400490DA
:102F500041F2B470C2F2000040F60041C4F2000138
:102F6000016040F2E731C1600499416000210161D4
:102F7000816001F015FB8DF80B009DF80B0028BB5C
:102F8000FFE741F2B470C2F2000001F085FB8DF85A
:102F90000B009DF80B00C0B9FFE7322000F044F8A9
:102FA0000B980F280CD8FFE70B993220002200F075
:102FB00045F80B9840F22401C2F20001086003E0DA
:102FC00001208DF80B00FFE7FFE7FFE79DF80B00FE
:102FD0000CB080BD80B582B0FFE741F26000C4F262
:102FE0000200016841F001010160006800F0010089
:102FF00001900198FFE7FFE741F25800C4F2020098
:10300000016841F080510160006800F0805000903C
:103010000098FFE76FF001000F21002200F00EF88A
:1030200000F006F902B080BD80B582B08DF80700CF
:103030009DF9070004F0D8F902B080BD80B586B0D4
:103040008DF817000491039204F0E6F902909DF9BF
:103050001700019002980499039A02F05BFF014661
:10306000019804F0E1F906B080BD000080B582B09F
:103070000190019804F01CFA02B080BD85B0039065
:10308000039800285ED1FFE747F20000C4F2000079
:10309000006800F4C060B0F5806F49D1FFE747F2E7
:1030A0008001C4F20001086820F48070086047F2D3
:1030B0000002C4F200021168012060F34A2111608D
:1030C00040F20401C2F200010968322251434DF678
:1030D0008362C4F21B32A1FB022100EB91400290FB
:1030E000FFE747F21400C4F2000001680020490520
:1030F0000029019006D5FFE70298002818BF01209B
:103100000190FFE70198C00720B1FFE7029801385E
:103110000290E6E747F21400C4F2000000684005A0
:10312000002804D5FFE703208DF813007CE008E0B9
:1031300047F28001C4F20001086820F48070086042
:10314000FFE76DE00398B0F5007F5ED1FFE747F23F
:103150000000C4F20000006800F4C060B0F5806FA9
:1031600049D1FFE747F28001C4F20001086840F44A
:103170008070086047F20002C4F20002116801206A
:1031800060F34A21116040F20401C2F200010968B3
:10319000322251434DF68362C4F21B32A1FB02215D
:1031A00000EB91400290FFE747F21400C4F20000E8
:1031B0000168002049050029009006D5FFE7029824
:1031C000002818BF01200090FFE70098C00720B139
:1031D000FFE7029801380290E6E747F21400C4F2D4
:1031E000000000684005002804D5FFE703208DF8A3
:1031F000130019E008E047F28001C4F200010868FA
:1032000040F480700860FFE709E047F20001C4F273
:1032100000010868022262F34A200860FFE7FFE726
:1032200000208DF81300FFE79DF8130005B07047EC
:1032300047F20801C4F20001086840F480400860C9
:103240007047000080B586B0059000208DF80B0017
:103250008DF80A00059880780007002840F1B580B5
:10326000FFE700208DF8090041F25800C4F2020087
:103270000068C000002813D4FFE7FFE741F25800C0
:10328000C4F20200016841F080510160006800F062
:10329000805001900198FFE701208DF80900FFE7B9
:1032A00047F20001C4F20001086840F48070086031
:1032B000FFF7FAFD0390FFE747F20000C4F20000B9
:1032C0000068C00500280CD4FFE7FFF7EDFD039967
:1032D000401A032804D3FFE703208DF80B0000E019
:1032E000EAE79DF80B0000285BD1FFE741F2900070
:1032F000C4F20200006800F4407004900498C8B161
:10330000FFE704980599096D884213D0FFE741F261
:103310009001C4F20201086820F44070049008682B
:1033200040F480300860086820F480300860049819
:103330000860FFE79DF81000C007E0B1FFE7FFF766
:10334000B3FD0390FFE741F29000C4F20200006871
:10335000800700280ED4FFE7FFF7A6FD0399401A67
:1033600041F28931884204D3FFE703208DF80B0036
:1033700000E0E8E7FFE79DF80B0060B9FFE741F2E6
:103380009001C4F20201086820F44070059A126DA1
:103390001043086004E09DF80B008DF80A00FFE779
:1033A00004E09DF80B008DF80A00FFE79DF8090086
:1033B000012809D1FFE741F25801C4F2020108686F
:1033C00020F080500860FFE7FFE705980078C0070D
:1033D00060B1FFE741F28801C4F20201086820F001
:1033E0000300059A526810430860FFE705980078CB
:1033F000800700280CD5FFE741F28801C4F20201E2
:10340000086820F00C00059A926810430860FFE7F6
:1034100005980078400700280CD5FFE741F28801A5
:10342000C4F20201086820F03000059AD268104307
:103430000860FFE705980078000700280CD5FFE733
:1034400041F28801C4F20201086820F0C000059A28
:10345000126910430860FFE705980078C00600284D
:103460000CD5FFE741F28801C4F20201086820F49C
:103470004070059A526910430860FFE7059800788C
:10348000800600280CD5FFE741F28801C4F2020152
:10349000086820F44060059A926910430860FFE7CD
:1034A00005980078400600280CD5FFE741F2880116
:1034B000C4F20201086820F44050059AD269104312
:1034C0000860FFE705980078000600280CD5FFE7A4
:1034D00041F28801C4F20201086820F44040059AD4
:1034E000126A10430860FFE705984078C00760B192
:1034F000FFE741F28801C4F20201086820F440307D
:10350000059A526A10430860FFE7059880788007A3
:1035100000280CD5FFE741F29C01C4F202010868C3
:1035200020F00300059A926A10430860FFE70598AF
:103530004078800700280CD5FFE741F28801C4F2EB
:103540000201086820F44020059AD26A10430860FE
:10355000FFE705984078400700281BD5FFE741F2B8
:103560008801C4F20201086820F44010059A126B29
:10357000104308600598006BB0F5801F09D1FFE784
:1035800041F20C01C4F20201086840F480100860A6
:10359000FFE7FFE705984078000700281BD5FFE705
:1035A00041F28801C4F20201086820F44000059A43
:1035B000526B104308600598406BB0F5800F09D13D
:1035C000FFE741F20C01C4F20201086840F48010E8
:1035D0000860FFE7FFE705984078C00600281BD584
:1035E000FFE741F28801C4F20201086820F0407050
:1035F000059A926B104308600598806BB0F1807F4C
:1036000009D1FFE741F20C01C4F20201086840F45D
:1036100080100860FFE7FFE70598407880060028E3
:103620001BD5FFE741F28801C4F20201086820F0CF
:103630004060059AD26B104308600598C06BB0F1EA
:10364000006F09D1FFE741F20C01C4F202010868E2
:1036500040F480100860FFE7FFE7059840784006D7
:1036600000281BD5FFE741F28801C4F20201086877
:1036700020F04060059A126C104308600598006CB9
:10368000B0F1006F09D1FFE741F20C01C4F2020171
:10369000086840F480100860FFE7FFE7059840786D
:1036A000000600281BD5FFE741F28801C4F20201A1
:1036B000086820F04050059A526C10430860059845
:1036C000406CB0F1805F09D1FFE741F20C01C4F218
:1036D0000201086840F480300860FFE7FFE70598C2
:1036E0008078C007D8B1FFE741F28801C4F2020137
:1036F000086820F04040059A926C104308600598D5
:10370000806CB0F1804F09D1FFE741F20C01C4F2A7
:103710000201086840F480300860FFE7FFE7059881
:103720008078400700281BD5FFE741F29C01C4F2D6
:103730000201086820F44010059AD26C104308601A
:103740000598C06CB0F5001F09D1FFE741F20C01EC
:10375000C4F20201086840F480100860FFE7FFE748
:103760009DF80A0006B080BD80B586B00490039134
:1037700000200090049820B9FFE701208DF8170081
:1037800081E1039842F20001C4F20201096801F0EC
:103790000F01884216D9FFE742F20000C4F202008E
:1037A000016821F00F01039A11430160006800F0E5
:1037B0000F000399884204D0FFE701208DF817001D
:1037C00061E1FFE704980078C007002800F0A380BB
:1037D000FFE704984068032839D1FFE741F2000071
:1037E000C4F2020000688001002804D4FFE7012031
:1037F0008DF8170047E102F079FC019001984BF237
:103800000141C0F2C441884220D3FFE741F20800E1
:10381000C4F20200006810F0F00F0AD0FFE704982D
:1038200000788007002810D5FFE70498806860B909
:10383000FFE741F20801C4F202010868082262F3BE
:103840000710086080200090FFE7FFE738E0049849
:10385000406802280ED1FFE741F20000C4F20200E6
:1038600000688003002804D4FFE701208DF81700CA
:1038700009E10DE041F20000C4F2020000684005D9
:10388000002804D4FFE701208DF81700FBE0FFE7D4
:1038900000F056F9019001984BF20141C0F2C44189
:1038A00088420CD3FFE741F20801C4F20201086824
:1038B000082262F30710086080200090FFE7FFE70E
:1038C00041F20801C4F20201086820F00300049AE2
:1038D000526810430860FFF7E7FA0290FFE741F2F1
:1038E0000800C4F20200006800F00C000499496866
:1038F000B0EB810F0ED0FFE7FFF7D6FA0299401A1E
:1039000041F28931884204D3FFE703208DF8170084
:10391000B9E0E4E7FFE704980078800700282CD599
:10392000FFE7049800784007002809D5FFE741F237
:103930000801C4F20201086840F4E0600860FFE793
:1039400004980078000700280BD5FFE741F2080132
:10395000C4F20201086840F4E06020F4605008609E
:10396000FFE741F20801C4F20201086820F0F0000C
:10397000049A9268104308600DE00098802809D1ED
:10398000FFE741F20801C4F20201086820F0F000EC
:103990000860FFE7FFE7039842F20001C4F202016A
:1039A000096801F00F01884228D2FFE742F20001C6
:1039B000C4F20201086820F00F00039A1043086067
:1039C000FFF772FA0290FFE742F20000C4F2020031
:1039D000006800F00F00039988420ED0FFE7FFF760
:1039E00063FA0299401A41F28931884204D3FFE711
:1039F00003208DF8170046E0E6E7FFE7049800781B
:103A0000400700280CD5FFE741F20801C4F202018B
:103A1000086820F4E060049AD26810430860FFE769
:103A200004980078000700280DD5FFE741F208014F
:103A3000C4F20201086820F46050049A126940EA56
:103A4000C2000860FFE700F07BF841F20801C4F211
:103A500002010968C9B20A094DF63611C0F6000123
:103A6000895C01F01F01C84040F20401C2F200016C
:103A7000086040F22400C2F200000068FFF740FA3C
:103A80008DF81700FFE79DF8170006B080BD000015
:103A900082B00190009101990F20086041F2080066
:103AA000C4F20200016801F00301019A516001684B
:103AB00001F0F001019A9160016801F4E061019A5E
:103AC000D160006800F46050C0080199086142F2BA
:103AD0000000C4F20200006800F00F0000990860C6
:103AE00002B0704740F20400C2F200000068704764
:103AF00080B5FFF7F7FF41F20801C4F2020109683F
:103B0000C1F302224DF64611C0F60001895C01F0B6
:103B10001F01C84080BD000080B5FFF7E3FF41F200
:103B20000801C4F202010968C1F3C2224DF6461130
:103B3000C0F60001895C01F01F01C84080BD000093
:103B400086B041F20800C4F20200006800F00C00E8
:103B5000042806D1FFE742F20040C0F2F4000190D1
:103B600069E041F20800C4F20200006800F00C00B5
:103B7000082806D1FFE747F64000C0F27D1001900B
:103B800058E041F20800C4F20200006800F00C00A6
:103B90000C284BD1FFE741F20C00C4F2020001688F
:103BA00001F0030104910068C1B2012000EB111083
:103BB000029004980090022815D0FFE7009803288F
:103BC00012D1FFE7029947F64000C0F27D10B0FB2A
:103BD000F1F041F20C01C4F202010968C1F30621BF
:103BE0004843059011E0FFE7029942F20040C0F21D
:103BF000F400B0FBF1F041F20C01C4F202010968DB
:103C0000C1F3062148430590FFE741F20C00C4F2DE
:103C10000200006800F0C061022000EB1160039018
:103C200005980399B0FBF1F0019002E000200190AB
:103C3000FFE7FFE7FFE7019806B07047B0B588B02F
:103C40000690069820B9FFE701208DF81F00CCE30D
:103C500006980078C007002800F09B80FFE741F23B
:103C60000800C4F20200006800F00C00049041F269
:103C70000C00C4F20200006800F0030003900498F6
:103C80000C2804D1FFE70398032804D0FFE7049829
:103C9000082812D1FFE741F20000C4F202000068D8
:103CA0008003002808D5FFE70698406820B9FFE7A1
:103CB00001208DF81F0098E36AE0FFE7069840684E
:103CC000B0F5803F09D1FFE741F20001C4F20201E3
:103CD000086840F48030086020E006984068B0F53D
:103CE000A02F0DD1FFE741F20001C4F202010868E4
:103CF00040F480200860086840F4803008600CE0E0
:103D000041F20001C4F20201086820F4803008602A
:103D1000086820F480200860FFE7FFE7FFE70698C7
:103D20004068D0B1FFE7FFF7BFF80590FFE741F229
:103D30000000C4F202000068800300280CD4FFE7F2
:103D4000FFF7B2F80599401A652804D3FFE703206E
:103D50008DF81F0049E3EAE719E0FFF7A5F80590A1
:103D6000FFE741F20000C4F202000068800300286F
:103D70000CD5FFE7FFF798F80599401A652804D39A
:103D8000FFE703208DF81F002FE3EAE7FFE7FFE7D7
:103D9000FFE7069800788007002840F19F80FFE742
:103DA00041F20800C4F20200006800F00C00049028
:103DB00041F20C00C4F20200006800F0030003901E
:103DC00004980C2804D1FFE70398022804D0FFE7E9
:103DD000049804282CD1FFE741F20000C4F202004D
:103DE00000684005002808D5FFE70698C06820B99C
:103DF000FFE701208DF81F00F7E241F20401C4F251
:103E00000201086820F0FE40069A126940EA02604A
:103E1000086040F22400C2F200000068FFF770F86A
:103E200020B1FFE701208DF81F00DEE2FFE754E03C
:103E30000698C06870B3FFE741F20001C4F20201C6
:103E4000086840F480700860FFF72EF80590FFE7DF
:103E500041F20000C4F202000068400500280CD4C2
:103E6000FFE7FFF721F80599401A032804D3FFE77D
:103E700003208DF81F00B8E2EAE741F20401C4F222
:103E80000201086820F0FE40069A126940EA0260CA
:103E9000086021E041F20001C4F20201086820F448
:103EA00080700860FFF700F80590FFE741F200001E
:103EB000C4F202000068400500280CD5FFE7FEF7B9
:103EC000F3FF0599401A032804D3FFE703208DF878
:103ED0001F008AE2EAE7FFE7FFE7FFE706980078BE
:103EE0000007002849D5FFE70698406910B3FFE7AF
:103EF00041F29401C4F20201086840F00100086038
:103F0000FEF7D2FF0590FFE741F29400C4F20200F1
:103F10000068800700280CD4FFE7FEF7C5FF05996D
:103F2000401A032804D3FFE703208DF81F005CE24A
:103F3000EAE721E041F29401C4F20201086820F0AE
:103F400001000860FEF7B0FF0590FFE741F2940022
:103F5000C4F202000068800700280CD5FFE7FEF7D6
:103F6000A3FF0599401A032804D3FFE703208DF827
:103F70001F003AE2EAE7FFE7FFE70698007840070C
:103F8000002840F1C680FFE700208DF80B0041F2C9
:103F90005800C4F202000068C000002813D4FFE7F4
:103FA000FFE741F25800C4F20200016841F080517D
:103FB0000160006800F0805001900198FFE7012047
:103FC0008DF80B00FFE747F20000C4F20000006824
:103FD000C005002822D4FFE747F20001C4F2000127
:103FE000086840F480700860FEF75EFF0590FFE708
:103FF00047F20000C4F200000068C00500280CD49D
:10400000FFE7FEF751FF0599401A032804D3FFE7A5
:1040100003208DF81F00E8E1EAE7FFE7FFE70698D5
:104020008068012809D1FFE741F29001C4F2020142
:10403000086840F0010008601FE0069880680528C5
:104040000DD1FFE741F29001C4F20201086840F08F
:1040500004000860086840F0010008600CE041F2CC
:104060009001C4F20201086820F0010008600868AD
:1040700020F004000860FFE7FFE7FFE7069880688C
:10408000E0B1FFE7FEF710FF0590FFE741F2900077
:10409000C4F202000068800700280ED4FFE7FEF794
:1040A00003FF0599401A41F28931884204D3FFE7A2
:1040B00003208DF81F0098E1E8E71BE0FEF7F4FE0F
:1040C0000590FFE741F29000C4F20200006880070B
:1040D00000280ED5FFE7FEF7E7FE0599401A41F2EA
:1040E0008931884204D3FFE703208DF81F007CE16B
:1040F000E8E7FFE79DF80B00012809D1FFE741F24F
:104100005801C4F20201086820F080500860FFE7FF
:10411000FFE7069800788006002849D5FFE7069853
:10412000806910B3FFE741F29801C4F20201086808
:1041300040F001000860FEF7B7FE0590FFE741F28E
:104140009800C4F202000068800700280CD4FFE742
:10415000FEF7AAFE0599401A032804D3FFE70320BF
:104160008DF81F0041E1EAE721E041F29801C4F235
:104170000201086820F001000860FEF795FE059036
:10418000FFE741F29800C4F20200006880070028AF
:104190000CD5FFE7FEF788FE0599401A032804D3E3
:1041A000FFE703208DF81F001FE1EAE7FFE7FFE7C5
:1041B0000698C069002800F01481FFE741F208006A
:1041C000C4F20200006800F00C000C2800F0B0807F
:1041D000FFE70698C06902287CD1FFE741F20001A1
:1041E000C4F20201086820F080700860FEF75CFEEF
:1041F0000590FFE741F20000C4F202000068800170
:1042000000280CD5FFE7FEF74FFE0599401A03285A
:1042100004D3FFE703208DF81F00E6E0EAE741F250
:104220000C01C4F20201086848F20C02C0F29F12AD
:104230001040DDF818C0DCF82020DCF82450DCF851
:1042400028E0DCF82C306FF00F0404EB0514224357
:1042500042EA0E22DCF8304040F2000ECFF6E07E5B
:104260000EEA045EAEF5001E42EA0E02DCF834E00F
:104270004FF07E4C0CEA0E6C0CF17E4C42EA0C02C4
:1042800042EAC3621043086041F20002C4F2020233
:10429000106840F080701060086840F0807008601E
:1042A000FEF702FE0590FFE741F20000C4F20200B3
:1042B0000068800100280CD4FFE7FEF7F5FD0599A2
:1042C000401A032804D3FFE703208DF81F008CE079
:1042D000EAE72CE041F20001C4F20201086820F094
:1042E00080700860FEF7E0FD0590FFE741F20000F6
:1042F000C4F202000068800100280CD5FFE7FEF739
:10430000D3FD0599401A032804D3FFE703208DF855
:104310001F006AE0EAE741F20C01C4F202010868FA
:104320004FF6FC72CFF6EE6210400860FFE757E0F0
:104330000698C069012804D1FFE701208DF81F000D
:1043400053E041F20C00C4F20200006803900398AD
:1043500000F003000699096A88423BD1FFE7039801
:1043600000F0F00006994A6A6FF00F0101EB0211AC
:1043700088422FD1FFE7039800F4FE400699896A2E
:10438000B0EB012F26D1FFE7039800F078400699A3
:10439000C96AB0EBC16F1DD1FFE7039800F4C000FC
:1043A00006990A6B0021CFF6E07101EA0251A1F5EE
:1043B000001188420ED1FFE7039800F0C060069913
:1043C0004A6B4FF07E4101EA026101F17E41884271
:1043D00004D0FFE701208DF81F0006E0FFE7FFE7AC
:1043E000FFE700208DF81F00FFE79DF81F0008B0D1
:1043F000B0BD000081B0009001B0704781B0009066
:1044000001B0704781B0009001B0704781B000905A
:1044100001B0704781B0009001B0704781B000904A
:1044200001B0704785B003900291FFE7039890F8C0
:104430003C00012804D1FFE702208DF81300A7E01B
:104440000399012081F83C00FFE7FFE70399022070
:1044500081F83D0003980068406801900398006867
:10446000806800900398006842F60041C4F20101A0
:10447000884212D0FFE70398006843F20041C4F27B
:104480000101884209D0FFE70398006845F2000166
:10449000C4F2010188420AD1FFE7019820F47000BC
:1044A000019002984168019808430190FFE7019844
:1044B0004FF68F71CFF6FF510840019002980168C6
:1044C000019808430190019803990968486003988E
:1044D000006842F60041C4F2010188423CD0FFE787
:1044E00003980068B0F1804F36D0FFE7039800686A
:1044F00040F20041C4F2000188422DD0FFE703984A
:10450000006840F60001C4F20001884224D0FFE7B1
:104510000398006840F60041C4F2000188421BD0B5
:10452000FFE70398006843F20041C4F201018842AA
:1045300012D0FFE70398006844F20001C4F20101C1
:10454000884209D0FFE70398006845F20001C4F2F1
:10455000010188420ED1FFE7009820F08000009012
:1045600002988168009808430090009803990968B0
:104570008860FFE70399012081F83D00FFE7039978
:10458000002081F83C00FFE700208DF81300FFE7D2
:104590009DF8130005B0704781B0009001B07047DE
:1045A00080B582B00090009820B9FFE701208DF817
:1045B000070045E0009890F83D0040B9FFE70099FA
:1045C000002081F83C00009800F03EF8FFE70099D9
:1045D000022081F83D00009951F8040B01F056FECD
:1045E0000099012081F84800FFE70099012081F837
:1045F0003E00009981F83F00009981F84000009941
:1046000081F84100009981F84200009981F8430047
:10461000FFE7FFE70099012081F84400009981F845
:104620004500009981F84600009981F84700FFE7AE
:104630000099012081F83D0000208DF80700FFE778
:104640009DF8070002B080BD80B584B00390039848
:10465000006841F20001C4F20001884219D1FFE76D
:10466000FFE741F25800C4F20200016841F0100176
:104670000160006800F0100002900298FFE7362009
:10468000019005210022FEF7D9FC0198FEF7CCFC31
:10469000FFE704B080BD000083B00190019890F85E
:1046A0003D00012804D0FFE701208DF80B0072E0E7
:1046B0000199022081F83D0001980168C86840F026
:1046C0000100C8600198006842F60041C4F201018F
:1046D00088423CD0FFE701980068B0F1804F36D0A7
:1046E000FFE70198006840F20041C4F200018842EF
:1046F0002DD0FFE70198006840F60001C4F20001E8
:10470000884224D0FFE70198006840F60041C4F2D7
:10471000000188421BD0FFE70198006843F2004186
:10472000C4F20101884212D0FFE70198006844F208
:104730000001C4F20101884209D0FFE70198006836
:1047400045F20001C4F20101884219D1FFE7019846
:10475000006880680721C0F20101084000900098BD
:1047600006280CD0FFE70098B0F5803F07D0FFE7A0
:1047700001980168086840F001000860FFE706E062
:1047800001980168086840F001000860FFE7002018
:104790008DF80B00FFE79DF80B0003B07047000099
:1047A00081B0009001B0704780B584B00390039849
:1047B0000068C068029003980068006901909DF845
:1047C00004008007002824D5FFE79DF80800800733
:1047D00000281DD5FFE7039801686FF0020008610B
:1047E000039901200877039800688069800720B149
:1047F000FFE70398FFF7D4FF06E0039800F054F9B1
:10480000039800F055F9FFE7039900200877FFE7C8
:10481000FFE79DF804004007002825D5FFE79DF835
:104820000800400700281ED5FFE7039801686FF0D5
:1048300004000861039902200877039800688069E2
:1048400010F4407F04D0FFE70398FFF7A9FF06E0CC
:10485000039800F029F9039800F02AF9FFE703997B
:1048600000200877FFE7FFE79DF804000007002815
:1048700024D5FFE79DF80800000700281DD5FFE7B5
:10488000039801686FF00800086103990420087715
:1048900003980068C069800720B1FFE70398FFF71D
:1048A0007FFF06E0039800F0FFF8039800F000F99E
:1048B000FFE7039900200877FFE7FFE79DF8040072
:1048C000C006002825D5FFE79DF80800C00600288F
:1048D0001ED5FFE7039801686FF010000861039987
:1048E0000820087703980068C06910F4407F04D05E
:1048F000FFE70398FFF754FF06E0039800F0D4F8B1
:10490000039800F0D5F8FFE7039900200877FFE748
:10491000FFE79DF80400C00778B1FFE79DF80800A5
:10492000C00748B1FFE7039801686FF00100086114
:10493000039800F0C1F8FFE7FFE7019800F080005E
:10494000802806D0FFE79DF805008006002810D5D6
:10495000FFE79DF808000006002809D5FFE7039847
:1049600001686FF4025008610398FFF747FDFFE705
:10497000FFE79DF80500C00780B1FFE79DF808003C
:104980000006002809D5FFE7039801686FF48070DE
:1049900008610398FFF72EFDFFE7FFE79DF804008D
:1049A0004006002810D5FFE79DF8080040060028C3
:1049B00009D5FFE7039801686FF04000086103988C
:1049C00000F08CF8FFE7FFE79DF804008006002860
:1049D00010D5FFE79DF808008006002809D5FFE7FD
:1049E000039801686FF0200008610398FFF70AFD43
:1049F000FFE7FFE79DF80600C006002810D5FFE797
:104A00009DF80A00C006002809D5FFE70398016851
:104A10006FF4801008610398FFF7FCFCFFE7FFE7E5
:104A20009DF806008006002810D5FFE79DF80A00D3
:104A30008006002809D5FFE7039801686FF400108D
:104A400008610398FFF7E2FCFFE7FFE79DF8060027
:104A50004006002810D5FFE79DF80A004006002810
:104A600009D5FFE7039801686FF480000861039897
:104A7000FFF7D4FCFFE7FFE79DF8060000060028DB
:104A800010D5FFE79DF80A000006002809D5FFE7CA
:104A9000039801686FF4000008610398FFF77CFD3C
:104AA000FFE7FFE704B080BD81B0009001B0704720
:104AB00081B0009001B0704780B582B0019001983C
:104AC000006840F60041C4F20001884203D1FFE7CC
:104AD000FEF7F0F9FFE702B080BD000081B0009062
:104AE00001B0704783B00190FFE7019890F884000F
:104AF000012804D1FFE702208DF80B002CE001997A
:104B0000012081F88400FFE7FFE701992420C1F824
:104B100088000198006800680090019801680868A2
:104B200020F001000860009820F0005000900199EA
:104B300000204866009801990968086001992020C2
:104B4000C1F88800FFE70199002081F88400FFE7A1
:104B500000208DF80B00FFE79DF80B0003B07047B5
:104B600080B586B004900391ADF80A200498D0F87F
:104B70008C00202844D1FFE7039820B1FFE7BDF85F
:104B80000A0020B9FFE701208DF817003CE00499E6
:104B90000120C86604990020086704980399BDF8AD
:104BA0000A2002F0F9FA8DF809009DF8090010BBFF
:104BB000FFE70498C06E012818D1FFE70498016848
:104BC00010200862FFE7FFE70498006850E8000F34
:104BD00040F010000190FFE701990498026842E854
:104BE00000100028F0D1FFE7FFE703E001208DF877
:104BF0000900FFE7FFE79DF809008DF8170003E0C3
:104C000002208DF81700FFE79DF8170006B080BD61
:104C100010B59AB01990ADF86210199841F6741158
:104C2000C2F20001884240F0D280FFE7BDF8622066
:104C300041F68070C2F200000021815400786128A2
:104C400007D1FFE742F20431C2F2000101200880DF
:104C500073E041F68070C2F200000078622807D14C
:104C6000FFE742F20431C2F200010220088063E053
:104C700041F68070C2F200000078632807D1FFE798
:104C800042F20431C2F200010320088053E041F6F1
:104C90008070C2F20000007846284BD1FFE712AACC
:104CA000131D02F1080002F10C0C02F1100E02F1CA
:104CB00014046946CC60C1F808E0C1F804C008607B
:104CC00041F68070C2F200004DF64C21C0F60001A2
:104CD000FBF7F4FA0B900B98062829D1FFE79DED1E
:104CE000120AB8EEC00A8DED0C0A9DED130AB8EE5B
:104CF000C00A8DED0D0A9DED140AB8EEC00A8DEDC7
:104D00000E0A9DED150AB8EEC00A8DED0F0A9DED55
:104D1000160AB8EEC00A8DED100A9DED170AB8EE1E
:104D2000C00A8DED110A0CA8032105F0A9FA00E0D4
:104D3000FFE7FFE7FFE7FFE7FFE741F68070C2F21A
:104D400000000078542838D1FFE706AA131D02F1AD
:104D5000080002F10C0C02F1100E6946C1F808E0DF
:104D6000C1F804C0086041F68070C2F200004DF640
:104D70005F21C0F60001FBF7A1FA05909DED060A40
:104D8000B8EEC00A40F20C01C2F2000181ED000A47
:104D90009DED070AB8EEC00A81ED010A9DED080AF3
:104DA000B8EEC00A81ED020A9DED090AB8EEC00A0C
:104DB00081ED030A0A980874FFE7199841F680719B
:104DC000C2F200014FF48072FFF7CAFEFFE71AB08B
:104DD00010BD000081B0009001B0704780B584B074
:104DE00002900191FFE7029890F88400012804D115
:104DF000FFE702208DF80F0032E00299012081F8D0
:104E00008400FFE7FFE702992420C1F88800029898
:104E100000680068009002980168086820F00100AE
:104E2000086002980068806820F06060019908437B
:104E3000029909688860029801F0A8FB009802991D
:104E40000968086002992020C1F88800FFE70299EC
:104E5000002081F88400FFE700208DF80F00FFE7B5
:104E60009DF80F0004B080BD80B584B00290019120
:104E7000FFE7029890F88400012804D1FFE70220A0
:104E80008DF80F0032E00299012081F88400FFE7DD
:104E9000FFE702992420C1F88800029800680068A2
:104EA000009002980168086820F0010008600298EC
:104EB0000068806820F06040019908430299096801
:104EC0008860029801F062FB009802990968086006
:104ED00002992020C1F88800FFE70299002081F89C
:104EE0008400FFE700208DF80F00FFE79DF80F001A
:104EF00004B080BD81B0009001B0704781B00090D7
:104F000001B0704780B582B00190019801680F2010
:104F10000862019841F68071C2F200014FF480727C
:104F2000FFF71EFE02B080BD80B590B00F900F98C5
:104F30000068C0690E900F98006800680D900F9887
:104F4000006880680C900E9840F60F0108400B90A6
:104F50000B98E0B9FFE79DF838008006002815D5CA
:104F6000FFE79DF834008006002806D4FFE79DF88F
:104F70003300C006002809D5FFE70F98406F20B125
:104F8000FFE70F98416F8847FFE796E2FFE70B982E
:104F9000002800F00C81FFE70C980121C1F200010C
:104FA000084209D1FFE70D9840F22011C0F20041FC
:104FB000084200F0FC80FFE79DF83800C00788B188
:104FC000FFE79DF83500C00760B1FFE70F98016863
:104FD000012008620F99D1F8900040F00100C1F85B
:104FE0009000FFE79DF838008007002811D5FFE703
:104FF0009DF83000C00760B1FFE70F9801680220FC
:1050000008620F99D1F8900040F00400C1F89000B8
:10501000FFE79DF838004007002811D5FFE79DF80D
:105020003000C00760B1FFE70F98016804200862F4
:105030000F99D1F8900040F00200C1F89000FFE70E
:105040009DF838000007002819D5FFE79DF83400C7
:105050008006002807D4FFE70C980121C1F2000167
:1050600008420CD0FFE70F980168082008620F99EA
:10507000D1F8900040F00800C1F89000FFE79DF8DB
:1050800039000007002813D5FFE79DF837004007D7
:1050900000280DD5FFE70F9801684FF40060086203
:1050A0000F99D1F8900040F02000C1F89000FFE780
:1050B0000F98D0F89000002878D0FFE79DF83800CE
:1050C0008006002815D5FFE79DF8340080060028EB
:1050D00006D4FFE79DF83300C006002809D5FFE796
:1050E0000F98406F20B1FFE70F98416F8847FFE7A7
:1050F000FFE70F98D0F890000A900F98006880683A
:1051000000F04000402806D0FFE79DF8280010F08E
:10511000280F42D0FFE70F9801F0ACFC0F98006811
:1051200080684006002833D5FFE7FFE7FFE70F98C8
:10513000006850E8020F20F040000990FFE709994D
:105140000F98026842E802100028F0D1FFE7FFE75D
:105150000F98D0F88000B0B1FFE70F98D0F880101A
:1051600046F6A500C0F6000088630F98D0F88000CE
:10517000FCF7F4FA30B1FFE70F98D0F88000816BAC
:105180008847FFE703E00F98FFF7BCFEFFE703E067
:105190000F98FFF7B7FEFFE707E00F98FFF7B2FEA3
:1051A0000F990020C1F89000FFE7FFE785E10F9815
:1051B000C06E012840F02281FFE79DF83800C0064C
:1051C000002840F11B81FFE79DF83400C00600284D
:1051D00040F11481FFE70F980168102008620F98D2
:1051E000006880684006002840F1A680FFE70F981D
:1051F000D0F8800000684068ADF82200BDF82200B9
:1052000000287CD0FFE7BDF822000F99B1F85C10B0
:10521000884274DAFFE7BDF822000F99A1F85E001A
:105220000F98D0F88000006800688006002859D4E4
:10523000FFE7FFE7FFE70F98006850E8000F20F452
:1052400080700790FFE707990F98026842E8001006
:105250000028F0D1FFE7FFE7FFE7FFE70F980068BE
:1052600050E8020F20F001000690FFE706990F9822
:10527000026842E802100028F0D1FFE7FFE7FFE7ED
:10528000FFE70F98006850E8020F20F040000590FB
:10529000FFE705990F98026842E802100028F0D154
:1052A000FFE7FFE70F992020C1F88C000F9900203D
:1052B000C866FFE7FFE70F98006850E8000F20F08E
:1052C00010000490FFE704990F98026842E800106C
:1052D0000028F0D1FFE7FFE70F98D0F88000FCF737
:1052E000EFF9FFE70F99022008670F98B0F85C10FC
:1052F000B0F85E20891A89B2FFF78AFC1BE0BDF87E
:1053000022000F99B1F85C10884213D1FFE70F9883
:10531000D0F88000006800688006002809D5FFE703
:105320000F99022008670F98B0F85C10FFF770FC27
:10533000FFE7FFE7FFE7C0E00F99B1F85C00B1F8C5
:105340005E10401AADF80E000F98B0F85E0000280D
:1053500053D0FFE7BDF80E0000284ED0FFE7FFE76F
:10536000FFE70F98006850E8000F20F4907002905B
:10537000FFE702990F98026842E800100028F0D178
:10538000FFE7FFE7FFE7FFE70F98006850E8020F2D
:105390004FF6FE71CEF6FF7108400190FFE70199CC
:1053A0000F98026842E802100028EDD1FFE7FFE7FE
:1053B0000F992020C1F88C000F990020C8660F9922
:1053C0004867FFE7FFE70F98006850E8000F20F0FC
:1053D00010000090FFE700990F98026842E8001063
:1053E0000028F0D1FFE7FFE70F99022008670F9828
:1053F000BDF80E10FFF70CFCFFE75EE09DF83A00E9
:10540000C00600280FD5FFE79DF8320040060028AF
:1054100009D5FFE70F9801684FF4801008620F98D4
:10542000FFF76CFD49E09DF838000006002815D50F
:10543000FFE79DF834000006002806D4FFE79DF83A
:1054400032000006002809D5FFE70F98806F20B1D1
:10545000FFE70F98816F8847FFE72EE09DF838003F
:10546000400600280AD5FFE79DF8340040060028D2
:1054700004D5FFE70F9801F04DFB1EE09DF83A00C0
:10548000000600280AD5FFE79DF8370040060028EF
:1054900004D5FFE70F98FFF72DFD0EE09DF83B00C8
:1054A000C00750B1FFE79DF837000006002804D57B
:1054B000FFE70F98FFF78EFCFFE710B080BD0000FC
:1054C00080B582B00090009820B9FFE701208DF8E8
:1054D000070046E00098806908B1FFE700E0FFE7B9
:1054E0000098D0F8880040B9FFE70099002081F8C3
:1054F0008400009800F03AF8FFE700992420C1F8F2
:10550000880000980168086820F001000860009891
:10551000806A20B1FFE7009801F07CF8FFE700986F
:1055200001F048FB012804D1FFE701208DF80700B6
:1055300017E000980168486820F49040486000989F
:105540000168886820F02A0088600098016808686F
:1055500040F001000860009801F000F98DF80700A4
:10556000FFE79DF8070002B080BD000080B5AEB037
:105570002D9000202C902B902A902990289013A8F1
:105580005421FAF78FFE2D98006844F60041C4F2CA
:10559000000188426CD1FFE708201390002017908B
:1055A00013A8FDF74FFE18B1FFE7FBF799FFFFE7E0
:1055B000FFE741F25800C4F20200016841F4002103
:1055C0000160006800F4002012901298FFE7FFE7E6
:1055D00041F24C00C4F20200016841F00401016094
:1055E000006800F0040011901198FFE74FF440604C
:1055F00028900220299000200A902A902B900520C4
:105600002C9040F60000C4F6000028A9FDF782FAAD
:105610000A9941F26850C2F200000B903022C4F2A5
:10562000020202601E2242608160C160802202612B
:1056300041618161C1610162FCF79EF918B1FFE728
:10564000FBF74EFFFFE7FFE72D9841F26851C2F2EA
:105650000001C0F880102D988862FFE7342009907F
:1056600005210022FDF7EAFC0998FDF7DDFC0FE1BA
:105670002D98006845F20001C4F20001884240F014
:105680009180FFE7102013900020189013A8FDF7D9
:10569000D9FD18B1FFE7FBF723FFFFE7FFE741F272
:1056A0005800C4F20200016841F4801101600068F2
:1056B00000F4801010901098FFE7FFE741F24C00D3
:1056C000C4F20200016841F004010160006800F0CA
:1056D00004000F900F98FFE7FFE741F24C00C4F27F
:1056E0000200016841F008010160006800F0080054
:1056F0000E900E98FFE74FF48050289002200490FF
:105700002990002007902A902B90052005902C903E
:1057100040F60000C4F6000028A90691FDF7FAF94A
:10572000049B05980699079A4FF0040CCDF8A0C089
:1057300029932A922B922C9040F60040C4F6000048
:10574000FDF7E8F9079941F2C850C2F2000008904D
:105750001C22C4F202020260202242608160C16009
:105760008022026141618161C1610162FCF704F93B
:1057700018B1FFE7FBF7B4FEFFE7FFE72D9841F212
:10578000C851C2F20001C0F880102D988862FFE76E
:105790003520039005210022FDF750FC0398FDF70A
:1057A00043FC74E02D98006843F60001C4F2010147
:1057B00088426BD1FFE7012013900020149013A8BA
:1057C000FDF740FD18B1FFE7FBF78AFEFFE7FFE7B3
:1057D00041F26000C4F20200016841F480410160BE
:1057E000006800F480400D900D98FFE7FFE741F25C
:1057F0004C00C4F20200016841F00201016000683F
:1058000000F002000C900C98FFE7C02028900220C6
:105810002990002001902A902B9007202C9040F294
:105820000040C4F6000028A9FDF774F9019941F27F
:105830002860C2F2000002900822C4F20202026054
:10584000182242608160C1608022026141618161F1
:10585000C1610162FCF790F818B1FFE7FBF740FE69
:10586000FFE7FFE72D9841F22861C2F20001C0F87E
:1058700080102D988862FFE72520009005210022E6
:10588000FDF7DCFB0098FDF7CFFBFFE7FFE7FFE745
:105890002EB080BD81B0009001B0704781B0009003
:1058A00001B0704780B58AB008900791ADF81A2012
:1058B00005930898D0F88800202840F08780FFE7FB
:1058C000079820B1FFE7BDF81A0020B9FFE70120D3
:1058D0008DF827007EE008990020C1F89000089913
:1058E0002120C1F88800FDF7DFFA0290BDF81A0008
:1058F0000899A1F85400BDF81A000899A1F85600BB
:1059000008988068B0F5805F09D1FFE708980069C2
:1059100028B9FFE7002004900798039004E0079857
:10592000049000200390FFE7FFE70898B0F85600C6
:1059300088B3FFE70898029B05996A4611608021A9
:10594000002201F0C1FC40B1FFE708992020C1F816
:10595000880003208DF827003CE0049858B9FFE741
:10596000039800886FF35F2008990968886203989C
:105970000230039008E0049800780899096888626A
:10598000049801300490FFE70899B1F856000138F7
:10599000A1F85600C9E70898029B05996A4611606C
:1059A0004021002201F090FC40B1FFE7089920203F
:1059B000C1F8880003208DF827000BE0089920200B
:1059C000C1F8880000208DF8270003E002208DF840
:1059D0002700FFE79DF827000AB080BD81B0009046
:1059E00001B07047FFE7FEE780B588B0FFE741F2FE
:1059F0004800C4F20200016841F00401016000683F
:105A000000F0040007900798FFE7FFE741F2480025
:105A1000C4F20200016841F001010160006800F079
:105A2000010006900698FFE70B20019005210391E5
:105A300000220492FDF702FB0198FDF7F5FA0399A5
:105A4000049A0C200290FDF7F9FA0298FDF7ECFA9F
:105A50000399049A0D200590FDF7F0FA0598FDF7DB
:105A6000E3FA08B080BD000080B582B041F28860E2
:105A7000C2F20000009046F20041C4F20001016051
:105A80000021019141608160C160017441748174A1
:105A90004FF0110EC0F814E0012282614FF0060CA5
:105AA000C0F81CC003230362C0F824E08262C0F87F
:105AB0002CC0036342638163C163FCF731FD18B1FD
:105AC000FFE7FBF70DFDFFE702B080BD80B582B0B8
:105AD00041F2EC60C2F20000009046F60001C4F210
