:020000040800F2
:10000000003A0020ED010008CD420008FD3E000846
:10001000C9420008D90D00086D6A00080000000000
:10002000000000000000000000000000C1430008C4
:10003000F50D000800000000D1420008E54300086B
:10004000070200080702000807020008070200086C
:10005000070200080702000807020008070200085C
:10006000070200080702000807020008DD0D00086B
:10007000E90D00080702000807020008070200084F
:10008000070200080702000807020008070200082C
:1000900007020008050E0008110E000807020008FC
:1000A000070200080702000807020008070200080C
:1000B00007020008070200080702000807020008FC
:1000C00007020008070200080702000807020008EC
:1000D00007020008616A000807020008070200081A
:1000E00007020008070200080702000807020008CC
:1000F00007020008070200080702000807020008BC
:100100000702000807020008194400080702000857
:10011000070200085D5D000825440008070200088A
:10012000070200080702000807020008070200088B
:10013000070200080702000807020008070200087B
:10014000070200080702000807020008070200086B
:10015000070200080702000807020008070200085B
:10016000070200080702000807020008070200084B
:10017000070200080702000807020008070200083B
:10018000070200080702000807020008070200082B
:1001900007020008000000001D0E0008290E0008DC
:1001A000070200080702000807020008070200080B
:1001B00007020008070200080702000807020008FB
:1001C00007020008070200080702000807020008EB
:1001D0000702000807020008DFF80CD000F022FC3C
:1001E0000048004745770008003A0020064880474D
:1001F00006480047FEE7FEE7FEE7FEE7FEE7FEE70C
:10020000FEE7FEE7FEE7FEE705440008D901000827
:100210002DE9F05F0546002092469B46884606463B
:10022000814640241BE0284641464746224600F0CE
:10023000CDF953465A46C01A914110D3114618467B
:10024000224600F0B4F92D1A67EB01084F4622460A
:100250000120002100F0ABF917EB00094E41201EF0
:10026000A4F10104DFDC484631462A464346BDE896
:10027000F09F40EA01039B0703D009E008C9121F61
:1002800008C0042AFAD203E011F8013B00F8013B50
:10029000521EF9D27047D2B201E000F8012B491E7C
:1002A000FBD270470022F6E710B513460A46044613
:1002B0001946FFF7F0FF204610BD00000FB400B54F
:1002C0008DB010A909900B9000914FF0FF300A906B
:1002D00000200C9005480690054807906A4609A83A
:1002E0000F9900F097F90DB05DF814FB3106000886
:1002F0004F0600082DE9FF5F1D464FF0FF3BD5E993
:10030000014691465F464FF00008A9697F1C01989D
:100310008847296A824688470028F6D1BAF1FF3F0C
:100320000CD024F4C064002E19DD600614D5BAF197
:100330002B0F09D0BAF12D0F0ED103E0584604B0AF
:10034000BDE8F09F44F48064A9697F1C0198884748
:10035000761E8246002E02DDBAF1300F03D0B9F1CD
:10036000000F26D032E0A969761E44F400747F1C89
:10037000019888478246002E05DDBAF1780F06D035
:10038000BAF1580F03D0B9F1000F10D01EE0B9F147
:10039000000F02D0B9F1100F18D1A969761E24F40C
:1003A00000747F1C019888478246102002E00820D4
:1003B00000E00A20814609E008FB0908A969761EC9
:1003C00044F400747F1C019888478246002E05DDA6
:1003D0004946504600F00AF90028EDDAE96901982B
:1003E0008847A00502D46FF00100A8E7E00725D1F7
:1003F000600613D5600502D5C8F1000000E0404654
:1004000029680A1D2A600968220501D5087015E0CF
:10041000220701D5088011E008600FE02868011D5F
:1004200029600068210502D580F8008006E02107D8
:1004300002D5A0F8008001E0C0F8008038467EE7D1
:100440002DE9FE4F81EA030404F0004421F000414D
:1004500000944FF0000B23F0004350EA01045ED0FB
:1004600052EA03045BD0C3F30A54C1F30A552C4487
:10047000A4F2F3340194A0FB0254C1F3130141F43C
:100480008011C3F3130343F4801301FB024400FB08
:10049000034E840A970A44EA815447EA8357A4FB2F
:1004A000076802958D0A05FB07854FEA932C04FB2C
:1004B0000C542705029D4FEA065847EA1637B5EB5C
:1004C00008056EEB070C870E920E47EA811742EA89
:1004D0008312A7FB0201B6EB0B0164EB00042B0DAA
:1004E00043EA0C335E1844EB1C50DA465146E7FBF6
:1004F0000201C5F313044FEA0B3343EA14534FEAE6
:100500000432019C43EA0603A4F10C040294009C0B
:10051000CDE900B400F0F2F803B0BDE8F08F0020A0
:100520000146F9E700F0004230F000400AD0C10D6A
:1005300001F56071C0F3160042EA0151C20840079C
:100540001143704700200146704701F0004330B46A
:1005500021F0004150EA010206D00A0DA2F56072B6
:10056000C1F31301002A02DC30BC00207047440FA5
:1005700044EAC104C100E01830BC00EBC25000F0F6
:1005800077B830B50B46014600202022012409E04F
:1005900021FA02F59D4205D303FA02F5491B04FA3C
:1005A00002F52844151EA2F10102F1DC30BD202A1B
:1005B00004DB203A00FA02F1002070479140C2F1BA
:1005C000200320FA03F3194390407047202A04DBEC
:1005D000203A21FA02F00021704721FA02F3D040BC
:1005E000C2F1200291400843194670473A2800D2D0
:1005F000303820F02002412A01D3A2F1370088428E
:1006000001D34FF0FF307047026811441378016046
:1006100018467047D16004495161044911620021B4
:100620001161114600F02EBA09060008790A000887
:10063000426842B1016811F8013B23B1521EC0E982
:100640000012184670470121C160881E7047426839
:100650005AB1C368016843B983688B4205D0491E0B
:10066000521CC0E90012002070474FF0FF30704765
:100670000029A8BF7047401C490008BF20F00100B6
:10068000704710B4B0FA80FC00FA0CF050EA010494
:1006900004BF10BC704749B1CCF1200421FA04F426
:1006A00011FA0CF118BF012121430843A3EB0C01FF
:1006B000CB1D4FEA00614FEA102042BF002010BC62
:1006C000704700EBC35010440029A4BF10BC704712
:1006D000401C490008BF20F0010010BC704710B555
:1006E000141E73F1000408DA401C41F10001921855
:1006F0005B411A4301D120F0010010BD2DE9F04DFE
:1007000092469B4611B1B1FA81F202E0B0FA80F252
:1007100020329046FFF74BFF04460F4640EA0A009E
:1007200041EA0B0153465A46084313D0114653EA97
:10073000010019D0C8F140025046FFF747FF0546B7
:100740000E46504659464246FFF731FF084305D052
:10075000012004E020463946BDE8F08D0020054325
:1007600046EAE0762C4337430A986305E40AA0EB97
:1007700008000022FD0A44EA47540A3002D500204E
:100780000146E9E7010510196941DDE9084500194D
:100790006941BDE8F04DA2E72DE9FE4F804681EAB0
:1007A0000300C00F0C46009021F0004123F00045EB
:1007B000B8EB0200A94105D24046214690461C46AE
:1007C0000B46024623F00040104347D0270DC7F3E5
:1007D0000A00C3F30A510290401A019040286BDAD4
:1007E000C3F3130040F4801B0098924620B100230D
:1007F000D2EB030A63EB0B0B01985946C0F14002A0
:100800005046FFF7D4FE06460D4650465946019A1B
:1008100000F020F910EB08006141002487EA115232
:1008200084EAE7731A4340D0009A62B3019A012A1E
:100830004FEA075215DC001B61EB02014FF000424A
:1008400002EA0752CDE90042001C41F58011324610
:100850002B46FFF753FF03B0BDE8F08F404621461B
:10086000F9E7001B61EB0201001C41F58013001841
:100870005B412018A2F5001747EB030140EAD57051
:10088000B6196D4111E06D084FEA360645EAC075AC
:100890004FEA0752001B61EB0201001C41F5801179
:1008A00049084FEA30000019514132462B4603B047
:1008B000BDE8F04FFFF713BF00980122400000236E
:1008C000D0EB020263EBE073009821464FEAE0743C
:1008D000B8EB000061EB0401E9E783F000435BE75C
:1008E00081F0004158E72DE9F04D81EA030404F05E
:1008F000004B21F0004514464FF0000A23F0004160
:1009000050EA050220D054EA01021DD0C5F30A576F
:100910000246C5F31303C1F31300C1F30A5640F4B2
:10092000801543F48013A7EB0608101BD64608F287
:10093000FD3873EB050002D308F1010801E09218BD
:100940005B41B8F1000F03DA00200146BDE8F08DED
:1009500000204FF48011064684460EE0171B73EB0F
:10096000050705D3121B63EB050306434CEA010C94
:1009700049084FEA300092185B4150EA0107EDD177
:1009800052EA030012D082EA040083EA0501084318
:1009900005D0101BAB4106D20122002306E0002245
:1009A0004FF0004302E06FF0010253101AEB060013
:1009B0004CEB085110EB0A0041EB0B01BDE8F04D88
:1009C000FFF78DBEC1F30A52C1F3130140F2FF33AA
:1009D00041F480119A4202DA00200146704740F249
:1009E00033439A42A2F2334202DC5242FFF7EEBD99
:1009F000FFF7DDBD30B5041E71F1000404DB4FF0DC
:100A00000044404264EB0101141E73F1000405DB55
:100A10001C464FF00043524263EB0403994208BF67
:100A2000904230BD1CB50948009009480190054628
:100A3000009C06E0E06840F0010394E80700984756
:100A40001034AC42F6D3FFF7CBFB0000C4B2000871
:100A5000E4B20008202A06DBCB17203A41FA02F064
:100A600043EAE07306E041FA02F3D040C2F120020B
:100A70009140084319467047C0B24FF4F05100F05E
:100A800097B900002DE9F34F8BB04FF0000801F14A
:100A90000C000C464FF0010B46460DF1080A019080
:100AA0006269012101989047051E2DD0252D2CD07B
:100AB000216A8847C0B16269012101989047216A83
:100AC00088470028F7D1411E62690198904700E0ED
:100AD000761CA1690B988847216A88470028F7D1BE
:100AE000E1690B988847DBE7A1690B9888470746BF
:100AF000A84201D1761CD3E7E1690B9888477F1C97
:100B000002D1B8F1000F6FD046E1002762693D467F
:100B10003946019890472A2804D162690121019839
:100B200090470125DFF8849262690121019890477E
:100B3000A0F130010A290AD24F45E5DC07EB870115
:100B400000EB4107303FDFD445F01005ECE7E90644
:100B500001D46FF000476C280AD04C2814D06828C4
:100B600015D06A280DD074281CD07A281AD01DE020
:100B700062690121019890476C2802D045F0040574
:100B800014E045F002050DE045F020050AE0626939
:100B9000012101989047682802D045F0080505E03A
:100BA00045F400656269012101989047C4E9015745
:100BB00065283DD019DC58287AD00CDC452837D080
:100BC00004DC252826D0412831D131E046282FD019
:100BD00047282CD12CE05B2877D0612828D06328C7
:100BE0007CD0642823D15AE0D0E06F2848D008DCBC
:100BF00066281DD067281BD0692821D06E2816D101
:100C000027E0702845D0732868D0752847D0782809
:100C10000DD14DE0A1690B988847054625283FF482
:100C200069AFE1690B9888476D1C3FF46AAFB3E088
:100C300023466A466FF001000B99AFF300809EE0F7
:100C400045F040006060A80723464FF0000236D40C
:100C50003EE0E8077FF447AF2068011D216000688F
:100C6000290501D506701BE7290701D5068017E77E
:100C7000A90703D5F117C0E9006111E706600FE786
:100C800045F040006060A80723464FF0080216D4E4
:100C90001EE040F60E0125EA0100606016E045F016
:100CA00040006060A80723464FF00A0207D40FE017
:100CB00045F040006060A80708D5234610226FF079
:100CC00001000B99AFF3008059E007E023461022A2
:100CD0006FF001000B99FFF70DFB50E04FF000099A
:100CE0004F464B46632802D05B2806D040E0E8061A
:100CF00001D40120A06001273AE062690121019836
:100D000090475E2805D14FF0010962694946019874
:100D10009047216939B900210A46534643F82120FA
:100D2000491C0829FADBB0B3216969B9C11700EB86
:100D3000D16253110AEB830122F01F02821A0120B3
:100D40000B68904003430B60626901210198904752
:100D50005D28E8D1B9F1000F09D00020514651F8C3
:100D60002020D24341F82020401C0828F7DB02ABAA
:100D7000224600976FF001000B99AFF30080002826
:100D80000CDA401C08D1BBF1000F05D04FF0FF304A
:100D90000DB0BDE8F08FFFE74046F9E7E90701D164
:100DA00008F1010806444FF0000B79E6CCCCCC0CDE
:100DB0007F2801D9002208E0064A02EB5002C00752
:100DC000127800D1120902F00F0201209040084071
:100DD000704700007CB00008FEE7000041F2E460CC
:100DE000C2F2000000F09EB841F28460C2F200003E
:100DF00000F098B870470000EFF3108072B600BFA3
:100E0000FEE7000041F24470C2F2000000F010BCA6
:100E100041F24470C2F2000000F00ABC41F2A87036
:100E2000C2F2000000F004BC41F2A870C2F200005F
:100E300000F0FEBB014690F82500022828D180B5BD
:100E40000868D1E910CE8A6C036823F00E030360B2
:100E5000136823F480731360026822F001020260B9
:100E60000EF01F00012202FA00F0CCF80400D1E9D4
:100E700013205060486D30B1026822F48072026025
:100E8000D1E9160242600020BDE8804003E000BFC7
:100E90000420C8630120012281F82520002281F866
:100EA0002420704790F82510022931D180B50168BF
:100EB000D0E910CE826C0B6823F00E030B600B6838
:100EC00023F001030B60116821F4807111600EF0B2
:100ED0001F02012101FA02F2CCF80420D0E91332FA
:100EE0005A60426D32B1136823F480731360D0E905
:100EF0001623536080F82510826B002180F824109F
:100F00000AB190470021BDE880400846704700BF05
:100F10000421C1630121002280F8251080F82420DB
:100F200008467047B0B5D0E910C30268DCF800107D
:100F300003F01F030424D2F800E09C400C4218BFC9
:100F40001EF0040522D102249C400C4218BF1EF062
:100F5000020529D1D940090724D51EF0080108BF90
:100F6000B0BD116821F00E011160012101FA03F2F8
:100F7000CCF80420C16380F82510416B002280F872
:100F8000242079B1BDE8B040084700BF1168890648
:100F900003D4116821F004011160CCF80440016B06
:100FA0000029EFD1B0BD00BF1168890606D41168D1
:100FB00021F00A011160012180F82510CCF80440CD
:100FC000C16A0022002980F82420DBD1EAE7000072
:100FD00000284FF0010100F08E802DE9F04740F22B
:100FE000000CC4F2020C03684FF6F8320CF5816E67
:100FF000CBF6FD72734538BF02F580624CF6CD44E6
:101000001A44CCF6CC44A2FB042803F0FC02A2F163
:101010000802A2FB04290CF580656FF00304D0E9F7
:101020000262D0F810A03CBF0025C4F2020504EA19
:101030009804C0E91054022580F825501D6847F631
:10104000F07725EA07073A43476942EA0A028569C9
:101050003A43C7692A43056A3A432A4332431A602E
:101060000CF50262734538BF0CF50062A3180CF54D
:101070000862C264C9F3041240F6840C01FA02F259
:10108000B6F5804FC4F2020C8364026506D10021DC
:1010900041601960CCF800201EE000BF41685FFA93
:1010A00081FE013903294FF00001C3F800E0CCF8BC
:1010B000002011D8AEF101020CEB820747F87C1F2B
:1010C00002F01F01012202FA01F30CF1BC023946C1
:1010D000CCF8C03002E000BF0022002300F1540C25
:1010E0008CE80E0000210122C16380F8252080F8E1
:1010F0002410BDE8F04708467047000090F824C06F
:10110000BCF1010F47D04FF0010C80F824C090F8DB
:1011100025C0BCF1010F3BD12DE9F0414FF0020C8D
:1011200080F825C04FF0000CC0F83CC0D0F800C0DB
:1011300000F14C0E9EE83040DCF80060BEF1000F7C
:1011400026F00106CCF8006065601CBFD0E91645AA
:101150006560D0E91056012706F01F06846807FA7B
:1011600006F6D0F830806E60CCF804300B46102CB8
:1011700004BF13460A46CCF80830CCF80C20DCF843
:101180000010B8F1000F09D041F00E010EE000BFD1
:10119000002180F824100220704700BF21F00401D4
:1011A000CCF80010DCF8001041F00A01CCF8001077
:1011B000806C0168C90303D5016841F48071016046
:1011C000BEF1000F05D0DEF8000040F48070CEF8CC
:1011D0000000DCF8000040F00100CCF80000002026
:1011E000BDE8F08110B590F85C30013B012B69D867
:1011F00000685FEA417ED0F858C00CF0010300D0CF
:101200001BB311F0380F02D01CF002041DD011F4F2
:10121000E07F02D01CF0040417D011F4F05F02D07C
:101220001CF0080411D011F4604F02D01CF010041F
:101230000BD011F4403F02D01CF0200405D011F473
:101240007C0F06D01CF0400403D1C46D44F00104AF
:10125000C465BEF1000F18BF002B3BD111F0380F51
:1012600018BF1CF0020335D111F4E07F18BF1CF049
:1012700004032FD111F4F05F18BF1CF0080329D12B
:1012800011F4604F18BF1CF0100323D111F4403F3C
:1012900018BF1CF020031DD111F47C0F18BF1CF0E7
:1012A000400317D10B061BD4CB0504D5D0F8E03092
:1012B0001A43C0F8E02000F15402002013681943DB
:1012C000116010BD00F16002012002211368194372
:1012D000116010BDC36D43F00203C3650B06E3D577
:1012E000D0F8DC301343C0F8DC30CB05DED4E2E7C5
:1012F00090F85C30022B17D12DE9F0410668D6F842
:10130000C4309B0216D4D6F8C430D1E90075D1F8A8
:1013100008E00C69C3F3014CA5B144EA070343EAB2
:101320000E0343F0804E11E0016E41F008010166AA
:1013300001207047016E41F4007101660120BDE893
:10134000F08100BF44EA87434EEA030ED1E9075714
:10135000D1E9058445EA0765CB682C43456D44EA2D
:1013600008040CEBCC0744EA034405EBC70345F83B
:1013700037E05C60CF6887B14BF2901508330332D9
:101380000024C0F6000500BF171957F8037C1F5151
:10139000CF680434EF5DBC42F6D3012101FA0CF1B1
:1013A000C6F8CC1081650020BDE8F08190F85C2083
:1013B000013A012A14D880B50A68BAB101F1040EC5
:1013C0009EE80450D1E90431406C43EA4E7E41EA84
:1013D0008C7100EBC20340F832E05960002080BD00
:1013E000016E41F00201016601207047D1E903233B
:1013F000D1E901CED206496942EA8E7242EA03423D
:10140000006C114340F82C10002080BD90F85CC0A7
:10141000BCF1010F14D180B500689200D0F880C0F3
:10142000DDF808E042EA011141EA43012CF03F0CEB
:1014300041EA0E0141EA0C01C0F88010002080BD95
:10144000016E41F004010166012070477047000001
:1014500080B5090300D480BD006846F60042C4F29E
:1014600000024FF400219042016517D046F60001BA
:10147000C4F2000188421BD046F20041C4F20001D0
:10148000884218BF80BD02F067FD41F24470C2F28D
:101490000000BDE8804006F059B800BF02F0B0FD82
:1014A00041F60C00C2F20000BDE8804006F04EB8E4
:1014B00002F07CFD41F2A870C2F20000BDE880405D
:1014C00006F044B82DE9F04390F85C70022F1BD170
:1014D000D0F800C040291FD1DCF890703F0700F021
:1014E0009D80DCF89070FF0146BFDCF88070C7F388
:1014F00040270027DCF89060C6F3012606EB070CB6
:1015000000F148071DE000BF016E41F008010166CF
:101510000120BDE8F08300BFDCF898703F077DD064
:10152000DCF89870FF0146BFDCF88070C7F3002735
:101530000027DCF89860C6F3012606EB070C00F1E3
:101540004C073F680CEBCC0657F8365007EBC60E3D
:1015500015F08045556057F8365025F0604408BFB7
:10156000C5F38A44146057F8365005F0005595606D
:1015700057F8364004F000441461BEF80440D461CA
:10158000BEF8064014F00F04D460DEF8044004F402
:1015900080145461DEF8044004F4001494619EF851
:1015A000074004F07F041462DEF804404FEAD4746C
:1015B000546228D04BF290180024C0F6000800BFF7
:1015C0000EEB0406377A651C1F55D76818F80770AC
:1015D000BD4218D2757A1F197D70D56818F805902C
:1015E000A51C4D450FD2B57ABD70D56818F8059089
:1015F000E51C4D4507D2F57A0434FD70D56818F81E
:101600000550AC42DCD3006840290CBFC0F894C040
:10161000C0F89CC00020BDE8F08300BF016E41F41B
:10162000807101660120BDE8F08300007047000072
:101630002DE9F04F85B004460068016D426DD0F889
:1016400050B0456D076D466D036D01EA02080493C5
:10165000436D0393036D0293436D0193D0F854A03F
:10166000D0F850905FEA496307D51AF0400104D0E2
:10167000402101652046FFF7D9FF0BEA050B5FEA21
:10168000C95008F4E0550ED51AF480700BD02068CC
:10169000D0F8D810D0F8E02011404FF480720265E5
:1016A000204600F0D1FA37400BF007062DB1206834
:1016B00029460565204600F0CBFA07F038052EB123
:1016C000206831460665204600F098FA2DB1206862
:1016D00029460565204600F097FA5FEA895009D54A
:1016E0001AF4007006D020684FF40071016520469E
:1016F00000F0B0FA5FEA09600DD51AF080000AD058
:101700002068D0F8D410D0F8DC2011408022026587
:10171000204600F09BFA5FEA894009D51AF4005090
:1017200006D020684FF400510165204600F08AFA87
:101730005FEA0940DDE9011000EA010509D51AF464
:10174000004006D020684FF400410165204600F0BB
:1017500077FADDE9031008405FEA494105F46021AA
:101760000AD51AF4804207D022684FF480431365EB
:10177000226E42F08002226600F4710521B12068D9
:1017800001652046FFF764FE25B120680565206EDF
:1017900028432066206E28B1204605B0BDE8F04FF2
:1017A000FFF754BE05B0BDE8F08F0000002804BF6D
:1017B0000120704770B5044690F85C0028B90020FD
:1017C00084F85D00204600F021F92068816921F04D
:1017D0001001816100F016FB054600BF2068816999
:1017E000090705D500F00EFB401B0B28F6D310E0CF
:1017F000816941F00101816100F004FB054600BFF1
:1018000020688169C9070DD100F0FCFA401B0B2844
:10181000F6D3206E032140F001002066012084F8F9
:101820005C1070BD826946F2004CC4F2000C42F0BC
:1018300002026045826102D16268CCF80021227CFC
:101840008369012A23F0400318BF40338361627C1F
:101850008369012A23F4804308BF03F58043836131
:10186000A27C8369012A23F4805318BF03F58053B7
:1018700083618569D4E902E325F4407545EA0E05E4
:101880008561856925F0A4058561056925F0100548
:1018900005619BB1012B0DD0022B09D08569032B6B
:1018A00045F080058561056945F01005056105D1A4
:1018B000202300E0042385692B43836104F1140590
:1018C0002ACD226A5E1E6FF0FF0303EB052545EA71
:1018D0004665013A2A430025CFF6FF7505EB014125
:1018E0001143BEF5407FC16110D1D4E909E2D4E9CA
:1018F0000B61013A03EB06231A436FF00F0303EB6E
:101900000111114305EB0E421143C160D4E90D13DF
:10191000E26BD0F8C0604AF250753243C0F8C02084
:101920000CF580660CF58042B04204BF4AF250725A
:10193000C4F200020CF50066C4F20005B04208BF14
:1019400005F554722264D0F8806026F4F81646EA51
:101950000141C0F8801002F170016164D0F880107C
:1019600021F0706141EA0361C0F8801002F1B0001B
:10197000A06402F5C470E06402F51870206502F5F9
:101980001E70606502F55470002100BFC2E90011AD
:10199000C2E90211C2E90411C2E90611C2E9081143
:1019A000C2E90A11C2E90C11C2E90E11C2E9101113
:1019B000C2E91211C2E91411C2E91611C2E91811E3
:1019C000C2E91A11C2E91C11C2E91E11C2E92011B3
:1019D000C2E92211C2E92411C2E92611C2E9281183
:1019E000C2E92A11C2E92C11C2E92E11C2E9301153
:1019F000C2E93211C2F8D010D4328242C6D30020DC
:101A00000121A065206684F85C1070BD10B59CB003
:101A1000044600201B90CDE91900CDE9170002A86B
:101A20005421FEF73FFC206846F60041C4F2000155
:101A3000884259D046F60001C4F20001884200F005
:101A40008F8046F20041C4F20001884240F0868057
:101A50004FF4805002904FF00070109002A800F0F8
:101A60005DFB002818BFFFF7C7F940F29811C2F2DA
:101A700000010A6841F24C00C4F20200531C0B60E2
:101A800042B9C16841F00071C160C16801F00071E4
:101A900001910199016841F001010160006817A9F5
:101AA00000F00100019001984FF4C05017900220FF
:101AB00018900020CDE9190009201B904FF09040AC
:101AC00000F0CAF815200521002200F04DFA15207B
:101AD00000F038FA16200521002200F045FA162001
:101AE00000F030FA1CB010BD4FF4805002904FF05F
:101AF0000070109002A800F011FB002818BFFFF73B
:101B00007BF940F29811C2F200010A6841F24C00E0
:101B1000C4F20200531C0B6042B9C16841F000716D
:101B2000C160C16801F0007101910199016841F043
:101B300001010160006817A900F0010001900198FF
:101B40004FF401401790022018900020CDE91900B1
:101B50000B201B904FF0904000F07EF81CB010BDA1
:101B60004FF4805002904FF00070109002A800F0E7
:101B7000D5FA002818BFFFF73FF940F29811C2F2DA
:101B800000010A6841F24C00C4F20200531C0B60D1
:101B900042B9C16841F00071C160C16801F00071D3
:101BA00001910199016841F002010160006817A9E3
:101BB00000F00200019001984FF44050179002206D
:101BC00018900020CDE9190009201B9040F2004038
:101BD000C4F6000000F040F856200521002200F075
:101BE000C3F9562000F0AEF957200521002200F07D
:101BF000BBF9572000F0A6F91CB010BDC90714BFEF
:101C00004021704705F01ABD09074CBF41217047BC
:101C100005F014BD90F85C1001290BD1022180F869
:101C20005C1001688A6922F001028A610021016664
:101C300008467047016E41F00401016601207047BB
:101C400070470000704700007047000070470000B8
:101C500070470000704700002DE9F04F82B00D681A
:101C6000002D00F0C58000F13847860546EA972729
:101C700041F20046C4F60006062240F2004EB04291
:101C800008BF0522C4F2010E052F38BF3A464FF0B7
:101C9000000C012400270026009209E00D6801369F
:101CA00035FA06F207F102070CF1040C00F0A080EF
:101CB00004FA06FB15EA0B08F0D0D1F804A00323C0
:101CC0000AF003056A1EBB40012A6FEA03090FD818
:101CD0008268CB6802EA0902BB401A43826042680C
:101CE000CAF3001322EA0B02B3401A43426003E036
:101CF000032D01D103251FE0C2688B6802EA0902A7
:101D0000BB401A43022DC26016D16FF0030202EAF3
:101D1000560202440CF01C050F23D2F820A003FA4F
:101D200005FB0B692AEA0B0AAB4043EA0A0313627C
:101D3000D1F804A00AF00305026805FA07F302EAE5
:101D400009021A431AF4403F0260A7D041F260032F
:101D5000C4F202031A684FF6084A42F001021A6000
:101D60001A68CFF6FF7A02F001020192019A26F07A
:101D70000302724452F80A900CF00C050F23009CE9
:101D8000AB4029EA030304FA05F52B4342F80A3075
:101D9000DEF808204B6842EA080540F20C49DC02F4
:101DA00058BF22EA0805CEF80850C4F20109D9F854
:101DB00000209D0242EA080458BF22EA0804C9F83C
:101DC0000040DEF804209D0342EA080458BF22EADE
:101DD0000804CEF80440DEF80020DB0342EA0804E1
:101DE00058BF22EA0804CEF80040012456E700BF9D
:101DF00002B0BDE8F08F00001823002A08BF282396
:101E0000C150704742F60470C2F20000006870478B
:101E100040F2040042F60471C2F20000C2F2000176
:101E200040680A68104408607047000080B50320CD
:101E300000F0C6F80F2000F009F800281CBF0120B0
:101E400080BD00F05BF8002080BD0000B0B586B01A
:101E500041F25801C4F202010A68044642F0080245
:101E60000A60096801A801F0080101910199694619
:101E700000F046FC00F066FC4DF68361C4F21B31B5
:101E8000A0FB01014FF0FF3000EB914141F67000E3
:101E900040F60042C2F20000C4F2000240F2E73312
:101EA0000025C0E90021C0E90253056100F0A2FF4E
:101EB000054618B1284606B0B0BD00BF41F6700017
:101EC000C2F2000000F0EAFF05460028F2D13220FD
:101ED00000F038F80F2C0DD83220214600220025C2
:101EE00000F042F840F20400C2F20000046028460C
:101EF00006B0B0BD0125284606B0B0BD80B582B0A1
:101F000041F25800C4F202008168002241F0010150
:101F10008160816801F0010101910199016841F03E
:101F20008051016000680F2100F0805000900098FF
:101F30006FF0010000F018F802B0BDE8804000F03A
:101F4000E3B80000002848BF704700F01F010122DD
:101F500002FA01F11C2202EAD0004EF20012CEF287
:101F6000000281507047000010B54EF60C5CCEF2B6
:101F7000000CDCF80030C3F3022E8EF00704042CB2
:101F800028BF0424BEF103034FF0FF3E0EFA04F411
:101F900038BF0023A14399400EFA03F39A4311433B
:101FA00000F00F0200F160430901043A03F56443B5
:101FB0006244002848BF02F10C03197010BD0000F4
:101FC0004EF60C51CEF200010A684FF6FF031A409C
:101FD00060F30A2242F0806040F0FD7008607047B4
:101FE000B0F5007F42D0002840F0808047F2140016
:101FF000C4F2000050F8141CC26E01F4C06122F457
:102000008072B1F5806FC2662ED150F8141C012287
:1020100062F34A2140F8141C40F20C01C2F20001A4
:102020000968322251434DF68362C4F21B32A1FB90
:102030000212910C0268520511D54A1C0FD0026899
:1020400052050CD559B10268520508D5012906D0B0
:102050000268520503D50229A1F10401EAD1006802
:10206000400544BF032070470020704747F214002A
:10207000C4F2000050F8141CC26E01F4C06142F4B6
:102080008072B1F5806FC266EED150F8141C012247
:1020900062F34A2140F8141C40F20C01C2F2000124
:1020A0000968322251434DF68362C4F21B32A1FB10
:1020B0000212910C0268520511D54A1C0FD0026819
:1020C00052050CD559B10268520508D5012906D030
:1020D0000268520503D50229A1F10401EAD1006882
:1020E000400544BF03207047BEE700BF47F214001D
:1020F000C4F2000050F8141C022262F34A2140F896
:10210000141C00207047000047F20800C4F20000D1
:10211000016841F480410160704700002DE9F04101
:1021200082B00446807841F288060007C4F20206B5
:1021300002D400202FE000BF56F8300C5FEAC00840
:102140000BD456F8300C40F0805046F8300C56F85E
:10215000300C00F080500190019847F20007C4F263
:102160000007386840F480703860FFF74BFE054682
:102170003868C00500F10C81FFF744FE401B0228BF
:10218000F6D90320B8F1000F05D456F8301C21F021
:10219000805146F8301C2168CA0717D18A071DD420
:1021A0004A0723D40A0729D4CA062FD48A0635D46D
:1021B0004A063BD40A0641D4CA0547D48A034DD403
:1021C0008A0553D44A0559D467E000BF3268636872
:1021D00022F003021A4332608A07E1D53268A3680D
:1021E00022F00C021A4332604A07DBD53268E368FA
:1021F00022F030021A4332600A07D5D532682369CB
:1022000022F0C0021A433260CA06CFD53268636931
:1022100022F440721A4332608A06C9D53268A36933
:1022200022F440621A4332604A06C3D53268E36939
:1022300022F440521A4332600A06BDD53268236A3E
:1022400022F440421A433260CA05B7D53268636A45
:1022500022F440321A4332608A03B1D57269A36A0C
:1022600022F003021A4372618A05ABD53268E36A31
:1022700022F440221A4332604A050ED53268236B9D
:1022800022F440121A43B3F5801F326005D156F88C
:102290007C2C42F4801246F87C2C0A050ED532685C
:1022A000636B22F440021A43B3F5800F326005D10C
:1022B00056F87C2C42F4801246F87C2CCA040ED5C9
:1022C0003268A36B22F040721A43B3F1807F326010
:1022D00005D156F87C2C42F4801246F87C2C8A04F6
:1022E0000ED53268E36B22F040621A43B3F1006FFF
:1022F000326005D156F87C2C42F4801246F87C2CD2
:102300004A040ED53268236C22F040621A43B3F1BE
:10231000006F326005D156F87C2C42F4801246F8EA
:102320007C2C0A040ED53268636C22F040521A43AA
:10233000B3F1805F326005D156F87C2C42F48032D4
:1023400046F87C2CCA030ED53268A36C22F04042BA
:102350001A43B3F1804F326005D156F87C2C42F419
:10236000803246F87C2C49030ED57169E26C21F469
:1023700040111143B2F5001F716105D156F87C1C64
:1023800041F4801146F87C1C02B0BDE8F08100BF2A
:10239000B06810F4407010D0216D88420BD0B06846
:1023A000B16820F4407041F48031B160B16821F42B
:1023B0008031B160B060C0070CD1B068216D20F4ED
:1023C00040700843B0600020B8F1000F3FF5E3AE65
:1023D000DBE600BFFFF716FD054641F2883700BF78
:1023E000B0688007E9D4FFF70DFD401BB842F7D96C
:1023F000C7E600002DE9F047002865D042F2000A48
:10240000C4F2020A0446DAF800000D4600F00F009C
:1024100088420CD2DAF8000020F00F002843CAF8F6
:102420000000DAF8000000F00F00A8424CD121684B
:1024300041F20808C807C4F2020803D1880740F136
:10244000D480B9E0606802283AD0032840D158F817
:10245000082C920138D5D8F80420D8F8043042F27C
:102460000046C3F3031302F00302D8F804700133EB
:10247000C0F2F406032A04BF47F64006C0F27D16F8
:10248000B6FBF3F2D8F80430C7F306277A43C3F358
:102490004163022707EB4303B2FBF3F24BF2004325
:1024A000C0F2C4439A425DD9D8F8002012F0F00F70
:1024B0004DD0890756D5A168002953D147E000BF08
:1024C00058F8081C890307D40120BDE8F08700BF35
:1024D00058F8081C4905F7D5D8F8001001F00C0190
:1024E00004293FD0D8F8001001F00C01082939D098
:1024F000D8F8001001F00C010C2933D1D8F80410E1
:10250000D8F8042042F20047C2F3031201F003019D
:10251000D8F804300132C0F2F407032904BF47F6AB
:102520004007C0F27D17B7FBF2F1D8F80420C3F3DF
:1025300006235943C2F34162022303EB4202B1FB7B
:10254000F2F14BF20042C0F2C44291420AD9D8F8EB
:102550000010082262F307114FF00109C8F80010BB
:1025600002E000BF4FF00009D8F8001021F003018D
:102570000843C8F80000FFF745FC064641F28837DB
:10258000D8F80000616800F00C00B0EB810F07D0B4
:10259000FFF738FC801BB842F2D90320BDE8F08772
:1025A0002168880708D4B9F1000F1ED0D8F80000C0
:1025B00020F0F00017E000BF480705D5D8F800006C
:1025C00040F4E060C8F80000080706D5D8F800001D
:1025D000072262F30D20C8F80000D8F80000A268B6
:1025E00020F0F0001043C8F80000DAF8000000F016
:1025F0000F00A8421BD9DAF8000020F00F00284392
:10260000CAF80000FFF7FEFB064641F2883700BF1C
:10261000DAF8000000F00F00A84207D0FFF7F2FB45
:10262000801BB842F4D90320BDE8F0872168480731
:1026300007D5D8F80000E26820F4E0601043C8F83D
:102640000000080708D5D8F80000216920F4605080
:1026500040EAC100C8F80000D8F8000042F200418A
:10266000C0F2F40100F00C00042808462DD0D8F880
:10267000000000F00C00082847F64000C0F27D1072
:1026800023D0D8F8002002F00C020C2A1CD1D8F874
:102690000420D8F8043002F00302C3F30313D8F87F
:1026A00004700133032A08BF0146B1FBF3F0D8F8E8
:1026B0000410C7F30627C1F341610222784302EBFD
:1026C0004101B0FBF1F000E00020D8F800104BF21F
:1026D000BC02C1F30311C0F60002515C40F20C02CF
:1026E00001F01F0120FA01F140F20400C2F20000E3
:1026F0000068C2F200021160BDE8F047FFF7A6BB18
:102700000F22026041F20802C4F20202136803F0D1
:1027100003034360136803F0F0038360136803F45A
:10272000E063C36012684FF4E06303EAD20202611F
:1027300042F20000C4F20200006800F00F000860DE
:102740007047000040F20C0041F20801C2F20000A4
:10275000C4F20201006809684BF2CC02C1F3022105
:10276000C0F60002515C01F01F01C8407047000034
:1027700040F20C0041F20801C2F20000C4F2020172
:10278000006809684BF2CC02C1F3C221C0F6000216
:10279000515C01F01F01C8407047000041F20C017C
:1027A000C4F2020151F8040C42F20042C0F2F402F9
:1027B00000F00C000428104608BF704751F8040CC4
:1027C00000F00C00082847F64000C0F27D1025D02C
:1027D00051F8043C03F00C030C2B1CBF0020704785
:1027E00080B5D1F800C00B680CF0030CC3F3031ED6
:1027F0000B680EF1010EBCF1030F08BF0246096819
:10280000B2FBFEF0C3F30623C1F341610222584339
:1028100002EB4101B0FBF1F0BDE8804070470000E1
:10282000002804BF012070472DE9F04182B0044622
:10283000007841F20006C007C4F202061ED12078DB
:1028400080073DD42078000764D42078400700F149
:1028500087802078800600F1D980E569002D00F09E
:102860004482B06800F00C000C2840F03181012D4A
:1028700040F09081012002B0BDE8F081B06800F026
:102880000C01F068082961D0032281F00C0122EAD2
:1028900000000844B0FA80F0400957D16068B0F5F4
:1028A000803F07D0B0F5A02F40F0E480306840F4BE
:1028B00080203060306840F480303060E5E000BF58
:1028C000B068F16800F00C00042871D001F0030139
:1028D00080F00C0081F002010844B0FA80F0400959
:1028E00066D1E1683068002900F0E08040F4807033
:1028F0003060FFF787FA05463068400500F10A812D
:10290000FFF780FA401B0228F6D9032002B0BDE889
:10291000F08100BF6169D6F89400002900F094802E
:1029200040F00100C6F89400FFF76CFA054600BFBE
:10293000D6F8940080073FF588AFFFF763FA401B95
:102940000228F5D9032002B0BDE8F0813068800389
:102950007FF575AF606800287FF471AF3EE000BF7F
:10296000B06D5FEAC00808D4B06D40F08050B0652B
:10297000B06D00F080500190019847F20007C4F25A
:1029800000073868C0052DD4386840F4807038607E
:10299000FFF738FA054600BF3868C00522D4FFF7B4
:1029A00031FA401B0228F7D9032002B0BDE8F081BC
:1029B0003068400501D5E06880B17068216920F079
:1029C000FE4040EA0160706040F20400C2F2000084
:1029D0000068FFF73BFA00283FF434AF012002B053
:1029E000BDE8F081A068012808D0052840F0B0803B
:1029F000D6F8900040F00400C6F89000D6F8900099
:102A000040F00100C6F89000B0E000BFA169D6F820
:102A10009800002900F0868040F00100C6F8980078
:102A2000FFF7F0F9054600BFD6F8980080073FF59C
:102A300014AFFFF7E7F9401B02284FF00300F3D96A
:102A400002B0BDE8F08100BF20F00100C6F894009C
:102A5000FFF7D8F9054600BFD6F8940080077FF548
:102A6000F4AEFFF7CFF9401B0228F5D9032002B0DE
:102A7000BDE8F0813168002821F48031316031688F
:102A800021F48021316000F0BF80FFF7BBF90546DB
:102A9000306880033FF5D3AEFFF7B4F9401B6428DC
:102AA000F6D9032002B0BDE8F08100BF20F48070A9
:102AB0003060FFF7A7F90546306840057FF5C2AEE4
:102AC000FFF7A0F9401B02284FF00300F4D9B7E745
:102AD000306820F080703060FFF794F9022D0546D1
:102AE0000CD100BF3068800140F1BA80FFF78AF94D
:102AF000401B02284FF00300F4D9A1E730688001A1
:102B000040F1EC80FFF77EF9401B02284FF00300F4
:102B1000F4D995E77068216920F0FE4040EA016031
:102B200070608FE620F00100C6F89800FFF76AF9A0
:102B3000054600BFD6F8980080077FF58EAEFFF7F8
:102B400061F9401B02284FF00300F3D978E700BF7A
:102B5000D6F89010002821F00101C6F89010D6F8A0
:102B6000901021F00401C6F890105DD0FFF74AF9EB
:102B7000054641F2883700BFD6F89000800765D43B
:102B8000FFF740F9401BB842F6D9032002B0BDE878
:102B9000F08100BFF068216A00F003028A427FF4EE
:102BA0001DAF626A6FF00F0300F0F00103EB021239
:102BB00091427FF413AFA16A00F4FE42B2EB012F01
:102BC0007FF40CAFE16A00F07842B2EBC16F7FF4A2
:102BD00005AF226B0023CFF6E07303EA025200F444
:102BE000C001A2F5001291427FF4F8AE616B4FF084
:102BF0007E4202EA016100F0C06001F17E4188423C
:102C00007FF4ECAE71E000BFFFF7FCF8054600BFB3
:102C1000306880037FF513AEFFF7F4F8401B64289B
:102C20004FF00300F4D90BE7FFF7ECF8054641F24B
:102C3000883700BFD6F89000800707D5FFF7E2F885
:102C4000401BB8424FF00300F4D9F9E6B8F1000F89
:102C50003FF5FFADB06D20F08050B065F9E500BFE5
:102C6000F06848F20C01C0F29F1104F1200700EA5D
:102C7000010C8ECF6FF00F00D4E90C5400EB021062
:102C80000022CFF6E07241EA0C0102EA0552084345
:102C9000A2F500124FF07E4540EA032005EA0465E4
:102CA000104305F17E4540EAC7602843F060306874
:102CB00040F080703060F06840F08070F060FFF7A6
:102CC000A1F80446306880010FD4FFF79BF8001B81
:102CD00002284FF00300F5D9B2E600BFF0684FF6C6
:102CE000FC71CFF6EE610840F060002002B0BDE854
:102CF000F08100007047000070470000704700003E
:102D000070470000704700007047000090F83C20BA
:102D1000012A4FF0020268D070B580F83D200268A9
:102D200042F600435468D2F808C0C4F2010345F2E9
:102D3000000E9A42C4F2010E18BF72452CD14D68A4
:102D400024F470042C434FF68F75CFF6FF550E68B0
:102D50002C4042F6FF35C4F201053443AA425460C8
:102D60000EDC40F2FF73C4F200039A421CDCB2F1A5
:102D7000804F2DD040F20043C4F2000326E000BF94
:102D800043F6FF74C4F20104A24219DC9A421FD038
:102D900043F2004318E000BF43F20045C4F20105CE
:102DA000AA42CCD0CFE700BF40F60003C4F2000334
:102DB0009A420DD040F60043C4F2000306E000BF83
:102DC000724505D044F20003C4F201039A4204D1D3
:102DD00089682CF08003194391600121002280F85A
:102DE0003D1080F83C20BDE8704010467047000060
:102DF00070470000002804BF0120704710B504464A
:102E000090F83D0028B9002084F83C00204600F0EE
:102E100023F8022084F83D002068211D01F008FB02
:102E2000012084F8480084F83E0084F83F0084F8CC
:102E3000400084F8410084F8420084F8430084F89C
:102E4000440084F8450084F8460084F8470084F87C
:102E50003D00002010BD0000006841F20001C4F2F6
:102E60000001884218BF704780B582B041F2580017
:102E7000C4F202000168002241F010010160006804
:102E8000052100F01000019001983620FFF76CF842
:102E9000362002B0BDE88040FFF754B890F83D10EE
:102EA00001291BD1022180F83D10016842F6FF3252
:102EB000C868C4F20102914240F00100C8600FDC12
:102EC00040F2FF70C4F20000814219DCB1F1804F82
:102ED0002ED040F20040C4F2000027E001207047ED
:102EE00043F6FF70C4F20100814215DC42F6004057
:102EF000C4F2010081421BD043F2004014E000BF45
:102F000040F60000C4F20000814211D040F60040BB
:102F1000C4F200000AE000BF45F20000C4F2010064
:102F2000814205D044F20000C4F2010081420CD17C
:102F300088680722C0F201020240062A4FF0000012
:102F4000CDD0B2F5803F08BF7047086840F001005F
:102F5000086000207047000070470000F0B581B0A5
:102F600004460068C5680669B10717D515F0020167
:102F700014D06FF00201016101212177806980077F
:102F800004D02046FFF7E8FF06E000BF204600F02F
:102F9000CBF8204600F0CAF800202077700719D53A
:102FA00015F0040016D020686FF0040101610221C1
:102FB0002177806910F4407F04D02046FFF7CCFFD2
:102FC00006E000BF204600F0AFF8204600F0AEF863
:102FD00000202077300717D515F0080014D020689E
:102FE0006FF00801016104212177C069800703D0D7
:102FF0002046FFF7B1FF05E0204600F095F8204697
:1030000000F094F800202077F00619D515F0100094
:1030100016D020686FF01001016108212177C06986
:1030200010F4407F04D02046FFF796FF06E000BF73
:10303000204600F079F8204600F078F8002020774C
:10304000F00718BF15F0010006D020686FF00101ED
:103050000161204600F06CF816F4025F05F080076D
:1030600018BF002F02D1F00509D410E020686FF4DA
:10307000025101612046FFF73FFEF00507D537B149
:1030800020686FF4807101612046FFF733FE7006FF
:1030900009D515F0400006D020686FF040010161AD
:1030A000204600F04FF8B00609D515F0200006D0F4
:1030B00020686FF0200101612046FFF71FFEF0023B
:1030C00009D515F4801006D020686FF480110161D5
:1030D0002046FFF717FEB00209D515F4001006D000
:1030E00020686FF4001101612046FFF709FE7002AD
:1030F00009D515F4800006D020686FF480010161C5
:103100002046FFF701FE30020CD515F4000009D06F
:1031100021686FF4000220460A6101B0BDE8F0406A
:10312000FFF766BE01B0F0BD7047000070470000B9
:10313000006840F60041C4F20001884218BF7047A1
:10314000FEF766BE7047000090F88410012904BFA6
:10315000022070472421C0F88810026811681368A3
:1031600023F00103136021F0005300214166136036
:103170002022C0F8882080F884100846704700009C
:1031800010B50446D0F88C0020281CBF022010BDCA
:1031900000294FF0010018BF002A01D110BD00BF67
:1031A000E06600202067204603F01AFA0028F5D1D7
:1031B000E06E01281CBF012010BD206810210162B3
:1031C000206850E8000F216840F0100041E800023C
:1031D00002B3206850E8000F216840F0100041E879
:1031E0000002BAB1206850E8000F216840F01000DA
:1031F00041E8000272B1206850E8000F216840F0F9
:10320000100041E80002002A4FF0000008BF10BD86
:10321000D6E700BF002010BD41F69C12C2F20002AA
:10322000904218BF704710B590B041F68070C2F25E
:103230000000002242540078A0F146011D2900F24E
:103240005280DFE801F00F50505050505050505015
:10325000505050505050505050505050505050506E
:103260005089838F0AAA02F1080002F1100402F1CA
:103270000C018DE8130041F68074C2F20004131DA6
:1032800002F1140C42A12046CDF80CC0FDF716F84F
:10329000062827D19DED0A0A9DED0B1A9DED0C2AFB
:1032A000B8EEC00A9DED0D3A8DED040AB8EEC10AE4
:1032B0008DED050AB8EEC20A9DED0E1A8DED060AD7
:1032C000B8EEC30A8DED070AB8EEC10A9DED0F1ADC
:1032D0008DED080AB8EEC10A04A803218DED090A94
:1032E00005F038FA2078542842D10AAA02F10800E1
:1032F00002F10C01CDE9000141F68070131D02F1CD
:103300001004C2F2000027A10294FCF7D7FF9DED44
:103310000A0A9DED0B1A9DED0C2A9DED0D3A40F227
:1033200010000E99B8EEC00AC2F20000B8EEC11A41
:10333000B8EEC22AB8EEC33A80ED000A80ED011A59
:1033400080ED022A80ED033A017411E042F2003070
:10335000C2F2000002210AE042F20030C2F2000094
:10336000012104E042F20030C2F20000032101809A
:1033700041F69C1041F68071C2F20000C2F20001D9
:103380004FF48072FFF7FCFE10B0BDE810407047AC
:103390004625644125645325644125644C256441D8
:1033A00025640000542048256420522564204325CC
:1033B00064205325642058256400000070470000F5
:1033C00090F88420012A04BF02207047B0B524225F
:1033D000C0F888200268D0F864E0D2F800C0136812
:1033E000BEF1000F23F001031360936823F06063C4
:1033F00041EA0301916019D0936891684BF2B01EC5
:10340000490FC0F6000E4BF2B8151EF80140C0F689
:103410000005695CC3F34263E400B4FBF1F11EF8FC
:103420000340EB5CE500B5FBF3F301E00121012370
:10343000A0F86A102021A0F86830C2F800C0C0F8D7
:103440008810002180F88410BDE8B040084670471D
:1034500090F88420012A04BF02207047B0B52422CE
:10346000C0F888200268D0F864E0D2F800C0136881
:10347000BEF1000F23F001031360936823F0604353
:1034800041EA0301916019D0936891684BF2B01E34
:10349000490FC0F6000E4BF2B8151EF80140C0F6F9
:1034A0000005695CC3F34263E400B4FBF1F11EF86C
:1034B0000340EB5CE500B5FBF3F301E001210123E0
:1034C000A0F86A102021A0F86830C2F800C0C0F847
:1034D0008810002180F88410BDE8B040084670478D
:1034E00070470000704700007047000070B5016829
:1034F00040F62F03CA69044608688E681340202BE3
:103500000CD100F0200306F080555B1917D0616FD5
:1035100069B32046BDE87040084700BF40F60F037E
:103520001A420CD00123C1F2000306EA030C40F258
:103530002013C0F20043034013EB0C0328D1E36EC9
:10354000D50615D5012B13D110F0100310D0102083
:1035500008628868400627D4B4F85C00B4F85E10AE
:10356000B4F85E20002A18BF884240F0518270BD36
:10357000D30240F1D98016F4800300F0D5804FF4D7
:10358000801220460A62BDE87040FFF7ABBF00BF63
:10359000D30718BF10F4807340F01E81930706F024
:1035A000010E00F125812EE1D4F880000068426808
:1035B000B4F85C3091B2002900F0F480994280F0B8
:1035C000F180A4F85E200068800600F1A08000BFB2
:1035D000206850E8000F216820F4807041E8000264
:1035E000E2B1206850E8000F216820F4807041E8C3
:1035F00000029AB1206850E8000F216820F4807022
:1036000041E8000252B1206850E8000F216820F420
:10361000807041E80002002ADAD100BF206850E83B
:10362000020F216820F0010041E80202BAB32068CD
:1036300050E8020F216820F0010041E8020272B355
:10364000206850E8020F216820F0010041E80202E2
:103650002AB3206850E8020F216820F0010041E8F9
:103660000202002ADAD11AE0206850E8020F21682D
:1036700020F0400041E80202DAB1206850E8020F71
:10368000216820F0400041E8020292B1206850E831
:10369000020F216820F0400041E802024AB1206890
:1036A00050E8020F216820F0400041E80202002AA1
:1036B000DAD12020C4F88C000020E066206850E8B1
:1036C000000F216820F0100041E80002DAB1206804
:1036D00050E8000F216820F0100041E8000292B18C
:1036E000206850E8000F216820F0100041E8000237
:1036F0004AB1206850E8000F216820F0100041E82E
:103700000002002ADAD1D4F88000FDF793FB0220F2
:103710002067B4F85C00B4F85E10401A81B220460D
:10372000BDE87040FFF778BD110606D500F08001B6
:1037300006F40003C91840F0ED81510640D510F0A1
:1037400040013DD0206850E8000F216820F0400083
:1037500041E80002DAB1206850E8000F216820F04B
:10376000400041E8000292B1206850E8000F216853
:1037700020F0400041E800024AB1206850E8000F04
:10378000216820F0400041E80002002ADAD1202020
:103790000021C4F888002046A167BDE8704000F011
:1037A000ABBB00BF8B427FF4E2AE006880067FF5C2
:1037B000DEAE022220462267BDE87040FFF72CBD36
:1037C000110240F1B38110F0804100F0AF8120463A
:1037D000BDE87040FFF784BE01230B62D4F890303F
:1037E00043F00103C4F89030930706F0010E0AD5A8
:1037F000BEF1000F07D002230B62D4F8903043F0E3
:103800000403C4F8903053070AD5BEF1000F07D067
:1038100004230B62D4F8903043F00203C4F89030D4
:1038200013070CD500F0200353EA0C0307D008233C
:103830000B62D4F8903043F00803C4F890301305BD
:103840000BD510F0806308D04FF400630B62D4F8FE
:10385000903043F02003C4F89030D4F89030002B1F
:103860003FF485AE92060AD500F0200006F08052A3
:10387000801804D0626F12B1204690472168D4F8B6
:103880009000896800F0280001F04001401807D13D
:103890002046FFF729FE0020C4F8900070BD00BF4D
:1038A000206850E8000F216820F4907041E8000281
:1038B000DAB1206850E8000F216820F4907041E8E8
:1038C000000292B1206850E8000F216820F4907047
:1038D00041E800024AB1206850E8000F216820F456
:1038E000907041E80002002ADAD14FF6FE70CEF661
:1038F000FF7000BF216851E8021F2268014042E8C2
:103900000213C3B1216851E8021F2268014042E856
:10391000021383B1216851E8021F2268014042E886
:10392000021343B1216851E8021F2268014042E8B6
:103930000213002BDED1E06E012824D1206850E86C
:10394000000F216820F0100041E80002DAB1206881
:1039500050E8000F216820F0100041E8000292B109
:10396000206850E8000F216820F0100041E80002B4
:103970004AB1206850E8000F216820F0100041E8AB
:103980000002002ADAD12020C4F88C000020E06672
:10399000216860678868400640F1C280206850E86E
:1039A000020F216820F0400041E80202DAB12068ED
:1039B00050E8020F216820F0400041E8020292B175
:1039C000206850E8020F216820F0400041E8020220
:1039D0004AB1206850E8020F216820F0400041E819
:1039E0000202002ADAD1D4F88000002800F0988082
:1039F00045F6C571C0F600018163FDF753FA002852
:103A00003FF4B5ADD4F88000816BBDE87040084745
:103A1000401A00BF216851E8001F226821F490710C
:103A200042E80013DBB1216851E8001F226821F44D
:103A3000907142E8001393B1216851E8001F226899
:103A400021F4907142E800134BB1216851E8001F46
:103A5000226821F4907142E80013002BDAD14FF66E
:103A6000FE71CEF6FF7100BF226852E8022F236874
:103A70000A4043E80226C6B1226852E8022F2368B2
:103A80000A4043E8022686B1226852E8022F2368E2
:103A90000A4043E8022646B1226852E8022F236812
:103AA0000A4043E80226002EDED12021C4F88C1003
:103AB0000021E166616700BF216851E8001F2268AC
:103AC00021F0100142E80013DBB1216851E8001F2A
:103AD000226821F0100142E8001393B1216851E8F7
:103AE000001F226821F0100142E800134BB1216849
:103AF00051E8001F226821F0100142E80013002B5A
:103B0000DAD1022281B220462267BDE87040FFF779
:103B100083BB00BFA16F00297FF4FBAC27E500BF8A
:103B20002046BDE87040FFF7DFBC00BFD1017FF544
:103B30001EADB0F1FF3FC8BF70BD2046BDE870406C
:103B4000FFF73CBC10B5D0B10446D0F8880028B9C6
:103B5000002084F88400204600F026F82420C4F8D1
:103B600088002068A16A026822F00102026011B197
:103B7000204602F0F9F8204602F0D8FB10B10120EF
:103B800010BD00BF2168486820F4904048608868F4
:103B900020F02A008860086840F0010220460A6090
:103BA000BDE8104002F056B92DE9F0439BB0044641
:103BB00000201A90CDE91800CDE9160001A8542183
:103BC000FCF770FB206843F60001C4F20101884253
:103BD0006ED045F20001C4F20001884240F0BB8083
:103BE0001020019001A8FEF799FA002818BFFDF7F0
:103BF00003F941F24C00C4F20200C16840F20047F0
:103C000041F48011C160C168C4F6000701F480115D
:103C100000910099016816AD41F00401016001684E
:103C20004FF0020801F0040100910099016800269C
:103C300041F00801016000684FF0050900F008003C
:103C4000009000984FF48050169007F58060294648
:103C5000CDF85C80CDE91866CDF86890FDF7FCFFE3
:103C60000420CDE9160807F500602946CDE918665D
:103C7000CDF86890FDF7F0FF0820C4F2020041F291
:103C800084651430C2F200052021802285E84300BB
:103C90002846C5E90362C5E90566C5E90766FDF77B
:103CA00097F900284FF0350618BFFDF7A5F847E053
:103CB0000120019001A8FEF731FA002818BFFDF796
:103CC0009BF841F24C00C4F202004169002641F425
:103CD00080414161416901F480410091009901688E
:103CE00041F002010160006816A900F00200009096
:103CF0000098C02016900220179007201A9040F2DA
:103D00000040C4F60000CDE91866FDF7A5FF41F2BA
:103D1000E4650820C2F20005C4F2020018218022E6
:103D200085E843002846C5E90362C5E90566C5E99B
:103D30000766FDF74DF94FF0250608B1FDF75CF871
:103D4000304605210022C4F88050AC62FEF70CF921
:103D50003046FEF7F7F81BB0BDE8F083704700006F
:103D6000704700002DE9F0410446D0F88800202873
:103D70001CBF0220BDE8F0810D4600294FF0010074
:103D800000F0B8801646002A08BFBDE8F081002088
:103D9000C4F8900021209846C4F88800FEF732F855
:103DA000A4F85460A4F85660A1680646B1F5805F97
:103DB00002D1206900286BD02F460025B4F85600A8
:103DC00000286BD018F101001CD0B8F1000F3DD1D4
:103DD00021680BE017F8010B8862B4F8560001382F
:103DE000A4F85600B4F85600002858D0C869000658
:103DF00040F17A80002FEDD135F8020B00276FF3E8
:103E00005F20E9E7216802E0C869000609D4C869B3
:103E1000000606D4C86900065CBFC8695FEA006096
:103E2000F2D51FB117F8010B05E000BF35F8020B02
:103E300000276FF35F208862B4F856000138A4F8B9
:103E40005600B4F856000028E1D128E0216800BFF0
:103E5000C869000608D4FDF7D5FF801B404545D84A
:103E600021680868F4E700BF17B117F8010B04E0F8
:103E700035F8020B00276FF35F208862B4F8560014
:103E80000138A4F85600B4F856000028E0D106E046
:103E90000027B4F8560000287FF494AF2168C86961
:103EA00040061FD4B8F1000F1ED018F101000FD149
:103EB000C869400616D4C869400613D4C8694006CC
:103EC00010D4C86940064FF00000F1D50FE000BFE4
:103ED000FDF798FF801B404508D820680168C0693D
:103EE0004006F5D5002002E0FDF78CFF03202021DD
:103EF000C4F88810BDE8F08170470000FEE70000BC
:103F000080B582B041F24800C4F20200016800228C
:103F100041F004010160016801F00401019101997F
:103F2000016841F0010101600068052100F0010015
:103F3000009000980B20FEF717F80B20FEF702F810
:103F40000C2005210022FEF70FF80C2002B0BDE87E
:103F50008040FDF7F7BF000080B541F2447046F2A3
:103F60000041C2F20000C4F200010022C0E90012C8
:103F7000112100F1140701234FF0060C4FF0030E3E
:103F800087E80A5000F12407C0E90222C0F80F2098
:103F900087E80A50C0E90D32C263FDF707FC00282C
:103FA00008BF80BDBDE88040FCF726BF80B541F268
:103FB000A87046F60001C2F20000C4F2000100221F
:103FC000C0E90012112100F1140701234FF0060C83
:103FD0004FF0030E87E80A5000F12407C0E90222DF
:103FE000C0F80F2087E80A50C0E90D32C263FDF720
:103FF000DDFB002808BF80BDBDE88040FCF7FCBEAB
:1040000080B541F60C0046F60041C2F20000C4F251
:1040100000010022C0E90012112100F11407012360
:104020004FF0060C4FF0030E87E80A5000F124070A
:10403000C0E90222C0F80F2087E80A50C0E90D321B
:10404000C263FDF7B3FB002808BF80BDBDE8804018
:10405000FCF7D2BE10B503F00DFA41F69C1041F604
:104060008071C2F20000C2F200014FF48072FFF7CB
:1040700087F804F097FB03F035F902F035FF41F2C1
:104080004470C2F2000003F061FA41F2A870C2F27B
:10409000000003F05BFA4BF2C010C0F6000003F022
:1040A000C1FC40F22804C2F200044BF2AC222060B2
:1040B000C0F600021020082103F01AFC606044F2F0
:1040C00081504BF25412C0F60000C0F600020021ED
:1040D00003F0E2FCA06010BD70B586B0002541F28F
:1040E0004C000595C4F20200016840F6000441F05E
:1040F000040101600168C4F6000401F004010091AC
:1041000000990168002241F0200101600168102639
:1041100001F0200100910099016841F00201016065
:10412000016801F0020100910099016841F001016C
:104130000160016801F0010100910099016841F0FE
:10414000080101600068102100F00800009000984C
:104150002046FDF751FE0120CDE9020501A92046C8
:1041600001960495FDF778FD06B070BD10B584B0DA
:1041700041F6BC0041F20001C2F20000C4F20001AD
:10418000002442F23312632380E816008021029457
:10419000C3608161FEF72EFE002818BFFCF72CFEDD
:1041A00041F6BC00C2F2000001A901940394FEF79D
:1041B000ADFD002818BFFCF71FFE04B010BD0000C5
:1041C00080B541F69C1045F20001C2F20000C4F235
:1041D000000100234FF00C0C4FF4E13280E80E0098
:1041E000C0E90333C0E905C3C0E90733C0E90933B7
:1041F000FFF7A8FC002818BFFCF7FEFD41F69C1055
:10420000C2F200000021FFF723F9002818BFFCF7D5
:10421000F3FD41F69C10C2F200000021FFF7D0F838
:10422000002818BFFCF7E8FD41F69C10C2F2000020
:10423000FEF78AFF002808BF80BDBDE88040FCF77C
:10424000DBBD000080B541F6081043F60001C2F264
:104250000000C4F2010100234FF00C0C4FF4E132D6
:1042600080E80E00C0E90333C0E905C3C0E90733A5
:10427000C0E90933FFF766FC002818BFFCF7BCFD56
:1042800041F60810C2F200000021FFF7E1F8002813
:1042900018BFFCF7B1FD41F60810C2F20000002182
:1042A000FFF78EF8002818BFFCF7A6FD41F60810AE
:1042B000C2F20000FEF748FF002808BF80BDBDE83D
:1042C0008040FCF799BD0000FEE70000FEE700001B
:1042D000EFF30980BFF36F8F154B1A681EF0100FB4
:1042E00008BF20ED108A20E9F04F10602DE9090089
:1042F0004FF0500080F31188BFF34F8FBFF36F8FE3
:1043000004F0B6FF4FF0000080F31188BDE809000B
:1043100019680868B0E8F04F1EF0100F08BFB0EC45
:10432000108A80F30988BFF36F8F704700BF00BF0A
:104330007800002030EEC05A90ED050A90ED001A8A
:1043400035EE406A90ED012A21EE061A30EE006A41
:1043500090ED067A90ED023A35EE466A25EE022A95
:1043600036EE076A90ED034A23EE063A80ED060A20
:1043700031EE020A30EE031A90ED070A34EE011A0C
:10438000B4EE401AF1EE10FA80ED045A80ED055AB1
:104390000ADC90ED082AB0EE410AB4EE421AF1EEC2
:1043A00010FAB8BFB0EE420A80ED030A80ED090AA8
:1043B0007047000000000000000000000000000046
:1043C000074B19680868B0E8F04F80F30988BFF31D
:1043D0006F8F4FF0000080F31188704700BF00BF5F
:1043E0007800002080B54EF21000CEF20000006888
:1043F00005F042FF012808BF80BDBDE8804005F000
:1044000059B800004EF68850CEF20000016841F421
:10441000700101607047000041F67000C2F20000B8
:10442000FEF79CBD41F6BC00C2F20000FEF796BD4F
:1044300040F6FF330268C4F2000343F2FF3C9842A7
:10444000C4F2010C0ADD60452EDC40F60043C4F2E4
:104450000003984234D042F600432DE0B0F1804F83
:104460002ED040F20043C4F20003984228D040F618
:104470000003C4F20003984222D0604526DC40F2DB
:10448000FF73C4F20003984236DD40F60003C4F225
:104490000003984244D040F60043C4F2000398421F
:1044A0003ED042F6004337E045F20003C4F2010378
:1044B000984205D043F20043C4F201039842DCD194
:1044C0004B6822F070021A436045D8DD44F2FF3396
:1044D000C4F20103984217DD44F20043C4F2010321
:1044E00098421DD045F20003C4F20103984217D050
:1044F00044F6000310E000BFB0F1804F10D040F24E
:104500000043C4F2000309E043F20043C4F2010394
:10451000984205D044F20003C4F20103984203D14B
:10452000CB6822F440721A4380B54B6922F0800EAA
:104530008A6843EA0E03D1F800C00360C262A0F1AA
:104540008042A2F59632830543EA9222092AC0F8F6
:1045500028C0BDE8804008D8012303FA02F240F2E7
:10456000E5231A421CBF0969016301214161016908
:10457000C90708BF7047016921F001010161704757
:1045800088B002F0BFFA02F045FD40F210079FED3F
:104590002C8A9FED2C9ADFED2C8A9FED2CAA9FEDA3
:1045A0002CBADFED2CCA40F2541542F2003A40F228
:1045B0002C0B9FED29DA9FED29EA9FED29FADFED1B
:1045C00029DADFED29AADFED29BAC2F200074FF0A0
:1045D0000109C2F20005C2F2000AC2F2000B0DF19D
:1045E0000808FBEE04EA16E0BAF900104BF21F20AF
:1045F000C0F6000006F0B6F8BAF900104BF2392008
:10460000C0F6000006F0AEF800202870AAF80000FE
:10461000142003F0E5F897ED001A97ED01CAD7EDE5
:10462000029AD7ED03FAB4EE481AF1EE10FA2FDC35
:10463000B4EE491AF1EE10FA2ADBB0EE410A37E087
:1046400000001B44000002430000DC420000B4C232
:104650000000E1430000114300000000000034C3EB
:104660000000AF43000016440000164300008C42D7
:1046700000002A4300007042000025430000084368
:104680000000EB4300001B430000A0430000344245
:10469000B4EE481AF1EE10FAB0EE480A08DCB4EEB7
:1046A000491AB0EE410AF1EE10FAB8BFB0EE490A6D
:1046B00006F034F8012003F093F8F4EE68FAF1EE16
:1046C00010FA07DCF4EE4AFAF1EE10FA02DBB0EE73
:1046D0006F0A0FE0F4EE68FAF1EE10FAB0EE680A35
:1046E00008DCF4EE4AFAB0EE6F0AF1EE10FAB8BF49
:1046F000B0EE4A0A05F0F4FF012003F071F8B0EEC5
:10470000690A02F0EBF9012003F06AF8B4EE4BCA33
:10471000F1EE10FA0ADCB4EE6CCAF1EE10FA05DB29
:10472000B0EE4C0A02F044FC17E000BFB4EE4BCAF6
:10473000F1EE10FAB0EE4B0A08DCB4EE6CCAB0EE43
:104740004C0AF1EE10FAB8BFB0EE6C0A02F030FC81
:1047500003E000BF0A2003F043F802F089F90028C3
:10476000F8D0287800287FF453AFBAF8000000286A
:104770003FF44EAF85F80090BAF900100FF698603C
:1047800005F0F0FFBAF90000032800F029830228A1
:1047900000F0668301287FF427AF1FED4B0A05F078
:1047A000BDFF012003F01CF8B0EE4D0A05F098FFA4
:1047B000012003F015F81FED510A02F08FF90120D6
:1047C00003F00EF8B0EE4B0A02F0F2FB02F050F9E3
:1047D00038B900BF0A2003F003F802F049F90028B5
:1047E000F8D01FED5B0A05F099FF012002F0F8FFF9
:1047F000B0EE4D0A05F074FF012002F0F1FF1FED4D
:10480000630A02F06BF9012002F0EAFFB0EE4B0AF6
:1048100002F0CEFB02F02CF938B900BF0A2002F0FA
:10482000DFFF02F025F90028F8D01FED6C0A05F033
:1048300075FF012002F0D4FFB0EE4D0A05F050FFE5
:10484000012002F0CDFF1FED750A02F047F90120AB
:1048500002F0C6FFB0EE4B0A02F0AAFB02F008F924
:1048600038B900BF0A2002F0BBFF02F001F90028AE
:10487000F8D0012005F046FF40F6B83002F0B0FF56
:104880001FED810A05F04AFF012002F0A9FFB0EEFA
:104890004D0A05F025FF012002F0A2FF1FED8B0A53
:1048A00002F01CF9012002F09BFFB0EE4B0A02F06F
:1048B0007FFB02F0DDF830B90A2002F091FF02F030
:1048C000D7F80028F8D01FED920A05F027FF012045
:1048D00002F086FFB0EE4D0A05F002FF012002F063
:1048E0007FFFB0EE4A0A02F0F9F8012002F078FFEB
:1048F000B0EE4F0A02F05CFB02F0BAF838B900BF24
:104900000A2002F06DFF02F0B3F80028F8D01FED86
:10491000A80A05F003FF012002F062FFB0EE4D0A85
:1049200005F0DEFE012002F05BFFB0EE4A0A02F065
:10493000D5F8012002F054FFB0EE4F0A02F038FB28
:1049400002F096F838B900BF0A2002F049FF02F0E1
:104950008FF80028F8D01FEDB50A05F0DFFE012022
:1049600002F03EFFB0EE4D0A05F0BAFE012002F063
:1049700037FFB0EE4A0A02F0B1F8012002F030FF32
:10498000B0EE4F0A02F014FB02F072F838B900BF23
:104990000A2002F025FF02F06BF80028F8D0002072
:1049A00005F0B0FE40F6B83002F01AFF1FEDCA0A5B
:1049B00005F0B4FE012002F013FFB0EE4D0A05F041
:1049C0008FFE012002F00CFF1FEDD00A02F086F8E6
:1049D000012002F005FFB0EE4F0A02F0E9FA02F002
:1049E00047F830B90A2002F0FBFE02F041F8002837
:1049F000F8D01FEDDF0A05F091FE012002F0F0FE75
:104A0000B0EE4D0A05F06CFE012002F0E9FE1FED4C
:104A1000E10A02F063F8012002F0E2FEB0EE4F0A74
:104A200002F0C6FA02F024F838B900BF0A2002F0FA
:104A3000D7FE02F01DF80028F8D09FEDE80A05F037
:104A40006DFE012002F0CCFEB0EE4D0A05F048FEEE
:104A5000012002F0C5FE9FEDE60A02F03FF80120BA
:104A600002F0BEFEB0EE4F0A02F0A2FA02F000F829
:104A700038B900BF0A2002F0B3FE01F0F9FF0028A8
:104A8000F8D0012005F03EFE40F6B83002F0A8FE56
:104A90009FEDD80A05F042FE012002F0A1FEB0EE23
:104AA0004D0A05F01DFE012002F09AFE9FEDD00A8E
:104AB00002F014F8012002F093FEB0EE4F0A02F06B
:104AC00077FA01F0D5FF30B90A2002F089FE01F033
:104AD000CFFF0028F8D09FEDC70A05F01FFE012088
:104AE00002F07EFEB0EE4D0A05F0FAFD012002F064
:104AF00077FEB0EE4A0A01F0F1FF012002F070FEED
:104B0000B0EE4F0A02F054FA01F0B2FF38B900BF1C
:104B10000A2002F065FE01F0ABFF0028F8D09FEDFF
:104B2000CC0A05F0FBFD012002F05AFEB0EE4D0A62
:104B300005F0D6FD012002F053FEB0EE4A0A01F066
:104B4000CDFF012002F04CFEB0EE4F0A02F030FA29
:104B500001F08EFF38B900BF0A2002F041FE01F0DB
:104B600087FF0028F8D09FEDBB0A05F0D7FD012094
:104B700002F036FEB0EE4D0A05F0B2FD012002F063
:104B80002FFEB0EE4A0A01F0A9FF012002F028FE34
:104B9000B0EE4F0A02F00CFA01F06AFF38B900BF1C
:104BA0000A2002F01DFE01F063FF0028F8D000206B
:104BB00005F0A8FD40F6B83002F012FE9FED8D0A18
:104BC00005F0ACFD012002F00BFEB0EE4D0A05F041
:104BD00087FD012002F004FEBBEE0E0A01F07EFF0D
:104BE000012002F0FDFD9FED9C0A02F0E1F901F0C9
:104BF0003FFF30B90A2002F0F3FD01F039FF002831
:104C0000F8D09FED960A05F089FD012002F0E8FD3D
:104C1000B0EE4D0A05F064FD012002F0E1FDBBEEAF
:104C20000E0A01F05BFF012002F0DAFD9FED8A0A17
:104C300002F0BEF901F01CFF38B900BF0A2002F0F3
:104C4000CFFD01F015FF0028F8D09FED640A05F0B4
:104C500065FD012002F0C4FDB0EE4D0A05F040FDF7
:104C6000012002F0BDFDBBEE0E0A01F037FF01206E
:104C700002F0B6FD9FED780A02F09AF901F0F8FE15
:104C800038B900BF0A2002F0ABFD01F0F1FE0028A8
:104C9000F8D0012005F036FD40F6B83002F0A0FD56
:104CA0009FED540A05F03AFD012002F099FDB0EEA7
:104CB0004D0A05F015FD012002F092FDBBEE0E0A33
:104CC00001F00CFF012002F08BFD9FED630A02F062
:104CD0006FF901F0CDFE30B90A2002F081FD01F03C
:104CE000C7FE0028F8D09FED430A05F017FD01200C
:104CF00002F076FDB0EE4D0A05F0F2FC012002F064
:104D00006FFDB0EE4A0A01F0E9FE012002F068FDF5
:104D1000B0EE4F0A02F04CF901F0AAFE38B900BF1C
:104D20000A2002F05DFD01F0A3FE0028F8D09FEDFF
:104D3000310A05F0F3FC012002F052FDB0EE4D0AFD
:104D400005F0CEFC012002F04BFDB0EE4A0A01F066
:104D5000C5FE012002F044FDB0EE4F0A02F028F932
:104D600001F086FE38B900BF0A2002F039FD01F0DB
:104D70007FFE0028F8D09FEDBD0A05F0CFFC012092
:104D800002F02EFDB0EE4D0A05F0AAFC012002F063
:104D900027FDB0EE4A0A01F0A1FE012002F020FD3D
:104DA000B0EE4F0A02F004F901F062FE38B900BF1C
:104DB0000A2002F015FD01F05BFE0028F8D000206B
:104DC00005F0A0FC40F6B83002F00AFD4BF24C2092
:104DD000C0F6000006F040F9FFF70EBC00000843E3
:104DE0000FF6A460544606F037F94FF0000A07E0CA
:104DF000000034420000EB43BAF1030F80F08080E2
:104E0000DBF8000008EBCA0100224FF0FF3302F08C
:104E100029FD0028F0D10AF1010A08EBCA0050E987
:104E20000208FBF77FFB814640465E468B460DF14C
:104E30000808FBF777FB41EC100B0FF6706051464A
:104E40004A465B46B3468DED000B05F08BFCD3E77D
:104E50000000A043008098430000C84300002543A1
:104E60000020C4F2BE30B0EE480A686005F056FC7F
:104E7000012002F0B5FCB0EE4D0A05F031FC012036
:104E800002F0AEFCB0EE4E0A01F028FE012002F066
:104E9000A7FC9FED770A02F08BF801F0E9FD30B92D
:104EA0000A2002F09DFC01F0E3FD0028F8D09FED00
:104EB000710A95ED01CA05F031FC012002F090FC69
:104EC000B0EE4D0A05F00CFC012002F089FCB0EEBA
:104ED0004E0A01F003FE012002F082FCB4EE4BCA40
:104EE000F1EE10FA00F3AE80B4EE6CCAF1EE10FAF7
:104EF000C0F2A880B0EE4C0A02F05AF8C1E000BF40
:104F00004BF26B20C0F6000006F0A6F81FED470A32
:104F100005F004FC012002F063FCB0EE4D0A05F040
:104F2000DFFB012002F05CFCB0EE4E0A01F0D6FD82
:104F3000012002F055FCB0EE4F0A02F039F801F002
:104F400097FD30B90A2002F04BFC01F091FD0028DA
:104F5000F8D09FED490A05F0E1FB012002F040FC8A
:104F6000B0EE4D0A05F0BCFB012002F039FCB0EEBA
:104F70004E0A01F0B3FD012002F032FCB0EE4F0A00
:104F800002F016F801F074FD4FF00109A24630B9A5
:104F90000A2002F025FC01F06BFD0028F8D001206A
:104FA00005F0B0FB40F6B83002F01AFC1FED6F0AB6
:104FB00005F0B4FB012002F013FCB0EE4D0A05F041
:104FC0008FFB012002F00CFCB0EE4E0A01F086FDD2
:104FD000012002F005FCB0EE4F0A01F0E9FF01F0FC
:104FE00047FD30B90A2002F0FBFB01F041FD00282B
:104FF000F8D01FED800A9DED02CADDED039A05F0A1
:105000008DFB012002F0ECFBB0EE4D0A05F068FBD1
:10501000012002F0E5FBB0EE690A01F05FFD01201E
:1050200002F0DEFBB4EE4BCAF1EE10FA5ADCB4EE3D
:105030006CCAF1EE10FA55DBB0EE4C0A01F0B8FF85
:1050400067E000BFB4EE4BCAF1EE10FAB0EE4B0AC7
:1050500008DCB4EE6CCAB0EE4C0AF1EE10FAB8BF40
:10506000B0EE6C0A01F0A4FF0BE000BF0080E34348
:105070000000BE43000011440000D7430A2002F0A4
:10508000AFFB01F0F5FC0028F8D0012005F03AFB59
:1050900040F6B83002F0A4FB95ED01CAB0EE6D0AFF
:1050A00005F03CFB012002F09BFBB0EE4D0A05F041
:1050B00017FB012002F094FBB0EE4E0A01F00EFD4A
:1050C000012002F08DFBB4EE4BCAF1EE10FA4BDC7E
:1050D000B4EE6CCAF1EE10FA46DBB0EE4C0A01F009
:1050E00067FF58E0B4EE4BCAF1EE10FAB0EE4B0A8F
:1050F00008DCB4EE6CCAB0EE4C0AF1EE10FAB8BFA0
:10510000B0EE6C0A01F054FF03E000BF0A2002F089
:1051100067FB01F0ADFC0028F8D09FEDAA0A9DEDD9
:1051200002CADDED039A05F0F9FA012002F058FBFE
:10513000B0EE4D0A05F0D4FA012002F051FBB0EEBA
:10514000690A01F0CBFC012002F04AFBB4EE4BCA25
:10515000F1EE10FA4CDCB4EE6CCAF1EE10FA47DB5B
:10516000B0EE4C0A54E000BFB4EE4BCAF1EE10FAB8
:10517000B0EE4B0A08DCB4EE6CCAB0EE4C0AF1EEAD
:1051800010FAB8BFB0EE6C0A01F012FF03E000BFE6
:105190000A2002F025FB01F06BFC0028F8D095ED09
:1051A00001CAB0EE6D0A05F0B9FA012002F018FB51
:1051B000B0EE4D0A05F094FA012002F011FBBBEEAF
:1051C0000E0A01F08BFC012002F00AFBB4EE4BCA80
:1051D000F1EE10FA00F3E280B4EE6CCAF1EE10FAD0
:1051E000C0F2DC80B0EE4C0A01F0E2FEF1E000BF5C
:1051F000B4EE4BCAF1EE10FAB0EE4B0A08DCB4EE96
:105200006CCAB0EE4C0AF1EE10FAB8BFB0EE6C0A00
:10521000B84601F0CDFE01F02BFC30B90A2002F0B7
:10522000DFFA01F025FC0028F8D0002005F06AFA2A
:1052300040F6B83002F0D4FADDE90204FBF772F967
:10524000074620460E46FBF76DF941EC100B4BF27A
:10525000F310C0F6000000213A4633468DED000BF6
:1052600005F080FA9FED580A05F058FA012002F087
:10527000B7FAB0EE4D0A05F033FA012002F0B0FAA9
:10528000B0EE4E0A01F02AFC012002F0A9FAB0EEBD
:105290004F0A01F08DFE01F0EBFB30B90A2002F05D
:1052A0009FFA01F0E5FB0028F8D09FEDEA0A05F02F
:1052B00035FA012002F094FAB0EE4D0A05F010FA2A
:1052C000012002F08DFAB0EE4E0A01F007FC012039
:1052D00002F086FAB0EE4F0A01F06AFE01F0C8FB58
:1052E00038B900BF0A2002F07BFA01F0C1FB0028A8
:1052F000F8D0012005F006FA40F6B83002F070FA56
:105300009FED310A05F00AFA012002F069FAB0EEC9
:105310004D0A05F0E5F9012002F062FAB0EE4E0AFE
:1053200001F0DCFB012002F05BFAB0EE4F0A01F065
:105330003FFE01F09DFB30B90A2002F051FA01F066
:1053400097FB0028F8D09FED200A9DED04CADDED03
:10535000059A05F0E3F9012002F042FAB0EE4D0A99
:1053600005F0BEF9012002F03BFAB0EE690A01F047
:10537000B5FB012002F034FAB4EE4BCAF1EE10FA9C
:1053800000F31483B4EE6CCAF1EE10FAC0F20E838F
:10539000B0EE4C0A01F00CFE1FE300BFB4EE4BCAA6
:1053A000F1EE10FAB0EE4B0A08DCB4EE6CCAB0EEC7
:1053B0004C0AF1EE10FAB8BFB0EE6C0A01F0F8FD3D
:1053C00007E000BF00001B430000EB430A2002F08F
:1053D00007FA01F04DFB0028F8D0B0EE6D0A05F099
:1053E0009DF9012002F0FCF99FED9B0A05F078F988
:1053F000012002F0F5F9BBEE0E0A01F06FFB01206F
:1054000002F0EEF99FED950A01F0D2FD01F030FBBC
:1054100038B900BF0A2002F0E3F901F029FB0028A7
:10542000F8D09FED8F0A05F079F9012002F0D8F944
:105430009FED890A05F054F9012002F0D1F9BBEE85
:105440000E0A01F04BFB012002F0CAF99FED830A1E
:1054500001F0AEFD01F00CFB38B900BF0A2002F0EC
:10546000BFF901F005FB0028F8D09FED7D0A05F09B
:1054700055F9012002F0B4F99FED770A05F030F9F3
:10548000012002F0ADF9BBEE0E0A01F027FB01206E
:1054900002F0A6F99FEDCE0A01F08AFD01F0E8FACC
:1054A00038B900BF0A2002F09BF901F0E1FA0028A8
:1054B000F8D0002005F026F940F6B83002F090F957
:1054C0009FED670A05F02AF9012002F089F99FEDA6
:1054D000620A05F005F9012002F082F9BBEE0E0A1E
:1054E00001F0FCFA012002F07BF99FEDBA0A01F00D
:1054F0005FFD01F0BDFA30B90A2002F071F901F048
:10550000B7FA0028F8D00FF6300005F0A5FD012409
:105510000AE000BF4BF29920C0F6000005F09CFDA8
:105520000134042C3FF468A8C4F1040000EE100A12
:10553000B8EEC00A20EE2ACA0020C4F2AF303CEE1A
:105540002E0A6860032C08BFB0EE40CAB0EE480ACD
:1055500005F0E4F8012002F043F9B0EE4D0A05F041
:10556000BFF8012002F03CF9B0EE4E0A01F0B6FAA5
:10557000012002F035F9B0EE4F0A01F019FD01F0FB
:1055800077FA30B90A2002F02BF901F071FA0028FD
:10559000F8D03CEE2E1A95ED01CAB4EE481AF1EEA1
:1055A00010FA07DCB4EE491AF1EE10FA02DBB0EEA5
:1055B000410A0FE0B4EE481AF1EE10FAB0EE480AD4
:1055C00008DCB4EE491AB0EE410AF1EE10FAB8BFA9
:1055D000B0EE490A05F0A2F8012002F001F9B0EEA0
:1055E0004D0A05F07DF8012002F0FAF8B0EE4E0AFF
:1055F00001F074FA012002F0F3F8B4EE4BCAF1EEB8
:1056000010FA13DCB4EE6CCAF1EE10FA0EDBB0EE59
:105610004C0A01F0CDFC28E05374617274696E6726
:10562000205461736B2025640D0A0000B4EE4BCA50
:10563000F1EE10FAB0EE4B0A08DCB4EE6CCAB0EE34
:105640004C0AF1EE10FAB8BFB0EE6C0A01F0B0FCF3
:105650000BE000BF00008C430000B4420000824316
:105660000000A5430A2002F0BBF801F001FA00286F
:10567000F8D0012005F046F840F6B83002F0B0F856
:1056800095ED01CAB0EE6D0A05F048F8012002F070
:10569000A7F8B0EE4D0A05F023F8012002F0A0F8BB
:1056A000B0EE4E0A01F01AFA012002F099F8B4EEB9
:1056B0004BCAF1EE10FA09DCB4EE6CCAF1EE10FA46
:1056C00004DBB0EE4C0A01F073FC16E0B4EE4BCAFA
:1056D000F1EE10FAB0EE4B0A08DCB4EE6CCAB0EE94
:1056E0004C0AF1EE10FAB8BFB0EE6C0A01F060FCA3
:1056F00003E000BF0A2002F073F801F0B9F90028B6
:10570000F8D00FF2486050F82400411F02293FF6FC
:1057100007AF4BF2D401C0F6000101EB001695ED86
:1057200001CAD6ED019AB0EE6D0A04F0F7FF012030
:1057300002F056F8B0EE4D0A04F0D2FF012002F05C
:105740004FF8B0EE690A01F0C9F9012002F048F8FB
:10575000B4EE4BCAF1EE10FA0ADCB4EE6CCAF1EE0C
:1057600010FA05DBB0EE4C0A01F022FC17E000BF96
:10577000B4EE4BCAF1EE10FAB0EE4B0A08DCB4EE10
:105780006CCAB0EE4C0AF1EE10FAB8BFB0EE6C0A7B
:1057900001F00EFC03E000BF0A2002F021F801F046
:1057A00067F90028F8D0D6ED02FA9FED7B0A96ED56
:1057B00000CA3FEE801AB4EE481AF1EE10FA0BDC84
:1057C000B4EE491AF1EE10FA06DBB0EE410A13E02E
:1057D0000000DC430080B643B4EE481AF1EE10FA44
:1057E000B0EE480A08DCB4EE491AB0EE410AF1EE18
:1057F00010FAB8BFB0EE490A04F090FF012001F0A2
:10580000EFFFB0EE6B0A04F06BFF012001F0E8FF40
:10581000B0EE690A01F062F9012001F0E1FFB4EE97
:105820004BCAF1EE10FA4FF00000B4EE6CCAD8BFCC
:105830000120F1EE10FA4FF00001A8BF012110EA9B
:105840000106B0EE4C0A0FD1B4EE4BCAF1EE10FADD
:10585000B0EE4B0A08DCB4EE6CCAB0EE4C0AF1EEC6
:1058600010FAB8BFB0EE6C0A01F0A2FB01F000F92B
:1058700038B900BF0A2001F0B3FF01F0F9F80028A1
:10588000F8D0B0EE6F0A04F049FF012001F0A8FF44
:10589000B0EE6B0A04F024FF012001F0A1FFB0EE8E
:1058A000690A01F01BF9012001F09AFFB0EE4C0AE1
:1058B0007EB9B4EE4BCAF1EE10FAB0EE4B0A08DC3A
:1058C000B4EE6CCAB0EE4C0AF1EE10FAB8BFB0EE0E
:1058D0006C0A01F06DFB01F0CBF830B90A2001F041
:1058E0007FFF01F0C5F80028F8D0002004F00AFF7F
:1058F00040F6B83001F074FFB3EE040A3FEE801AB0
:10590000B4EE481AF1EE10FA08DCB4EE491AF1EEE2
:1059100010FA03DBB0EE410A10E000BFB4EE481A03
:10592000F1EE10FAB0EE480A08DCB4EE491AB0EE17
:10593000410AF1EE10FAB8BFB0EE490A04F0EEFEEB
:10594000012001F04DFFB0EE6B0A04F0C9FE01200A
:1059500001F046FFB0EE690A01F0C0F8012001F045
:105960003FFF2EB1B0EE4C0A01F022FB19E000BF60
:10597000B4EE4BCAF1EE10FAB0EE4B0A08DCB4EE0E
:105980006CCAB0EE4C0AF1EE10FAB8BFB0EE6C0A79
:1059900001F00EFB05E000BF000034430A2001F0D7
:1059A0001FFF01F065F80028F8D0B3E5B4EE4BCA4C
:1059B000F1EE10FAB0EE4B0A08DCB4EE6CCAB0EEB1
:1059C0004C0AF1EE10FAB8BFB0EE6C0A01F0F0FA32
:1059D00003E000BF0A2001F003FF01F049F80028AE
:1059E000F8D09FEDD40A9DED04CADDED059A04F0D0
:1059F00095FE012001F0F4FEB0EE4D0A04F070FEB9
:105A0000012001F0EDFEB0EE690A01F067F8012017
:105A100001F0E6FEB4EE4BCAF1EE10FA0ADCB4EE89
:105A20006CCAF1EE10FA05DBB0EE4C0A01F0C0FAD8
:105A300017E000BFB4EE4BCAF1EE10FAB0EE4B0A1D
:105A400008DCB4EE6CCAB0EE4C0AF1EE10FAB8BF46
:105A5000B0EE6C0A01F0ACFA03E000BF0A2001F0DE
:105A6000BFFE01F005F80028F8D0002004F04AFE3F
:105A700040F6B83001F0B4FEDDE90404FAF752FD57
:105A8000064620460F46FAF74DFD41EC100B4BF24F
:105A9000F310C0F60000012132463B468DED000BAD
:105AA00004F060FE9FEDA20A04F038FE012001F030
:105AB00097FEB0EE4D0A04F013FE012001F090FEB7
:105AC000B0EE4E0A01F00AF8012001F089FEB0EEB6
:105AD0004F0A01F06DFA00F0CBFF30B90A2001F057
