:020000040800F2
:10000000D81D0020ED010008E54200084940000825
:10001000E1420008A50700080151000800000000A7
:10002000000000000000000000000000FD44000887
:100030006908000800000000554300085545000805
:10004000070200080702000807020008070200086C
:10005000070200080702000807020008070200085C
:10006000070200080702000807020008A9070008A5
:10007000070200080702000807020008070200083C
:10008000070200080702000807020008070200082C
:10009000070200087D0800088D0800080702000814
:1000A000070200080702000807020008070200080C
:1000B00007020008070200080702000807020008FC
:1000C00007020008070200080702000807020008EC
:1000D00007020008F15000080702000807020008A4
:1000E00007020008070200080702000807020008CC
:1000F00007020008070200080702000807020008BC
:1001000007020008070200080702000807020008AB
:10011000070200080702000807020008070200089B
:10012000070200080702000807020008070200088B
:10013000070200080702000807020008070200087B
:10014000070200080702000807020008070200086B
:10015000070200080702000807020008070200085B
:10016000070200080702000807020008070200084B
:10017000070200080702000807020008070200083B
:10018000070200080702000807020008070200082B
:1001900007020008000000009D080008AD080008E4
:1001A000070200080702000807020008070200080B
:1001B00007020008070200080702000807020008FB
:1001C00007020008070200080702000807020008EB
:1001D0000702000807020008DFF80CD000F0B8FAA8
:1001E00000480047015F0008D81D002006488047EE
:1001F00006480047FEE7FEE7FEE7FEE7FEE7FEE70C
:10020000FEE7FEE7FEE7FEE7D1450008D90100085A
:100210002DE9F05F0546002092469B46884606463B
:10022000814640241BE0284641464746224600F0CE
:100230004BF953465A46C01A914110D311461846FD
:10024000224600F032F92D1A67EB01084F4622468C
:100250000120002100F029F917EB00094E41201E72
:10026000A4F10104DFDC484631462A464346BDE896
:10027000F09FD2B201E000F8012B491EFBD270477B
:100280000022F6E710B513460A4604461946FFF762
:10029000F0FF204610BD2DE9FE4F81EA030404F073
:1002A000004421F0004100944FF0000B23F0004384
:1002B00050EA01045ED052EA03045BD0C3F30A544F
:1002C000C1F30A552C44A4F2F3340194A0FB025468
:1002D000C1F3130141F48011C3F3130343F48013FA
:1002E00001FB024400FB034E840A970A44EA81544E
:1002F00047EA8357A4FB076802958D0A05FB07852B
:100300004FEA932C04FB0C542705029D4FEA065834
:1003100047EA1637B5EB08056EEB070C870E920E11
:1003200047EA811742EA8312A7FB0201B6EB0B01F1
:1003300064EB00042B0D43EA0C335E1844EB1C50B5
:10034000DA465146E7FB0201C5F313044FEA0B33CB
:1003500043EA14534FEA0432019C43EA0603A4F132
:100360000C040294009CCDE900B400F0CCF803B07A
:10037000BDE8F08F00200146F9E72DE9F04D81EA54
:10038000030404F0004B21F0004514464FF0000A2E
:1003900023F0004150EA050220D054EA01021DD0AA
:1003A000C5F30A570246C5F31303C1F31300C1F3A3
:1003B0000A5640F4801543F48013A7EB0608101B7F
:1003C000D64608F2FD3873EB050002D308F10108A8
:1003D00001E092185B41B8F1000F03DA00200146FA
:1003E000BDE8F08D00204FF48011064684460EE0F3
:1003F000171B73EB050705D3121B63EB05030643BD
:100400004CEA010C49084FEA300092185B4150EA6F
:100410000107EDD152EA030012D082EA040083EA18
:100420000501084305D0101BAB4106D20122002371
:1004300006E000224FF0004302E06FF0010253108B
:100440001AEB06004CEB085110EB0A0041EB0B01D4
:10045000BDE8F04D00F048B800F0004230F0004038
:100460000AD0C10D01F56071C0F3160042EA0151D6
:10047000C20840071143704700200146704730B55D
:100480000B46014600202022012409E021FA02F552
:100490009D4205D303FA02F5491B04FA02F52844EC
:1004A000151EA2F10102F1DC30BD202A04DB203A46
:1004B00000FA02F1002070479140C2F1200320FAB7
:1004C00003F3194390407047202A04DB203A21FAB5
:1004D00002F00021704721FA02F3D040C2F120025D
:1004E000914008431946704710B5141E73F100047B
:1004F00008DA401C41F1000192185B411A4301D116
:1005000020F0010010BD2DE9F04D92469B4611B13F
:10051000B1FA81F202E0B0FA80F220329046FFF7A1
:10052000C4FF04460F4640EA0A0041EA0B01534665
:100530005A46084313D0114653EA010019D0C8F1B6
:1005400040025046FFF7C0FF05460E46504659464A
:100550004246FFF7AAFF084305D0012004E02046E9
:100560003946BDE8F08D0020054346EAE0762C438D
:1005700037430A986305E40AA0EB08000022FD0A4D
:1005800044EA47540A3002D500200146E9E7010554
:1005900010196941DDE9084500196941BDE8F04DD0
:1005A000A2E72DE9FE4F804681EA0300C00F0C460A
:1005B000009021F0004123F00045B8EB0200A94172
:1005C00005D24046214690461C460B46024623F083
:1005D0000040104347D0270DC7F30A00C3F30A5168
:1005E0000290401A019040286BDAC3F3130040F4E4
:1005F000801B0098924620B10023D2EB030A63EBE4
:100600000B0B01985946C0F140025046FFF74DFFD1
:1006100006460D4650465946019A00F0B1F810EBD7
:1006200008006141002487EA115284EAE7731A4303
:1006300040D0009A62B3019A012A4FEA075215DCB2
:10064000001B61EB02014FF0004202EA0752CDE9C4
:100650000042001C41F5801132462B46FFF753FF44
:1006600003B0BDE8F08F40462146F9E7001B61EB7F
:100670000201001C41F5801300185B412018A2F50F
:10068000001747EB030140EAD570B6196D4111E040
:100690006D084FEA360645EAC0754FEA0752001B5F
:1006A00061EB0201001C41F5801149084FEA30005E
:1006B0000019514132462B4603B0BDE8F04FFFF719
:1006C00013BF0098012240000023D0EB020263EB2D
:1006D000E073009821464FEAE074B8EB000061EB4C
:1006E0000401E9E783F000435BE781F0004158E74C
:1006F000C1F30A52C1F3130140F2FF3341F48011F8
:100700009A4202DA00200146704740F233439A428F
:10071000A2F2334202DC5242FFF7D6BEFFF7C5BE5B
:1007200030B5041E71F1000404DB4FF00044404278
:1007300064EB0101141E73F1000405DB1C464FF04D
:100740000043524263EB0403994208BF904230BD1C
:100750001CB509480090094801900546009C06E038
:10076000E06840F0010394E8070098471034AC4279
:10077000F6D3FFF735FD0000AC6A0008CC6A00082C
:10078000202A06DBCB17203A41FA02F043EAE07355
:1007900006E041FA02F3D040C2F120029140084342
:1007A00019467047FFE7FEE780B541F22450C2F2D8
:1007B000000000F0FBF980BD84B00390039800684E
:1007C00040F20741C4F20201884206D8FFE740F632
:1007D0000000C4F20200009005E040F62000C4F2E0
:1007E00002000090FFE70098029003980078083814
:1007F0004CF6CD41CCF6CC41A0FB01100009019094
:10080000029803994A6C22F0030210448864039909
:1008100040F68000C4F20200C864019800F01F0195
:10082000012088400399086504B0704782B00190A8
:10083000019800790090009940F6FC00C4F2020093
:1008400000EB810001994865019940F64010C4F21F
:10085000020088650098013800F01F0101208840DF
:100860000199C86502B070477047000081B0EFF38E
:10087000108072B60090FFE7FEE7000080B541F2FD
:100880008450C2F2000000F059FE80BD80B541F2F4
:100890008450C2F2000000F051FE80BD80B541F2EC
:1008A000E850C2F2000000F049FE80BD80B541F280
:1008B000E850C2F2000000F041FE80BD83B002901B
:1008C0004AF20040C4F2000000900298006846F628
:1008D0000001C4F20001884205D1FFE7009800F54D
:1008E00054700090FFE70298006846F60041C4F299
:1008F0000001884205D1FFE7009800F5D460009020
:10090000FFE700980299086402980068D0F8800018
:1009100020F4F810029A1168526B40EA0240C1F8C4
:100920008000009870300299486402980068D0F8FE
:10093000800020F07060029A1168926B40EA0260B9
:10094000C1F880000098B03002998864009800F5E2
:10095000C4700299C864009800F51870029908657F
:10096000009800F51E700299486500980190FFE715
:100970000198009901F55471884208D2FFE7019966
:1009800000200860FFE7019804300190F0E703B011
:100990007047000088B0079006910592049306986E
:1009A000406848B9FFE7069801688268006910430B
:1009B00040EA8140039009E0069801688268006976
:1009C0001043084340F080400390FFE70698D0F8BA
:1009D00020C0C16842698369C06940EA0C6018435D
:1009E000104340EA014002900798406D049901EBE2
:1009F000C10100EBC10001900398019908600198C2
:100A00000430019002980199086001980430019027
:100A100000200090FFE700980699CA6846F60A2170
:100A2000C0F60001895C88420DD2FFE70598009965
:100A3000405801990860019804300190FFE7009840
:100A400004300090E7E708B07047000082B00190E2
:100A500000208DF80300019890F82500022807D0A7
:100A6000FFE701990420C86301208DF803002DE001
:100A700001980168086820F00E0008600198816CF8
:100A8000086820F48070086001980168086820F008
:100A9000010008600198016C406C00F01F02012009
:100AA000904048600198C16C006D48600198406DAD
:100AB00058B1FFE70198416D086820F48070086024
:100AC0000198816DC06D4860FFE7FFE70199012043
:100AD00081F82500FFE70199002081F82400FFE755
:100AE0009DF8030002B0704780B582B001900020ED
:100AF0008DF80300019890F82500022811D0FFE737
:100B000001990420C8630199012081F82500FFE7BD
:100B10000199002081F82400FFE701208DF80300EF
:100B20003FE001980168086820F00E000860019815
:100B30000168086820F0010008600198816C08686D
:100B400020F4807008600198016C406C00F01F0276
:100B50000120904048600198C16C006D4860019888
:100B6000406D58B1FFE70198416D086820F480702E
:100B700008600198816DC06D4860FFE70199012010
:100B800081F82500FFE70199002081F82400FFE7A4
:100B90000198806B20B1FFE70198816B8847FFE7E0
:100BA000FFE79DF8030002B080BD000080B584B06F
:100BB00003900398006C0068029003980068006836
:100BC000019002980399496C01F01F01C840400749
:100BD000002825D5FFE79DF80400400700281FD511
:100BE000FFE70398006800688006002807D4FFE745
:100BF00003980168086820F004000860FFE7039884
:100C0000016C406C00F01F02042090404860039883
:100C1000006B20B1FFE70398016B8847FFE76EE0A8
:100C200002980399496C01F01F01C8408007002811
:100C30002FD5FFE79DF804008007002829D5FFE79E
:100C4000039800680068800600280BD4FFE703982B
:100C50000168086820F00A0008600399012081F803
:100C60002500FFE70398016C406C00F01F02022092
:100C700090404860FFE70399002081F82400FFE7D7
:100C80000398C06A20B1FFE70398C16A8847FFE76D
:100C900034E002980399496C01F01F01C840000735
:100CA000002829D5FFE79DF804000007002823D578
:100CB000FFE703980168086820F00E0008600398B9
:100CC000026C406C00F01F01012000FA01F151603C
:100CD0000399C863039981F82500FFE70399002071
:100CE00081F82400FFE70398406B20B1FFE70398E9
:100CF000416B8847FFE700E0FFE7FFE7FFE704B04D
:100D000080BD000080B584B00290029820B9FFE752
:100D100001208DF80F009CE00298006840F2074126
:100D2000C4F20201884218D8FFE7029908684FF61A
:100D3000F872CBF6FD7210444CF6CD42CCF6CC42A4
:100D4000A0FB02026FF0030000EA920048640299DF
:100D50000020C4F20200086418E0029908684FF607
:100D6000F832CBF6FD7210444CF6CD42CCF6CC42B4
:100D7000A0FB02026FF0030000EA920048640299AF
:100D800040F20040C4F202000864FFE7029902202A
:100D900081F825000298006800680190019847F6E4
:100DA000F0718843019002998868D1F80CC00B69F2
:100DB0004A6940EA0C00184310438A691043CA6923
:100DC0001043096A01430198084301900198029970
:100DD000096808600298FFF7EFFC02988068B0F598
:100DE000804F04D1FFE7029900204860FFE7029995
:100DF0000879896C08600298C16C006D486002989F
:100E0000406888B1FFE70298406804280CD8FFE7E3
:100E10000298FFF70BFD0298416D002008600298D0
:100E2000816DC06D486007E0029900204865029915
:100E300088650299C865FFE702990020C863029A95
:100E4000012182F82510029981F824008DF80F0005
:100E5000FFE79DF80F0004B080BD000080B584B0AE
:100E6000039001F073F9029003980190019801300A
:100E700048B1FFE740F20C00C2F20000016801989F
:100E800008440190FFE7FFE701F060F90299401A7A
:100E90000199884201D2FFE7F6E704B080BD000067
:100EA00086B0049003910292049890F85C008DF84B
:100EB0000700BDF80C0010F4C07F01D0FFE7FFE78A
:100EC0009DF80700012806D0FFE79DF807000228DB
:100ED00040F0DE80FFE704980068806D00909DF888
:100EE0000C00400730B1FFE79DF80000C007002864
:100EF00047D0FFE79DF80C0010F0380F06D0FFE751
:100F00009DF80000800700283BD5FFE7BDF80C00E6
:100F100010F4E07F06D0FFE79DF8000040070028AE
:100F20002FD5FFE79DF80D0010F01E0F06D0FFE74C
:100F30009DF800000007002823D5FFE79DF80D006D
:100F400010F0E00F06D0FFE79DF80000C006002873
:100F500017D5FFE79DF80E00800730B1FFE79DF839
:100F60000000800600280CD5FFE79DF80E0010F069
:100F7000FC0F0DD0FFE79DF800004006002807D4C5
:100F8000FFE704980168C86D40F00100C865FFE7FD
:100F90009DF80C00400730B1FFE79DF80000C00746
:100FA000002847D1FFE79DF80C0010F0380F06D05D
:100FB000FFE79DF80000800700283BD4FFE7BDF85D
:100FC0000C0010F4E07F06D0FFE79DF8000040071A
:100FD00000282FD4FFE79DF80D0010F01E0F06D05B
:100FE000FFE79DF800000007002823D4FFE79DF8E5
:100FF0000D0010F0E00F06D0FFE79DF80000C006DE
:10100000002817D4FFE79DF80E00800730B1FFE7F6
:101010009DF80000800600280CD4FFE79DF80E0024
:1010200010F0FC0F0DD0FFE79DF8000040060028EF
:1010300007D5FFE704980168C86D40F00200C86555
:10104000FFE79DF80C000006002809D5FFE7029A8B
:1010500004980168D1F8DC001043C1F8DC00FFE718
:101060009DF80D00C00748B1FFE7029A0498016897
:10107000D1F8E0001043C1F8E000FFE7039A0498BC
:101080000168486D1043486500208DF8170008E09E
:101090000499086E40F00200086601208DF81700E0
:1010A000FFE79DF8170006B07047000080B586B0D6
:1010B0000490039102920398406808B9FFE700E0AA
:1010C000FFE7049890F85C0002282FD1FFE704980E
:1010D0000068D0F8C4008002002809D5FFE7049911
:1010E000086E40F40070086601208DF8170026E0B5
:1010F00004980068D0F8C400C0F30140019004983F
:101100000399029A019BFFF745FC0199012000FA1F
:1011100001F1049A1268C2F8CC1001998840049930
:101120008865FFE700208DF8170008E00499086E35
:1011300040F00800086601208DF81700FFE79DF8D1
:10114000170006B080BD000087B005900491059897
:1011500090F85C008DF803009DF80300012805D08D
:10116000FFE79DF8030002283CD1FFE704980068E0
:10117000B8B9FFE704998868CB680A6949698007AC
:1011800040EAC36040EA0240084303900598006CBF
:101190000499496800EB8100019003980199086067
:1011A0001CE00498C168006940EA4170039004980B
:1011B0008168406940EA817002900598406C04990A
:1011C000496800EBC10001900398019908600198FB
:1011D00004300190029801990860FFE700208DF823
:1011E0001B0008E00599086E40F002000866012027
:1011F0008DF81B00FFE79DF81B0007B0704700004B
:1012000085B0DDF814C00390029101920093039819
:1012100090F85C00012819D1FFE703980068D0F826
:10122000800020F03F0002990901019A41EA820101
:10123000009A41EA4201059A11430843039909685B
:10124000C1F8800000208DF8130008E00399086EB3
:1012500040F00400086601208DF81300FFE79DF8B8
:10126000130005B07047000081B0009001B07047D6
:1012700080B582B0019000919DF80200000700281F
:101280003ED5FFE7019801684FF4002008650198FA
:10129000006846F20041C4F20001884209D1FFE72C
:1012A00002F000FF41F28450C2F2000004F066FC3C
:1012B00025E00198006846F60001C4F2000188426A
:1012C00009D1FFE702F020FF41F2E850C2F200002E
:1012D00004F054FC12E00198006846F60041C4F2A4
:1012E0000001884209D1FFE702F040FF41F24C6063
:1012F000C2F2000004F042FCFFE7FFE7FFE7FFE770
:1013000002B080BD8AB00890079106920593002034
:101310000190089890F85C008DF803009DF8030098
:10132000022840F0FA80FFE7079840283ED1FFE707
:1013300008980068D0F89000000748B9FFE70899BE
:10134000086E40F48070086601208DF82700EDE0FB
:1013500008980068D0F8900000F080710120B0EB90
:10136000116F0FD1FFE708980068D0F8800000F4F3
:1013700000710120B0EB512F03D1FFE70120019054
:10138000FFE7FFE708980068D0F8900000F440718C
:10139000019800EB112001900898806C019901EBF5
:1013A000C10100EBC1000490FFE73DE00898006830
:1013B000D0F89800000748B9FFE70899086E40F494
:1013C0008070086601208DF82700AFE0089800685B
:1013D000D0F8980000F080710120B0EB116F0FD1B0
:1013E000FFE708980068D0F8800000F480710120C1
:1013F000B0EB112F03D1FFE701200190FFE7FFE7DA
:1014000008980068D0F8980000F44071019800EB4B
:10141000112001900898C06C019901EBC10100EB0B
:10142000C1000490FFE7FFE70498006800F08040E7
:10143000069948600698406838B9FFE70498006844
:10144000C0F38A400699086006E00498006820F01E
:10145000604006990860FFE70498006800F00050BB
:10146000069988600498006800F0004006990861B9
:10147000049804300490049800880699C861049880
:101480000068C0F303400699C8600498006800F43F
:101490008010069948610498006800F400100699CD
:1014A000886104980068C0F3066006990862049891
:1014B0000068C00F069948620498043004900498AC
:1014C000039000200290FFE702980699CA6846F64A
:1014D0000A21C0F60001895C88420AD2FFE703981E
:1014E000029A805C05998854FFE7029801300290C7
:1014F000EAE70798402806D1FFE7019808990968AC
:10150000C1F8940005E0019808990968C1F89C00A9
:10151000FFE700208DF8270008E00899086E40F0EA
:101520000800086601208DF82700FFE79DF82700D6
:101530000AB0704781B0009001B0704780B58AB0A2
:10154000099009980068006D00F4E050089009982F
:101550000068416D08980840089009980068006D7F
:1015600000F00700079009980068416D079808404F
:10157000079009980068006D00F0380006900998FF
:101580000068416D06980840069009980068006D53
:1015900000F47100059009980068416D05980840B5
:1015A000059009980068006D00F460200490099887
:1015B0000068416D04980840049009980068406DE7
:1015C000019009980068006D00909DF8000000F0FF
:1015D00040010020B0EB911F12D0FFE79DF80400FE
:1015E00000F040010020B0EB911F08D0FFE7099800
:1015F0000168402008650998FFF79CFFFFE7FFE7B7
:101600009DF80100C007E0B1FFE79DF80500C007A5
:10161000B0B1FFE709980068D0F8D80002900998A7
:101620000068D0F8E010029808400290099801681C
:101630004FF4807008650998029900F0BDFBFFE740
:10164000FFE7089848B1FFE7089809990968086515
:101650000998089900F0BCFBFFE7079848B1FFE73D
:1016600007980999096808650998079900F054FBDB
:10167000FFE7069848B1FFE70698099909680865E9
:101680000998069900F058FBFFE79DF8010000F06B
:1016900002010020B0EB510F13D0FFE79DF80500C9
:1016A00000F002010020B0EB510F09D0FFE70998CC
:1016B00001684FF400700865099800F08FFBFFE7A0
:1016C000FFE79DF800100020B0EBD11F1DD0FFE711
:1016D0009DF804100020B0EBD11F15D0FFE709984A
:1016E0000068D0F8D400039009980068D0F8DC10A6
:1016F00003980840039009980168802008650998BC
:10170000039900F05FFBFFE7FFE79DF8010000F0A1
:1017100020010020B0EB511F13D0FFE79DF805001A
:1017200000F020010020B0EB511F09D0FFE709981D
:1017300001684FF400500865099800F039FBFFE795
:10174000FFE79DF801100020B0EBD11F11D0FFE79B
:101750009DF805100020B0EBD11F09D0FFE70998D4
:1017600001684FF400400865099800F01DFBFFE791
:10177000FFE79DF8010000F040010020B0EB911F51
:1017800015D0FFE79DF8050000F040010020B0EB08
:10179000911F0BD0FFE7099801684FF4804008655E
:1017A0000999086E40F080000866FFE7FFE704989B
:1017B00048B1FFE7049809990968086509980499F0
:1017C000FFF756FDFFE7059850B1FFE70598099927
:1017D00009680865059A0999086E10430866FFE7CD
:1017E0000998006E20B1FFE70998FFF73DFDFFE77C
:1017F0000AB080BD80B584B00290029820B9FFE79E
:1018000001208DF80F0057E10298006846F2004170
:10181000C4F20001884201D1FFE7FFE70298806827
:10182000B0F5407F01D1FFE7FFE7029890F85C0038
:1018300040B9FFE70299002081F85D00029800F0AE
:101840003FF9FFE702980168886920F0100088617D
:1018500000F07CFC0190FFE70298006880690007B7
:10186000002815D5FFE700F071FC0199401A0B28FC
:101870000DD3FFE70299086E40F001000866029957
:10188000032081F85C0001208DF80F0014E1E3E7EC
:1018900002980168886940F00100886100F056FCF8
:1018A0000190FFE7029800688069C007A8B9FFE7C8
:1018B00000F04CFC0199401A0B280DD3FFE7029968
:1018C000086E40F0010008660299032081F85C0070
:1018D00001208DF80F00EFE0E4E7029801688869C5
:1018E00040F0020088610298006846F20041C4F2AC
:1018F0000001884208D1FFE70298406846F2005193
:10190000C4F200010860FFE70298007C012807D1BB
:10191000FFE702980168886920F04000886106E0CE
:1019200002980168886940F040008861FFE70298EA
:10193000407C012807D1FFE702980168886940F4DC
:101940008040886106E002980168886920F4804040
:101950008861FFE70298807C012807D1FFE70298A1
:101960000168886920F48050886106E00298016867
:10197000886940F480508861FFE7029800688069B8
:1019800020F44070029A11689268104388610298AE
:101990000168886920F0A4008861029801680869DC
:1019A00020F0100008610298C068012807D1FFE705
:1019B00002980168886940F0040088612BE0029871
:1019C000C06830B3FFE70298C068022819D0FFE76B
:1019D00002980168886940F0800088610298016877
:1019E000086940F0100008610298C068032807D118
:1019F000FFE702980168886940F020008861FFE7EE
:101A000006E002980168886940F020008861FFE7DD
:101A100000E0FFE7FFE7029A116853699069D2F886
:101A20001CE0A0F1010C6FF0FF0000EB0E2040EA7B
:101A30004C60126A013A10430022CFF6FF7202EBAB
:101A400003421043C86102988068B0F5407F1CD102
:101A5000FFE7029A1168536A906AD2F82CE00138C5
:101A60006FF0FF0C0CEB0E2C40EA0C00D2F830C0EB
:101A70006FF00F0202EB0C1210430022CFF6FF7240
:101A800002EB03421043C860FFE702980168C26B93
:101A9000D1F8C0001043C1F8C0000298FEF70EFF55
:101AA00002990020886502990866029A012182F84D
:101AB0005C108DF80F00FFE79DF80F0004B080BDAB
:101AC00080B5A8B0279000202690259024902390E0
:101AD00022900DA85421FEF7D3FB2798006846F208
:101AE0000041C4F2000188425BD1FFE74FF480500F
:101AF0000D904FF000701B900DA800F0C9FC18B1BC
:101B0000FFE7FEF7B3FEFFE740F21800C2F2000065
:101B10000168013101600068012810D1FFE7FFE78B
:101B200041F25800C4F20200016841F00071016006
:101B3000006800F000700C900C98FFE7FFE7FFE7EB
:101B400041F24C00C4F20200016841F00101016061
:101B5000006800F001000B900B98FFE74FF4C050B5
:101B600022900220239000200590249025900920A7
:101B700026904FF0904022A900F034F9059A1520E4
:101B80000490114600F080FB049800F073FB059A66
:101B900016200690114600F077FB069800F06AFBCD
:101BA000B8E02798006846F60001C4F200018842B8
:101BB0005DD1FFE74FF480500D904FF000701B9007
:101BC0000DA800F065FC18B1FFE7FEF74FFEFFE738
:101BD00040F21800C2F200000168013101600068A3
:101BE000012810D1FFE7FFE741F25800C4F20200DC
:101BF000016841F000710160006800F000700A9017
:101C00000A98FFE7FFE7FFE741F24C00C4F2020049
:101C1000016841F002010160006800F002000990D3
:101C20000998FFE74FF440502290022023900020B3
:101C30000290249025900920269040F20040C4F69E
:101C4000000022A900F0CEF8029A56200190114619
:101C500000F01AFB019800F00DFB029A5720039048
:101C6000114600F011FB039800F004FB51E02798A7
:101C7000006846F60041C4F20001884248D1FFE7FF
:101C80004FF480500D904FF000701B900DA800F0A5
:101C9000FFFB18B1FFE7FEF7E9FDFFE740F2180090
:101CA000C2F200000168013101600068012810D112
:101CB000FFE7FFE741F25800C4F20200016841F07B
:101CC00000710160006800F0007008900898FFE75C
:101CD000FFE7FFE741F24C00C4F20200016841F067
:101CE00001010160006800F0010007900798FFE71C
:101CF0004FF4014022900220239000202490259050
:101D00000B2026904FF0904022A900F06BF8FFE7DF
:101D1000FFE7FFE728B080BD80B582B00190009159
:101D20009DF80000C00728B1FFE70198402104F0AA
:101D300007F8FFE702B080BD80B582B00190009146
:101D40009DF800000007002805D5FFE70198412114
:101D500003F0F6FFFFE702B080BD000082B0009004
:101D6000009890F85C00012810D1FFE7009902204C
:101D700081F85C0000980168886920F001008861A2
:101D80000099002008668DF8070008E00099086EA9
:101D900040F00400086601208DF80700FFE79DF879
:101DA000070002B07047000081B0009001B070479A
:101DB00081B0009001B0704782B00190009102B0F4
:101DC0007047000082B00190009102B0704700009F
:101DD00082B00190009102B07047000081B0009085
:101DE00001B070478BB00A90099100200890FFE77E
:101DF000099800680899C840002800F0A581FFE70D
:101E000009980068089A01219140084007900798B6
:101E1000002800F09581FFE70998406800F0030072
:101E2000012807D0FFE70998406800F00300022866
:101E30002FD1FFE70A988068069008984100032098
:101E400000FA01F10698884306900998C06808993D
:101E5000490000FA01F106980843069006980A998D
:101E600088600A98406806900899012000FA01F1FC
:101E700006988843069009984068C0F300100899B6
:101E800000FA01F106980843069006980A994860FE
:101E9000FFE70998406800F00300032818D0FFE727
:101EA0000A98C068069008984100032000FA01F1E2
:101EB000069888430690099880680899490000FAB6
:101EC00001F106980843069006980A99C860FFE752
:101ED0000998406800F00300022826D1FFE70A981D
:101EE00008996FF0030202EA51010844006A069063
:101EF000089800F0070081000F2000FA01F1069811
:101F00008843069009980069089901F00701890043
:101F100000FA01F106980843069006980A99089B72
:101F200002EA530211440862FFE70A98006806902B
:101F300008984100032000FA01F1069888430690B2
:101F40000998406800F003000899490000FA01F17F
:101F500006980843069006980A99086009988079BF
:101F60008007002800F0EB80FFE7FFE741F2600008
:101F7000C4F20200016841F001010160006800F054
:101F8000010005900598FFE7089820F0030008215C
:101F9000C4F2010140580690089800F00300810047
:101FA0000F2000FA01F10698884306900A98B0F1D4
:101FB000904F03D1FFE70020049042E00A9840F2DE
:101FC0000041C4F60001884203D1FFE701200390DD
:101FD00034E00A9840F60001C4F60001884203D1BB
:101FE000FFE70220029026E00A9840F60041C4F67E
:101FF0000001884203D1FFE70320019018E00A980E
:1020000041F20001C4F60001884203D1FFE7042039
:1020100000900AE00A9941F20042C4F6000206204C
:10202000914208BF05200090FFE700980190FFE76C
:1020300001980290FFE702980390FFE7039804904D
:10204000FFE70498089901F00301890000FA01F103
:102050000698084306900698089921F00301082283
:10206000C4F20102885040F20840C4F20100006846
:102070000690079906988843069009988079C006CB
:10208000002805D5FFE70799069808430690FFE763
:10209000069840F20841C4F20101086040F20C4089
:1020A000C4F20100006806900799069888430690DC
:1020B000099880798006002805D5FFE707990698DA
:1020C00008430690FFE7069840F20C41C4F2010174
:1020D000086040F20440C4F20100006806900799CD
:1020E000069888430690099880798007002805D5CE
:1020F000FFE70799069808430690FFE7069840F225
:102100000441C4F20101086040F20040C4F2010041
:102110000068069007990698884306900998807988
:10212000C00728B1FFE70799069808430690FFE724
:10213000069840F20041C4F201010860FFE7FFE7A2
:1021400008980130089053E60BB0704741F6D01064
:10215000C2F200000068704740F20C00C2F20000BA
:10216000026841F6D011C2F200010868104408600C
:102170007047000080B582B000208DF80700032072
:1021800000F09AF80F2000F00DF820B1FFE70120D1
:102190008DF8070002E000F049F8FFE79DF807001E
:1021A00002B080BD80B582B0019000208DF80300A0
:1021B00040F20C00C2F20000006878B3FFE740F282
:1021C0000400C2F20000006840F20C01C2F20001FB
:1021D0000A684FF47A71B1FBF2F1B0FBF1F001F053
:1021E00005FAB0B9FFE701980F280DD8FFE701996C
:1021F0004FF0FF30002200F047F8019840F2100144
:10220000C2F20001086003E001208DF80300FFE73F
:1022100003E001208DF80300FFE703E001208DF8C3
:102220000300FFE79DF8030002B080BD80B582B0D7
:10223000FFE741F26000C4F20200016841F00101D1
:102240000160006800F0010001900198FFE7FFE7DE
:1022500041F25800C4F20200016841F0805101606F
:10226000006800F0805000900098FFE700F006F949
:1022700002B080BD80B582B08DF807009DF90700DF
:1022800002F040FF02B080BD80B586B08DF8170027
:102290000491039202F04EFF02909DF91700019005
:1022A00002980499039A02F01FF80146019802F07F
:1022B00049FF06B080BD000080B582B00190019852
:1022C00002F062FF02B080BD85B003900398002841
:1022D0005ED1FFE747F20000C4F20000006800F49E
:1022E000C060B0F5806F49D1FFE747F28001C4F2CA
:1022F0000001086820F48070086047F20002C4F210
:1023000000021168012060F34A21116040F20401CB
:10231000C2F200010968322251434DF68362C4F2D1
:102320001B32A1FB022100EB91400290FFE747F234
:102330001400C4F200000168002049050029019042
:1023400006D5FFE70298002818BF01200190FFE79B
:102350000198C00720B1FFE7029801380290E6E734
:1023600047F21400C4F2000000684005002804D5BC
:10237000FFE703208DF813007CE008E047F28001BE
:10238000C4F20001086820F480700860FFE76DE087
:102390000398B0F5007F5ED1FFE747F20000C4F27A
:1023A0000000006800F4C060B0F5806F49D1FFE71D
:1023B00047F28001C4F20001086840F480700860B0
:1023C00047F20002C4F200021168012060F34A21C2
:1023D000116040F20401C2F2000109683222514347
:1023E0004DF68362C4F21B32A1FB022100EB914047
:1023F0000290FFE747F21400C4F2000001680020D9
:1024000049050029009006D5FFE70298002818BF6B
:1024100001200090FFE70098C00720B1FFE7029875
:1024200001380290E6E747F21400C4F200000068A9
:102430004005002804D5FFE703208DF8130019E0BC
:1024400008E047F28001C4F20001086840F480709F
:102450000860FFE709E047F20001C4F200010868E4
:10246000022262F34A200860FFE7FFE700208DF8B0
:102470001300FFE79DF8130005B0704747F208010D
:10248000C4F20001086840F4804008607047000012
:1024900080B586B0059000208DF80B008DF80A00FD
:1024A000059880780007002840F1B580FFE70020FC
:1024B0008DF8090041F25800C4F202000068C00023
:1024C000002813D4FFE7FFE741F25800C4F20200EE
:1024D000016841F080510160006800F08050019077
:1024E0000198FFE701208DF80900FFE747F200019E
:1024F000C4F20001086840F480700860FFF726FE0F
:102500000390FFE747F20000C4F200000068C00536
:1025100000280CD4FFE7FFF719FE0399401A03289F
:1025200004D3FFE703208DF80B0000E0EAE79DF8F5
:102530000B0000285BD1FFE741F29000C4F20200DB
:10254000006800F4407004900498C8B1FFE7049854
:102550000599096D884213D0FFE741F29001C4F25A
:102560000201086820F440700490086840F480304C
:102570000860086820F48030086004980860FFE76D
:102580009DF81000C007E0B1FFE7FFF7DFFD039003
:10259000FFE741F29000C4F20200006880070028C3
:1025A0000ED4FFE7FFF7D2FD0399401A41F28931BB
:1025B000884204D3FFE703208DF80B0000E0E8E732
:1025C000FFE79DF80B0060B9FFE741F29001C4F20C
:1025D0000201086820F44070059A126D10430860EB
:1025E00004E09DF80B008DF80A00FFE704E09DF879
:1025F0000B008DF80A00FFE79DF80900012809D1BA
:10260000FFE741F25801C4F20201086820F080504F
:102610000860FFE7FFE705980078C00760B1FFE7B3
:1026200041F28801C4F20201086820F00300059A13
:10263000526810430860FFE705980078800700287B
:102640000CD5FFE741F28801C4F20201086820F0CE
:102650000C00059A926810430860FFE7059800781F
:10266000400700280CD5FFE741F28801C4F20201BF
:10267000086820F03000059AD26810430860FFE730
:1026800005980078000700280CD5FFE741F2880183
:10269000C4F20201086820F0C000059A12691043D4
:1026A0000860FFE705980078C00600280CD5FFE712
:1026B00041F28801C4F20201086820F44070059AD2
:1026C000526910430860FFE70598007880060028EB
:1026D0000CD5FFE741F28801C4F20201086820F43A
:1026E0004060059A926910430860FFE705980078FA
:1026F000400600280CD5FFE741F28801C4F2020130
:10270000086820F44050059AD26910430860FFE73A
:1027100005980078000600280CD5FFE741F28801F3
:10272000C4F20201086820F44040059A126A10437E
:102730000860FFE705984078C00760B1FFE741F205
:102740008801C4F20201086820F44030059A526AF8
:1027500010430860FFE705988078800700280CD5B3
:10276000FFE741F29C01C4F20201086820F0030077
:10277000059A926A10430860FFE705984078800741
:1027800000280CD5FFE741F28801C4F20201086875
:1027900020F44020059AD26A10430860FFE70598AC
:1027A0004078400700281BD5FFE741F28801C4F2BA
:1027B0000201086820F44010059A126B104308606B
:1027C0000598006BB0F5801F09D1FFE741F20C01BD
:1027D000C4F20201086840F480100860FFE7FFE7D8
:1027E00005984078000700281BD5FFE741F28801D3
:1027F000C4F20201086820F44000059A526B1043AD
:1028000008600598406BB0F5800F09D1FFE741F2F1
:102810000C01C4F20201086840F480100860FFE770
:10282000FFE705984078C00600281BD5FFE741F276
:102830008801C4F20201086820F04070059A926B8A
:10284000104308600598806BB0F1807F09D1FFE7E5
:1028500041F20C01C4F20201086840F480100860E3
:10286000FFE7FFE705984078800600281BD5FFE7C3
:1028700041F28801C4F20201086820F04060059A24
:10288000D26B104308600598C06BB0F1006F09D19E
:10289000FFE741F20C01C4F20201086840F4801025
:1028A0000860FFE7FFE705984078400600281BD541
:1028B000FFE741F28801C4F20201086820F040609D
:1028C000059A126C104308600598006CB0F1006F17
:1028D00009D1FFE741F20C01C4F20201086840F49B
:1028E00080100860FFE7FFE70598407800060028A1
:1028F0001BD5FFE741F28801C4F20201086820F00D
:102900004050059A526C104308600598406CB0F135
:10291000805F09D1FFE741F20C01C4F202010868AF
:1029200040F480300860FFE7FFE705988078C00733
:10293000D8B1FFE741F28801C4F20201086820F033
:102940004040059A926C104308600598806CB0F185
:10295000804F09D1FFE741F20C01C4F2020108687F
:1029600040F480300860FFE7FFE705988078400773
:1029700000281BD5FFE741F29C01C4F20201086860
:1029800020F44010059AD26C104308600598C06C82
:10299000B0F5001F09D1FFE741F20C01C4F20201BA
:1029A000086840F480100860FFE7FFE79DF80A0020
:1029B00006B080BD80B586B00490039100200090E1
:1029C000049820B9FFE701208DF8170081E10398F2
:1029D00042F20001C4F20201096801F00F018842CD
:1029E00016D9FFE742F20000C4F20200016821F0AC
:1029F0000F01039A11430160006800F00F00039972
:102A0000884204D0FFE701208DF8170061E1FFE75D
:102A100004980078C007002800F0A380FFE704981E
:102A20004068032839D1FFE741F20000C4F20200F8
:102A300000688001002804D4FFE701208DF817000A
:102A400047E101F00DFD019001984BF20141C0F208
:102A5000C441884220D3FFE741F20800C4F20200DB
:102A6000006810F0F00F0AD0FFE7049800788007A4
:102A7000002810D5FFE70498806860B9FFE741F2AD
:102A80000801C4F202010868082262F30710086016
:102A900080200090FFE7FFE738E0049840680228B4
:102AA0000ED1FFE741F20000C4F20200006880038B
:102AB000002804D4FFE701208DF8170009E10DE09C
:102AC00041F20000C4F2020000684005002804D46E
:102AD000FFE701208DF81700FBE0FFE700F02CF97D
:102AE000019001984BF20141C0F2C44188420CD3DD
:102AF000FFE741F20801C4F202010868082262F30C
:102B00000710086080200090FFE7FFE741F208010E
:102B1000C4F20201086820F00300049A52681043CE
:102B20000860FFF713FB0290FFE741F20800C4F2D0
:102B30000200006800F00C0004994968B0EB810FB6
:102B40000ED0FFE7FFF702FB0299401A41F28931EC
:102B5000884204D3FFE703208DF81700B9E0E4E7CB
:102B6000FFE704980078800700282CD5FFE7049839
:102B700000784007002809D5FFE741F20801C4F2B8
:102B80000201086840F4E0600860FFE704980078FC
:102B9000000700280BD5FFE741F20801C4F202014B
:102BA000086840F4E06020F460500860FFE741F2FC
:102BB0000801C4F20201086820F0F000049A92684B
:102BC000104308600DE00098802809D1FFE741F22A
:102BD0000801C4F20201086820F0F0000860FFE775
:102BE000FFE7039842F20001C4F20201096801F014
:102BF0000F01884228D2FFE742F20001C4F202012D
:102C0000086820F00F00039A10430860FFF79EFA4F
:102C10000290FFE742F20000C4F20200006800F0F8
:102C20000F00039988420ED0FFE7FFF78FFA029951
:102C3000401A41F28931884204D3FFE703208DF81E
:102C4000170046E0E6E7FFE7049800784007002811
:102C50000CD5FFE741F20801C4F20201086820F434
:102C6000E060049AD26810430860FFE70498007897
:102C7000000700280DD5FFE741F20801C4F2020168
:102C8000086820F46050049A126940EAC2000860A3
:102C9000FFE700F051F841F20801C4F202010968AF
:102CA000C9B20A0946F6F211C0F60001895C01F0CA
:102CB0001F01C84040F20401C2F20001086040F266
:102CC0001000C2F200000068FFF76CFA8DF81700E0
:102CD000FFE79DF8170006B080BD000040F2040039
:102CE000C2F200000068704780B5FFF7F7FF41F2BD
:102CF0000801C4F202010968C1F3022246F602216A
:102D0000C0F60001895C01F01F01C84080BD0000D1
:102D100080B5FFF7E3FF41F20801C4F20201096840
:102D2000C1F3C22246F60221C0F60001895C01F01F
:102D30001F01C84080BD000086B041F20800C4F207
:102D40000200006800F00C00042806D1FFE742F200
:102D50000040C0F2F400019069E041F20800C4F2C2
:102D60000200006800F00C00082806D1FFE741F2DD
:102D70000020C0F27A00019058E041F20800C4F24D
:102D80000200006800F00C000C284BD1FFE741F274
:102D90000C00C4F20200016801F003010491006814
:102DA000C1B2012000EB111002900498009002289B
:102DB00015D0FFE70098032812D1FFE7029941F2EE
:102DC0000020C0F27A00B0FBF1F041F20C01C4F235
:102DD00002010968C1F306214843059011E0FFE7AD
:102DE000029942F20040C0F2F400B0FBF1F041F26F
:102DF0000C01C4F202010968C1F3062148430590A1
:102E0000FFE741F20C00C4F20200006800F0C0616C
:102E1000022000EB1160039005980399B0FBF1F0DC
:102E2000019002E000200190FFE7FFE7FFE7019833
:102E300006B07047B0B588B00690069820B9FFE795
:102E400001208DF81F00CCE306980078C007002809
:102E500000F09B80FFE741F20800C4F20200006826
:102E600000F00C00049041F20C00C4F20200006873
:102E700000F00300039004980C2804D1FFE70398A6
:102E8000032804D0FFE70498082812D1FFE741F295
:102E90000000C4F2020000688003002808D5FFE7A4
:102EA0000698406820B9FFE701208DF81F0098E3DD
:102EB0006AE0FFE706984068B0F5803F09D1FFE778
:102EC00041F20001C4F20201086840F48030086059
:102ED00020E006984068B0F5A02F0DD1FFE741F241
:102EE0000001C4F20201086840F48020086008680C
:102EF00040F4803008600CE041F20001C4F20201AD
:102F0000086820F480300860086820F48020086099
:102F1000FFE7FFE7FFE706984068D0B1FFE7FFF75C
:102F200015F90590FFE741F20000C4F202000068C5
:102F3000800300280CD4FFE7FFF708F90599401A31
:102F4000652804D3FFE703208DF81F0049E3EAE773
:102F500019E0FFF7FBF80590FFE741F20000C4F22B
:102F600002000068800300280CD5FFE7FFF7EEF8A9
:102F70000599401A652804D3FFE703208DF81F0048
:102F80002FE3EAE7FFE7FFE7FFE70698007880070F
:102F9000002840F19F80FFE741F20800C4F20200E0
:102FA000006800F00C00049041F20C00C4F2020032
:102FB000006800F00300039004980C2804D1FFE798
:102FC0000398022804D0FFE7049804282CD1FFE7D7
:102FD00041F20000C4F2020000684005002808D554
:102FE000FFE70698C06820B9FFE701208DF81F00B1
:102FF000F7E241F20401C4F20201086820F0FE4049
:10300000069A126940EA0260086040F21000C2F2BB
:1030100000000068FFF7C6F820B1FFE701208DF837
:103020001F00DEE2FFE754E00698C06870B3FFE7D8
:1030300041F20001C4F20201086840F480700860A7
:10304000FFF784F80590FFE741F20000C4F20200A8
:103050000068400500280CD4FFE7FFF777F80599D2
:10306000401A032804D3FFE703208DF81F00B8E2BD
:10307000EAE741F20401C4F20201086820F0FE40D0
:10308000069A126940EA0260086021E041F20001FC
:10309000C4F20201086820F480700860FFF756F857
:1030A0000590FFE741F20000C4F20200006840050D
:1030B00000280CD5FFE7FFF749F80599401A0328C7
:1030C00004D3FFE703208DF81F008AE2EAE7FFE759
:1030D000FFE7FFE7069800780007002849D5FFE7DB
:1030E0000698406910B3FFE741F29401C4F202016F
:1030F000086840F001000860FFF728F80590FFE736
:1031000041F29400C4F202000068800700280CD449
:10311000FFE7FFF71BF80599401A032804D3FFE7E0
:1031200003208DF81F005CE2EAE721E041F2940100
:10313000C4F20201086820F001000860FFF706F8F9
:103140000590FFE741F29400C4F202000068800796
:1031500000280CD5FFE7FEF7F9FF0599401A032870
:1031600004D3FFE703208DF81F003AE2EAE7FFE708
:10317000FFE7069800784007002840F1C680FFE787
:1031800000208DF80B0041F25800C4F202000068E4
:10319000C000002813D4FFE7FFE741F25800C4F253
:1031A0000200016841F080510160006800F0805029
:1031B00001900198FFE701208DF80B00FFE747F22F
:1031C0000000C4F200000068C005002822D4FFE718
:1031D00047F20001C4F20001086840F48070086002
:1031E000FEF7B4FF0590FFE747F20000C4F20000CD
:1031F0000068C00500280CD4FFE7FEF7A7FF05997B
:10320000401A032804D3FFE703208DF81F00E8E1EC
:10321000EAE7FFE7FFE706988068012809D1FFE7A2
:1032200041F29001C4F20201086840F00100086018
:103230001FE00698806805280DD1FFE741F2900154
:10324000C4F20201086840F004000860086840F019
:10325000010008600CE041F29001C4F2020108682C
:1032600020F001000860086820F004000860FFE713
:10327000FFE7FFE706988068E0B1FFE7FEF766FF2B
:103280000590FFE741F29000C4F202000068800759
:1032900000280ED4FFE7FEF759FF0599401A41F2C6
:1032A0008931884204D3FFE703208DF81F0098E19D
:1032B000E8E71BE0FEF74AFF0590FFE741F29000C8
:1032C000C4F202000068800700280ED5FFE7FEF771
:1032D0003DFF0599401A41F28931884204D3FFE746
:1032E00003208DF81F007CE1E8E7FFE79DF80B0065
:1032F000012809D1FFE741F25801C4F20201086830
:1033000020F080500860FFE7FFE70698007880060D
:10331000002849D5FFE70698806910B3FFE741F21E
:103320009801C4F20201086840F001000860FEF74D
:103330000DFF0590FFE741F29800C4F2020000681B
:10334000800700280CD4FFE7FEF700FF0599401A1C
:10335000032804D3FFE703208DF81F0041E1EAE7CB
:1033600021E041F29801C4F20201086820F0010056
:103370000860FEF7EBFE0590FFE741F29800C4F20B
:1033800002000068800700280CD5FFE7FEF7DEFE8C
:103390000599401A032804D3FFE703208DF81F0086
:1033A0001FE1EAE7FFE7FFE70698C069002800F0A1
:1033B0001481FFE741F20800C4F20200006800F047
:1033C0000C000C2800F0B080FFE70698C0690228C6
:1033D0007CD1FFE741F20001C4F20201086820F04D
:1033E00080700860FEF7B2FE0590FFE741F2000032
:1033F000C4F202000068800100280CD5FFE7FEF748
:10340000A5FE0599401A032804D3FFE703208DF891
:103410001F00E6E0EAE741F20C01C4F2020108688D
:1034200048F20C02C0F29F121040DDF818C0DCF820
:103430002020DCF82450DCF828E0DCF82C306FF099
:103440000F0404EB0514224342EA0E22DCF830405C
:1034500040F2000ECFF6E07E0EEA045EAEF5001EEE
:1034600042EA0E02DCF834E04FF07E4C0CEA0E6CBF
:103470000CF17E4C42EA0C0242EAC362104308603F
:1034800041F20002C4F20202106840F08070106045
:10349000086840F080700860FEF758FE0590FFE76E
:1034A00041F20000C4F202000068800100280CD440
:1034B000FFE7FEF74BFE0599401A032804D3FFE708
:1034C00003208DF81F008CE0EAE72CE041F20001B8
:1034D000C4F20201086820F080700860FEF736FE32
:1034E0000590FFE741F20000C4F20200006880018D
:1034F00000280CD5FFE7FEF729FE0599401A03289E
:1035000004D3FFE703208DF81F006AE0EAE741F2E9
:103510000C01C4F2020108684FF6FC72CFF6EE62AD
:1035200010400860FFE757E00698C069012804D101
:10353000FFE701208DF81F0053E041F20C00C4F2B8
:10354000020000680390039800F003000699096ADE
:1035500088423BD1FFE7039800F0F00006994A6AE1
:103560006FF00F0101EB021188422FD1FFE70398A2
:1035700000F4FE400699896AB0EB012F26D1FFE7DF
:10358000039800F078400699C96AB0EBC16F1DD16D
:10359000FFE7039800F4C00006990A6B0021CFF6FC
:1035A000E07101EA0251A1F5001188420ED1FFE756
:1035B000039800F0C06006994A6B4FF07E4101EA23
:1035C000026101F17E41884204D0FFE701208DF8BD
:1035D0001F0006E0FFE7FFE7FFE700208DF81F0070
:1035E000FFE79DF81F0008B0B0BD000080B582B0B5
:1035F0000190019800F084FF02B080BD83B001907B
:10360000FFE7019890F88400012804D1FFE7022029
:103610008DF80B002CE00199012081F88400FFE770
:10362000FFE701992420C1F888000198006800682C
:10363000009001980168086820F001000860009877
:1036400020F00050009001990020486600980199F0
:103650000968086001992020C1F88800FFE70199F6
:10366000002081F88400FFE700208DF80B00FFE7C1
:103670009DF80B0003B0704782B00190ADF80210C6
:1036800002B0704781B0009001B0704780B584B03F
:1036900002900191FFE7029890F88400012804D17C
:1036A000FFE702208DF80F0032E00299012081F837
:1036B0008400FFE7FFE702992420C1F88800029800
:1036C00000680068009002980168086820F0010016
:1036D000086002980068806820F0606001990843E3
:1036E000029909688860029800F07CFF00980299AE
:1036F0000968086002992020C1F88800FFE7029954
:10370000002081F88400FFE700208DF80F00FFE71C
:103710009DF80F0004B080BD80B584B00290019187
:10372000FFE7029890F88400012804D1FFE7022007
:103730008DF80F0032E00299012081F88400FFE744
:10374000FFE702992420C1F8880002980068006809
:10375000009002980168086820F001000860029853
:103760000068806820F06040019908430299096868
:103770008860029800F036FF009802990968086096
:1037800002992020C1F88800FFE70299002081F803
:103790008400FFE700208DF80F00FFE79DF80F0081
:1037A00004B080BD81B0009001B0704781B000903E
:1037B00001B0704781B0009001B0704780B590B003
:1037C0000F900F980068C0690E900F98006800680D
:1037D0000D900F98006880680C900E9840F60F01CD
:1037E00008400B900B98E0B9FFE79DF83800800681
:1037F000002815D5FFE79DF834008006002806D480
:10380000FFE79DF83300C006002809D5FFE70F98B1
:10381000406F20B1FFE70F98416F8847FFE796E2BE
:10382000FFE70B98002800F00C81FFE70C980121BE
:10383000C1F20001084209D1FFE70D9840F22011C2
:10384000C0F20041084200F0FC80FFE79DF838001C
:10385000C00788B1FFE79DF83500C00760B1FFE7FA
:103860000F980168012008620F99D1F8900040F08C
:103870000100C1F89000FFE79DF83800800700289C
:1038800011D5FFE79DF83000C00760B1FFE70F9842
:103890000168022008620F99D1F8900040F00400FE
:1038A000C1F89000FFE79DF838004007002811D5C7
:1038B000FFE79DF83000C00760B1FFE70F9801688F
:1038C000042008620F99D1F8900040F00200C1F87E
:1038D0009000FFE79DF838000007002819D5FFE7A2
:1038E0009DF834008006002807D4FFE70C980121DA
:1038F000C1F2000108420CD0FFE70F9801680820D0
:1039000008620F99D1F8900040F00800C1F89000CB
:10391000FFE79DF839000007002813D5FFE79DF861
:103920003700400700280DD5FFE70F9801684FF4D6
:10393000006008620F99D1F8900040F02000C1F8B3
:103940009000FFE70F98D0F89000002878D0FFE7AC
:103950009DF838008006002815D5FFE79DF8340053
:103960008006002806D4FFE79DF83300C006002833
:1039700009D5FFE70F98406F20B1FFE70F98416F1F
:103980008847FFE7FFE70F98D0F890000A900F985C
:103990000068806800F04000402806D0FFE79DF8EE
:1039A000280010F0280F42D0FFE70F9800F0B6FF74
:1039B0000F98006880684006002833D5FFE7FFE7CE
:1039C000FFE70F98006850E8020F20F040000990D0
:1039D000FFE709990F98026842E802100028F0D129
:1039E000FFE7FFE70F98D0F88000B0B1FFE70F982E
:1039F000D0F8801044F6FD00C0F6000088630F98F0
:103A0000D0F88000FDF770F830B1FFE70F98D0F8DC
:103A10008000816B8847FFE703E00F98FFF7CAFE3D
:103A2000FFE703E00F98FFF7C5FEFFE707E00F98F9
:103A3000FFF7C0FE0F990020C1F89000FFE7FFE7F5
:103A400085E10F98C06E012840F02281FFE79DF8C4
:103A50003800C006002840F11B81FFE79DF83400C4
:103A6000C006002840F11481FFE70F98016810207C
:103A700008620F98006880684006002840F1A68020
:103A8000FFE70F98D0F8800000684068ADF822008A
:103A9000BDF8220000287CD0FFE7BDF822000F9976
:103AA000B1F85C10884274DAFFE7BDF822000F9984
:103AB000A1F85E000F98D0F88000006800688006CA
:103AC000002859D4FFE7FFE7FFE70F98006850E8A8
:103AD000000F20F480700790FFE707990F980268A5
:103AE00042E800100028F0D1FFE7FFE7FFE7FFE71B
:103AF0000F98006850E8020F20F001000690FFE7E1
:103B000006990F98026842E802100028F0D1FFE7FA
:103B1000FFE7FFE7FFE70F98006850E8020F20F08B
:103B200040000590FFE705990F98026842E80210EF
:103B30000028F0D1FFE7FFE70F992020C1F88C00A3
:103B40000F990020C866FFE7FFE70F98006850E86C
:103B5000000F20F010000490FFE704990F9802680E
:103B600042E800100028F0D1FFE7FFE70F98D0F8F7
:103B70008000FCF76BFFFFE70F99022008670F98A2
:103B8000B0F85C10B0F85E20891A89B2FFF774FDB6
:103B90001BE0BDF822000F99B1F85C10884213D1E8
:103BA000FFE70F98D0F880000068006880060028C2
:103BB00009D5FFE70F99022008670F98B0F85C104D
:103BC000FFF75AFDFFE7FFE7FFE7C0E00F99B1F805
:103BD0005C00B1F85E10401AADF80E000F98B0F816
:103BE0005E00002853D0FFE7BDF80E0000284ED03D
:103BF000FFE7FFE7FFE70F98006850E8000F20F4A9
:103C000090700290FFE702990F98026842E8001056
:103C10000028F0D1FFE7FFE7FFE7FFE70F98006814
:103C200050E8020F4FF6FE71CEF6FF71084001908A
:103C3000FFE701990F98026842E802100028EDD1D1
:103C4000FFE7FFE70F992020C1F88C000F990020B3
:103C5000C8660F994867FFE7FFE70F98006850E8CC
:103C6000000F20F010000090FFE700990F98026805
:103C700042E800100028F0D1FFE7FFE70F9902208B
:103C800008670F98BDF80E10FFF7F6FCFFE75EE03F
:103C90009DF83A00C00600280FD5FFE79DF83200D6
:103CA0004006002809D5FFE70F9801684FF48010FF
:103CB00008620F98FFF77AFD49E09DF8380000068A
:103CC000002815D5FFE79DF834000006002806D42B
:103CD000FFE79DF832000006002809D5FFE70F989E
:103CE000806F20B1FFE70F98816F8847FFE72EE0D4
:103CF0009DF83800400600280AD5FFE79DF83400FB
:103D00004006002804D5FFE70F9800F057FE1EE09C
:103D10009DF83A00000600280AD5FFE79DF8370015
:103D20004006002804D5FFE70F98FFF73BFD0EE0A3
:103D30009DF83B00C00750B1FFE79DF83700000633
:103D4000002804D5FFE70F98FFF79CFCFFE710B0B1
:103D500080BD000080B582B00090009820B9FFE7D8
:103D600001208DF8070046E00098806908B1FFE760
:103D700000E0FFE70098D0F8880040B9FFE700991D
:103D8000002081F88400009800F03AF8FFE70099DD
:103D90002420C1F8880000980168086820F001001C
:103DA00008600098806A20B1FFE7009800F05EFC90
:103DB000FFE7009800F024FE012804D1FFE701206E
:103DC0008DF8070017E000980168486820F49040DB
:103DD000486000980168886820F02A008860009890
:103DE0000168086840F001000860009800F0E2FCFB
:103DF0008DF80700FFE79DF8070002B080BD0000C6
:103E000080B5A0B01F9000201E901D901C901B90AC
:103E10001A9005A85421FCF733FA1F98006843F65E
:103E20000001C4F2010188426BD1FFE70120059037
:103E30000020069005A8FEF72BFB18B1FFE7FCF762
:103E400015FDFFE7FFE741F26000C4F202000168E0
:103E500041F480410160006800F4804004900498BF
:103E6000FFE7FFE741F24C00C4F20200016841F0B5
:103E700002010160006800F0020003900398FFE770
:103E8000C0201A9002201B90002001901C901D90D1
:103E900007201E9040F20040C4F600001AA9FDF76A
:103EA000A1FF019941F22450C2F2000002900822C1
:103EB000C4F202020260182242608160C160802266
:103EC000026141618161C1610162FCF71BFF18B1B0
:103ED000FFE7FCF7CBFCFFE7FFE71F9841F2245117
:103EE000C2F20001C0F880101F988862FFE7252009
:103EF000009000221146FEF7C7F90098FEF7BAF9C4
:103F0000FFE720B080BD000080B58AB0089007911F
:103F1000ADF81A2005930898D0F88800202840F0C2
:103F20008780FFE7079820B1FFE7BDF81A0020B9A6
:103F3000FFE701208DF827007EE008990020C1F8F6
:103F4000900008992120C1F88800FEF7FFF8029040
:103F5000BDF81A000899A1F85400BDF81A00089994
:103F6000A1F8560008988068B0F5805F09D1FFE796
:103F70000898006928B9FFE700200490079803908B
:103F800004E00798049000200390FFE7FFE70898FB
:103F9000B0F8560088B3FFE70898029B05996A4677
:103FA00011608021002201F01DF840B1FFE708995F
:103FB0002020C1F8880003208DF827003CE00498F9
:103FC00058B9FFE7039800886FF35F2008990968E4
:103FD000886203980230039008E0049800780899FA
:103FE00009688862049801300490FFE70899B1F8E5
:103FF00056000138A1F85600C9E70898029B0599B8
:104000006A4611604021002200F0ECFF40B1FFE75A
:1040100008992020C1F8880003208DF827000BE0C4
:1040200008992020C1F8880000208DF8270003E0BF
:1040300002208DF82700FFE79DF827000AB080BD19
:1040400081B0009001B07047FFE7FEE780B584B013
:10405000FFE741F24800C4F20200016841F00401A8
:104060000160006800F0040003900398FFE7FFE799
:1040700041F24800C4F20200016841F00101016010
:10408000006800F0010002900298FFE70B20019009
:1040900000221146FEF7F8F80198FEF7EBF804B09D
:1040A00080BD000080B582B041F28450C2F20000B1
:1040B000019046F20041C4F200010160002141601C
:1040C0008160C1600174417481744FF0110EC0F8B9
:1040D00014E0012282614FF0070CC0F81CC00223DB
:1040E0000362C0F824E08262C0F82CC0036342631C
:1040F0008263C163FDF77EFB18B1FFE7FCF7B6FBF7
:10410000FFE702B080BD000080B582B041F2E85008
:10411000C2F20000019046F60001C4F20001016005
:10412000002141608160C1600174417481744FF06D
:10413000110EC0F814E0012282614FF0070CC0F8A4
:104140001CC002230362C0F824E08262C0F82CC0C5
:10415000036342638263C163FDF74CFB18B1FFE761
:10416000FCF784FBFFE702B080BD000080B582B0A1
:1041700041F24C60C2F20000019046F60041C4F2E8
:1041800000010160002141608160C16001744174DF
:1041900081744FF0110EC0F814E0012282614FF0DB
:1041A000070CC0F81CC002230362C0F824E082623E
:1041B000C0F82CC0036342638263C163FDF71AFB3E
:1041C00018B1FFE7FCF752FBFFE702B080BD00002B
:1041D00084B0FFE741F24C00C4F20200016841F0F4
:1041E00004010160006800F0040003900398FFE7F9
:1041F000FFE741F24C00C4F20200016841F02001E7
:104200000160006800F0200002900298FFE7FFE7DD
:1042100041F24C00C4F20200016841F00201016069
:10422000006800F0020001900198FFE7FFE741F20B
:104230004C00C4F20200016841F001010160006815
:1042400000F0010000900098FFE704B07047000004
:1042500080B582B041F2B060C2F20000009043F637
:104260000001C4F2010101604FF4E131416000211D
:1042700001918160C16001610C2242618161C16173
:10428000016241628162FFF765FD18B1FFE7FCF74B
:10429000EDFAFFE741F2B060C2F200000021FFF743
:1042A0003BFA18B1FFE7FCF7E1FAFFE741F2B06033
:1042B000C2F200000021FFF7E9F918B1FFE7FCF7AF
:1042C000D5FAFFE741F2B060C2F20000FFF796F9BD
:1042D00018B1FFE7FCF7CAFAFFE702B080BD0000A3
:1042E000FFE7FEE7FFE7FEE788B00790069105923B
:1042F000079800F0070004900498C0F10700052813
:1043000003D3FFE70420019004E00498C0F1070004
:104310000190FFE70198039004980430062803D821
:10432000FFE70020009003E0049803380090FFE7C7
:104330000098029006980399012202FA01F10139CE
:104340000840029B984005999A40013A1140084361
:1043500008B070477047000088B007908DED060ADE
:10436000CDED050A0020049003900290019007987B
:10437000C06800909DED050A9DED061A30EE410AD9
:10438000079880ED040A079890ED000A90ED041A52
:1043900090ED052A31EE421A20EE010A8DED040A55
:1043A000079890ED010A90ED041A20EE010A8DEDB8
:1043B000030A079890ED020A90ED041A90ED053A71
:1043C00090ED062A33EE033A31EE431A31EE021A2B
:1043D00020EE010A8DED020A079948698861079964
:1043E000086948619DED040A9DED031A30EE010A4B
:1043F0009DED021A30EE010A8DED010A9DED011AC4
:104400009DED000A30EE010A8DED000A9DED000AD7
:10441000079890ED071AB4EE410AF1EE10FA04DDA8
:10442000FFE70798C06900900FE09DED000A07982C
:1044300090ED081AB4EE410AF1EE10FA04DAFFE743
:104440000798006A0090FFE7FFE700980799C860A7
:104450000098079948629DED000A08B07047000077
:1044600086B041F20C00C4F20200016801F00301C1
:1044700004910068C1B2012000EB11100290049871
:104480000090022815D0FFE70098032812D1FFE71B
:10449000029941F20020C0F27A00B0FBF1F041F243
:1044A0000C01C4F202010968C1F3062148430590DA
:1044B00011E0FFE7029942F20040C0F2F400B0FBC5
:1044C000F1F041F20C01C4F202010968C1F30621C6
:1044D00048430590FFE741F20C00C4F20200006877
:1044E00000F0C061022000EB116003900598039971
:1044F000B0FBF1F00190019806B0704770470000E2
:1045000080B582B0009000980138B0F1807F03D36D
:10451000FFE70120019019E0009801384EF21401E4
:10452000CEF2000108604FF0FF300F2100F00AFECC
:104530004EF21801CEF20001002008604EF2100287
:10454000CEF20002072111600190FFE7019802B04E
:1045500080BD000080B5FDF7FFFD80BD80B594B043
:1045600006A800903821FBF78BFE002005900490F0
:10457000039002900190FDF7A7FE0098012106919B
:104580004FF48031079102210D9103220E920F9179
:1045900055221092119112911391FEF74BFC18B114
:1045A000FFE7FCF763F9FFE70F200190032002907B
:1045B000002003900490059001A80421FEF7FAF969
:1045C00018B1FFE7FCF752F9FFE714B080BD000017
:1045D0004EF68851CEF20001086840F47000086081
:1045E0007047000082B001900198406E40B9FFE72B
:1045F00001990120A1F86A000199A1F8680032E050
:1046000008208DF803008DF802000198006880688A
:10461000C0F342608DF80100019800688068400F87
:104620008DF800009DF802009DF8002046F6222338
:10463000C0F60003995C484346F61A21C0F6000113
:104640008A5CB0FBF2F0019AA2F86A009DF80300C0
:104650009DF801209B5C5843895CB0FBF1F0019907
:10466000A1F86800FFE702B07047000081B0009039
:10467000009890F82800000700280BD5FFE7009865
:104680000068406820F40040009A1168926B104363
:104690004860FFE7009890F82800C00758B1FFE78E
:1046A00000980068406820F40030009A1168D26ACF
:1046B00010434860FFE7009890F828008007002822
:1046C0000BD5FFE700980068406820F48030009A1E
:1046D0001168126B10434860FFE7009890F82800BB
:1046E000400700280BD5FFE700980068406820F4D9
:1046F0008020009A1168526B10434860FFE70098D1
:1047000090F82800C00600280BD5FFE70098006845
:10471000806820F48050009A1168D26B1043886042
:10472000FFE7009890F82800800600280BD5FFE7E7
:1047300000980068806820F40050009A1168126C9C
:1047400010438860FFE7009890F828004006002892
:104750001CD5FFE700980068406820F48010009A9C
:104760001168526C104348600098406CB0F5801F8F
:104770000BD1FFE700980068406820F4C000009A61
:104780001168926C10434860FFE7FFE7009890F8CB
:104790002800000600280BD5FFE700980068406855
:1047A00020F40020009A1168D26C10434860FFE7A3
:1047B00001B0704780B588B0069006990020C1F816
:1047C0009000FDF7C3FC059006980068006800079C
:1047D00000282FD5FFE70698059B6A466FF07E41BB
:1047E00011604FF40011002200F0FCFB08B3FFE75A
:1047F000FFE7FFE70698006850E8000F20F0800010
:104800000490FFE704990698026842E80010002827
:10481000F0D1FFE7FFE706992020C1F88800FFE705
:104820000699002081F88400FFE703208DF81F001F
:104830005FE0FFE70698006800684007002842D55F
:10484000FFE70698059B6A466FF07E4111604FF4C2
:104850008001002200F0C6FBA0B3FFE7FFE7FFE7FF
:104860000698006850E8000F20F490700390FFE76E
:1048700003990698026842E800100028F0D1FFE78B
:10488000FFE7FFE7FFE70698006850E8020F20F017
:1048900001000290FFE702990698026842E80210C0
:1048A0000028F0D1FFE7FFE706992020C1F88C002F
:1048B000FFE70699002081F88400FFE703208DF8C8
:1048C0001F0016E0FFE706992020C1F8880006992E
:1048D000C1F88C0006990020C86606990867FFE7B2
:1048E0000699002081F88400FFE700208DF81F0062
:1048F000FFE79DF81F0008B080BD000080B582B0C2
:1049000001900198806A009000990020A1F85E0053
:104910000098FEF74FFF02B080BD000084B0039006
:10492000FFE7FFE70398006850E8000F20F490705D
:104930000290FFE702990398026842E800100028FD
:10494000F0D1FFE7FFE7FFE7FFE70398006850E8D3
:10495000020F4FF6FE71CEF6FF7108400190FFE79F
:1049600001990398026842E802100028EDD1FFE7A0
:10497000FFE70398C06E012814D1FFE7FFE7FFE7C8
:104980000398006850E8000F20F010000090FFE747
:1049900000990398026842E800100028F0D1FFE770
:1049A000FFE7FFE703992020C1F88C00039900205E
:1049B000C8660399486704B07047000080B582B0AC
:1049C0000190FFE7FFE70198006850E8000F20F032
:1049D00040000090FFE700990198026842E800104B
:1049E0000028F0D1FFE7FFE701992020C1F88800F7
:1049F0000199002088670198FFF722FB02B080BD73
:104A000080B592B0119000208DF8370011980068A1
:104A100048F20001C4F20001884201D1FFE700E042
:104A2000FFE7119988680B694A69C96918431043FF
:104A30000843109011980068006846F6F311CCF610
:104A4000FF7108401099084311990968086011988E
:104A50000068406820F44050119A1168D2681043F1
:104A600048601198806910901198006848F2000120
:104A7000C4F20001884206D0FFE71198016A10983D
:104A800008431090FFE71198006880684FF2FF41DB
:104A9000C1F2FF1108401099084311990968886014
:104AA00011980068C06A20F00F00119A1168526ACC
:104AB0001043C862FFE71198006843F60001C4F292
:104AC0000101884225D1FFE741F28800C4F20200CB
:104AD000006800F0030001460A91032814D80A99DF
:104AE000DFE801F0020A060E01208DF83D000FE01C
:104AF00002208DF83D000BE004208DF83D0007E01A
:104B000008208DF83D0003E010208DF83D00FFE700
:104B100015E11198006844F20041C4F20001884296
:104B20002AD1FFE741F28800C4F20200006800F0D9
:104B30000C00014609910C2819D80999DFE801F009
:104B4000071717170F1717170B1717171300002042
:104B50008DF83D000FE002208DF83D000BE00420B1
:104B60008DF83D0007E008208DF83D0003E010209F
:104B70008DF83D00FFE7E1E01198006844F6000180
:104B8000C4F2000188422CD1FFE741F28800C4F250
:104B90000200006800F030000146089160B1FFE7B4
:104BA0000898102810D0FFE70898202808D0FFE7C1
:104BB000089830280CD00FE000208DF83D000FE061
:104BC00002208DF83D000BE004208DF83D0007E049
:104BD00008208DF83D0003E010208DF83D00FFE730
:104BE000ABE01198006844F60041C4F2000188422D
:104BF0002CD1FFE741F28800C4F20200006800F007
:104C0000C0000146079160B1FFE70798402810D027
:104C1000FFE70798802808D0FFE70798C0280CD046
:104C20000FE000208DF83D000FE002208DF83D00E0
:104C30000BE004208DF83D0007E008208DF83D00D2
:104C400003E010208DF83D00FFE775E01198006843
:104C500045F20001C4F2000188422FD1FFE741F282
:104C60008800C4F20200006800F44070014606911A
:104C700078B1FFE70698B0F5807F12D0FFE706987D
:104C8000B0F5007F09D0FFE70698B0F5407F0CD063
:104C90000FE000208DF83D000FE002208DF83D0070
:104CA0000BE004208DF83D0007E008208DF83D0062
:104CB00003E010208DF83D00FFE73CE0119800680C
:104CC00048F20001C4F2000188422FD1FFE741F20F
:104CD0008800C4F20200006800F4406001460591BB
:104CE00078B1FFE70598B0F5806F12D0FFE705981F
:104CF000B0F5006F09D0FFE70598B0F5406F0CD014
:104D00000FE000208DF83D000FE002208DF83D00FF
:104D10000BE004208DF83D0007E008208DF83D00F1
:104D200003E010208DF83D00FFE703E010208DF830
:104D30003D00FFE7FFE7FFE7FFE7FFE7FFE7FFE7EC
:104D40001198006848F20001C4F20001884240F066
:104D50007E80FFE79DF83D0001460491082819D8A0
:104D60000499DFE801F0051709170F17171713004B
:104D7000FDF7BAFF0B9013E042F20040C0F2F400DE
:104D80000B900DE0FDF7D8FF0B9009E04FF40040C9
:104D90000B9005E000200B9001208DF83700FFE715
:104DA0000B98002852D0FFE70B9811994A6A46F6F3
:104DB0002A21C0F6000131F81210B0FBF1F00C907E
:104DC0000C981199496801EB4101884207D3FFE72C
:104DD0000C9811994968B0EB013F04D9FFE7012015
:104DE0008DF8370031E00B9811994A6802924A6AAF
:104DF00046F62A21C0F6000131F812200023039361
:104E00001946FBF705FA029A039B090241EA106171
:104E1000000210EB520041F10001FBF7F9F90E908E
:104E20000E98B0F5407F0BD3FFE70E990020B0EB52
:104E3000115F05D1FFE70E9811990968C86003E07A
:104E400001208DF83700FFE7FFE7FFE7B9E0119891
:104E5000C069B0F5004F61D1FFE79DF83D00014604
:104E6000019108281DD80199DFE801F005090D1B03
:104E7000131B1B1B1700FDF737FF0B9017E0FDF707
:104E800047FF0B9013E042F20040C0F2F4000B9099
:104E90000DE0FDF751FF0B9009E04FF400400B903F
:104EA00005E000200B9001208DF83700FFE70B98FC
:104EB00098B3FFE70B98119A5168536A46F62A2275
:104EC000C0F6000232F81320B0FBF2F0400000EB15
:104ED0005100B0FBF1F00E900E98102818D3FFE7A8
:104EE000BDF83A00A0B9FFE70E9820F00F00ADF82A
:104EF0003E000E9800F00E01BDF83E0040EA510061
:104F0000ADF83E00BDF83E0011990968C86003E0A5
:104F100001208DF83700FFE7FFE751E09DF83D00E5
:104F20000146009108281DD80099DFE801F0050925
:104F30000D1B131B1B1B1700FDF7D6FE0B9017E074
:104F4000FDF7E6FE0B9013E042F20040C0F2F400E1
:104F50000B900DE0FDF7F0FE0B9009E04FF40040E0
:104F60000B9005E000200B9001208DF83700FFE743
:104F70000B9820B3FFE70B98119A5168536A46F6D5
:104F80002A22C0F6000232F81320B0FBF2F000EB48
:104F90005100B0FBF1F00E900E9810280AD3FFE7F5
:104FA000BDF83A0030B9FFE7BDF83800119909683B
:104FB000C86003E001208DF83700FFE7FFE7FFE757
:104FC000FFE711990120A1F86A001199A1F8680082
:104FD000119900204867119988679DF8370012B031
:104FE00080BD000080B586B0DDF820C0049003913C
:104FF0008DF80B200193FFE704980068C0690399BE
:105000000840401AB0FA80F040099DF80B10884221
:1050100066D1FFE708980130002860D0FFE7FDF770
:1050200095F80199401A0899884203D8FFE7089833
:1050300020B9FFE703208DF8170055E004980068B9
:1050400000684007002849D5FFE70398802845D02D
:10505000FFE70398402841D0FFE704980068C06943
:1050600000F008010120B0EBD10F16D1FFE7049842
:1050700001680820009008620498FFF74FFC009830
:105080000499C1F89000FFE70499002081F884009A
:10509000FFE701208DF8170026E004980068C0693A
:1050A00000F400610120B0EBD12F16D1FFE7049886
:1050B00001684FF4006008620498FFF72FFC049920
:1050C0002020C1F89000FFE70499002081F88400B7
:1050D000FFE703208DF8170006E0FFE7FFE78BE707
:1050E00000208DF81700FFE79DF8170006B080BD7F
:1050F00080B541F2B060C2F20000FEF75FFB80BDF8
:10510000FFE7FEE781B08DF803009DF9030000285A
:105110000ED4FFE79DF9031001F01F02012090401B
:105120004A094EF20011CEF2000141F82200FFE7D9
:1051300001B070474EF60C50CEF200000068C0F38C
:105140000220704782B08DF8070000919DF907009A
:1051500000280AD4FFE7009800019DF907104EF2DD
:105160000042CEF2000288540BE0009800019DF846
:10517000071001F00F014EF61452CEF200028854CF
:10518000FFE702B07047000083B00290029800F081
:10519000070000904EF60C51CEF200010868019015
:1051A00001984FF6FF02104001900198009A40EAE2
:1051B00002200022C0F2FA521043019001980860C8
:1051C00003B0704780B58CB0DDF838C00B908DF817
:1051D0002B10ADF828208DF827300B9820B1FFE771
:1051E0000B98006A08B9FFE72AE000F02DF80128C3
:1051F00001D0FFE724E09DF82B000006BDF8281041
:1052000040EA01209DF82710084400904FF08040AC
:1052100001900020029008210391049005900690CF
:10522000079008900B98006A0E9A6946FBF73EFFBC
:1052300018B1FFE7FBF71AFBFFE700F055F9FFE7AE
:105240000CB080BD704700000120704780B58EB063
:105250000D900C910B920D9818B1FFE70C9808B9BE
:10526000FFE7A1E00D980A900C98C07800F01F00AD
:105270008DF827009DF8270001460291022804D0EE
:10528000FFE7029811285BD08DE00C980068C0F30E
:1052900081500A9988750C98408800F03F000A995F
:1052A000C8750B980178407840EA0120ADF82400D9
:1052B0000B988178C07840EA0120ADF822000B9865
:1052C0000179407940EA0120ADF820000B988179FE
:1052D000C07940EA0120ADF81E00BDF824009FED22
:1052E000330ADFED330A1021019100F0DDFE019950
:1052F0000A9880ED000ABDF82200BBEE0E0AF3EE1C
:105300000E0A00F0D1FE01990A9880ED010ABDF85D
:105310002000BAEE080AF2EE080A00F0C5FE0A986C
:1053200080ED020ABDF81E0000EE100AB8EE400A39
:105330009FED201A20EE010A0A9880ED030A33E05F
:105340000B980088ADF81C00BDF81C0047F219014D
:10535000401A01460091042823D80099DFE801F0A3
:1053600003210A1118000B984068069006980A99C4
:10537000086017E00B984068059005980A99486006
:1053800010E00B984068049004980A99086109E0BD
:105390000B988088ADF80E00BDF80E000A9988823F
:1053A00000E0FFE700E0FFE70EB080BDDB0F49C182
:1053B000DB0F4941CDCCCC3D80B588B08DF81F00C6
:1053C0008DF81E1006929DF81F00012801DBFFE7F3
:1053D0002AE09DF81F0000EBC00140F21C00C2F261
:1053E000000000EB810005909DF81E0005994876AD
:1053F0000698059908620599042008764FF08040C8
:1054000000909DF81E00000201904FF6FF70029080
:105410000598039045F24D20C0F6000004900699CF
:10542000684600F01FFBFFE708B080BD80B582B082
:105430000190019800F026FE02B080BD82B08DF888
:1054400003009DF80300012803DBFFE70020019023
:105450000BE09DF8030000EBC00140F21C00C2F21B
:10546000000000EB81000190FFE7019802B0704757
:1054700080B582B001908DF803100198007E9DF8F0
:105480000310884201D1FFE70EE0019800F00EF80A
:1054900001989DF8032047F2050100F027F89DF8D8
:1054A000030001990876FFE702B080BD80B584B0A3
:1054B00003900022029201920398437EEC4601A9D8
:1054C000CCF800100421FFF77DFE04B080BD000081
:1054D00080B5FFF7B7FE41F28452C2F2000200200D
:1054E0000B21FFF769FF80BD7047000080B586B0D3
:1054F0000590ADF812108DF811200022039202924F
:10550000BDF81200ADF808009DF811008DF80C00F0
:105510000598437EEC4602A9CCF800101221FFF753
:1055200051FE06B080BD000081B0EFF3108072B66E
:10553000009001B07047000062B6704782B08DEDF8
:10554000010A40F66130C4F2B61000909DED010AE8
:105550009DED001A20EE010ABDEEC00A10EE100A01
:1055600002B0704780B592B08DF84700ADF8441096
:1055700010928DED0F0ACDED0E0A8DED0D1ACDEDC9
:105580000C1A8DED0B2ACDED0A2A8DED093ACDEDE1
:10559000083A8DED074ACDED064A9DF847000828E8
:1055A00001DBFFE744E09DF8470040F24002C2F211
:1055B0000002742110FB01200590BDF844000599FC
:1055C000A1F8680010980599086705990120887569
:1055D0000F98059988610E980599C8610D980599ED
:1055E00008620998059948630898059988630C989A
:1055F000059908640B98059948640A980599886488
:1056000007980599C86506980599086600200090D6
:105610000598B0F8680001900598039045F269601C
:10562000C0F6000004901099684600F01BFAFFE7EE
:1056300012B080BD82B08DF803009DF803000828E9
:1056400003DBFFE7002001900AE09DF8030040F231
:105650004002C2F20002742110FB01200190FFE71A
:10566000019802B07047000080B586B005900491A3
:105670000392059808B9FFE748E005980290029860
:10568000039900F0F7FB0299012081F86A00FCF70A
:105690005DFD0299C866029800F00EFC0298807DBC
:1056A00001281DD1FFE7029901F1180091ED030ACD
:1056B00091ED041AB8EEC00AF8EEC10AFEF74CFEEE
:1056C0008DED010A029901F14000B1F9021000EEDE
:1056D000101AB8EEC00ADDED010AFEF73DFE11E03A
:1056E000029901F14000B1F90220B1F9141000EE65
:1056F000102AB8EEC00A01EE101AF8EEC10AFEF741
:105700002BFEFFE7029800F003F8FFE706B080BD2C
:1057100080B596B0159000200590FFE70598072802
:1057200025DCFFE740F20800C2F200000078C00765
:1057300080B1FFE7059840F24002C2F200027421F6
:1057400000FB012090ED190ABDEEC00A10EE100A10
:10575000029002E000200290FFE70298059A06A955
:1057600021F81200FFE7059801300590D6E70020E8
:105770000D900E9008210F9110901190129013909F
:105780001490159890B1FFE7159840F24001C2F2CD
:10579000000188424CD3FFE7159840F24001C2F265
:1057A000000101F5AE71884242D8FFE74FF4007066
:1057B0000C909DF819008DF828009DF818008DF8C0
:1057C00029009DF81B008DF82A009DF81A008DF81D
:1057D0002B009DF81D008DF82C009DF81C008DF805
:1057E0002D009DF81F008DF82E009DF81E008DF8ED
:1057F0002F00159820B1FFE71598006F019006E083
:1058000040F24000C2F20000006F0190FFE70198F3
:105810000490049858B1FFE704980CA90AAAFBF772
:1058200045FC18B1FFE7FBF721F8FFE7FFE7FFE7CB
:105830001598A0B1FFE7159840F24001C2F20001AF
:1058400001F5E87188424DD3FFE7159840F2400119
:10585000C2F2000101F54B71884243D8FFE740F2E4
:10586000FF100C909DF821008DF828009DF8200075
:105870008DF829009DF823008DF82A009DF822005C
:105880008DF82B009DF825008DF82C009DF8240044
:105890008DF82D009DF827008DF82E009DF826002C
:1058A0008DF82F00159820B1FFE71598006F009034
:1058B00007E040F24000C2F20000D0F84002009041
:1058C000FFE700980390039858B1FFE703980CA9ED
:1058D0000AAAFBF7EBFB18B1FFE7FAF7C7FFFFE7F0
:1058E000FFE7FFE716B080BD80B582B00190009160
:1058F000019808B9FFE70AE0FFF716FE01990120B9
:105900008875009801990861FFF716FEFFE702B05D
:1059100080BD000080B58CB041F2E852C2F20002B6
:105920000192002040F201219FED310A8DED020A23
:10593000DFED300ACDED030A9FED2F1A8DED071A2A
:10594000F3EE081ACDED051A9FED2C2A8DED062AEF
:10595000DFED2B2ACDED042A9FED2A3A8DED083A92
:10596000DFED293ACDED093A9FED284ADFED284ACF
:10597000FFF7F8FD9DED020ADDED030ADDED042AD7
:10598000DDED051A9DED062A9DED071A9DED083AFD
:10599000DDED093A41F28452C2F20002012040F2E8
:1059A00002219FED1C4A8DED0A4ADFED1B4ACDED29
:1059B0000B4AFFF7D7FD019A9DED020ADDED030AC0
:1059C0009DED041ADDED051A9DED062ADDED072A91
:1059D0009DED083ADDED093A9DED0A4ADDED0B4AF1
:1059E000042040F20521FFF7BDFD0CB080BD00BFD3
:1059F0009A99193E6F12833A295C0F3D9A99993F03
:105A00008FC2F53C0000FA430000FAC300A00C4628
:105A100000A00CC600803B4600803BC681B0002041
:105A20000090FFE70098B0F5006F0EDAFFE7009AEC
:105A300040F22451C2F200014FF6FF7021F812002B
:105A4000FFE7009801300090ECE741F24C71C2F2A0
:105A500000010020087040F2E031C2F2000108703D
:105A600001B0704770B582B0019000910198006854
:105A700000284BD1FFE741F24C70C2F200000078E1
:105A80001F2806DCFFE701984068B0F5006F01D3DE
:105A9000FFE770E00198416840F22450C2F2000034
:105AA00030F811004FF6FF71884201D0FFE762E045
:105AB00041F24C71C2F20001087800EB800641F21D
:105AC0005075C2F2000505EB8602DDF804C0DCF873
:105AD00010E0DCF80040DCF80400DCF80830DCF80A
